{
  "transactions": [
    {
      "hash": "0xc46a3414756045a8f18c05d6835506e1cac5ca689abcb9181c2d62dd8dfbf6c4",
      "transactionType": "CREATE",
      "contractName": "LeftClawServicesV2",
      "contractAddress": "0xb3c4ecf74cb3427432adff277bb5c9b8fd9b71e0",
      "function": null,
      "arguments": [
        "0x9f86dB9fc6f7c9408e8Fda3Ff8ce4e78ac7a6b07",
        "0x833589fCD6eDb6E08f4c7C32D4f71b54bdA02913",
        "0x2626664c2603336E57B271c5C0b26F421741e481",
        "0x4200000000000000000000000000000000000006",
        "0x90eF2A9211A3E7CE788561E5af54C76B0Fa3aEd0"
      ],
      "transaction": {
        "from": "0x845e8c808e22469aaf07ace9ab7d26c875fbe44f",
        "gas": "0x660f9e",
        "value": "0x0",
        "input": "0x610100806040523461056f5760a081615ca280380380916100208285610573565b83398101031261056f5761003381610596565b61003f60208301610596565b9161004c60408201610596565b610064608061005d60608501610596565b9301610596565b331561055c575f8054336001600160a01b0319821681178355916001600160a01b03909116907f8be0079c531659141344cd1fd0a4f28419497f9722a3daafe3b4186f6b6457e09080a360017f9b779b17422d0df92223018b32b4d1fa46e071723d6817e2486d003becc55f00556001600160a01b038416918215158061054a575b6100ef906105aa565b6001600160a01b03169081151580610538575b61010b906105aa565b6001600160a01b0316918215610507576080526001600160a01b03851660a05260c05260e0829052600880546001600160a01b031916919091179055600160028190556004556040516001600160601b0319606094851b81166020830152607d60ea1b603483015291841b82166037820181905261027160ec1b604b8301529290931b16604e8301819052604283526101a5606284610573565b82516001600160401b03811161040d57600954600181811c911680156104fd575b60208210146103ef57601f811161048f575b506020601f821160011461042c57819293945f92610421575b50508160011b915f199060031b1c1916176009555b60405191602083015261027160ec1b60348301526037820152602b815261022e604b82610573565b80516001600160401b03811161040d57600a54600181811c91168015610403575b60208210146103ef57601f8111610381575b50602091601f8211600114610321579181925f92610316575b50508160011b915f199060031b1c191617600a555b6040516156c390816105df823960805181818161026f0152818161134f015281816129f401528181612de401528181613a1a0152818161403b0152614436015260a05181818161077101528181612fa301526143bd015260c05181818161079e0152818161241801528181612b610152612fd1015260e0518181816123b7015261348e0152f35b015190505f8061027a565b601f19821692600a5f52805f20915f5b85811061036957508360019510610351575b505050811b01600a5561028f565b01515f1960f88460031b161c191690555f8080610343565b91926020600181928685015181550194019201610331565b8181111561026157600a5f52601f820160051c7fc65a7bb8d6351c1cf70c95a316cc6a92839c986682d98bc35f958f4883f9d2a8602084106103e7575b81601f9101920160051c03905f5b8281106103da575050610261565b5f828201556001016103cc565b5f91506103be565b634e487b7160e01b5f52602260045260245ffd5b90607f169061024f565b634e487b7160e01b5f52604160045260245ffd5b015190505f806101f1565b601f1982169060095f52805f20915f5b8181106104775750958360019596971061045f575b505050811b01600955610206565b01515f1960f88460031b161c191690555f8080610451565b9192602060018192868b01518155019401920161043c565b818111156101d85760095f52601f820160051c7f6e1540171b6c0c960b71a7020d9f60077f6af931a8bbf590da0223dacf75c7af602084106104f5575b81601f9101920160051c03905f5b8281106104e85750506101d8565b5f828201556001016104da565b5f91506104cc565b90607f16906101c6565b60405162461bcd60e51b815260206004820152600960248201526821747265617375727960b81b6044820152606490fd5b506001600160a01b0384161515610102565b506001600160a01b03861615156100e6565b631e4fbdf760e01b5f525f60045260245ffd5b5f80fd5b601f909101601f19168101906001600160401b0382119082101761040d57604052565b51906001600160a01b038216820361056f57565b156105b157565b60405162461bcd60e51b815260206004820152600560248201526410b0b2323960d91b6044820152606490fdfe6080604052600436101561001a575b3615610018575f80fd5b005b5f3560e01c80630644100b14614840578063111b9a47146143ec57806311eac855146143a85780631321c95e146142e2578063153c6519146141da578063180aedf3146140665780631dffa3dc14613f6c57806321e92a5d14613aed57806325b86edf1461398b5780632df50a2114613851578063347ba9a6146134fa5780633aee7996146134bd5780633fc8cef3146134795780634ba43c2d14612f6b5780634c3912e714612eb057806361d027b314612e8857806363b2f3c914612c9b578063690d832014612bd4578063715018a614612b90578063735de9f714612b4c578063806ad57e14612a4a5780638da5cb5b14612a2357806390111b0d146129df578063948b29f914612382578063980db6f414612201578063a65c61f7146120bd578063aa15664514612090578063b0c2aa5e14612073578063b618d5a714611f9e578063be38eaff14611f81578063bf22c45714611cc7578063c1499f7114611c1c578063c4f987a514611bf3578063c5d1853714611b1f578063cf216ee21461175f578063d151909814611742578063d190508f1461153a578063d87dac29146114c6578063dd8f7d1b146113e4578063df5af13f146113b1578063e0d1efc814611262578063e7fba7cc1461114b578063f0f44260146110de578063f1a22dc21461109c578063f2fde38b1461102a578063f573453f14610cc8578063fbfc4dc3146106f75763ff49a4460361000e57346106f35761023c36614a9a565b92610248929192615242565b61025c670de0b6b3a7640000821015614cca565b610267841515614c96565b6102938130337f0000000000000000000000000000000000000000000000000000000000000000615348565b6102db600454936102a3856150b2565b600455826106df575b604051956102b9876148e4565b8587523360208801525f604088015283606088015284608088015236916151d6565b60a08501525f60c08501524260e08501525f6101008501525f61012085015260209360405161030a8682614900565b5f80825261014083019190915261016082018190526101808201525f6101a08201525f6101c08201526040516103408682614900565b5f8082526101e083019190915284815260038087526040918290208351815560208401516001820180546001600160a01b0319166001600160a01b03929092169190911790559183015160028301556060830151908201556080820151600482015560a0820151805160058301916001600160401b038211610605576103d0826103ca855461485b565b85614f0d565b8890601f831160011461067c576103f192915f9183610597575b5050614f51565b90555b60c082015160068110156105835761040f9060068301614daf565b60e08201516007820155610100820151600882015561012082015160098201556101408201518051600a8301916001600160401b03821161060557610458826103ca855461485b565b8890601f83116001146106195761047892915f9183610597575050614f51565b90555b610160820151600b820180546001600160a01b0319166001600160a01b03929092169190911781556101808301519091906104b890151583614ffd565b6101a083015190600482101561058357825460ff60a81b191660a89290921b60ff60a81b16919091179091556101c0820151600c8201556101e091909101518051600d9290920191906001600160401b0382116106055761051d826103ca855461485b565b8690601f83116001146105a25761053d92915f9183610597575050614f51565b90555b604080515f8152948501919091528301525f60608301525f60808301525f51602061566e5f395f51905f5260a03393a360015f51602061564e5f395f51905f5255005b634e487b7160e01b5f52602160045260245ffd5b015190505f806103ea565b90601f19831691845f52885f20925f5b8a8282106105ef5750509084600195949392106105d7575b505050811b019055610540565b01515f1960f88460031b161c191690555f80806105ca565b60018596829396860151815501950193016105b2565b634e487b7160e01b5f52604160045260245ffd5b90601f19831691845f528a5f20925f5b8c82821061066657505090846001959493921061064e575b505050811b01905561047b565b01515f1960f88460031b161c191690555f8080610641565b6001859682939686015181550195019301610629565b90601f19831691845f528a5f20925f5b8c8282106106c95750509084600195949392106106b1575b505050811b0190556103f4565b01515f1960f88460031b161c191690555f80806106a4565b600185968293968601518155019501930161068c565b6106eb83600754614e6a565b6007556102ac565b5f80fd5b346106f35760803660031901126106f357610710614ba4565b602435906044356001600160401b0381116106f357610733903690600401614a6d565b92909161073e615242565b6001600160a01b031692610753841515614d45565b5f61075d8361527a565b509161076a811515614c96565b60206108197f000000000000000000000000000000000000000000000000000000000000000061079c86303384615348565b7f00000000000000000000000000000000000000000000000000000000000000006001600160a01b0316906107d49087908390615458565b6040516107e0816148c9565b6107e86149c7565b81523084820152866040820152606435606082015260405195868094819363b858183f60e01b835260048301614f83565b03925af1918215610cbd575f92610c89575b506108746004549561083c876150b2565b60045583610c75575b60405192610852846148e4565b87845288602085015286604085015284606085015285608085015236916151d6565b60a08201525f60c08201524260e08201525f6101008201525f6101208201526020906040516108a38382614900565b5f808252610140830191909152610160820181905261018082015260016101a08201525f6101c08201526040516108da8382614900565b5f8082526101e083019190915286815260038084526040918290208351815560208401516001820180546001600160a01b0319166001600160a01b03929092169190911790559183015160028301556060830151908201556080820151600482015560a08201518051906001600160401b0382116106055761096c82610963600586015461485b565b60058601614f0d565b8490601f8311600114610c085761098c92915f9183610bfd575050614f51565b60058201555b60c08201516006811015610583576109ad9060068301614daf565b60e08201516007820155610100820151600882015561012082015160098201556101408201518051600a8301916001600160401b038211610605576109f6826103ca855461485b565b8590601f8311600114610b9a57610a1692915f9183610b8f575050614f51565b90555b610160820151600b820180546001600160a01b0319166001600160a01b0392909216919091178155610180830151909190610a5690151583614ffd565b6101a083015190600482101561058357825460ff60a81b191660a89290921b60ff60a81b16919091179091556101c0820151600c8201556101e091909101518051600d9290920191906001600160401b03821161060557610abb826103ca855461485b565b8390601f8311600114610b2c57610adb92915f9183610b21575050614f51565b90555b604080519485529084019190915282015260a081600160605f51602061566e5f395f51905f529401525f6080820152a360015f51602061564e5f395f51905f5255005b015190508a806103ea565b90601f19831691845f52855f20925f5b87828210610b79575050908460019594939210610b61575b505050811b019055610ade565b01515f1960f88460031b161c19169055898080610b54565b6001859682939686015181550195019301610b3c565b015190508c806103ea565b90601f19831691845f52875f20925f5b89828210610be7575050908460019594939210610bcf575b505050811b019055610a19565b01515f1960f88460031b161c191690558b8080610bc2565b6001859682939686015181550195019301610baa565b015190508b806103ea565b9190600584015f52855f20905f935b87601f1985168610610c5c57506001945083601f19811610610c44575b505050811b016005820155610992565b01515f1960f88460031b161c191690558a8080610c34565b8282015184559485019460019093019290910190610c17565b610c8184600754614e6a565b600755610845565b9091506020813d602011610cb5575b81610ca560209383614900565b810103126106f35751908661082b565b3d9150610c98565b6040513d5f823e3d90fd5b346106f35760603660031901126106f3576004356024356001600160401b0381116106f357610cfb903690600401614a6d565b916044356001600160401b0381116106f357610d1b903690600401614a6d565b9290610d25615242565b600554935f805b868110610ff0575b50610d43919293949550614fc7565b835f52600360205260405f20610d5b81541515614d13565b60ff6006820154166006811015610583576001610d78911461520c565b85151580610fe4575b15610fb75781610efd575b505050815f52600660205260405f2060405190610da882614893565b610db33686856151d6565b825260208201904282528054600160401b81101561060557610dda91600182018155614c51565b929092610eea57518051906001600160401b03821161060557610e0782610e01865461485b565b86614f0d565b602090601f8311600114610e725792610e3f83610e5c96946001945f5160206155ce5f395f51905f5299975f92610bfd575050614f51565b83555b519101556040519182916020835233966020840191614f63565b0390a360015f51602061564e5f395f51905f5255005b90601f19831691855f52815f20925f5b818110610ed25750936001935f5160206155ce5f395f51905f52989693859383610e5c9a9810610eba575b505050811b018355610e42565b01515f1960f88460031b161c191690558a8080610ead565b92936020600181928786015181550195019301610e82565b634e487b7160e01b5f525f60045260245ffd5b600d01916001600160401b03821161060557610f1d826103ca855461485b565b5f90601f8311600114610f5357610f3d92915f9183610f48575050614f51565b90555b838080610d8c565b0135905087806103ea565b601f19831691845f5260205f20925f5b818110610f9f5750908460019594939210610f86575b505050811b019055610f40565b01355f19600384901b60f8161c19169055868080610f79565b91936020600181928787013581550195019201610f63565b60405162461bcd60e51b8152602060048201526005602482015264216e6f746560d81b6044820152606490fd5b506101f4861115610d81565b610ff981614c7e565b905460039190911b1c6001600160a01b0316331461101957600101610d2c565b509394508493506001610d43610d34565b346106f35760203660031901126106f357611043614ba4565b61104b615432565b6001600160a01b03168015611089575f80546001600160a01b03198116831782556001600160a01b0316905f5160206155ee5f395f51905f529080a3005b631e4fbdf760e01b5f525f60045260245ffd5b346106f35760203660031901126106f3576004356005548110156106f3576110c5602091614c7e565b905460405160039290921b1c6001600160a01b03168152f35b346106f35760203660031901126106f3576110f7614ba4565b6110ff615432565b6001600160a01b0316611113811515614dd4565b600880546001600160a01b031916821790557f7dae230f18360d76a040c81f050aa14eb9d6dc7901b20fc5d855e2a20fe814d15f80a2005b346106f35760203660031901126106f357600435611167615432565b61116f615242565b805f52600360205260405f209061118882541515614d13565b600682019160ff835416916006831015610583575f936111b6846001600d9614908115611257575b5061520c565b600b83019160018060a01b03835416907f8ad9289dd306081b04cde0afd9df3d76fb823c98048090fcc4a5ac52b1b3d25f8780a3805460ff1916600517905580546001600160a01b0319169055600881018390550180546112169061485b565b601f8111611234575b505560015f51602061564e5f395f51905f5255005b801561121f578183526020832061125191601f0160051c90614ef2565b8261121f565b6002915014876111b0565b346106f35760203660031901126106f35760043561127e615242565b6005545f805b82811061137a575b506112979150614fc7565b805f52600360205260405f206112af81541515614d13565b6006810160ff8154166006811015610583576112cb9015614d7b565b600360ff19825416179055600381018054908161132a575b5050600101546001600160a01b0316907fd2762ab9963f262989c416c26fa7505667e4b4fe26af9ef39804a21b3ce261795f80a360015f51602061564e5f395f51905f5255005b61133961137392600754614dc7565b60075560018301549054906001600160a01b03167f00000000000000000000000000000000000000000000000000000000000000006153da565b82806112e3565b61138381614c7e565b905460039190911b1c6001600160a01b031633146113a357600101611284565b50505061129760018361128c565b346106f3575f3660031901126106f3576113e06113cc6149c7565b604051918291602083526020830190614a49565b0390f35b346106f35760203660031901126106f3576004356006811015806106f3576004545f60015b828110611481575061141a906150c0565b915f60015b83811061143457604051806113e08782614ad0565b8083915f52600360205260ff600660405f2001541691610583576006821015610583578660019214611467575b0161141f565b8061147b611474856150b2565b9488614e77565b52611461565b805f5260036020528360ff600660405f20015416906105835760068110156105835785146114b2575b600101611409565b906114be6001916150b2565b9190506114aa565b346106f35760403660031901126106f3576024356004355f52600660205260405f2080548210156106f357611530916114fe91614c51565b5060016040519161151a836115138184614b09565b0384614900565b0154604051928392604084526040840190614a49565b9060208301520390f35b346106f35760403660031901126106f3576004356024356001600160401b0381116106f35761156d903690600401614a6d565b91611576615242565b600554915f805b848110611708575b5061159291929350614fc7565b815f52600360205260405f206115aa81541515614d13565b6006810160ff81541660068110156105835760016115c8911461520c565b84156116d957805460ff19166002179055600a81016001600160401b038511610605576115ff856115f9835461485b565b83614f0d565b845f601f821160011461165d579161163382610e5c95935f51602061554e5f395f51905f5297955f91611652575b50614f51565b90555b6009429101556040519182916020835233966020840191614f63565b90508501358a61162d565b5f8381526020812092508790601f198216905b8181106116be575091610e5c9593915f51602061554e5f395f51905f52979593106116a5575b5050600187811b019055611636565b8401355f1960038a901b60f8161c191690558780611696565b8784013585556001909401936020938401938a935001611670565b60405162461bcd60e51b8152602060048201526007602482015266085c995cdd5b1d60ca1b6044820152606490fd5b61171181614c7e565b905460039190911b1c6001600160a01b031633146117315760010161157d565b509192508291506001611592611585565b346106f3575f3660031901126106f3576020600254604051908152f35b346106f35760803660031901126106f3576004356001600160401b0381116106f35761178f903690600401614a6d565b6024356001600160401b0381116106f3576117ae903690600401614a6d565b929091604435936064356117c0615432565b82151580611b16575b15611ae9576020956117dc821515614ebd565b600254956117e9876150b2565b600255604051936117f9856148ae565b8785526118073687896151d6565b948981019586526118193683856151d6565b604082019081526060820185815260808301918783526040986561637469766560d01b8a519e8f61184a8d82614900565b60068152015260a085019d8e528c5f526001602052895f209451855560018501905180519060018060401b0382116106055761188a826103ca855461485b565b602090601f8311600114611a86576118ab92915f9183610597575050614f51565b90555b51805160028501916001600160401b038211610605576118d2826103ca855461485b565b602090601f8311600114611a1d5791806118fa92600598979695945f92610597575050614f51565b90555b51600383015551600482015501985198895160018060401b038111610605576119308161192a845461485b565b84614f0d565b6020601f82116001146119a6578161198d95949392611966925f51602061560e5f395f51905f529d9e5f9261199b575050614f51565b90555b61197f865198899860808a5260808a0191614f63565b918783036020890152614f63565b9284015260608301520390a2005b015190508e806103ea565b601f19821690835f52805f20915f5b818110611a0557509183915f51602061560e5f395f51905f529d9e61198d98979695600195106119ed575b505050811b019055611969565b01515f1960f88460031b161c191690558d80806119e0565b8e8301518455600190930192602092830192016119b5565b90601f19831691845f52815f20925f5b818110611a6e575091600193918560059a999897969410611a56575b505050811b0190556118fd565b01515f1960f88460031b161c191690555f8080611a49565b92936020600181928786015181550195019301611a2d565b90601f19831691845f52815f20925f5b818110611ad15750908460019594939210611ab9575b505050811b0190556118ae565b01515f1960f88460031b161c191690555f8080611aac565b92936020600181928786015181550195019301611a96565b60405162461bcd60e51b8152602060048201526005602482015264216e616d6560d81b6044820152606490fd5b508115156117c9565b346106f35760203660031901126106f357600435611b3b614e3a565b5080151580611be8575b611b4e90614e8b565b5f5260016020526113e060405f206005611bcf60405192611b6e846148ae565b80548452604051611b8d81611b868160018601614b09565b0382614900565b6020850152604051611ba681611b868160028601614b09565b60408501526003810154606085015260048101546080850152611b866040518094819301614b09565b60a0820152604051918291602083526020830190614bba565b506002548110611b45565b346106f35760203660031901126106f357610018611c0f614ba4565b611c17615432565b6150fe565b346106f3575f3660031901126106f3576040518060206005549283815201809260055f5260205f20905f5b818110611ca85750505081611c5d910382614900565b604051918291602083019060208452518091526040830191905f5b818110611c86575050500390f35b82516001600160a01b0316845285945060209384019390920191600101611c78565b82546001600160a01b0316845260209093019260019283019201611c47565b346106f35760203660031901126106f35760043560606101e0604051611cec816148e4565b5f81525f60208201525f60408201525f838201525f60808201528260a08201525f60c08201525f60e08201525f6101008201525f610120820152826101408201525f6101608201525f6101808201525f6101a08201525f6101c08201520152805f526003602052611d6260405f20541515614d13565b5f52600360205260405f20604051611d79816148e4565b8154815260018201546001600160a01b031660208201526002820154604080830191909152600383015460608301526004830154608083015251611dc481611b868160058701614b09565b60a082015260ff60068301541691600683101561058357611e77600d916113e09460c0850152600781015460e085015260088101546101008501526009810154610120850152604051611e1e81611b8681600a8601614b09565b610140850152600b8101546001600160a01b03811661016086015260ff60a082901c81161515610180870152611e5c9160a81c166101a086016150f2565b600c8101546101c0850152611b866040518094819301614b09565b6101e0820152604051918291602083528051602084015260018060a01b0360208201511660408401526040810151606084015260608101516080840152608081015160a08401526101e0611f2c611edf60a084015161020060c0880152610220870190614a49565b611ef160c085015160e0880190614b8a565b60e0840151610100870152610100840151610120870152610120840151610140870152610140840151601f1987830301610160880152614a49565b9160018060a01b036101608201511661018086015261018081015115156101a0860152611f636101a08201516101c0870190614b97565b6101c0810151858301520151838203601f1901610200850152614a49565b346106f3575f3660031901126106f3576020600754604051908152f35b346106f35760203660031901126106f357611fb7614ba4565b6004546001600160a01b03909116905f60015b8281106120365750611fdb906150c0565b915f9060015b838110611ff657604051806113e08782614ad0565b806001915f52600360205282828060a01b038360405f200154161461201c575b01611fe1565b80612030612029866150b2565b9588614e77565b52612016565b5f818152600360205260409020600101546001600160a01b0316841461205f575b600101611fca565b9061206b6001916150b2565b919050612057565b346106f3575f3660031901126106f3576020600454604051908152f35b346106f35760203660031901126106f35760206120b36120ae614ba4565b615069565b6040519015158152f35b346106f35760203660031901126106f3576004356001600160401b0381116106f3576120ed903690600401614a6d565b6120f5615432565b6121026017821015615035565b6001600160401b0381116106055761211b600a5461485b565b601f81116121b3575b505f601f8211600114612154578190612144935f92612149575050614f51565b600a55005b0135905083806103ea565b601f19821692600a5f5260205f20915f5b85811061219b57508360019510612182575b505050811b01600a55005b01355f19600384901b60f8161c19169055828080612177565b90926020600181928686013581550194019101612165565b8181111561212457600a5f526121f3905f51602061558e5f395f51905f5290601f840160051c90602085106121f9575b601f82910160051c039101614ef2565b82612124565b5f91506121e3565b346106f35760203660031901126106f3576004356001600160401b0381116106f357612231903690600401614a6d565b9061223a615432565b612247602b831015615035565b6001600160401b0382116106055761226060095461485b565b601f811161233d575b505f91601f81116001146122c25761229781805f51602061556e5f395f51905f52955f916122b75750614f51565b6009555b6122b2604051928392602084526020840191614f63565b0390a1005b90508401358661162d565b60095f908152601f198216935f51602061562e5f395f51905f52915b8581106123255750825f51602061556e5f395f51905f52951061230c575b5050600181811b0160095561229b565b8301355f19600384901b60f8161c1916905583806122fc565b909160206001819285880135815501930191016122de565b828111156122695760095f5261237c905f51602061562e5f395f51905f5290601f850160051c90602086106121f957601f82910160051c039101614ef2565b82612269565b61238b36614c1a565b612393615242565b61239c8461527a565b50916123a9811515614c96565b34156129b4578115612985577f00000000000000000000000000000000000000000000000000000000000000006001600160a01b031691823b156106f357604051630d0e30db60e41b81525f8160048134885af18015610cbd57612975575b5060405163095ea7b360e01b81527f00000000000000000000000000000000000000000000000000000000000000006001600160a01b03166004820181905234602483015293602090829060449082905f905af18015610cbd57612939575b506124b35f936020926040519061247d826148c9565b612485614923565b82523085830152346040830152606082015260405195868094819363b858183f60e01b835260048301614f83565b03925af1918215610cbd575f92612905575b5061250e600454946124d6866150b2565b600455836128f1575b604051926124ec846148e4565b86845233602085015287604085015284606085015285608085015236916151d6565b60a08201525f60c08201524260e08201525f6101008201525f61012082015260209060405161253d8382614900565b5f808252610140830191909152610160820181905261018082015260026101a08201525f6101c08201526040516125748382614900565b5f8082526101e083019190915285815260038084526040918290208351815560208401516001820180546001600160a01b0319166001600160a01b03929092169190911790559183015160028301556060830151908201556080820151600482015560a08201518051906001600160401b038211610605576125fd82610963600586015461485b565b8490601f83116001146128845761261d92915f9183610b21575050614f51565b60058201555b60c082015160068110156105835761263e9060068301614daf565b60e08201516007820155610100820151600882015561012082015160098201556101408201518051600a8301916001600160401b03821161060557612687826103ca855461485b565b8590601f8311600114612821576126a792915f9183610bfd575050614f51565b90555b610160820151600b820180546001600160a01b0319166001600160a01b03929092169190911781556101808301519091906126e790151583614ffd565b6101a083015190600482101561058357825460ff60a81b191660a89290921b60ff60a81b16919091179091556101c0820151600c8201556101e091909101518051600d9290920191906001600160401b0382116106055761274c826103ca855461485b565b8390601f83116001146127be5761276c92915f91836127b3575050614f51565b90555b6040805195865290850191909152830152600260608301525f60808301525f51602061566e5f395f51905f5260a03393a360015f51602061564e5f395f51905f5255005b0151905089806103ea565b90601f19831691845f52855f20925f5b8782821061280b5750509084600195949392106127f3575b505050811b01905561276f565b01515f1960f88460031b161c191690558880806127e6565b60018596829396860151815501950193016127ce565b90601f19831691845f52875f20925f5b8982821061286e575050908460019594939210612856575b505050811b0190556126aa565b01515f1960f88460031b161c191690558a8080612849565b6001859682939686015181550195019301612831565b9190600584015f52855f20905f935b87601f19851686106128d857506001945083601f198116106128c0575b505050811b016005820155612623565b01515f1960f88460031b161c191690558980806128b0565b8282015184559485019460019093019290910190612893565b6128fd84600754614e6a565b6007556124df565b9091506020813d602011612931575b8161292160209383614900565b810103126106f3575190856124c5565b3d9150612914565b6020813d60201161296d575b8161295260209383614900565b810103126106f3575180151581036106f357506124b3612467565b3d9150612945565b5f61297f91614900565b86612408565b60405162461bcd60e51b8152602060048201526007602482015266085b5a5b93dd5d60ca1b6044820152606490fd5b606460405162461bcd60e51b8152602060048201526004602482015263042cae8d60e31b6044820152fd5b346106f3575f3660031901126106f3576040517f00000000000000000000000000000000000000000000000000000000000000006001600160a01b03168152602090f35b346106f3575f3660031901126106f3575f546040516001600160a01b039091168152602090f35b346106f35760203660031901126106f357612a63614ba4565b612a6b615432565b6001600160a01b03811690612a81821515614dd4565b600554905f5b828110612af85750600160401b82101561060557612aae826001612ad29401600555614c7e565b9080546001600160a01b0360039390931b83811b199091169290931690921b179055565b7fb10d2a24a8c3686841e966f0c2c64c385cfaecb50a09b16aa3579bfcf3989dcd5f80a2005b83612b0282614c7e565b905460039190911b1c6001600160a01b031614612b2157600101612a87565b606460405162461bcd60e51b81526020600482015260046024820152630216475760e41b6044820152fd5b346106f3575f3660031901126106f3576040517f00000000000000000000000000000000000000000000000000000000000000006001600160a01b03168152602090f35b346106f3575f3660031901126106f357612ba8615432565b5f80546001600160a01b0319811682556001600160a01b03165f5160206155ee5f395f51905f528280a3005b346106f35760203660031901126106f3576004356001600160a01b038116908190036106f3575f80808093612c07615432565b612c0f615242565b612c1a811515614dd4565b4790612c27821515614e08565b5af13d15612c96573d612c398161501a565b90612c476040519283614900565b81525f60203d92013e5b15612c695760015f51602061564e5f395f51905f5255005b60405162461bcd60e51b8152602060048201526005602482015264085cd95b9960da1b6044820152606490fd5b612c51565b346106f35760203660031901126106f357600435612cb7615242565b6005545f805b828110612e51575b50612cd09150614fc7565b805f52600360205260405f20612ce881541515614d13565b6006810160ff81541660068110156105835780612d0e9115908115612e46575b50614d7b565b805460ff19166001179055600b810180546001600160a01b03191633178155426008830155600d820180549192600392909190612d4a9061485b565b601f8111612e1f575b506010671858d8d95c1d195960c21b0190550180549182151580612e10575b612db0575b33847f4426e4a90a9570c8f678a263b11785eaaade8b79d76d18c43d4d8e00062e4f835f80a360015f51602061564e5f395f51905f5255005b612dbf612e0893600754614dc7565b600755805460ff60a01b1916600160a01b1790556008549054906001600160a01b03167f00000000000000000000000000000000000000000000000000000000000000006153da565b818080612d77565b5060ff815460a01c1615612d72565b6008811115612d5357612e4090825f52601f60205f20910160051c90614ef2565b85612d53565b600591501485612d08565b612e5a81614c7e565b905460039190911b1c6001600160a01b03163314612e7a57600101612cbd565b505050612cd0600183612cc5565b346106f3575f3660031901126106f3576008546040516001600160a01b039091168152602090f35b346106f35760203660031901126106f3576004355f52600160205260405f2080546113e060405192612ef084612ee98160018501614b09565b0385614900565b600560405191612f07836115138160028501614b09565b612f53600382015493612f29600484015493612ee96040518097819301614b09565b612f45604051988998895260c060208a015260c0890190614a49565b908782036040890152614a49565b926060860152608085015283820360a0850152614a49565b346106f3575f612f7a36614c1a565b91929390612f86615242565b602061304a612f948761527a565b5094612fa1841515614c96565b7f000000000000000000000000000000000000000000000000000000000000000090612fcf87303385615348565b7f00000000000000000000000000000000000000000000000000000000000000006001600160a01b0316916130079088908490615458565b60405190613014826148c9565b61301c6149c7565b82523085830152876040830152606082015260405195868094819363b858183f60e01b835260048301614f83565b03925af1918215610cbd575f92613445575b5061306d600454946124d6866150b2565b60a08201525f60c08201524260e08201525f6101008201525f61012082015260209060405161309c8382614900565b5f808252610140830191909152610160820181905261018082015260016101a08201525f6101c08201526040516130d38382614900565b5f8082526101e083019190915285815260038084526040918290208351815560208401516001820180546001600160a01b0319166001600160a01b03929092169190911790559183015160028301556060830151908201556080820151600482015560a08201518051906001600160401b0382116106055761315c82610963600586015461485b565b8490601f83116001146133d85761317c92915f9183610b21575050614f51565b60058201555b60c082015160068110156105835761319d9060068301614daf565b60e08201516007820155610100820151600882015561012082015160098201556101408201518051600a8301916001600160401b038211610605576131e6826103ca855461485b565b8590601f83116001146133755761320692915f9183610bfd575050614f51565b90555b610160820151600b820180546001600160a01b0319166001600160a01b039290921691909117815561018083015190919061324690151583614ffd565b6101a083015190600482101561058357825460ff60a81b191660a89290921b60ff60a81b16919091179091556101c0820151600c8201556101e091909101518051600d9290920191906001600160401b038211610605576132ab826103ca855461485b565b8390601f8311600114613312576132cb92915f91836127b3575050614f51565b90555b6040805195865290850191909152830152600160608301525f60808301525f51602061566e5f395f51905f5260a03393a360015f51602061564e5f395f51905f5255005b90601f19831691845f52855f20925f5b8782821061335f575050908460019594939210613347575b505050811b0190556132ce565b01515f1960f88460031b161c1916905588808061333a565b6001859682939686015181550195019301613322565b90601f19831691845f52875f20925f5b898282106133c25750509084600195949392106133aa575b505050811b019055613209565b01515f1960f88460031b161c191690558a808061339d565b6001859682939686015181550195019301613385565b9190600584015f52855f20905f935b87601f198516861061342c57506001945083601f19811610613414575b505050811b016005820155613182565b01515f1960f88460031b161c19169055898080613404565b82820151845594850194600190930192909101906133e7565b9091506020813d602011613471575b8161346160209383614900565b810103126106f35751908561305c565b3d9150613454565b346106f3575f3660031901126106f3576040517f00000000000000000000000000000000000000000000000000000000000000006001600160a01b03168152602090f35b346106f3575f3660031901126106f3576004545f1981019081116134e657602090604051908152f35b634e487b7160e01b5f52601160045260245ffd5b346106f35760c03660031901126106f3576004356024356001600160401b0381116106f35761352d903690600401614a6d565b91906044356001600160401b0381116106f35761354e903690600401614a6d565b93906064359060843560a4356001600160401b0381116106f357613576903690600401614a6d565b929097613581615432565b87151580613846575b61359390614e8b565b61359e831515614ebd565b875f52600160205260405f206001810160018060401b038811610605576135c9886115f9835461485b565b5f88601f81116001146137e257806135e7925f916137d75750614f51565b90555b60028101906001600160401b0383116106055761360b8361192a845461485b565b5f9183601f811160011461376e578061362d916005955f916137635750614f51565b90555b6003810187905560048101859055016001600160401b0385116106055761365b856115f9835461485b565b5f601f86116001146136e557928594926136bd92613695876136d59a995f5160206155ae5f395f51905f529e9f985f916136da5750614f51565b90555b6136af6040519a8b9a60a08c5260a08c0191614f63565b9189830360208b0152614f63565b93604087015260608601528483036080860152614f63565b0390a2005b90508801355f61162d565b601f19861690825f5260205f20915f5b81811061374b5750925f5160206155ae5f395f51905f529b9c9592889795926136d59a996136bd9610613732575b5050600187811b019055613698565b8701355f1960038a901b60f8161c191690558d80613723565b8d8301358455600190930192602092830192016136f5565b90508701358f61162d565b505f81815260208120909385601f1981165b8087106137b95760059650106137a0575b5050600184811b019055613630565b8601355f19600387901b60f8161c191690558c80613791565b88830135845560209687019660019094019390920191879150613780565b90508b01358e61162d565b50601f19891690825f528960205f20925f5b8d82821061382c57505010613813575b5050600188811b0190556135ea565b8a01355f1960038b901b60f8161c191690558b80613804565b84013585556001909401936020938401938d9350016137f4565b50600254881061358a565b346106f3575f3660031901126106f3576002545f1981019081116134e65761387881614cfc565b906138866040519283614900565b808252601f1961389582614cfc565b015f5b8181106139745750505f5b81811061391157826040518091602082016020835281518091526040830190602060408260051b8601019301915f905b8282106138e257505050500390f35b919360019193955060206139018192603f198a82030186528851614bba565b96019201920185949391926138d3565b60018101908181116134e6576001915f528160205260405f2060056139536040519261393c846148ae565b80548452604051611b8d81611b86818a8601614b09565b60a08201526139628286614e77565b5261396d8185614e77565b50016138a3565b60209061397f614e3a565b82828701015201613898565b346106f35760403660031901126106f3576139a4614ba4565b602435906001600160a01b0382168083036106f3576139d4906139c5615432565b6139cd615242565b1515614dd4565b6040516370a0823160e01b8152306004820152916001600160a01b039190911690602083602481855afa928315610cbd575f93613ab9575b50613a18831515614e08565b7f00000000000000000000000000000000000000000000000000000000000000006001600160a01b03168203613aaa576007549283811115613a7a57613a6793613a6191614dc7565b916153da565b60015f51602061564e5f395f51905f5255005b60405162461bcd60e51b815260206004820152600860248201526721737572706c757360c01b6044820152606490fd5b613ab492916153da565b613a67565b9092506020813d602011613ae5575b81613ad560209383614900565b810103126106f357519183613a0c565b3d9150613ac8565b346106f357613afb36614a9a565b613b06929192615242565b613b0f8461527a565b5090613b1c811515614c96565b8215613f4157613b6460045494613b32866150b2565b60045560405192613b42846148e4565b8684523360208501528760408501525f606085015284608085015236916151d6565b60a08201525f60c08201524260e08201525f6101008201525f610120820152602090604051613b938382614900565b5f808252610140830191909152610160820181905261018082015260036101a0820152836101c0820152604051613bca8382614900565b5f8082526101e083019190915285815260038084526040918290208351815560208401516001820180546001600160a01b0319166001600160a01b03929092169190911790559183015160028301556060830151908201556080820151600482015560a08201518051906001600160401b03821161060557613c5382610963600586015461485b565b8490601f8311600114613ed457613c7392915f9183610b21575050614f51565b60058201555b60c0820151600681101561058357613c949060068301614daf565b60e08201516007820155610100820151600882015561012082015160098201556101408201518051600a8301916001600160401b03821161060557613cdd826103ca855461485b565b8590601f8311600114613e7157613cfd92915f9183610bfd575050614f51565b90555b610160820151600b820180546001600160a01b0319166001600160a01b0392909216919091178155610180830151909190613d3d90151583614ffd565b6101a083015190600482101561058357825460ff60a81b191660a89290921b60ff60a81b16919091179091556101c0820151600c8201556101e091909101518051600d9290920191906001600160401b03821161060557613da2826103ca855461485b565b8390601f8311600114613e0c579180613dc6925f9695948792610b21575050614f51565b90555b60408051968752908601919091528401526003606084015260808301525f51602061566e5f395f51905f5260a03393a360015f51602061564e5f395f51905f5255005b90601f19831691845f52855f20925f5b818110613e5a57509160019391855f9897969410613e42575b505050811b019055613dc9565b0151861960f88460031b161c19169055898080613e35565b929387600181928786015181550195019301613e1c565b90601f19831691845f52875f20925f5b89828210613ebe575050908460019594939210613ea6575b505050811b019055613d00565b01515f1960f88460031b161c191690558a8080613e99565b6001859682939686015181550195019301613e81565b9190600584015f52855f20905f935b87601f1985168610613f2857506001945083601f19811610613f10575b505050811b016005820155613c79565b01515f1960f88460031b161c19169055898080613f00565b8282015184559485019460019093019290910190613ee3565b60405162461bcd60e51b815260206004820152600360248201526210b1bb60e91b6044820152606490fd5b346106f35760203660031901126106f357600435613f88615242565b805f52600360205260405f20613fa081541515614d13565b613fb760018060a01b036001830154163314614d45565b600681019060ff82541691600683101561058357613fd760039315614d7b565b805460ff191660041790550180549081614025575b33837ff1ab0865975dad5c69ae8e4baaf13114c875728afa7cc86368534c22a631d0b05f80a360015f51602061564e5f395f51905f5255005b61403461405f92600754614dc7565b60075554337f00000000000000000000000000000000000000000000000000000000000000006153da565b8180613fec565b346106f35760203660031901126106f3576004355f52600360205260405f208054600160a01b600190036001830154169160028101546003820154906004830154604051808060058701906140ba91614b09565b036140c59082614900565b600685015460ff16906007860154600887015490600988015492604051958680600a8c01906140f391614b09565b036140fe9088614900565b600b8a015498600c8b01549860405180600d819e019061411d91614b09565b03614128908d614900565b6040519d8e809e81526020015260408d015260608c015260808b015260a08a0161020090526102008a0161415b91614a49565b9360c08a0161416991614b8a565b60e089015261010088015261012087015285810361014087015261418c91614a49565b6001600160a01b03831661016086015260ff60a084901c8116151561018087015290926141c2916101a087019160a81c16614b97565b6101c08401528281036101e08401526113e091614a49565b346106f35760203660031901126106f3576004355f52600660205260405f2080549061420582614cfc565b916142136040519384614900565b8083526020830180925f5260205f205f915b8383106142a657848660405191829160208301906020845251809152604083019060408160051b85010192915f905b82821061426357505050500390f35b919360019193955060208091603f1989820301855287519082806142908451604085526040850190614a49565b9301519101529601920192018594939192614254565b600260206001926040516142b981614893565b6040516142ca81611b86818a614b09565b81528486015483820152815201920192019190614225565b346106f3575f3660031901126106f3576004545f60015b82811061436a575061430a906150c0565b5f9160015b81811061432457604051806113e08582614ad0565b805f52600360205260ff600660405f200154169060068210156105835760019115614350575b0161430f565b8061436461435d876150b2565b9686614e77565b5261434a565b805f52600360205260ff600660405f2001541660068110156105835715614394575b6001016142f9565b906143a06001916150b2565b91905061438c565b346106f3575f3660031901126106f3576040517f00000000000000000000000000000000000000000000000000000000000000006001600160a01b03168152602090f35b346106f3576143fa36614a9a565b9091614404615242565b61440d8461527a565b509161441a811515614c96565b61442e670de0b6b3a7640000831015614cca565b61445a8230337f0000000000000000000000000000000000000000000000000000000000000000615348565b61446a600454946124d6866150b2565b60a08201525f60c08201524260e08201525f6101008201525f6101208201526020906040516144998382614900565b5f80825261014083019190915261016082018190526101808201525f6101a08201525f6101c08201526040516144cf8382614900565b5f8082526101e083019190915285815260038084526040918290208351815560208401516001820180546001600160a01b0319166001600160a01b03929092169190911790559183015160028301556060830151908201556080820151600482015560a08201518051906001600160401b0382116106055761455882610963600586015461485b565b8490601f83116001146147d35761457892915f9183610b21575050614f51565b60058201555b60c08201516006811015610583576145999060068301614daf565b60e08201516007820155610100820151600882015561012082015160098201556101408201518051600a8301916001600160401b038211610605576145e2826103ca855461485b565b8590601f83116001146147705761460292915f9183610bfd575050614f51565b90555b610160820151600b820180546001600160a01b0319166001600160a01b039290921691909117815561018083015190919061464290151583614ffd565b6101a083015190600482101561058357825460ff60a81b191660a89290921b60ff60a81b16919091179091556101c0820151600c8201556101e091909101518051600d9290920191906001600160401b038211610605576146a7826103ca855461485b565b8390601f831160011461470d576146c792915f91836127b3575050614f51565b90555b60408051958652908501919091528301525f60608301525f60808301525f51602061566e5f395f51905f5260a03393a360015f51602061564e5f395f51905f5255005b90601f19831691845f52855f20925f5b8782821061475a575050908460019594939210614742575b505050811b0190556146ca565b01515f1960f88460031b161c19169055888080614735565b600185968293968601518155019501930161471d565b90601f19831691845f52875f20925f5b898282106147bd5750509084600195949392106147a5575b505050811b019055614605565b01515f1960f88460031b161c191690558a8080614798565b6001859682939686015181550195019301614780565b9190600584015f52855f20905f935b87601f198516861061482757506001945083601f1981161061480f575b505050811b01600582015561457e565b01515f1960f88460031b161c191690558980806147ff565b82820151845594850194600190930192909101906147e2565b346106f3575f3660031901126106f3576113e06113cc614923565b90600182811c92168015614889575b602083101461487557565b634e487b7160e01b5f52602260045260245ffd5b91607f169161486a565b604081019081106001600160401b0382111761060557604052565b60c081019081106001600160401b0382111761060557604052565b608081019081106001600160401b0382111761060557604052565b61020081019081106001600160401b0382111761060557604052565b601f909101601f19168101906001600160401b0382119082101761060557604052565b604051905f82600a54916149368361485b565b80835292600181169081156149a8575060011461495c575b61495a92500383614900565b565b50600a5f90815290915f51602061558e5f395f51905f525b81831061498c57505090602061495a9282010161494e565b6020919350806001915483858901015201910190918492614974565b6020925061495a94915060ff191682840152151560051b82010161494e565b604051905f82600954916149da8361485b565b80835292600181169081156149a857506001146149fd5761495a92500383614900565b5060095f90815290915f51602061562e5f395f51905f525b818310614a2d57505090602061495a9282010161494e565b6020919350806001915483858901015201910190918492614a15565b805180835260209291819084018484015e5f828201840152601f01601f1916010190565b9181601f840112156106f3578235916001600160401b0383116106f357602083818601950101116106f357565b60606003198201126106f3576004359160243591604435906001600160401b0382116106f357614acc91600401614a6d565b9091565b60206040818301928281528451809452019201905f5b818110614af35750505090565b8251845260209384019390920191600101614ae6565b5f9291815491614b188361485b565b8083529260018116908115614b6d5750600114614b3457505050565b5f9081526020812093945091925b838310614b53575060209250010190565b600181602092949394548385870101520191019190614b42565b915050602093945060ff929192191683830152151560051b010190565b9060068210156105835752565b9060048210156105835752565b600435906001600160a01b03821682036106f357565b614c17918151815260a0614bf2614be0602085015160c0602086015260c0850190614a49565b60408501518482036040860152614a49565b92606081015160608401526080810151608084015201519060a0818403910152614a49565b90565b9060606003198301126106f35760043591602435906001600160401b0382116106f357614c4991600401614a6d565b909160443590565b8054821015614c6a575f5260205f209060011b01905f90565b634e487b7160e01b5f52603260045260245ffd5b600554811015614c6a5760055f5260205f2001905f90565b15614c9d57565b60405162461bcd60e51b8152602060048201526005602482015264216465736360d81b6044820152606490fd5b15614cd157565b606460405162461bcd60e51b815260206004820152600460248201526310b6b4b760e11b6044820152fd5b6001600160401b0381116106055760051b60200190565b15614d1a57565b606460405162461bcd60e51b815260206004820152600460248201526310b537b160e11b6044820152fd5b15614d4c57565b60405162461bcd60e51b81526020600482015260076024820152660858db1a595b9d60ca1b6044820152606490fd5b15614d8257565b60405162461bcd60e51b815260206004820152600560248201526410b7b832b760d91b6044820152606490fd5b9060068110156105835760ff80198354169116179055565b919082039182116134e657565b15614ddb57565b60405162461bcd60e51b815260206004820152600560248201526410b0b2323960d91b6044820152606490fd5b15614e0f57565b606460405162461bcd60e51b81526020600482015260046024820152630858985b60e21b6044820152fd5b60405190614e47826148ae565b606060a0835f81528260208201528260408201525f838201525f60808201520152565b919082018092116134e657565b8051821015614c6a5760209160051b010190565b15614e9257565b60405162461bcd60e51b8152602060048201526003602482015262085a5960ea1b6044820152606490fd5b15614ec457565b60405162461bcd60e51b815260206004820152600660248201526510b1bb2234bb60d11b6044820152606490fd5b5f5b828110614f0057505050565b5f82820155600101614ef4565b91601f8211614f1b57505050565b808211614f2757505050565b61495a925f5260205f20916020601f830160051c92106121f957601f82910160051c039101614ef2565b8160011b915f199060031b1c19161790565b908060209392818452848401375f828201840152601f01601f1916010190565b6020815260806060614fa0845183602086015260a0850190614a49565b60208501516001600160a01b03166040858101919091528501518285015293015191015290565b15614fce57565b60405162461bcd60e51b815260206004820152600760248201526610bbb7b935b2b960c91b6044820152606490fd5b805460ff60a01b191691151560a01b60ff60a01b16919091179055565b6001600160401b03811161060557601f01601f191660200190565b1561503c57565b60405162461bcd60e51b8152602060048201526005602482015264042e0c2e8d60db1b6044820152606490fd5b600554905f5b82811061507d575050505f90565b61508681614c7e565b905460039190911b1c6001600160a01b03908116908316146150aa5760010161506f565b505050600190565b5f1981146134e65760010190565b906150ca82614cfc565b6150d76040519182614900565b82815280926150e8601f1991614cfc565b0190602036910137565b60048210156105835752565b5f905b6005549182811015614fce5761511681614c7e565b90546001600160a01b03848116959260031b9190911c16841461513e57506001019150615101565b5f198101925082116134e657612aae61515961517193614c7e565b905460039190911b1c6001600160a01b031691614c7e565b60055480156151c2575f190161518681614c7e565b81549060018060a01b039060031b1b191690556005557f6cfb0504498d3a8155a2a3dd5f41940ad5ab571197ac70f6d6948d189f6a0d275f80a2565b634e487b7160e01b5f52603160045260245ffd5b9291926151e28261501a565b916151f06040519384614900565b8294818452818301116106f3578281602093845f960137010152565b1561521357565b60405162461bcd60e51b81526020600482015260076024820152662161637469766560c81b6044820152606490fd5b60025f51602061564e5f395f51905f52541461526b5760025f51602061564e5f395f51905f5255565b633ee5aeb560e01b5f5260045ffd5b8015158061533d575b15615312575f52600160205260405f2060038101549182156152e45761495a7f9651c33eb23976f7c15240e86443dc2ded40546fa9ba457a14abab4090e023b56040516152d781611b868160058901614b09565b602081519101201461520c565b60405162461bcd60e51b815260206004820152600660248201526521707269636560d01b6044820152606490fd5b606460405162461bcd60e51b81526020600482015260046024820152632173766360e01b6044820152fd5b506002548110615283565b6040516323b872dd60e01b5f9081526001600160a01b039384166004529290931660245260449390935260209060648180865af19060015f51148216156153b9575b6040525f606052156153995750565b635274afe760e01b5f9081526001600160a01b0391909116600452602490fd5b9060018115166153d157823b15153d1516169061538a565b503d5f823e3d90fd5b916040519163a9059cbb60e01b5f5260018060a01b031660045260245260205f60448180865af19060015f511482161561541a575b604052156153995750565b9060018115166153d157823b15153d1516169061540f565b5f546001600160a01b0316330361544557565b63118cdaa760e01b5f523360045260245ffd5b916040519163095ea7b360e01b5f5260018060a01b031691826004528160245260205f60448180885af19060015f511482161561553e575b6040521561549d57505050565b60405163095ea7b360e01b5f52826004525f60245260205f60448180885af19060015f5114821615615526575b60405215615508576040519163095ea7b360e01b5f5260045260245260205f60448180865af19060015f511482161561541a57604052156153995750565b635274afe760e01b5f9081526001600160a01b038416600452602490fd5b9060018115166153d157843b15153d151616906154ca565b90843b15153d1516169061549056fe884d377a76a733295a9fde0f6f3729db2762d3ed11c468fa3904b134ab552ddac96f2aaf957f127be031b5ffc014c798de57808a7d0d7be6408436a77b55105dc65a7bb8d6351c1cf70c95a316cc6a92839c986682d98bc35f958f4883f9d2a8c8f8c4a419ff4726d3b34be1e7439e3ede063b16686388bdaa104005d586a560c181770b18c66c81dce39e4f7d4100884b62c26403dddf12b19b1de85cdc3ac48be0079c531659141344cd1fd0a4f28419497f9722a3daafe3b4186f6b6457e0791d0f3c8799c9df05b4434624f423e70d3c803aa8192c9c2557c19654000f376e1540171b6c0c960b71a7020d9f60077f6af931a8bbf590da0223dacf75c7af9b779b17422d0df92223018b32b4d1fa46e071723d6817e2486d003becc55f00fedb08719ec013458bbe9c86e0b87a10413be78ff76c974a0dac8cce68e73e8aa2646970667358221220002e5bfe02aac4b6edfa075635ef143d2db2fd2e333a2e88ca17d70bac10727264736f6c634300082100330000000000000000000000009f86db9fc6f7c9408e8fda3ff8ce4e78ac7a6b07000000000000000000000000833589fcd6edb6e08f4c7c32d4f71b54bda029130000000000000000000000002626664c2603336e57b271c5c0b26f421741e481000000000000000000000000420000000000000000000000000000000000000600000000000000000000000090ef2a9211a3e7ce788561e5af54c76b0fa3aed0",
        "nonce": "0xff",
        "chainId": "0x2105"
      },
      "additionalContracts": [],
      "isFixedGasLimit": false
    },
    {
      "hash": "0xd21fe19048ad26388002369c0f0fe3a3883c528495c0f70330e9f4a025039aa4",
      "transactionType": "CALL",
      "contractName": "LeftClawServicesV2",
      "contractAddress": "0xb3c4ecf74cb3427432adff277bb5c9b8fd9b71e0",
      "function": "addServiceType(string,string,uint256,uint256)",
      "arguments": [
        "Quick Consultation",
        "consult",
        "20000000",
        "100"
      ],
      "transaction": {
        "from": "0x845e8c808e22469aaf07ace9ab7d26c875fbe44f",
        "to": "0xb3c4ecf74cb3427432adff277bb5c9b8fd9b71e0",
        "gas": "0x3c900",
        "value": "0x0",
        "input": "0xcf216ee2000000000000000000000000000000000000000000000000000000000000008000000000000000000000000000000000000000000000000000000000000000c00000000000000000000000000000000000000000000000000000000001312d0000000000000000000000000000000000000000000000000000000000000000640000000000000000000000000000000000000000000000000000000000000012517569636b20436f6e73756c746174696f6e00000000000000000000000000000000000000000000000000000000000000000000000000000000000000000007636f6e73756c7400000000000000000000000000000000000000000000000000",
        "nonce": "0x100",
        "chainId": "0x2105"
      },
      "additionalContracts": [],
      "isFixedGasLimit": false
    },
    {
      "hash": "0x1c0bb7236d297f196852b63b1bb86105f0e19354394a3166e10667f79568e628",
      "transactionType": "CALL",
      "contractName": "LeftClawServicesV2",
      "contractAddress": "0xb3c4ecf74cb3427432adff277bb5c9b8fd9b71e0",
      "function": "addServiceType(string,string,uint256,uint256)",
      "arguments": [
        "Deep Consultation",
        "consult-deep",
        "30000000",
        "50"
      ],
      "transaction": {
        "from": "0x845e8c808e22469aaf07ace9ab7d26c875fbe44f",
        "to": "0xb3c4ecf74cb3427432adff277bb5c9b8fd9b71e0",
        "gas": "0x3937d",
        "value": "0x0",
        "input": "0xcf216ee2000000000000000000000000000000000000000000000000000000000000008000000000000000000000000000000000000000000000000000000000000000c00000000000000000000000000000000000000000000000000000000001c9c380000000000000000000000000000000000000000000000000000000000000003200000000000000000000000000000000000000000000000000000000000000114465657020436f6e73756c746174696f6e000000000000000000000000000000000000000000000000000000000000000000000000000000000000000000000c636f6e73756c742d646565700000000000000000000000000000000000000000",
        "nonce": "0x101",
        "chainId": "0x2105"
      },
      "additionalContracts": [],
      "isFixedGasLimit": false
    },
    {
      "hash": "0x7aec0c317bea01acac9ece6582b1b40764f9a4c35513d3ac1e1ccdc32c6b2800",
      "transactionType": "CALL",
      "contractName": "LeftClawServicesV2",
      "contractAddress": "0xb3c4ecf74cb3427432adff277bb5c9b8fd9b71e0",
      "function": "addServiceType(string,string,uint256,uint256)",
      "arguments": [
        "PFP Generator",
        "pfp",
        "250000",
        "500"
      ],
      "transaction": {
        "from": "0x845e8c808e22469aaf07ace9ab7d26c875fbe44f",
        "to": "0xb3c4ecf74cb3427432adff277bb5c9b8fd9b71e0",
        "gas": "0x3c874",
        "value": "0x0",
        "input": "0xcf216ee2000000000000000000000000000000000000000000000000000000000000008000000000000000000000000000000000000000000000000000000000000000c0000000000000000000000000000000000000000000000000000000000003d09000000000000000000000000000000000000000000000000000000000000001f4000000000000000000000000000000000000000000000000000000000000000d5046502047656e657261746f720000000000000000000000000000000000000000000000000000000000000000000000000000000000000000000000000000037066700000000000000000000000000000000000000000000000000000000000",
        "nonce": "0x102",
        "chainId": "0x2105"
      },
      "additionalContracts": [],
      "isFixedGasLimit": false
    },
    {
      "hash": "0x4992062162265dfc9ad7eb3be34232b0dec70185d967514b1f2d5474a0ec49a4",
      "transactionType": "CALL",
      "contractName": "LeftClawServicesV2",
      "contractAddress": "0xb3c4ecf74cb3427432adff277bb5c9b8fd9b71e0",
      "function": "addServiceType(string,string,uint256,uint256)",
      "arguments": [
        "Contract Audit",
        "audit",
        "200000000",
        "25"
      ],
      "transaction": {
        "from": "0x845e8c808e22469aaf07ace9ab7d26c875fbe44f",
        "to": "0xb3c4ecf74cb3427432adff277bb5c9b8fd9b71e0",
        "gas": "0x3c897",
        "value": "0x0",
        "input": "0xcf216ee2000000000000000000000000000000000000000000000000000000000000008000000000000000000000000000000000000000000000000000000000000000c0000000000000000000000000000000000000000000000000000000000bebc2000000000000000000000000000000000000000000000000000000000000000019000000000000000000000000000000000000000000000000000000000000000e436f6e747261637420417564697400000000000000000000000000000000000000000000000000000000000000000000000000000000000000000000000000056175646974000000000000000000000000000000000000000000000000000000",
        "nonce": "0x103",
        "chainId": "0x2105"
      },
      "additionalContracts": [],
      "isFixedGasLimit": false
    },
    {
      "hash": "0x130419cc898a7513c6af69286e6302e37351bf68065bf2ca3f42fc17fe345ac1",
      "transactionType": "CALL",
      "contractName": "LeftClawServicesV2",
      "contractAddress": "0xb3c4ecf74cb3427432adff277bb5c9b8fd9b71e0",
      "function": "addServiceType(string,string,uint256,uint256)",
      "arguments": [
        "Frontend QA Audit",
        "qa",
        "50000000",
        "50"
      ],
      "transaction": {
        "from": "0x845e8c808e22469aaf07ace9ab7d26c875fbe44f",
        "to": "0xb3c4ecf74cb3427432adff277bb5c9b8fd9b71e0",
        "gas": "0x392d8",
        "value": "0x0",
        "input": "0xcf216ee2000000000000000000000000000000000000000000000000000000000000008000000000000000000000000000000000000000000000000000000000000000c00000000000000000000000000000000000000000000000000000000002faf0800000000000000000000000000000000000000000000000000000000000000032000000000000000000000000000000000000000000000000000000000000001146726f6e74656e6420514120417564697400000000000000000000000000000000000000000000000000000000000000000000000000000000000000000000027161000000000000000000000000000000000000000000000000000000000000",
        "nonce": "0x104",
        "chainId": "0x2105"
      },
      "additionalContracts": [],
      "isFixedGasLimit": false
    },
    {
      "hash": "0xf1531976fd0aee280a55d388419c6809b03688fb5887aa8a08ac6a9234b26be4",
      "transactionType": "CALL",
      "contractName": "LeftClawServicesV2",
      "contractAddress": "0xb3c4ecf74cb3427432adff277bb5c9b8fd9b71e0",
      "function": "addServiceType(string,string,uint256,uint256)",
      "arguments": [
        "Build",
        "build",
        "1000000000",
        "1"
      ],
      "transaction": {
        "from": "0x845e8c808e22469aaf07ace9ab7d26c875fbe44f",
        "to": "0xb3c4ecf74cb3427432adff277bb5c9b8fd9b71e0",
        "gas": "0x39231",
        "value": "0x0",
        "input": "0xcf216ee2000000000000000000000000000000000000000000000000000000000000008000000000000000000000000000000000000000000000000000000000000000c0000000000000000000000000000000000000000000000000000000003b9aca00000000000000000000000000000000000000000000000000000000000000000100000000000000000000000000000000000000000000000000000000000000054275696c6400000000000000000000000000000000000000000000000000000000000000000000000000000000000000000000000000000000000000000000056275696c64000000000000000000000000000000000000000000000000000000",
        "nonce": "0x105",
        "chainId": "0x2105"
      },
      "additionalContracts": [],
      "isFixedGasLimit": false
    },
    {
      "hash": "0x62ae64f4001fba45550dfc19942df675b6e9214dd3208d88f5faca7b2870d9d3",
      "transactionType": "CALL",
      "contractName": "LeftClawServicesV2",
      "contractAddress": "0xb3c4ecf74cb3427432adff277bb5c9b8fd9b71e0",
      "function": "addServiceType(string,string,uint256,uint256)",
      "arguments": [
        "Research Report",
        "research",
        "100000000",
        "13"
      ],
      "transaction": {
        "from": "0x845e8c808e22469aaf07ace9ab7d26c875fbe44f",
        "to": "0xb3c4ecf74cb3427432adff277bb5c9b8fd9b71e0",
        "gas": "0x3c8dd",
        "value": "0x0",
        "input": "0xcf216ee2000000000000000000000000000000000000000000000000000000000000008000000000000000000000000000000000000000000000000000000000000000c00000000000000000000000000000000000000000000000000000000005f5e100000000000000000000000000000000000000000000000000000000000000000d000000000000000000000000000000000000000000000000000000000000000f5265736561726368205265706f7274000000000000000000000000000000000000000000000000000000000000000000000000000000000000000000000000087265736561726368000000000000000000000000000000000000000000000000",
        "nonce": "0x106",
        "chainId": "0x2105"
      },
      "additionalContracts": [],
      "isFixedGasLimit": false
    },
    {
      "hash": "0x7bf42f91a84f55632d08a9ace4f5c289b6605ff25a6c6d486a83fe72bc4bbd31",
      "transactionType": "CALL",
      "contractName": "LeftClawServicesV2",
      "contractAddress": "0xb3c4ecf74cb3427432adff277bb5c9b8fd9b71e0",
      "function": "addServiceType(string,string,uint256,uint256)",
      "arguments": [
        "Judge / Oracle",
        "judge",
        "50000000",
        "50"
      ],
      "transaction": {
        "from": "0x845e8c808e22469aaf07ace9ab7d26c875fbe44f",
        "to": "0xb3c4ecf74cb3427432adff277bb5c9b8fd9b71e0",
        "gas": "0x392d8",
        "value": "0x0",
        "input": "0xcf216ee2000000000000000000000000000000000000000000000000000000000000008000000000000000000000000000000000000000000000000000000000000000c00000000000000000000000000000000000000000000000000000000002faf0800000000000000000000000000000000000000000000000000000000000000032000000000000000000000000000000000000000000000000000000000000000e4a75646765202f204f7261636c6500000000000000000000000000000000000000000000000000000000000000000000000000000000000000000000000000056a75646765000000000000000000000000000000000000000000000000000000",
        "nonce": "0x107",
        "chainId": "0x2105"
      },
      "additionalContracts": [],
      "isFixedGasLimit": false
    },
    {
      "hash": "0x1e1882f8e1cfe65c4cef5afc30e5ca05d7a5efd9b4796917b2ea02ea573b3fa8",
      "transactionType": "CALL",
      "contractName": "LeftClawServicesV2",
      "contractAddress": "0xb3c4ecf74cb3427432adff277bb5c9b8fd9b71e0",
      "function": "addServiceType(string,string,uint256,uint256)",
      "arguments": [
        "HumanQA",
        "humanqa",
        "200000000",
        "25"
      ],
      "transaction": {
        "from": "0x845e8c808e22469aaf07ace9ab7d26c875fbe44f",
        "to": "0xb3c4ecf74cb3427432adff277bb5c9b8fd9b71e0",
        "gas": "0x39274",
        "value": "0x0",
        "input": "0xcf216ee2000000000000000000000000000000000000000000000000000000000000008000000000000000000000000000000000000000000000000000000000000000c0000000000000000000000000000000000000000000000000000000000bebc2000000000000000000000000000000000000000000000000000000000000000019000000000000000000000000000000000000000000000000000000000000000748756d616e514100000000000000000000000000000000000000000000000000000000000000000000000000000000000000000000000000000000000000000768756d616e716100000000000000000000000000000000000000000000000000",
        "nonce": "0x108",
        "chainId": "0x2105"
      },
      "additionalContracts": [],
      "isFixedGasLimit": false
    },
    {
      "hash": "0xd2b22736d0d33213743f83687ef0a31db1d6308950b5fe86c62779651cec234b",
      "transactionType": "CALL",
      "contractName": "LeftClawServicesV2",
      "contractAddress": "0xb3c4ecf74cb3427432adff277bb5c9b8fd9b71e0",
      "function": "addServiceType(string,string,uint256,uint256)",
      "arguments": [
        "Feature",
        "feature",
        "500000000",
        "5"
      ],
      "transaction": {
        "from": "0x845e8c808e22469aaf07ace9ab7d26c875fbe44f",
        "to": "0xb3c4ecf74cb3427432adff277bb5c9b8fd9b71e0",
        "gas": "0x39274",
        "value": "0x0",
        "input": "0xcf216ee2000000000000000000000000000000000000000000000000000000000000008000000000000000000000000000000000000000000000000000000000000000c0000000000000000000000000000000000000000000000000000000001dcd650000000000000000000000000000000000000000000000000000000000000000050000000000000000000000000000000000000000000000000000000000000007466561747572650000000000000000000000000000000000000000000000000000000000000000000000000000000000000000000000000000000000000000076665617475726500000000000000000000000000000000000000000000000000",
        "nonce": "0x109",
        "chainId": "0x2105"
      },
      "additionalContracts": [],
      "isFixedGasLimit": false
    },
    {
      "hash": "0xcdbd5faa79049a6bd468397ef9ac230097802d0a20b0e549a2e20c1f93ad1e54",
      "transactionType": "CALL",
      "contractName": "LeftClawServicesV2",
      "contractAddress": "0xb3c4ecf74cb3427432adff277bb5c9b8fd9b71e0",
      "function": "addWorker(address)",
      "arguments": [
        "0xa822155c242B3a307086F1e2787E393d78A0B5AC"
      ],
      "transaction": {
        "from": "0x845e8c808e22469aaf07ace9ab7d26c875fbe44f",
        "to": "0xb3c4ecf74cb3427432adff277bb5c9b8fd9b71e0",
        "gas": "0x19002",
        "value": "0x0",
        "input": "0x806ad57e000000000000000000000000a822155c242b3a307086f1e2787e393d78a0b5ac",
        "nonce": "0x10a",
        "chainId": "0x2105"
      },
      "additionalContracts": [],
      "isFixedGasLimit": false
    },
    {
      "hash": "0x742f13adb6edb4de4d4d3f12467efcf681265f15cf6dea990aa105e88d66da74",
      "transactionType": "CALL",
      "contractName": "LeftClawServicesV2",
      "contractAddress": "0xb3c4ecf74cb3427432adff277bb5c9b8fd9b71e0",
      "function": "addWorker(address)",
      "arguments": [
        "0x8c00eae9b9A2f89BddaAE4f6884C716562C7cE93"
      ],
      "transaction": {
        "from": "0x845e8c808e22469aaf07ace9ab7d26c875fbe44f",
        "to": "0xb3c4ecf74cb3427432adff277bb5c9b8fd9b71e0",
        "gas": "0x12a77",
        "value": "0x0",
        "input": "0x806ad57e0000000000000000000000008c00eae9b9a2f89bddaae4f6884c716562c7ce93",
        "nonce": "0x10b",
        "chainId": "0x2105"
      },
      "additionalContracts": [],
      "isFixedGasLimit": false
    },
    {
      "hash": "0x87351d7ff21510215add1e7d76893335c56efaf2c6283ff75dd62d4943db34e9",
      "transactionType": "CALL",
      "contractName": "LeftClawServicesV2",
      "contractAddress": "0xb3c4ecf74cb3427432adff277bb5c9b8fd9b71e0",
      "function": "addWorker(address)",
      "arguments": [
        "0x472C382550780cD30e1D27155b96Fa4b63d9247e"
      ],
      "transaction": {
        "from": "0x845e8c808e22469aaf07ace9ab7d26c875fbe44f",
        "to": "0xb3c4ecf74cb3427432adff277bb5c9b8fd9b71e0",
        "gas": "0x13789",
        "value": "0x0",
        "input": "0x806ad57e000000000000000000000000472c382550780cd30e1d27155b96fa4b63d9247e",
        "nonce": "0x10c",
        "chainId": "0x2105"
      },
      "additionalContracts": [],
      "isFixedGasLimit": false
    },
    {
      "hash": "0x134d4ff16d6dfbd565977ed70d11ada7862d63c0ff53fcefd4abcad7ede98b6d",
      "transactionType": "CALL",
      "contractName": "LeftClawServicesV2",
      "contractAddress": "0xb3c4ecf74cb3427432adff277bb5c9b8fd9b71e0",
      "function": "addWorker(address)",
      "arguments": [
        "0x09defC9E6ffc5e41F42e0D50512EEf9354523E0E"
      ],
      "transaction": {
        "from": "0x845e8c808e22469aaf07ace9ab7d26c875fbe44f",
        "to": "0xb3c4ecf74cb3427432adff277bb5c9b8fd9b71e0",
        "gas": "0x1448c",
        "value": "0x0",
        "input": "0x806ad57e00000000000000000000000009defc9e6ffc5e41f42e0d50512eef9354523e0e",
        "nonce": "0x10d",
        "chainId": "0x2105"
      },
      "additionalContracts": [],
      "isFixedGasLimit": false
    },
    {
      "hash": "0x1d82de5b4902c25555ef418420a7c2efbbf512b58f211f9e8cab3d41b0c3c323",
      "transactionType": "CALL",
      "contractName": "LeftClawServicesV2",
      "contractAddress": "0xb3c4ecf74cb3427432adff277bb5c9b8fd9b71e0",
      "function": "transferOwnership(address)",
      "arguments": [
        "0x11ce532845cE0eAcdA41f72FDc1C88c335981442"
      ],
      "transaction": {
        "from": "0x845e8c808e22469aaf07ace9ab7d26c875fbe44f",
        "to": "0xb3c4ecf74cb3427432adff277bb5c9b8fd9b71e0",
        "gas": "0x9e93",
        "value": "0x0",
        "input": "0xf2fde38b00000000000000000000000011ce532845ce0eacda41f72fdc1c88c335981442",
        "nonce": "0x10e",
        "chainId": "0x2105"
      },
      "additionalContracts": [],
      "isFixedGasLimit": false
    }
  ],
  "receipts": [
    {
      "status": "0x1",
      "cumulativeGasUsed": "0x1d19e1e",
      "logs": [
        {
          "address": "0xb3c4ecf74cb3427432adff277bb5c9b8fd9b71e0",
          "topics": [
            "0x8be0079c531659141344cd1fd0a4f28419497f9722a3daafe3b4186f6b6457e0",
            "0x0000000000000000000000000000000000000000000000000000000000000000",
            "0x000000000000000000000000845e8c808e22469aaf07ace9ab7d26c875fbe44f"
          ],
          "data": "0x",
          "blockHash": "0x0000000000000000000000000000000000000000000000000000000000000000",
          "blockNumber": "0x29f8782",
          "blockTimestamp": "0x69c96be7",
          "transactionHash": "0x7aec0c317bea01acac9ece6582b1b40764f9a4c35513d3ac1e1ccdc32c6b2800",
          "transactionIndex": "0x59",
          "logIndex": "0x2f2",
          "removed": false
        }
      ],
      "logsBloom": "0x00000000000000000010000000000000000000000000000000800000000000000000000000000000000000000000000000000000000000000000000000000000000000000000000000000000000000000001000000000000000000000000000000000000020000000020000000000800000000000000000000000010000000400000000000000000000000000000000000000000000000000000000000000000000000000000000000000000000080000000000000000000000000000000000000000000000000000000000000000000000010000000000000000000000020000000000000000400000000000000000000000000000000000000000000000000",
      "type": "0x2",
      "transactionHash": "0x7aec0c317bea01acac9ece6582b1b40764f9a4c35513d3ac1e1ccdc32c6b2800",
      "transactionIndex": "0x59",
      "blockHash": "0x0000000000000000000000000000000000000000000000000000000000000000",
      "blockNumber": "0x29f8782",
      "gasUsed": "0x4e822b",
      "effectiveGasPrice": "0x4c4b41",
      "blobGasUsed": "0x1b17c4",
      "from": "0x845e8c808e22469aaf07ace9ab7d26c875fbe44f",
      "to": null,
      "contractAddress": "0xb3c4ecf74cb3427432adff277bb5c9b8fd9b71e0",
      "daFootprintGasScalar": "0x94",
      "l1BaseFeeScalar": "0x8dd",
      "l1BlobBaseFee": "0x74b928",
      "l1BlobBaseFeeScalar": "0x101c12",
      "l1Fee": "0x4c09ca37",
      "l1GasPrice": "0x7af706a",
      "l1GasUsed": "0x2edd2"
    },
    {
      "status": "0x1",
      "cumulativeGasUsed": "0x1d434af",
      "logs": [
        {
          "address": "0xb3c4ecf74cb3427432adff277bb5c9b8fd9b71e0",
          "topics": [
            "0x791d0f3c8799c9df05b4434624f423e70d3c803aa8192c9c2557c19654000f37",
            "0x0000000000000000000000000000000000000000000000000000000000000001"
          ],
          "data": "0x000000000000000000000000000000000000000000000000000000000000008000000000000000000000000000000000000000000000000000000000000000c00000000000000000000000000000000000000000000000000000000001312d0000000000000000000000000000000000000000000000000000000000000000640000000000000000000000000000000000000000000000000000000000000012517569636b20436f6e73756c746174696f6e00000000000000000000000000000000000000000000000000000000000000000000000000000000000000000007636f6e73756c7400000000000000000000000000000000000000000000000000",
          "blockHash": "0x0000000000000000000000000000000000000000000000000000000000000000",
          "blockNumber": "0x29f8782",
          "blockTimestamp": "0x69c96be7",
          "transactionHash": "0x134d4ff16d6dfbd565977ed70d11ada7862d63c0ff53fcefd4abcad7ede98b6d",
          "transactionIndex": "0x5a",
          "logIndex": "0x2f3",
          "removed": false
        }
      ],
      "logsBloom": "0x00000000000000000010000000000000000000000000400000000000000000000000000000000000000000000000000000000000000000000000000000040100000000000000000000000000000000000000000000040100000000000000000000000000000000000020000000000000000000000000000000000000000000000000000000000000000000000000000000000000000000000000000000000000000000000000000000000000000000000000000000000000000000000000000000000000000000000000000000000000000010000000000000000000000040000000000000000000000000000000000000000000000000000000000000000000",
      "type": "0x2",
      "transactionHash": "0x134d4ff16d6dfbd565977ed70d11ada7862d63c0ff53fcefd4abcad7ede98b6d",
      "transactionIndex": "0x5a",
      "blockHash": "0x0000000000000000000000000000000000000000000000000000000000000000",
      "blockNumber": "0x29f8782",
      "gasUsed": "0x29691",
      "effectiveGasPrice": "0x4c4b41",
      "blobGasUsed": "0x4310",
      "from": "0x845e8c808e22469aaf07ace9ab7d26c875fbe44f",
      "to": "0xb3c4ecf74cb3427432adff277bb5c9b8fd9b71e0",
      "contractAddress": null,
      "daFootprintGasScalar": "0x94",
      "l1BaseFeeScalar": "0x8dd",
      "l1BlobBaseFee": "0x74b928",
      "l1BlobBaseFeeScalar": "0x101c12",
      "l1Fee": "0x4c09ca37",
      "l1GasPrice": "0x7af706a",
      "l1GasUsed": "0x745"
    },
    {
      "status": "0x1",
      "cumulativeGasUsed": "0x1d6cb7c",
      "logs": [
        {
          "address": "0xb3c4ecf74cb3427432adff277bb5c9b8fd9b71e0",
          "topics": [
            "0x791d0f3c8799c9df05b4434624f423e70d3c803aa8192c9c2557c19654000f37",
            "0x0000000000000000000000000000000000000000000000000000000000000002"
          ],
          "data": "0x000000000000000000000000000000000000000000000000000000000000008000000000000000000000000000000000000000000000000000000000000000c00000000000000000000000000000000000000000000000000000000001c9c380000000000000000000000000000000000000000000000000000000000000003200000000000000000000000000000000000000000000000000000000000000114465657020436f6e73756c746174696f6e000000000000000000000000000000000000000000000000000000000000000000000000000000000000000000000c636f6e73756c742d646565700000000000000000000000000000000000000000",
          "blockHash": "0x0000000000000000000000000000000000000000000000000000000000000000",
          "blockNumber": "0x29f8782",
          "blockTimestamp": "0x69c96be7",
          "transactionHash": "0xd21fe19048ad26388002369c0f0fe3a3883c528495c0f70330e9f4a025039aa4",
          "transactionIndex": "0x5b",
          "logIndex": "0x2f4",
          "removed": false
        }
      ],
      "logsBloom": "0x04000000000000000010000000000000000000000000400000000000000000000000000000000000000000000000000000000000000000000000000000000100000000000000000000000000000000000000000000000100000000000000000000000000000000000020000000000000000000000000000000000000000000000000000000000000000000000000000000000000000000000000000000000000000000000000000000000100000000000000000000000000000000000000000000000000000000000000000000000000000010000000000000000000000000000000000000000000000000000000000000000000008000000000000000000000",
      "type": "0x2",
      "transactionHash": "0xd21fe19048ad26388002369c0f0fe3a3883c528495c0f70330e9f4a025039aa4",
      "transactionIndex": "0x5b",
      "blockHash": "0x0000000000000000000000000000000000000000000000000000000000000000",
      "blockNumber": "0x29f8782",
      "gasUsed": "0x296cd",
      "effectiveGasPrice": "0x4c4b41",
      "blobGasUsed": "0x427c",
      "from": "0x845e8c808e22469aaf07ace9ab7d26c875fbe44f",
      "to": "0xb3c4ecf74cb3427432adff277bb5c9b8fd9b71e0",
      "contractAddress": null,
      "daFootprintGasScalar": "0x94",
      "l1BaseFeeScalar": "0x8dd",
      "l1BlobBaseFee": "0x74b928",
      "l1BlobBaseFeeScalar": "0x101c12",
      "l1Fee": "0x4c09ca37",
      "l1GasPrice": "0x7af706a",
      "l1GasUsed": "0x738"
    },
    {
      "status": "0x1",
      "cumulativeGasUsed": "0x1d961ad",
      "logs": [
        {
          "address": "0xb3c4ecf74cb3427432adff277bb5c9b8fd9b71e0",
          "topics": [
            "0x791d0f3c8799c9df05b4434624f423e70d3c803aa8192c9c2557c19654000f37",
            "0x0000000000000000000000000000000000000000000000000000000000000003"
          ],
          "data": "0x000000000000000000000000000000000000000000000000000000000000008000000000000000000000000000000000000000000000000000000000000000c0000000000000000000000000000000000000000000000000000000000003d09000000000000000000000000000000000000000000000000000000000000001f4000000000000000000000000000000000000000000000000000000000000000d5046502047656e657261746f720000000000000000000000000000000000000000000000000000000000000000000000000000000000000000000000000000037066700000000000000000000000000000000000000000000000000000000000",
          "blockHash": "0x0000000000000000000000000000000000000000000000000000000000000000",
          "blockNumber": "0x29f8782",
          "blockTimestamp": "0x69c96be7",
          "transactionHash": "0x130419cc898a7513c6af69286e6302e37351bf68065bf2ca3f42fc17fe345ac1",
          "transactionIndex": "0x5c",
          "logIndex": "0x2f5",
          "removed": false
        }
      ],
      "logsBloom": "0x00000000000000000010000000000000000000000000400000000000000000000000000000000000000000000000000000000000020000000000000000000100000000000000000000000000000000000000000000000100000000000000000000000000000000000020000000000000000000000000000000000000000000000000000000000000000000000000000000000000000000000000000000000000000000000000000000000000000000000000000000800000000000000000400000000000000000000000000000000000000010000000000000000000000000000000000000000000000000000000000000000000000000000000000000000000",
      "type": "0x2",
      "transactionHash": "0x130419cc898a7513c6af69286e6302e37351bf68065bf2ca3f42fc17fe345ac1",
      "transactionIndex": "0x5c",
      "blockHash": "0x0000000000000000000000000000000000000000000000000000000000000000",
      "blockNumber": "0x29f8782",
      "gasUsed": "0x29631",
      "effectiveGasPrice": "0x4c4b41",
      "blobGasUsed": "0x4154",
      "from": "0x845e8c808e22469aaf07ace9ab7d26c875fbe44f",
      "to": "0xb3c4ecf74cb3427432adff277bb5c9b8fd9b71e0",
      "contractAddress": null,
      "daFootprintGasScalar": "0x94",
      "l1BaseFeeScalar": "0x8dd",
      "l1BlobBaseFee": "0x74b928",
      "l1BlobBaseFeeScalar": "0x101c12",
      "l1Fee": "0x4c09ca37",
      "l1GasPrice": "0x7af706a",
      "l1GasUsed": "0x710"
    },
    {
      "status": "0x1",
      "cumulativeGasUsed": "0x1dbf7f6",
      "logs": [
        {
          "address": "0xb3c4ecf74cb3427432adff277bb5c9b8fd9b71e0",
          "topics": [
            "0x791d0f3c8799c9df05b4434624f423e70d3c803aa8192c9c2557c19654000f37",
            "0x0000000000000000000000000000000000000000000000000000000000000004"
          ],
          "data": "0x000000000000000000000000000000000000000000000000000000000000008000000000000000000000000000000000000000000000000000000000000000c0000000000000000000000000000000000000000000000000000000000bebc2000000000000000000000000000000000000000000000000000000000000000019000000000000000000000000000000000000000000000000000000000000000e436f6e747261637420417564697400000000000000000000000000000000000000000000000000000000000000000000000000000000000000000000000000056175646974000000000000000000000000000000000000000000000000000000",
          "blockHash": "0x0000000000000000000000000000000000000000000000000000000000000000",
          "blockNumber": "0x29f8782",
          "blockTimestamp": "0x69c96be7",
          "transactionHash": "0xc46a3414756045a8f18c05d6835506e1cac5ca689abcb9181c2d62dd8dfbf6c4",
          "transactionIndex": "0x5d",
          "logIndex": "0x2f6",
          "removed": false
        }
      ],
      "logsBloom": "0x00000000000000000010000000000000000000000000400000000000000000000000000000000000000000000000000000000000000000000000000000000100000000000000000000000000000000000000000000000100000000000000000008000000000000000020000000000000000000000000000000000000000000000000000000000000000000000000000000000000000000000000000000000000000000000000000000000000000000000000000000000000002000000000000000000000000000000000000000000000000010008000000000000000000000000000000000000000000000000000000000000000000000000000000000000000",
      "type": "0x2",
      "transactionHash": "0xc46a3414756045a8f18c05d6835506e1cac5ca689abcb9181c2d62dd8dfbf6c4",
      "transactionIndex": "0x5d",
      "blockHash": "0x0000000000000000000000000000000000000000000000000000000000000000",
      "blockNumber": "0x29f8782",
      "gasUsed": "0x29649",
      "effectiveGasPrice": "0x4c4b41",
      "blobGasUsed": "0x3f04",
      "from": "0x845e8c808e22469aaf07ace9ab7d26c875fbe44f",
      "to": "0xb3c4ecf74cb3427432adff277bb5c9b8fd9b71e0",
      "contractAddress": null,
      "daFootprintGasScalar": "0x94",
      "l1BaseFeeScalar": "0x8dd",
      "l1BlobBaseFee": "0x74b928",
      "l1BlobBaseFeeScalar": "0x101c12",
      "l1Fee": "0x4c09ca37",
      "l1GasPrice": "0x7af706a",
      "l1GasUsed": "0x6da"
    },
    {
      "status": "0x1",
      "cumulativeGasUsed": "0x1de8e4b",
      "logs": [
        {
          "address": "0xb3c4ecf74cb3427432adff277bb5c9b8fd9b71e0",
          "topics": [
            "0x791d0f3c8799c9df05b4434624f423e70d3c803aa8192c9c2557c19654000f37",
            "0x0000000000000000000000000000000000000000000000000000000000000005"
          ],
          "data": "0x000000000000000000000000000000000000000000000000000000000000008000000000000000000000000000000000000000000000000000000000000000c00000000000000000000000000000000000000000000000000000000002faf0800000000000000000000000000000000000000000000000000000000000000032000000000000000000000000000000000000000000000000000000000000001146726f6e74656e6420514120417564697400000000000000000000000000000000000000000000000000000000000000000000000000000000000000000000027161000000000000000000000000000000000000000000000000000000000000",
          "blockHash": "0x0000000000000000000000000000000000000000000000000000000000000000",
          "blockNumber": "0x29f8782",
          "blockTimestamp": "0x69c96be7",
          "transactionHash": "0x1c0bb7236d297f196852b63b1bb86105f0e19354394a3166e10667f79568e628",
          "transactionIndex": "0x5e",
          "logIndex": "0x2f7",
          "removed": false
        }
      ],
      "logsBloom": "0x00000000000000000010000000000000000000000000400000000000000000000000000000000000000000000000000000000000000000000000000000000100000010000000000000000000000000000000000000000100000000000000000000000000000000000020000000000000000000000000000000000000000000000000000000000000000000000000001000000800000000000000000000000000000000000000000000000000000000000000000000000000000000000000000000000000000000000000000000000000000010000000000000000000000000000000000000000000000000000000000000000000000000000000000000000000",
      "type": "0x2",
      "transactionHash": "0x1c0bb7236d297f196852b63b1bb86105f0e19354394a3166e10667f79568e628",
      "transactionIndex": "0x5e",
      "blockHash": "0x0000000000000000000000000000000000000000000000000000000000000000",
      "blockNumber": "0x29f8782",
      "gasUsed": "0x29655",
      "effectiveGasPrice": "0x4c4b41",
      "blobGasUsed": "0x3f98",
      "from": "0x845e8c808e22469aaf07ace9ab7d26c875fbe44f",
      "to": "0xb3c4ecf74cb3427432adff277bb5c9b8fd9b71e0",
      "contractAddress": null,
      "daFootprintGasScalar": "0x94",
      "l1BaseFeeScalar": "0x8dd",
      "l1BlobBaseFee": "0x74b928",
      "l1BlobBaseFeeScalar": "0x101c12",
      "l1Fee": "0x4c09ca37",
      "l1GasPrice": "0x7af706a",
      "l1GasUsed": "0x6e7"
    },
    {
      "status": "0x1",
      "cumulativeGasUsed": "0x1e12428",
      "logs": [
        {
          "address": "0xb3c4ecf74cb3427432adff277bb5c9b8fd9b71e0",
          "topics": [
            "0x791d0f3c8799c9df05b4434624f423e70d3c803aa8192c9c2557c19654000f37",
            "0x0000000000000000000000000000000000000000000000000000000000000006"
          ],
          "data": "0x000000000000000000000000000000000000000000000000000000000000008000000000000000000000000000000000000000000000000000000000000000c0000000000000000000000000000000000000000000000000000000003b9aca00000000000000000000000000000000000000000000000000000000000000000100000000000000000000000000000000000000000000000000000000000000054275696c6400000000000000000000000000000000000000000000000000000000000000000000000000000000000000000000000000000000000000000000056275696c64000000000000000000000000000000000000000000000000000000",
          "blockHash": "0x0000000000000000000000000000000000000000000000000000000000000000",
          "blockNumber": "0x29f8782",
          "blockTimestamp": "0x69c96be7",
          "transactionHash": "0x4992062162265dfc9ad7eb3be34232b0dec70185d967514b1f2d5474a0ec49a4",
          "transactionIndex": "0x5f",
          "logIndex": "0x2f8",
          "removed": false
        }
      ],
      "logsBloom": "0x00000000000000000010000000000000000000000000400000000000000000000000000000000000000000000000000000000000000400000000000000000100000000000000000000000000000000000000000000000100000000000000000000000000000000000020000000000000000000000000000000000000000000000000000400000000000000000000000000000000000000000000000000000000000000000000000000000000000000000000000000000000000000080000000000000000000000000000000000000000000010000000000000000000000000000000000000000000000000000000000000000000000000000000000000000000",
      "type": "0x2",
      "transactionHash": "0x4992062162265dfc9ad7eb3be34232b0dec70185d967514b1f2d5474a0ec49a4",
      "transactionIndex": "0x5f",
      "blockHash": "0x0000000000000000000000000000000000000000000000000000000000000000",
      "blockNumber": "0x29f8782",
      "gasUsed": "0x295dd",
      "effectiveGasPrice": "0x4c4b41",
      "blobGasUsed": "0x3af8",
      "from": "0x845e8c808e22469aaf07ace9ab7d26c875fbe44f",
      "to": "0xb3c4ecf74cb3427432adff277bb5c9b8fd9b71e0",
      "contractAddress": null,
      "daFootprintGasScalar": "0x94",
      "l1BaseFeeScalar": "0x8dd",
      "l1BlobBaseFee": "0x74b928",
      "l1BlobBaseFeeScalar": "0x101c12",
      "l1Fee": "0x4c09ca37",
      "l1GasPrice": "0x7af706a",
      "l1GasUsed": "0x662"
    },
    {
      "status": "0x1",
      "cumulativeGasUsed": "0x1e3baa1",
      "logs": [
        {
          "address": "0xb3c4ecf74cb3427432adff277bb5c9b8fd9b71e0",
          "topics": [
            "0x791d0f3c8799c9df05b4434624f423e70d3c803aa8192c9c2557c19654000f37",
            "0x0000000000000000000000000000000000000000000000000000000000000007"
          ],
          "data": "0x000000000000000000000000000000000000000000000000000000000000008000000000000000000000000000000000000000000000000000000000000000c00000000000000000000000000000000000000000000000000000000005f5e100000000000000000000000000000000000000000000000000000000000000000d000000000000000000000000000000000000000000000000000000000000000f5265736561726368205265706f7274000000000000000000000000000000000000000000000000000000000000000000000000000000000000000000000000087265736561726368000000000000000000000000000000000000000000000000",
          "blockHash": "0x0000000000000000000000000000000000000000000000000000000000000000",
          "blockNumber": "0x29f8782",
          "blockTimestamp": "0x69c96be7",
          "transactionHash": "0xd2b22736d0d33213743f83687ef0a31db1d6308950b5fe86c62779651cec234b",
          "transactionIndex": "0x60",
          "logIndex": "0x2f9",
          "removed": false
        }
      ],
      "logsBloom": "0x00000000000000000010000000000000000000000000400000000000000000000000000000000000000000000000000000001000000000000000000000000100000020000000000000000000000000000000000000000100000000000000000000000000000000000020000000000000000000000000000000000000000000000000000000000000000000000000000000000000000000000000000000000000000000000000000000000000000000000000000000000000000000000000000000000000000000000000000000000000000010000000000000000100000000000000000000000000000000000000000000000000000000000000000000000000",
      "type": "0x2",
      "transactionHash": "0xd2b22736d0d33213743f83687ef0a31db1d6308950b5fe86c62779651cec234b",
      "transactionIndex": "0x60",
      "blockHash": "0x0000000000000000000000000000000000000000000000000000000000000000",
      "blockNumber": "0x29f8782",
      "gasUsed": "0x29679",
      "effectiveGasPrice": "0x4c4b41",
      "blobGasUsed": "0x40c0",
      "from": "0x845e8c808e22469aaf07ace9ab7d26c875fbe44f",
      "to": "0xb3c4ecf74cb3427432adff277bb5c9b8fd9b71e0",
      "contractAddress": null,
      "daFootprintGasScalar": "0x94",
      "l1BaseFeeScalar": "0x8dd",
      "l1BlobBaseFee": "0x74b928",
      "l1BlobBaseFeeScalar": "0x101c12",
      "l1Fee": "0x4c09ca37",
      "l1GasPrice": "0x7af706a",
      "l1GasUsed": "0x702"
    },
    {
      "status": "0x1",
      "cumulativeGasUsed": "0x1e650f6",
      "logs": [
        {
          "address": "0xb3c4ecf74cb3427432adff277bb5c9b8fd9b71e0",
          "topics": [
            "0x791d0f3c8799c9df05b4434624f423e70d3c803aa8192c9c2557c19654000f37",
            "0x0000000000000000000000000000000000000000000000000000000000000008"
          ],
          "data": "0x000000000000000000000000000000000000000000000000000000000000008000000000000000000000000000000000000000000000000000000000000000c00000000000000000000000000000000000000000000000000000000002faf0800000000000000000000000000000000000000000000000000000000000000032000000000000000000000000000000000000000000000000000000000000000e4a75646765202f204f7261636c6500000000000000000000000000000000000000000000000000000000000000000000000000000000000000000000000000056a75646765000000000000000000000000000000000000000000000000000000",
          "blockHash": "0x0000000000000000000000000000000000000000000000000000000000000000",
          "blockNumber": "0x29f8782",
          "blockTimestamp": "0x69c96be7",
          "transactionHash": "0x62ae64f4001fba45550dfc19942df675b6e9214dd3208d88f5faca7b2870d9d3",
          "transactionIndex": "0x61",
          "logIndex": "0x2fa",
          "removed": false
        }
      ],
      "logsBloom": "0x00000000000000000010000000000000000000000000400000000000000000000000000000000000000000000000000000000000000080000000000000000100000000000000000000000000000000000000000000000100000000000000000000000000000000000020000000000000000000000000000000000000000000000080000000000000000000000000000000000000000000000000000000000000000000000000000000000000000000000000000000000000000000000000000040000000000000000000000000000000000010000000000000000000000000000000000000000000000000000000000000000000000000000000000000000000",
      "type": "0x2",
      "transactionHash": "0x62ae64f4001fba45550dfc19942df675b6e9214dd3208d88f5faca7b2870d9d3",
      "transactionIndex": "0x61",
      "blockHash": "0x0000000000000000000000000000000000000000000000000000000000000000",
      "blockNumber": "0x29f8782",
      "gasUsed": "0x29655",
      "effectiveGasPrice": "0x4c4b41",
      "blobGasUsed": "0x3e70",
      "from": "0x845e8c808e22469aaf07ace9ab7d26c875fbe44f",
      "to": "0xb3c4ecf74cb3427432adff277bb5c9b8fd9b71e0",
      "contractAddress": null,
      "daFootprintGasScalar": "0x94",
      "l1BaseFeeScalar": "0x8dd",
      "l1BlobBaseFee": "0x74b928",
      "l1BlobBaseFeeScalar": "0x101c12",
      "l1Fee": "0x4c09ca37",
      "l1GasPrice": "0x7af706a",
      "l1GasUsed": "0x6cd"
    },
    {
      "status": "0x1",
      "cumulativeGasUsed": "0x1e8e703",
      "logs": [
        {
          "address": "0xb3c4ecf74cb3427432adff277bb5c9b8fd9b71e0",
          "topics": [
            "0x791d0f3c8799c9df05b4434624f423e70d3c803aa8192c9c2557c19654000f37",
            "0x0000000000000000000000000000000000000000000000000000000000000009"
          ],
          "data": "0x000000000000000000000000000000000000000000000000000000000000008000000000000000000000000000000000000000000000000000000000000000c0000000000000000000000000000000000000000000000000000000000bebc2000000000000000000000000000000000000000000000000000000000000000019000000000000000000000000000000000000000000000000000000000000000748756d616e514100000000000000000000000000000000000000000000000000000000000000000000000000000000000000000000000000000000000000000768756d616e716100000000000000000000000000000000000000000000000000",
          "blockHash": "0x0000000000000000000000000000000000000000000000000000000000000000",
          "blockNumber": "0x29f8782",
          "blockTimestamp": "0x69c96be7",
          "transactionHash": "0xf1531976fd0aee280a55d388419c6809b03688fb5887aa8a08ac6a9234b26be4",
          "transactionIndex": "0x62",
          "logIndex": "0x2fb",
          "removed": false
        }
      ],
      "logsBloom": "0x00000000000000000010000000000000000000000000400000000000000000000000000000000000000000000000000000000000000000000000000000200100000000000000000000000000000000000000000000000100000000000000000000000000000000000020000000000000000000000000000000000000000000000000000000000000000000000000000000001000000000000000000000000000000000000000000000000000000000000000000000000000000000000000000000000000000000000000000000000000000010000000000000000000000000000000000000000000000000000000000000000000000000000000000000800000",
      "type": "0x2",
      "transactionHash": "0xf1531976fd0aee280a55d388419c6809b03688fb5887aa8a08ac6a9234b26be4",
      "transactionIndex": "0x62",
      "blockHash": "0x0000000000000000000000000000000000000000000000000000000000000000",
      "blockNumber": "0x29f8782",
      "gasUsed": "0x2960d",
      "effectiveGasPrice": "0x4c4b41",
      "blobGasUsed": "0x3ddc",
      "from": "0x845e8c808e22469aaf07ace9ab7d26c875fbe44f",
      "to": "0xb3c4ecf74cb3427432adff277bb5c9b8fd9b71e0",
      "contractAddress": null,
      "daFootprintGasScalar": "0x94",
      "l1BaseFeeScalar": "0x8dd",
      "l1BlobBaseFee": "0x74b928",
      "l1BlobBaseFeeScalar": "0x101c12",
      "l1Fee": "0x4c09ca37",
      "l1GasPrice": "0x7af706a",
      "l1GasUsed": "0x6bf"
    },
    {
      "status": "0x1",
      "cumulativeGasUsed": "0x1eb7d10",
      "logs": [
        {
          "address": "0xb3c4ecf74cb3427432adff277bb5c9b8fd9b71e0",
          "topics": [
            "0x791d0f3c8799c9df05b4434624f423e70d3c803aa8192c9c2557c19654000f37",
            "0x000000000000000000000000000000000000000000000000000000000000000a"
          ],
          "data": "0x000000000000000000000000000000000000000000000000000000000000008000000000000000000000000000000000000000000000000000000000000000c0000000000000000000000000000000000000000000000000000000001dcd650000000000000000000000000000000000000000000000000000000000000000050000000000000000000000000000000000000000000000000000000000000007466561747572650000000000000000000000000000000000000000000000000000000000000000000000000000000000000000000000000000000000000000076665617475726500000000000000000000000000000000000000000000000000",
          "blockHash": "0x0000000000000000000000000000000000000000000000000000000000000000",
          "blockNumber": "0x29f8782",
          "blockTimestamp": "0x69c96be7",
          "transactionHash": "0x7bf42f91a84f55632d08a9ace4f5c289b6605ff25a6c6d486a83fe72bc4bbd31",
          "transactionIndex": "0x63",
          "logIndex": "0x2fc",
          "removed": false
        }
      ],
      "logsBloom": "0x00000000000000000010000000000000000000000000400000000000000000000000000000000000000000000000000000000000040000000020000000000100000000000000000000000000000000000000000000000100000000000000000000000000000000000020000000000000000000000000000000000000000000000000000000000000010000000000000000000000000000000000000000000000000000000000000000000000000000000000000000000000000000000000000000000000000000000000000000000000000010000000000000000000000000000000000000000000000000000000000000000000000000000000000000000000",
      "type": "0x2",
      "transactionHash": "0x7bf42f91a84f55632d08a9ace4f5c289b6605ff25a6c6d486a83fe72bc4bbd31",
      "transactionIndex": "0x63",
      "blockHash": "0x0000000000000000000000000000000000000000000000000000000000000000",
      "blockNumber": "0x29f8782",
      "gasUsed": "0x2960d",
      "effectiveGasPrice": "0x4c4b41",
      "blobGasUsed": "0x3af8",
      "from": "0x845e8c808e22469aaf07ace9ab7d26c875fbe44f",
      "to": "0xb3c4ecf74cb3427432adff277bb5c9b8fd9b71e0",
      "contractAddress": null,
      "daFootprintGasScalar": "0x94",
      "l1BaseFeeScalar": "0x8dd",
      "l1BlobBaseFee": "0x74b928",
      "l1BlobBaseFeeScalar": "0x101c12",
      "l1Fee": "0x4c09ca37",
      "l1GasPrice": "0x7af706a",
      "l1GasUsed": "0x66f"
    },
    {
      "status": "0x1",
      "cumulativeGasUsed": "0x1ec8e93",
      "logs": [
        {
          "address": "0xb3c4ecf74cb3427432adff277bb5c9b8fd9b71e0",
          "topics": [
            "0xb10d2a24a8c3686841e966f0c2c64c385cfaecb50a09b16aa3579bfcf3989dcd",
            "0x000000000000000000000000a822155c242b3a307086f1e2787e393d78a0b5ac"
          ],
          "data": "0x",
          "blockHash": "0x0000000000000000000000000000000000000000000000000000000000000000",
          "blockNumber": "0x29f8782",
          "blockTimestamp": "0x69c96be7",
          "transactionHash": "0x87351d7ff21510215add1e7d76893335c56efaf2c6283ff75dd62d4943db34e9",
          "transactionIndex": "0x64",
          "logIndex": "0x2fd",
          "removed": false
        }
      ],
      "logsBloom": "0x00000000004000000010000000000000000000000000000000000000000000000000000000000000000000000000000000000000000000000000000000000000000000000000000000000000000000000000000000000000000000800000000000000000000000000020000000000000000000000000000020001000000000000000000000000000000000000000000000000000000000000000000020000000000000000000000000000000000000000000000000000000000000000000000000000000000000000000000000000000000010000000000000000000000000000000000000000000000000000000100000000000000000000000000000000000",
      "type": "0x2",
      "transactionHash": "0x87351d7ff21510215add1e7d76893335c56efaf2c6283ff75dd62d4943db34e9",
      "transactionIndex": "0x64",
      "blockHash": "0x0000000000000000000000000000000000000000000000000000000000000000",
      "blockNumber": "0x29f8782",
      "gasUsed": "0x11183",
      "effectiveGasPrice": "0x4c4b41",
      "blobGasUsed": "0x39d0",
      "from": "0x845e8c808e22469aaf07ace9ab7d26c875fbe44f",
      "to": "0xb3c4ecf74cb3427432adff277bb5c9b8fd9b71e0",
      "contractAddress": null,
      "daFootprintGasScalar": "0x94",
      "l1BaseFeeScalar": "0x8dd",
      "l1BlobBaseFee": "0x74b928",
      "l1BlobBaseFeeScalar": "0x101c12",
      "l1Fee": "0x4c09ca37",
      "l1GasPrice": "0x7af706a",
      "l1GasUsed": "0x640"
    },
    {
      "status": "0x1",
      "cumulativeGasUsed": "0x1ed66a9",
      "logs": [
        {
          "address": "0xb3c4ecf74cb3427432adff277bb5c9b8fd9b71e0",
          "topics": [
            "0xb10d2a24a8c3686841e966f0c2c64c385cfaecb50a09b16aa3579bfcf3989dcd",
            "0x0000000000000000000000008c00eae9b9a2f89bddaae4f6884c716562c7ce93"
          ],
          "data": "0x",
          "blockHash": "0x0000000000000000000000000000000000000000000000000000000000000000",
          "blockNumber": "0x29f8782",
          "blockTimestamp": "0x69c96be7",
          "transactionHash": "0x1e1882f8e1cfe65c4cef5afc30e5ca05d7a5efd9b4796917b2ea02ea573b3fa8",
          "transactionIndex": "0x65",
          "logIndex": "0x2fe",
          "removed": false
        }
      ],
      "logsBloom": "0x00000000004000000010000000000000000000000000000000000000000000000000000000000000000000000000000000000000000000000000000000000000000000000000000000000000000000000000000000000000040000000000000000000000000000000020000000000000000000000000000020000000000000000000000000000000000000000000000000000000000000000000000000000000000000000000000000000000000000000000000000000000000000000000000000000000000000000000000000000000000010000000000000000000000000000000000000000000800000000000100000000000000000000008000000000000",
      "type": "0x2",
      "transactionHash": "0x1e1882f8e1cfe65c4cef5afc30e5ca05d7a5efd9b4796917b2ea02ea573b3fa8",
      "transactionIndex": "0x65",
      "blockHash": "0x0000000000000000000000000000000000000000000000000000000000000000",
      "blockNumber": "0x29f8782",
      "gasUsed": "0xd816",
      "effectiveGasPrice": "0x4c4b41",
      "blobGasUsed": "0x39d0",
      "from": "0x845e8c808e22469aaf07ace9ab7d26c875fbe44f",
      "to": "0xb3c4ecf74cb3427432adff277bb5c9b8fd9b71e0",
      "contractAddress": null,
      "daFootprintGasScalar": "0x94",
      "l1BaseFeeScalar": "0x8dd",
      "l1BlobBaseFee": "0x74b928",
      "l1BlobBaseFeeScalar": "0x101c12",
      "l1Fee": "0x4c09ca37",
      "l1GasPrice": "0x7af706a",
      "l1GasUsed": "0x640"
    },
    {
      "status": "0x1",
      "cumulativeGasUsed": "0x1ee4836",
      "logs": [
        {
          "address": "0xb3c4ecf74cb3427432adff277bb5c9b8fd9b71e0",
          "topics": [
            "0xb10d2a24a8c3686841e966f0c2c64c385cfaecb50a09b16aa3579bfcf3989dcd",
            "0x000000000000000000000000472c382550780cd30e1d27155b96fa4b63d9247e"
          ],
          "data": "0x",
          "blockHash": "0x0000000000000000000000000000000000000000000000000000000000000000",
          "blockNumber": "0x29f8782",
          "blockTimestamp": "0x69c96be7",
          "transactionHash": "0xcdbd5faa79049a6bd468397ef9ac230097802d0a20b0e549a2e20c1f93ad1e54",
          "transactionIndex": "0x66",
          "logIndex": "0x2ff",
          "removed": false
        }
      ],
      "logsBloom": "0x00000000004000000010000000000000000000000000000000000000000000000000000000000000004000000000000000000000000000000000000000000000000000000000000000000000000000000000000000000000000000000000000000000000000000000020000000000000000000000000000020000000000000000000000000000000000000000000000000000000000000000000004000000000000000000000000000000000000000000000000000000000000000000000000000000000000000000000000000000000000010000000000000000000000000000000000000000000000000000020100000000000000000000000000000000000",
      "type": "0x2",
      "transactionHash": "0xcdbd5faa79049a6bd468397ef9ac230097802d0a20b0e549a2e20c1f93ad1e54",
      "transactionIndex": "0x66",
      "blockHash": "0x0000000000000000000000000000000000000000000000000000000000000000",
      "blockNumber": "0x29f8782",
      "gasUsed": "0xe18d",
      "effectiveGasPrice": "0x4c4b41",
      "blobGasUsed": "0x39d0",
      "from": "0x845e8c808e22469aaf07ace9ab7d26c875fbe44f",
      "to": "0xb3c4ecf74cb3427432adff277bb5c9b8fd9b71e0",
      "contractAddress": null,
      "daFootprintGasScalar": "0x94",
      "l1BaseFeeScalar": "0x8dd",
      "l1BlobBaseFee": "0x74b928",
      "l1BlobBaseFeeScalar": "0x101c12",
      "l1Fee": "0x4c09ca37",
      "l1GasPrice": "0x7af706a",
      "l1GasUsed": "0x640"
    },
    {
      "status": "0x1",
      "cumulativeGasUsed": "0x1ef332e",
      "logs": [
        {
          "address": "0xb3c4ecf74cb3427432adff277bb5c9b8fd9b71e0",
          "topics": [
            "0xb10d2a24a8c3686841e966f0c2c64c385cfaecb50a09b16aa3579bfcf3989dcd",
            "0x00000000000000000000000009defc9e6ffc5e41f42e0d50512eef9354523e0e"
          ],
          "data": "0x",
          "blockHash": "0x0000000000000000000000000000000000000000000000000000000000000000",
          "blockNumber": "0x29f8782",
          "blockTimestamp": "0x69c96be7",
          "transactionHash": "0x742f13adb6edb4de4d4d3f12467efcf681265f15cf6dea990aa105e88d66da74",
          "transactionIndex": "0x67",
          "logIndex": "0x300",
          "removed": false
        }
      ],
      "logsBloom": "0x00000000004000000010000000000000000000000000000000000000000000000000000000000000000000000000000000000000000000000000000000000000000001000000000000000000000000000000000000000000000000000000000000000000000000000020000000000000000000000000000020000000000000000000000040000000000000000000000000000000000000000000000000000000000000000000000000000000000000000000000000000000000000000000000000000000000000000000000000000000000010000000000000000000000000000000000000000000000000000000100000000000000000000000800000000000",
      "type": "0x2",
      "transactionHash": "0x742f13adb6edb4de4d4d3f12467efcf681265f15cf6dea990aa105e88d66da74",
      "transactionIndex": "0x67",
      "blockHash": "0x0000000000000000000000000000000000000000000000000000000000000000",
      "blockNumber": "0x29f8782",
      "gasUsed": "0xeaf8",
      "effectiveGasPrice": "0x4c4b41",
      "blobGasUsed": "0x39d0",
      "from": "0x845e8c808e22469aaf07ace9ab7d26c875fbe44f",
      "to": "0xb3c4ecf74cb3427432adff277bb5c9b8fd9b71e0",
      "contractAddress": null,
      "daFootprintGasScalar": "0x94",
      "l1BaseFeeScalar": "0x8dd",
      "l1BlobBaseFee": "0x74b928",
      "l1BlobBaseFeeScalar": "0x101c12",
      "l1Fee": "0x4c09ca37",
      "l1GasPrice": "0x7af706a",
      "l1GasUsed": "0x640"
    },
    {
      "status": "0x1",
      "cumulativeGasUsed": "0x1efa5fd",
      "logs": [
        {
          "address": "0xb3c4ecf74cb3427432adff277bb5c9b8fd9b71e0",
          "topics": [
            "0x8be0079c531659141344cd1fd0a4f28419497f9722a3daafe3b4186f6b6457e0",
            "0x000000000000000000000000845e8c808e22469aaf07ace9ab7d26c875fbe44f",
            "0x00000000000000000000000011ce532845ce0eacda41f72fdc1c88c335981442"
          ],
          "data": "0x",
          "blockHash": "0x0000000000000000000000000000000000000000000000000000000000000000",
          "blockNumber": "0x29f8782",
          "blockTimestamp": "0x69c96be7",
          "transactionHash": "0x1d82de5b4902c25555ef418420a7c2efbbf512b58f211f9e8cab3d41b0c3c323",
          "transactionIndex": "0x68",
          "logIndex": "0x301",
          "removed": false
        }
      ],
      "logsBloom": "0x00000000000000000010000000000000000000000000000000800040000000000000000000000000000000000000000000000000000000000000000000000000000000000000800000000000000000000001000000000000000000000000000000000000000000000020000000000000000000000000008000000010000000400000000000000000000000000000000000000000000000000000000000000000000000000000000000000000000080000000000000000000000000000000000000000000000000000000000000000000000010000000000000000000000000000000000000000400000000000000000000000000000000000000000000000000",
      "type": "0x2",
      "transactionHash": "0x1d82de5b4902c25555ef418420a7c2efbbf512b58f211f9e8cab3d41b0c3c323",
      "transactionIndex": "0x68",
      "blockHash": "0x0000000000000000000000000000000000000000000000000000000000000000",
      "blockNumber": "0x29f8782",
      "gasUsed": "0x72cf",
      "effectiveGasPrice": "0x4c4b41",
      "blobGasUsed": "0x39d0",
      "from": "0x845e8c808e22469aaf07ace9ab7d26c875fbe44f",
      "to": "0xb3c4ecf74cb3427432adff277bb5c9b8fd9b71e0",
      "contractAddress": null,
      "daFootprintGasScalar": "0x94",
      "l1BaseFeeScalar": "0x8dd",
      "l1BlobBaseFee": "0x74b928",
      "l1BlobBaseFeeScalar": "0x101c12",
      "l1Fee": "0x4c09ca37",
      "l1GasPrice": "0x7af706a",
      "l1GasUsed": "0x640"
    }
  ],
  "libraries": [],
  "pending": [],
  "returns": {},
  "timestamp": 1774808038205,
  "chain": 8453,
  "commit": "48818ea"
}