{
  "transactions": [
    {
      "hash": "0x5aa1eb292032d65786e93aa257ec43915d162c32e5bd104aebdd79e7a41ff07c",
      "transactionType": "CREATE",
      "contractName": "LeftClawServicesV2",
      "contractAddress": "0x13f593c6151504ff5fce741245b49771f83497b5",
      "function": null,
      "arguments": [
        "0x9f86dB9fc6f7c9408e8Fda3Ff8ce4e78ac7a6b07",
        "0x833589fCD6eDb6E08f4c7C32D4f71b54bdA02913",
        "0x2626664c2603336E57B271c5C0b26F421741e481",
        "0x4200000000000000000000000000000000000006",
        "0x90eF2A9211A3E7CE788561E5af54C76B0Fa3aEd0"
      ],
      "transaction": {
        "from": "0x845e8c808e22469aaf07ace9ab7d26c875fbe44f",
        "gas": "0x5a2b19",
        "value": "0x0",
        "input": "0x61010080604052346105615760a0816151bc80380380916100208285610565565b8339810103126105615761003381610588565b61003f60208301610588565b9161004c60408201610588565b610064608061005d60608501610588565b9301610588565b331561054e575f8054336001600160a01b0319821681178355916001600160a01b03909116907f8be0079c531659141344cd1fd0a4f28419497f9722a3daafe3b4186f6b6457e09080a360017f9b779b17422d0df92223018b32b4d1fa46e071723d6817e2486d003becc55f00556001600160a01b038416918215158061053c575b6100ef9061059c565b6001600160a01b0316908115158061052a575b61010b9061059c565b6001600160a01b03169182156104f9576080526001600160a01b03851660a05260c05260e0829052600880546001600160a01b031916919091179055600160028190556004556040516001600160601b0319606094851b81166020830152607d60ea1b603483015291841b82166037820181905261017760eb1b604b8301529290931b16604e8301819052604283526101a5606284610565565b82516001600160401b0381116103ff57600954600181811c911680156104ef575b60208210146103e157601f8111610481575b506020601f821160011461041e57819293945f92610413575b50508160011b915f199060031b1c1916176009555b60405191602083015261017760eb1b60348301526037820152602b815261022e604b82610565565b80516001600160401b0381116103ff57600a54600181811c911680156103f5575b60208210146103e157601f8111610373575b50602091601f8211600114610313579181925f92610308575b50508160011b915f199060031b1c191617600a555b604051614beb90816105d1823960805181818161024301528181610bc201528181611b12015281816124a7015281816131ab015281816137c90152613bf3015260a0518181816126300152613b7a015260c051818181611c6a015281816122370152612664015260e051818181611c090152612c1f0152f35b015190505f8061027a565b601f19821692600a5f52805f20915f5b85811061035b57508360019510610343575b505050811b01600a5561028f565b01515f1960f88460031b161c191690555f8080610335565b91926020600181928685015181550194019201610323565b8181111561026157600a5f52601f820160051c7fc65a7bb8d6351c1cf70c95a316cc6a92839c986682d98bc35f958f4883f9d2a8602084106103d9575b81601f9101920160051c03905f5b8281106103cc575050610261565b5f828201556001016103be565b5f91506103b0565b634e487b7160e01b5f52602260045260245ffd5b90607f169061024f565b634e487b7160e01b5f52604160045260245ffd5b015190505f806101f1565b601f1982169060095f52805f20915f5b81811061046957509583600195969710610451575b505050811b01600955610206565b01515f1960f88460031b161c191690555f8080610443565b9192602060018192868b01518155019401920161042e565b818111156101d85760095f52601f820160051c7f6e1540171b6c0c960b71a7020d9f60077f6af931a8bbf590da0223dacf75c7af602084106104e7575b81601f9101920160051c03905f5b8281106104da5750506101d8565b5f828201556001016104cc565b5f91506104be565b90607f16906101c6565b60405162461bcd60e51b815260206004820152600960248201526821747265617375727960b81b6044820152606490fd5b506001600160a01b0384161515610102565b506001600160a01b03861615156100e6565b631e4fbdf760e01b5f525f60045260245ffd5b5f80fd5b601f909101601f19168101906001600160401b038211908210176103ff57604052565b51906001600160a01b038216820361056157565b156105a357565b60405162461bcd60e51b815260206004820152600560248201526410b0b2323960d91b6044820152606490fdfe6080604052600436101561001a575b3615610018575f80fd5b005b5f3560e01c80630644100b14613ffd578063111b9a4714613ba957806311eac85514613b655780631321c95e14613a9f578063153c651914613997578063180aedf3146138235780631dffa3dc146136fd57806321e92a5d1461327e57806325b86edf1461311c5780632df50a2114612fe2578063347ba9a614612c8b5780633aee799614612c4e5780633fc8cef314612c0a5780634ba43c2d146125dd5780634c3912e71461252257806361d027b3146124fa57806363b2f3c914612371578063690d8320146122aa578063715018a614612266578063735de9f7146122225780637507f8b614611bda578063806ad57e14611b685780638da5cb5b14611b4157806390111b0d14611afd578063980db6f41461197c578063a65c61f714611838578063aa156645146117fb578063b0c2aa5e146117de578063b618d5a714611709578063be38eaff146116ec578063bf22c45714611432578063c4f987a5146113cd578063c5d18537146112f9578063cf216ee214610f39578063d151909814610f1c578063d190508f14610d76578063d87dac2914610d02578063dd8f7d1b14610c20578063df5af13f14610bed578063e0d1efc814610ad6578063f0f4426014610a69578063f2fde38b146109f7578063f573453f146106cb5763ff49a4460361000e57346106c75761021036614257565b9261021c929192614888565b610230670de0b6b3a7640000821015614467565b61023b841515614433565b6102678130337f000000000000000000000000000000000000000000000000000000000000000061498e565b6102af60045493610277856147d0565b600455826106b3575b6040519561028d876140a1565b8587523360208801525f6040880152836060880152846080880152369161481c565b60a08501525f60c08501524260e08501525f6101008501525f6101208501526020936040516102de86826140bd565b5f80825261014083019190915261016082018190526101808201525f6101a08201525f6101c082015260405161031486826140bd565b5f8082526101e083019190915284815260038087526040918290208351815560208401516001820180546001600160a01b0319166001600160a01b03929092169190911790559183015160028301556060830151908201556080820151600482015560a0820151805160058301916001600160401b0382116105d9576103a48261039e8554614018565b85614674565b8890601f8311600114610650576103c592915f918361056b575b50506146b8565b90555b60c08201516005811015610557576103e39060068301614516565b60e08201516007820155610100820151600882015561012082015160098201556101408201518051600a8301916001600160401b0382116105d95761042c8261039e8554614018565b8890601f83116001146105ed5761044c92915f918361056b5750506146b8565b90555b610160820151600b820180546001600160a01b0319166001600160a01b039290921691909117815561018083015190919061048c90151583614764565b6101a083015190600482101561055757825460ff60a81b191660a89290921b60ff60a81b16919091179091556101c0820151600c8201556101e091909101518051600d9290920191906001600160401b0382116105d9576104f18261039e8554614018565b8690601f83116001146105765761051192915f918361056b5750506146b8565b90555b604080515f8152948501919091528301525f60608301525f60808301525f516020614b965f395f51905f5260a03393a360015f516020614b765f395f51905f5255005b634e487b7160e01b5f52602160045260245ffd5b015190505f806103be565b90601f19831691845f52885f20925f5b8a8282106105c35750509084600195949392106105ab575b505050811b019055610514565b01515f1960f88460031b161c191690555f808061059e565b6001859682939686015181550195019301610586565b634e487b7160e01b5f52604160045260245ffd5b90601f19831691845f528a5f20925f5b8c82821061063a575050908460019594939210610622575b505050811b01905561044f565b01515f1960f88460031b161c191690555f8080610615565b60018596829396860151815501950193016105fd565b90601f19831691845f528a5f20925f5b8c82821061069d575050908460019594939210610685575b505050811b0190556103c8565b01515f1960f88460031b161c191690555f8080610678565b6001859682939686015181550195019301610660565b6106bf836007546145d1565b600755610280565b5f80fd5b346106c75760603660031901126106c7576004356024356001600160401b0381116106c7576106fe90369060040161422a565b91906044356001600160401b0381116106c75761071f90369060040161422a565b610727614888565b335f52600560205261073f60ff60405f20541661472e565b835f52600360205260405f20610757815415156144b0565b60ff60068201541660058110156105575760016107749114614852565b851515806109eb575b156109be5781610904575b505050815f52600660205260405f20604051906107a482614050565b6107af36868561481c565b825260208201904282528054600160401b8110156105d9576107d691600182018155614406565b9290926108f157518051906001600160401b0382116105d957610803826107fd8654614018565b86614674565b602090601f8311600114610879579261083b8361085896946001945f516020614af65f395f51905f5299975f9261086e5750506146b8565b83555b5191015560405191829160208352339660208401916146ca565b0390a360015f516020614b765f395f51905f5255005b015190508b806103be565b90601f19831691855f52815f20925f5b8181106108d95750936001935f516020614af65f395f51905f529896938593836108589a98106108c1575b505050811b01835561083e565b01515f1960f88460031b161c191690558a80806108b4565b92936020600181928786015181550195019301610889565b634e487b7160e01b5f525f60045260245ffd5b600d01916001600160401b0382116105d9576109248261039e8554614018565b5f90601f831160011461095a5761094492915f918361094f5750506146b8565b90555b838080610788565b0135905087806103be565b601f19831691845f5260205f20925f5b8181106109a6575090846001959493921061098d575b505050811b019055610947565b01355f19600384901b60f8161c19169055868080610980565b9193602060018192878701358155019501920161096a565b60405162461bcd60e51b8152602060048201526005602482015264216e6f746560d81b6044820152606490fd5b506101f486111561077d565b346106c75760203660031901126106c757610a10614361565b610a18614a4f565b6001600160a01b03168015610a56575f80546001600160a01b03198116831782556001600160a01b0316905f516020614b165f395f51905f529080a3005b631e4fbdf760e01b5f525f60045260245ffd5b346106c75760203660031901126106c757610a82614361565b610a8a614a4f565b6001600160a01b0316610a9e81151561453b565b600880546001600160a01b031916821790557f7dae230f18360d76a040c81f050aa14eb9d6dc7901b20fc5d855e2a20fe814d15f80a2005b346106c75760203660031901126106c757600435610af2614888565b335f526005602052610b0a60ff60405f20541661472e565b805f52600360205260405f20610b22815415156144b0565b6006810160ff815416600581101561055757610b3e90156144e2565b600360ff198254161790556003810180549081610b9d575b5050600101546001600160a01b0316907fd2762ab9963f262989c416c26fa7505667e4b4fe26af9ef39804a21b3ce261795f80a360015f516020614b765f395f51905f5255005b610bac610be69260075461452e565b60075560018301549054906001600160a01b03167f00000000000000000000000000000000000000000000000000000000000000006149f7565b8280610b56565b346106c7575f3660031901126106c757610c1c610c08614184565b604051918291602083526020830190614206565b0390f35b346106c75760203660031901126106c7576004356005811015806106c7576004545f60015b828110610cbd5750610c56906147de565b915f60015b838110610c705760405180610c1c878261428d565b8083915f52600360205260ff600660405f2001541691610557576005821015610557578660019214610ca3575b01610c5b565b80610cb7610cb0856147d0565b94886145de565b52610c9d565b805f5260036020528360ff600660405f2001541690610557576005811015610557578514610cee575b600101610c45565b90610cfa6001916147d0565b919050610ce6565b346106c75760403660031901126106c7576024356004355f52600660205260405f2080548210156106c757610d6c91610d3a91614406565b50600160405191610d5683610d4f81846142c6565b03846140bd565b0154604051928392604084526040840190614206565b9060208301520390f35b346106c757610d84366143d7565b9190610d8e614888565b335f526005602052610da660ff60405f20541661472e565b815f52600360205260405f20610dbe815415156144b0565b6006810160ff8154166005811015610557576001610ddc9114614852565b8415610eed57805460ff19166002179055600a81016001600160401b0385116105d957610e1385610e0d8354614018565b83614674565b845f601f8211600114610e715791610e478261085895935f516020614a765f395f51905f5297955f91610e66575b506146b8565b90555b60094291015560405191829160208352339660208401916146ca565b90508501358a610e41565b5f8381526020812092508790601f198216905b818110610ed25750916108589593915f516020614a765f395f51905f5297959310610eb9575b5050600187811b019055610e4a565b8401355f1960038a901b60f8161c191690558780610eaa565b8784013585556001909401936020938401938a935001610e84565b60405162461bcd60e51b8152602060048201526007602482015266085c995cdd5b1d60ca1b6044820152606490fd5b346106c7575f3660031901126106c7576020600254604051908152f35b346106c75760803660031901126106c7576004356001600160401b0381116106c757610f6990369060040161422a565b6024356001600160401b0381116106c757610f8890369060040161422a565b92909160443593606435610f9a614a4f565b821515806112f0575b156112c357602095610fb6821515614624565b60025495610fc3876147d0565b60025560405193610fd38561406b565b878552610fe136878961481c565b94898101958652610ff336838561481c565b604082019081526060820185815260808301918783526040986561637469766560d01b8a519e8f6110248d826140bd565b60068152015260a085019d8e528c5f526001602052895f209451855560018501905180519060018060401b0382116105d9576110648261039e8554614018565b602090601f83116001146112605761108592915f918361056b5750506146b8565b90555b51805160028501916001600160401b0382116105d9576110ac8261039e8554614018565b602090601f83116001146111f75791806110d492600598979695945f9261056b5750506146b8565b90555b51600383015551600482015501985198895160018060401b0381116105d95761110a816111048454614018565b84614674565b6020601f8211600114611180578161116795949392611140925f516020614b365f395f51905f529d9e5f926111755750506146b8565b90555b611159865198899860808a5260808a01916146ca565b9187830360208901526146ca565b9284015260608301520390a2005b015190508e806103be565b601f19821690835f52805f20915f5b8181106111df57509183915f516020614b365f395f51905f529d9e61116798979695600195106111c7575b505050811b019055611143565b01515f1960f88460031b161c191690558d80806111ba565b8e83015184556001909301926020928301920161118f565b90601f19831691845f52815f20925f5b818110611248575091600193918560059a999897969410611230575b505050811b0190556110d7565b01515f1960f88460031b161c191690555f8080611223565b92936020600181928786015181550195019301611207565b90601f19831691845f52815f20925f5b8181106112ab5750908460019594939210611293575b505050811b019055611088565b01515f1960f88460031b161c191690555f8080611286565b92936020600181928786015181550195019301611270565b60405162461bcd60e51b8152602060048201526005602482015264216e616d6560d81b6044820152606490fd5b50811515610fa3565b346106c75760203660031901126106c7576004356113156145a1565b50801515806113c2575b611328906145f2565b5f526001602052610c1c60405f2060056113a9604051926113488461406b565b805484526040516113678161136081600186016142c6565b03826140bd565b60208501526040516113808161136081600286016142c6565b6040850152600381015460608501526004810154608085015261136060405180948193016142c6565b60a0820152604051918291602083526020830190614377565b50600254811061131f565b346106c75760203660031901126106c7576113e6614361565b6113ee614a4f565b6001600160a01b03165f818152600560205260408120805460ff191690557f6cfb0504498d3a8155a2a3dd5f41940ad5ab571197ac70f6d6948d189f6a0d279080a2005b346106c75760203660031901126106c75760043560606101e0604051611457816140a1565b5f81525f60208201525f60408201525f838201525f60808201528260a08201525f60c08201525f60e08201525f6101008201525f610120820152826101408201525f6101608201525f6101808201525f6101a08201525f6101c08201520152805f5260036020526114cd60405f205415156144b0565b5f52600360205260405f206040516114e4816140a1565b8154815260018201546001600160a01b03166020820152600282015460408083019190915260038301546060830152600483015460808301525161152f8161136081600587016142c6565b60a082015260ff600683015416916005831015610557576115e2600d91610c1c9460c0850152600781015460e0850152600881015461010085015260098101546101208501526040516115898161136081600a86016142c6565b610140850152600b8101546001600160a01b03811661016086015260ff60a082901c811615156101808701526115c79160a81c166101a08601614810565b600c8101546101c085015261136060405180948193016142c6565b6101e0820152604051918291602083528051602084015260018060a01b0360208201511660408401526040810151606084015260608101516080840152608081015160a08401526101e061169761164a60a084015161020060c0880152610220870190614206565b61165c60c085015160e0880190614347565b60e0840151610100870152610100840151610120870152610120840151610140870152610140840151601f1987830301610160880152614206565b9160018060a01b036101608201511661018086015261018081015115156101a08601526116ce6101a08201516101c0870190614354565b6101c0810151858301520151838203601f1901610200850152614206565b346106c7575f3660031901126106c7576020600754604051908152f35b346106c75760203660031901126106c757611722614361565b6004546001600160a01b03909116905f60015b8281106117a15750611746906147de565b915f9060015b8381106117615760405180610c1c878261428d565b806001915f52600360205282828060a01b038360405f2001541614611787575b0161174c565b8061179b611794866147d0565b95886145de565b52611781565b5f818152600360205260409020600101546001600160a01b031684146117ca575b600101611735565b906117d66001916147d0565b9190506117c2565b346106c7575f3660031901126106c7576020600454604051908152f35b346106c75760203660031901126106c7576001600160a01b0361181c614361565b165f526005602052602060ff60405f2054166040519015158152f35b346106c75760203660031901126106c7576004356001600160401b0381116106c75761186890369060040161422a565b611870614a4f565b61187d601782101561479c565b6001600160401b0381116105d957611896600a54614018565b601f811161192e575b505f601f82116001146118cf5781906118bf935f926118c45750506146b8565b600a55005b0135905083806103be565b601f19821692600a5f5260205f20915f5b858110611916575083600195106118fd575b505050811b01600a55005b01355f19600384901b60f8161c191690558280806118f2565b909260206001819286860135815501940191016118e0565b8181111561189f57600a5f5261196e905f516020614ab65f395f51905f5290601f840160051c9060208510611974575b601f82910160051c039101614659565b8261189f565b5f915061195e565b346106c75760203660031901126106c7576004356001600160401b0381116106c7576119ac90369060040161422a565b906119b5614a4f565b6119c2602b83101561479c565b6001600160401b0382116105d9576119db600954614018565b601f8111611ab8575b505f91601f8111600114611a3d57611a1281805f516020614a965f395f51905f52955f91611a3257506146b8565b6009555b611a2d6040519283926020845260208401916146ca565b0390a1005b905084013586610e41565b60095f908152601f198216935f516020614b565f395f51905f52915b858110611aa05750825f516020614a965f395f51905f529510611a87575b5050600181811b01600955611a16565b8301355f19600384901b60f8161c191690558380611a77565b90916020600181928588013581550193019101611a59565b828111156119e45760095f52611af7905f516020614b565f395f51905f5290601f850160051c906020861061197457601f82910160051c039101614659565b826119e4565b346106c7575f3660031901126106c7576040517f00000000000000000000000000000000000000000000000000000000000000006001600160a01b03168152602090f35b346106c7575f3660031901126106c7575f546040516001600160a01b039091168152602090f35b346106c75760203660031901126106c757611b81614361565b611b89614a4f565b6001600160a01b0316611b9d81151561453b565b805f52600560205260405f20600160ff198254161790557fb10d2a24a8c3686841e966f0c2c64c385cfaecb50a09b16aa3579bfcf3989dcd5f80a2005b611be3366143d7565b611beb614888565b611bf4836148c0565b5090611c01811515614433565b34156121f7577f00000000000000000000000000000000000000000000000000000000000000006001600160a01b031690813b156106c757604051630d0e30db60e41b81525f8160048134875af1801561219f576121e7575b5060405163095ea7b360e01b81527f00000000000000000000000000000000000000000000000000000000000000006001600160a01b03166004820181905234602483015292602090829060449082905f905af1801561219f576121aa575b506020611d055f93604051611ccd81614086565b611cd56140e0565b815230848201523460408201526001606082015260405195868094819363b858183f60e01b8352600483016146ea565b03925af191821561219f575f9261216b575b50611d6060045494611d28866147d0565b60045583612157575b60405192611d3e846140a1565b868452336020850152876040850152846060850152856080850152369161481c565b60a08201525f60c08201524260e08201525f6101008201525f610120820152602090604051611d8f83826140bd565b5f808252610140830191909152610160820181905261018082015260026101a08201525f6101c0820152604051611dc683826140bd565b5f8082526101e083019190915285815260038084526040918290208351815560208401516001820180546001600160a01b0319166001600160a01b03929092169190911790559183015160028301556060830151908201556080820151600482015560a08201518051906001600160401b0382116105d957611e5882611e4f6005860154614018565b60058601614674565b8490601f83116001146120ea57611e7892915f91836120df5750506146b8565b60058201555b60c0820151600581101561055757611e999060068301614516565b60e08201516007820155610100820151600882015561012082015160098201556101408201518051600a8301916001600160401b0382116105d957611ee28261039e8554614018565b8590601f831160011461207c57611f0292915f918361086e5750506146b8565b90555b610160820151600b820180546001600160a01b0319166001600160a01b0392909216919091178155610180830151909190611f4290151583614764565b6101a083015190600482101561055757825460ff60a81b191660a89290921b60ff60a81b16919091179091556101c0820151600c8201556101e091909101518051600d9290920191906001600160401b0382116105d957611fa78261039e8554614018565b8390601f831160011461201957611fc792915f918361200e5750506146b8565b90555b6040805195865290850191909152830152600260608301525f60808301525f516020614b965f395f51905f5260a03393a360015f516020614b765f395f51905f5255005b0151905089806103be565b90601f19831691845f52855f20925f5b8782821061206657505090846001959493921061204e575b505050811b019055611fca565b01515f1960f88460031b161c19169055888080612041565b6001859682939686015181550195019301612029565b90601f19831691845f52875f20925f5b898282106120c95750509084600195949392106120b1575b505050811b019055611f05565b01515f1960f88460031b161c191690558a80806120a4565b600185968293968601518155019501930161208c565b015190508a806103be565b9190600584015f52855f20905f935b87601f198516861061213e57506001945083601f19811610612126575b505050811b016005820155611e7e565b01515f1960f88460031b161c19169055898080612116565b82820151845594850194600190930192909101906120f9565b612163846007546145d1565b600755611d31565b9091506020813d602011612197575b81612187602093836140bd565b810103126106c757519085611d17565b3d915061217a565b6040513d5f823e3d90fd5b6020813d6020116121df575b816121c3602093836140bd565b810103126106c757519182151583036106c75791506020611cb9565b3d91506121b6565b5f6121f1916140bd565b85611c5a565b606460405162461bcd60e51b8152602060048201526004602482015263042cae8d60e31b6044820152fd5b346106c7575f3660031901126106c7576040517f00000000000000000000000000000000000000000000000000000000000000006001600160a01b03168152602090f35b346106c7575f3660031901126106c75761227e614a4f565b5f80546001600160a01b0319811682556001600160a01b03165f516020614b165f395f51905f528280a3005b346106c75760203660031901126106c7576004356001600160a01b038116908190036106c7575f808080936122dd614a4f565b6122e5614888565b6122f081151561453b565b47906122fd82151561456f565b5af13d1561236c573d61230f81614781565b9061231d60405192836140bd565b81525f60203d92013e5b1561233f5760015f516020614b765f395f51905f5255005b60405162461bcd60e51b8152602060048201526005602482015264085cd95b9960da1b6044820152606490fd5b612327565b346106c75760203660031901126106c75760043561238d614888565b335f5260056020526123a560ff60405f20541661472e565b805f52600360205260405f206123bd815415156144b0565b6006810160ff8154166005811015610557576123d990156144e2565b805460ff19166001179055600b810180546001600160a01b03191633178155426008830155600d82018054919260039290919061241590614018565b601f81116124d3575b506010671858d8d95c1d195960c21b0190550180549182612473575b33847f4426e4a90a9570c8f678a263b11785eaaade8b79d76d18c43d4d8e00062e4f835f80a360015f516020614b765f395f51905f5255005b6124826124cb9360075461452e565b600755805460ff60a01b1916600160a01b1790556008549054906001600160a01b03167f00000000000000000000000000000000000000000000000000000000000000006149f7565b81808061243a565b600881111561241e576124f490825f52601f60205f20910160051c90614659565b8561241e565b346106c7575f3660031901126106c7576008546040516001600160a01b039091168152602090f35b346106c75760203660031901126106c7576004355f52600160205260405f208054610c1c604051926125628461255b81600185016142c6565b03856140bd565b60056040519161257983610d4f81600285016142c6565b6125c560038201549361259b60048401549361255b60405180978193016142c6565b6125b7604051988998895260c060208a015260c0890190614206565b908782036040890152614206565b926060860152608085015283820360a0850152614206565b346106c75760603660031901126106c7576004356024356001600160401b0381116106c75761261090369060040161422a565b612618614888565b612621836148c0565b509061262e811515614433565b7f000000000000000000000000000000000000000000000000000000000000000061265b8330338461498e565b60018060a01b037f0000000000000000000000000000000000000000000000000000000000000000169060405163095ea7b360e01b5f52826004528460245260205f60448180865af19060015f5114821615612bfb575b60405215612b38575b509060206127095f936040516126d081614086565b6126d8614184565b81523084820152866040820152604435606082015260405195868094819363b858183f60e01b8352600483016146ea565b03925af191821561219f575f92612b04575b5061272c60045494611d28866147d0565b60a08201525f60c08201524260e08201525f6101008201525f61012082015260209060405161275b83826140bd565b5f808252610140830191909152610160820181905261018082015260016101a08201525f6101c082015260405161279283826140bd565b5f8082526101e083019190915285815260038084526040918290208351815560208401516001820180546001600160a01b0319166001600160a01b03929092169190911790559183015160028301556060830151908201556080820151600482015560a08201518051906001600160401b0382116105d95761281b82611e4f6005860154614018565b8490601f8311600114612a975761283b92915f91836120df5750506146b8565b60058201555b60c082015160058110156105575761285c9060068301614516565b60e08201516007820155610100820151600882015561012082015160098201556101408201518051600a8301916001600160401b0382116105d9576128a58261039e8554614018565b8590601f8311600114612a34576128c592915f918361086e5750506146b8565b90555b610160820151600b820180546001600160a01b0319166001600160a01b039290921691909117815561018083015190919061290590151583614764565b6101a083015190600482101561055757825460ff60a81b191660a89290921b60ff60a81b16919091179091556101c0820151600c8201556101e091909101518051600d9290920191906001600160401b0382116105d95761296a8261039e8554614018565b8390601f83116001146129d15761298a92915f918361200e5750506146b8565b90555b6040805195865290850191909152830152600160608301525f60808301525f516020614b965f395f51905f5260a03393a360015f516020614b765f395f51905f5255005b90601f19831691845f52855f20925f5b87828210612a1e575050908460019594939210612a06575b505050811b01905561298d565b01515f1960f88460031b161c191690558880806129f9565b60018596829396860151815501950193016129e1565b90601f19831691845f52875f20925f5b89828210612a81575050908460019594939210612a69575b505050811b0190556128c8565b01515f1960f88460031b161c191690558a8080612a5c565b6001859682939686015181550195019301612a44565b9190600584015f52855f20905f935b87601f1985168610612aeb57506001945083601f19811610612ad3575b505050811b016005820155612841565b01515f1960f88460031b161c19169055898080612ac3565b8282015184559485019460019093019290910190612aa6565b9091506020813d602011612b30575b81612b20602093836140bd565b810103126106c75751908561271b565b3d9150612b13565b60405163095ea7b360e01b5f52826004525f60245260205f60448180865af19060015f5114821615612be3575b60405215612ba25760405163095ea7b360e01b5f52826004528460245260205f60448180865af19060015f5114821615612bc2575b6040526126bb575b635274afe760e01b5f9081526001600160a01b0391909116600452602490fd5b906001811516612bda57823b15153d15161690612b9a565b503d5f823e3d90fd5b906001811516612bda57823b15153d15161690612b65565b90823b15153d151616906126b2565b346106c7575f3660031901126106c7576040517f00000000000000000000000000000000000000000000000000000000000000006001600160a01b03168152602090f35b346106c7575f3660031901126106c7576004545f198101908111612c7757602090604051908152f35b634e487b7160e01b5f52601160045260245ffd5b346106c75760c03660031901126106c7576004356024356001600160401b0381116106c757612cbe90369060040161422a565b91906044356001600160401b0381116106c757612cdf90369060040161422a565b93906064359060843560a4356001600160401b0381116106c757612d0790369060040161422a565b929097612d12614a4f565b87151580612fd7575b612d24906145f2565b612d2f831515614624565b875f52600160205260405f206001810160018060401b0388116105d957612d5a88610e0d8354614018565b5f88601f8111600114612f735780612d78925f91612f6857506146b8565b90555b60028101906001600160401b0383116105d957612d9c836111048454614018565b5f9183601f8111600114612eff5780612dbe916005955f91612ef457506146b8565b90555b6003810187905560048101859055016001600160401b0385116105d957612dec85610e0d8354614018565b5f601f8611600114612e765792859492612e4e92612e2687612e669a995f516020614ad65f395f51905f529e9f985f91612e6b57506146b8565b90555b612e406040519a8b9a60a08c5260a08c01916146ca565b9189830360208b01526146ca565b936040870152606086015284830360808601526146ca565b0390a2005b90508801355f610e41565b601f19861690825f5260205f20915f5b818110612edc5750925f516020614ad65f395f51905f529b9c959288979592612e669a99612e4e9610612ec3575b5050600187811b019055612e29565b8701355f1960038a901b60f8161c191690558d80612eb4565b8d830135845560019093019260209283019201612e86565b90508701358f610e41565b505f81815260208120909385601f1981165b808710612f4a576005965010612f31575b5050600184811b019055612dc1565b8601355f19600387901b60f8161c191690558c80612f22565b88830135845560209687019660019094019390920191879150612f11565b90508b01358e610e41565b50601f19891690825f528960205f20925f5b8d828210612fbd57505010612fa4575b5050600188811b019055612d7b565b8a01355f1960038b901b60f8161c191690558b80612f95565b84013585556001909401936020938401938d935001612f85565b506002548810612d1b565b346106c7575f3660031901126106c7576002545f198101908111612c775761300981614499565b9061301760405192836140bd565b808252601f1961302682614499565b015f5b8181106131055750505f5b8181106130a257826040518091602082016020835281518091526040830190602060408260051b8601019301915f905b82821061307357505050500390f35b919360019193955060206130928192603f198a82030186528851614377565b9601920192018594939192613064565b6001810190818111612c77576001915f528160205260405f2060056130e4604051926130cd8461406b565b8054845260405161136781611360818a86016142c6565b60a08201526130f382866145de565b526130fe81856145de565b5001613034565b6020906131106145a1565b82828701015201613029565b346106c75760403660031901126106c757613135614361565b602435906001600160a01b0382168083036106c75761316590613156614a4f565b61315e614888565b151561453b565b6040516370a0823160e01b8152306004820152916001600160a01b039190911690602083602481855afa92831561219f575f9361324a575b506131a983151561456f565b7f00000000000000000000000000000000000000000000000000000000000000006001600160a01b0316820361323b57600754928381111561320b576131f8936131f29161452e565b916149f7565b60015f516020614b765f395f51905f5255005b60405162461bcd60e51b815260206004820152600860248201526721737572706c757360c01b6044820152606490fd5b61324592916149f7565b6131f8565b9092506020813d602011613276575b81613266602093836140bd565b810103126106c75751918361319d565b3d9150613259565b346106c75761328c36614257565b613297929192614888565b6132a0846148c0565b50906132ad811515614433565b82156136d2576132f5600454946132c3866147d0565b600455604051926132d3846140a1565b8684523360208501528760408501525f6060850152846080850152369161481c565b60a08201525f60c08201524260e08201525f6101008201525f61012082015260209060405161332483826140bd565b5f808252610140830191909152610160820181905261018082015260036101a0820152836101c082015260405161335b83826140bd565b5f8082526101e083019190915285815260038084526040918290208351815560208401516001820180546001600160a01b0319166001600160a01b03929092169190911790559183015160028301556060830151908201556080820151600482015560a08201518051906001600160401b0382116105d9576133e482611e4f6005860154614018565b8490601f83116001146136655761340492915f91836120df5750506146b8565b60058201555b60c08201516005811015610557576134259060068301614516565b60e08201516007820155610100820151600882015561012082015160098201556101408201518051600a8301916001600160401b0382116105d95761346e8261039e8554614018565b8590601f83116001146136025761348e92915f918361086e5750506146b8565b90555b610160820151600b820180546001600160a01b0319166001600160a01b03929092169190911781556101808301519091906134ce90151583614764565b6101a083015190600482101561055757825460ff60a81b191660a89290921b60ff60a81b16919091179091556101c0820151600c8201556101e091909101518051600d9290920191906001600160401b0382116105d9576135338261039e8554614018565b8390601f831160011461359d579180613557925f96959487926120df5750506146b8565b90555b60408051968752908601919091528401526003606084015260808301525f516020614b965f395f51905f5260a03393a360015f516020614b765f395f51905f5255005b90601f19831691845f52855f20925f5b8181106135eb57509160019391855f98979694106135d3575b505050811b01905561355a565b0151861960f88460031b161c191690558980806135c6565b9293876001819287860151815501950193016135ad565b90601f19831691845f52875f20925f5b8982821061364f575050908460019594939210613637575b505050811b019055613491565b01515f1960f88460031b161c191690558a808061362a565b6001859682939686015181550195019301613612565b9190600584015f52855f20905f935b87601f19851686106136b957506001945083601f198116106136a1575b505050811b01600582015561340a565b01515f1960f88460031b161c19169055898080613691565b8282015184559485019460019093019290910190613674565b60405162461bcd60e51b815260206004820152600360248201526210b1bb60e91b6044820152606490fd5b346106c75760203660031901126106c757600435613719614888565b805f52600360205260405f20613731815415156144b0565b60018101546001600160a01b031633036137f457600681019060ff82541691600583101561055757613765600393156144e2565b805460ff1916600417905501805490816137b3575b33837ff1ab0865975dad5c69ae8e4baaf13114c875728afa7cc86368534c22a631d0b05f80a360015f516020614b765f395f51905f5255005b6137c26137ed9260075461452e565b60075554337f00000000000000000000000000000000000000000000000000000000000000006149f7565b818061377a565b60405162461bcd60e51b81526020600482015260076024820152660858db1a595b9d60ca1b6044820152606490fd5b346106c75760203660031901126106c7576004355f52600360205260405f208054600160a01b60019003600183015416916002810154600382015490600483015460405180806005870190613877916142c6565b0361388290826140bd565b600685015460ff16906007860154600887015490600988015492604051958680600a8c01906138b0916142c6565b036138bb90886140bd565b600b8a015498600c8b01549860405180600d819e01906138da916142c6565b036138e5908d6140bd565b6040519d8e809e81526020015260408d015260608c015260808b015260a08a0161020090526102008a0161391891614206565b9360c08a0161392691614347565b60e089015261010088015261012087015285810361014087015261394991614206565b6001600160a01b03831661016086015260ff60a084901c81161515610180870152909261397f916101a087019160a81c16614354565b6101c08401528281036101e0840152610c1c91614206565b346106c75760203660031901126106c7576004355f52600660205260405f208054906139c282614499565b916139d060405193846140bd565b8083526020830180925f5260205f205f915b838310613a6357848660405191829160208301906020845251809152604083019060408160051b85010192915f905b828210613a2057505050500390f35b919360019193955060208091603f198982030185528751908280613a4d8451604085526040850190614206565b9301519101529601920192018594939192613a11565b60026020600192604051613a7681614050565b604051613a8781611360818a6142c6565b815284860154838201528152019201920191906139e2565b346106c7575f3660031901126106c7576004545f60015b828110613b275750613ac7906147de565b5f9160015b818110613ae15760405180610c1c858261428d565b805f52600360205260ff600660405f200154169060058210156105575760019115613b0d575b01613acc565b80613b21613b1a876147d0565b96866145de565b52613b07565b805f52600360205260ff600660405f2001541660058110156105575715613b51575b600101613ab6565b90613b5d6001916147d0565b919050613b49565b346106c7575f3660031901126106c7576040517f00000000000000000000000000000000000000000000000000000000000000006001600160a01b03168152602090f35b346106c757613bb736614257565b9091613bc1614888565b613bca846148c0565b5091613bd7811515614433565b613beb670de0b6b3a7640000831015614467565b613c178230337f000000000000000000000000000000000000000000000000000000000000000061498e565b613c2760045494611d28866147d0565b60a08201525f60c08201524260e08201525f6101008201525f610120820152602090604051613c5683826140bd565b5f80825261014083019190915261016082018190526101808201525f6101a08201525f6101c0820152604051613c8c83826140bd565b5f8082526101e083019190915285815260038084526040918290208351815560208401516001820180546001600160a01b0319166001600160a01b03929092169190911790559183015160028301556060830151908201556080820151600482015560a08201518051906001600160401b0382116105d957613d1582611e4f6005860154614018565b8490601f8311600114613f9057613d3592915f91836120df5750506146b8565b60058201555b60c0820151600581101561055757613d569060068301614516565b60e08201516007820155610100820151600882015561012082015160098201556101408201518051600a8301916001600160401b0382116105d957613d9f8261039e8554614018565b8590601f8311600114613f2d57613dbf92915f918361086e5750506146b8565b90555b610160820151600b820180546001600160a01b0319166001600160a01b0392909216919091178155610180830151909190613dff90151583614764565b6101a083015190600482101561055757825460ff60a81b191660a89290921b60ff60a81b16919091179091556101c0820151600c8201556101e091909101518051600d9290920191906001600160401b0382116105d957613e648261039e8554614018565b8390601f8311600114613eca57613e8492915f918361200e5750506146b8565b90555b60408051958652908501919091528301525f60608301525f60808301525f516020614b965f395f51905f5260a03393a360015f516020614b765f395f51905f5255005b90601f19831691845f52855f20925f5b87828210613f17575050908460019594939210613eff575b505050811b019055613e87565b01515f1960f88460031b161c19169055888080613ef2565b6001859682939686015181550195019301613eda565b90601f19831691845f52875f20925f5b89828210613f7a575050908460019594939210613f62575b505050811b019055613dc2565b01515f1960f88460031b161c191690558a8080613f55565b6001859682939686015181550195019301613f3d565b9190600584015f52855f20905f935b87601f1985168610613fe457506001945083601f19811610613fcc575b505050811b016005820155613d3b565b01515f1960f88460031b161c19169055898080613fbc565b8282015184559485019460019093019290910190613f9f565b346106c7575f3660031901126106c757610c1c610c086140e0565b90600182811c92168015614046575b602083101461403257565b634e487b7160e01b5f52602260045260245ffd5b91607f1691614027565b604081019081106001600160401b038211176105d957604052565b60c081019081106001600160401b038211176105d957604052565b608081019081106001600160401b038211176105d957604052565b61020081019081106001600160401b038211176105d957604052565b601f909101601f19168101906001600160401b038211908210176105d957604052565b604051905f82600a54916140f383614018565b80835292600181169081156141655750600114614119575b614117925003836140bd565b565b50600a5f90815290915f516020614ab65f395f51905f525b8183106141495750509060206141179282010161410b565b6020919350806001915483858901015201910190918492614131565b6020925061411794915060ff191682840152151560051b82010161410b565b604051905f826009549161419783614018565b808352926001811690811561416557506001146141ba57614117925003836140bd565b5060095f90815290915f516020614b565f395f51905f525b8183106141ea5750509060206141179282010161410b565b60209193508060019154838589010152019101909184926141d2565b805180835260209291819084018484015e5f828201840152601f01601f1916010190565b9181601f840112156106c7578235916001600160401b0383116106c757602083818601950101116106c757565b60606003198201126106c7576004359160243591604435906001600160401b0382116106c7576142899160040161422a565b9091565b60206040818301928281528451809452019201905f5b8181106142b05750505090565b82518452602093840193909201916001016142a3565b5f92918154916142d583614018565b808352926001811690811561432a57506001146142f157505050565b5f9081526020812093945091925b838310614310575060209250010190565b6001816020929493945483858701015201910191906142ff565b915050602093945060ff929192191683830152151560051b010190565b9060058210156105575752565b9060048210156105575752565b600435906001600160a01b03821682036106c757565b6143d4918151815260a06143af61439d602085015160c0602086015260c0850190614206565b60408501518482036040860152614206565b92606081015160608401526080810151608084015201519060a0818403910152614206565b90565b9060406003198301126106c75760043591602435906001600160401b0382116106c7576142899160040161422a565b805482101561441f575f5260205f209060011b01905f90565b634e487b7160e01b5f52603260045260245ffd5b1561443a57565b60405162461bcd60e51b8152602060048201526005602482015264216465736360d81b6044820152606490fd5b1561446e57565b606460405162461bcd60e51b815260206004820152600460248201526310b6b4b760e11b6044820152fd5b6001600160401b0381116105d95760051b60200190565b156144b757565b606460405162461bcd60e51b815260206004820152600460248201526310b537b160e11b6044820152fd5b156144e957565b60405162461bcd60e51b815260206004820152600560248201526410b7b832b760d91b6044820152606490fd5b9060058110156105575760ff80198354169116179055565b91908203918211612c7757565b1561454257565b60405162461bcd60e51b815260206004820152600560248201526410b0b2323960d91b6044820152606490fd5b1561457657565b606460405162461bcd60e51b81526020600482015260046024820152630858985b60e21b6044820152fd5b604051906145ae8261406b565b606060a0835f81528260208201528260408201525f838201525f60808201520152565b91908201809211612c7757565b805182101561441f5760209160051b010190565b156145f957565b60405162461bcd60e51b8152602060048201526003602482015262085a5960ea1b6044820152606490fd5b1561462b57565b60405162461bcd60e51b815260206004820152600660248201526510b1bb2234bb60d11b6044820152606490fd5b5f5b82811061466757505050565b5f8282015560010161465b565b91601f821161468257505050565b80821161468e57505050565b614117925f5260205f20916020601f830160051c921061197457601f82910160051c039101614659565b8160011b915f199060031b1c19161790565b908060209392818452848401375f828201840152601f01601f1916010190565b6020815260806060614707845183602086015260a0850190614206565b60208501516001600160a01b03166040858101919091528501518285015293015191015290565b1561473557565b60405162461bcd60e51b815260206004820152600760248201526610bbb7b935b2b960c91b6044820152606490fd5b805460ff60a01b191691151560a01b60ff60a01b16919091179055565b6001600160401b0381116105d957601f01601f191660200190565b156147a357565b60405162461bcd60e51b8152602060048201526005602482015264042e0c2e8d60db1b6044820152606490fd5b5f198114612c775760010190565b906147e882614499565b6147f560405191826140bd565b8281528092614806601f1991614499565b0190602036910137565b60048210156105575752565b92919261482882614781565b9161483660405193846140bd565b8294818452818301116106c7578281602093845f960137010152565b1561485957565b60405162461bcd60e51b81526020600482015260076024820152662161637469766560c81b6044820152606490fd5b60025f516020614b765f395f51905f5254146148b15760025f516020614b765f395f51905f5255565b633ee5aeb560e01b5f5260045ffd5b80151580614983575b15614958575f52600160205260405f20600381015491821561492a576141177f9651c33eb23976f7c15240e86443dc2ded40546fa9ba457a14abab4090e023b560405161491d8161136081600589016142c6565b6020815191012014614852565b60405162461bcd60e51b815260206004820152600660248201526521707269636560d01b6044820152606490fd5b606460405162461bcd60e51b81526020600482015260046024820152632173766360e01b6044820152fd5b5060025481106148c9565b6040516323b872dd60e01b5f9081526001600160a01b039384166004529290931660245260449390935260209060648180865af19060015f51148216156149df575b6040525f60605215612ba25750565b906001811516612bda57823b15153d151616906149d0565b916040519163a9059cbb60e01b5f5260018060a01b031660045260245260205f60448180865af19060015f5114821615614a37575b60405215612ba25750565b906001811516612bda57823b15153d15161690614a2c565b5f546001600160a01b03163303614a6257565b63118cdaa760e01b5f523360045260245ffdfe884d377a76a733295a9fde0f6f3729db2762d3ed11c468fa3904b134ab552ddac96f2aaf957f127be031b5ffc014c798de57808a7d0d7be6408436a77b55105dc65a7bb8d6351c1cf70c95a316cc6a92839c986682d98bc35f958f4883f9d2a8c8f8c4a419ff4726d3b34be1e7439e3ede063b16686388bdaa104005d586a560c181770b18c66c81dce39e4f7d4100884b62c26403dddf12b19b1de85cdc3ac48be0079c531659141344cd1fd0a4f28419497f9722a3daafe3b4186f6b6457e0791d0f3c8799c9df05b4434624f423e70d3c803aa8192c9c2557c19654000f376e1540171b6c0c960b71a7020d9f60077f6af931a8bbf590da0223dacf75c7af9b779b17422d0df92223018b32b4d1fa46e071723d6817e2486d003becc55f00fedb08719ec013458bbe9c86e0b87a10413be78ff76c974a0dac8cce68e73e8aa2646970667358221220f64bb2e9e628be5bd2582273aae375434e09984faff29ee28203d6615572b45764736f6c634300082100330000000000000000000000009f86db9fc6f7c9408e8fda3ff8ce4e78ac7a6b07000000000000000000000000833589fcd6edb6e08f4c7c32d4f71b54bda029130000000000000000000000002626664c2603336e57b271c5c0b26f421741e481000000000000000000000000420000000000000000000000000000000000000600000000000000000000000090ef2a9211a3e7ce788561e5af54c76b0fa3aed0",
        "nonce": "0x8d",
        "chainId": "0x2105"
      },
      "additionalContracts": [],
      "isFixedGasLimit": false
    },
    {
      "hash": "0xb47cdcabb7d069b53f5fb157245162f3e788e739f863242e5071cbc22798e516",
      "transactionType": "CALL",
      "contractName": "LeftClawServicesV2",
      "contractAddress": "0x13f593c6151504ff5fce741245b49771f83497b5",
      "function": "addServiceType(string,string,uint256,uint256)",
      "arguments": [
        "Quick Consultation",
        "consult",
        "20000000",
        "100"
      ],
      "transaction": {
        "from": "0x845e8c808e22469aaf07ace9ab7d26c875fbe44f",
        "to": "0x13f593c6151504ff5fce741245b49771f83497b5",
        "gas": "0x3c8e0",
        "value": "0x0",
        "input": "0xcf216ee2000000000000000000000000000000000000000000000000000000000000008000000000000000000000000000000000000000000000000000000000000000c00000000000000000000000000000000000000000000000000000000001312d0000000000000000000000000000000000000000000000000000000000000000640000000000000000000000000000000000000000000000000000000000000012517569636b20436f6e73756c746174696f6e00000000000000000000000000000000000000000000000000000000000000000000000000000000000000000007636f6e73756c7400000000000000000000000000000000000000000000000000",
        "nonce": "0x8e",
        "chainId": "0x2105"
      },
      "additionalContracts": [],
      "isFixedGasLimit": false
    },
    {
      "hash": "0xfaa007e7a1c27585c805cc6bf0938bfc62aef10102521b9d48c34a2071adbbc5",
      "transactionType": "CALL",
      "contractName": "LeftClawServicesV2",
      "contractAddress": "0x13f593c6151504ff5fce741245b49771f83497b5",
      "function": "addServiceType(string,string,uint256,uint256)",
      "arguments": [
        "Deep Consultation",
        "consult-deep",
        "30000000",
        "50"
      ],
      "transaction": {
        "from": "0x845e8c808e22469aaf07ace9ab7d26c875fbe44f",
        "to": "0x13f593c6151504ff5fce741245b49771f83497b5",
        "gas": "0x3935f",
        "value": "0x0",
        "input": "0xcf216ee2000000000000000000000000000000000000000000000000000000000000008000000000000000000000000000000000000000000000000000000000000000c00000000000000000000000000000000000000000000000000000000001c9c380000000000000000000000000000000000000000000000000000000000000003200000000000000000000000000000000000000000000000000000000000000114465657020436f6e73756c746174696f6e000000000000000000000000000000000000000000000000000000000000000000000000000000000000000000000c636f6e73756c742d646565700000000000000000000000000000000000000000",
        "nonce": "0x8f",
        "chainId": "0x2105"
      },
      "additionalContracts": [],
      "isFixedGasLimit": false
    },
    {
      "hash": "0x09d12d85c5465e11d253347aedcd14727785048619f55ba20123834d4fd376b7",
      "transactionType": "CALL",
      "contractName": "LeftClawServicesV2",
      "contractAddress": "0x13f593c6151504ff5fce741245b49771f83497b5",
      "function": "addServiceType(string,string,uint256,uint256)",
      "arguments": [
        "PFP Generator",
        "pfp",
        "250000",
        "500"
      ],
      "transaction": {
        "from": "0x845e8c808e22469aaf07ace9ab7d26c875fbe44f",
        "to": "0x13f593c6151504ff5fce741245b49771f83497b5",
        "gas": "0x3c853",
        "value": "0x0",
        "input": "0xcf216ee2000000000000000000000000000000000000000000000000000000000000008000000000000000000000000000000000000000000000000000000000000000c0000000000000000000000000000000000000000000000000000000000003d09000000000000000000000000000000000000000000000000000000000000001f4000000000000000000000000000000000000000000000000000000000000000d5046502047656e657261746f720000000000000000000000000000000000000000000000000000000000000000000000000000000000000000000000000000037066700000000000000000000000000000000000000000000000000000000000",
        "nonce": "0x90",
        "chainId": "0x2105"
      },
      "additionalContracts": [],
      "isFixedGasLimit": false
    },
    {
      "hash": "0xf1c71c642fbb207ed9e8672c41fad514720f7d55cfaa6f12f617ce30557261d5",
      "transactionType": "CALL",
      "contractName": "LeftClawServicesV2",
      "contractAddress": "0x13f593c6151504ff5fce741245b49771f83497b5",
      "function": "addServiceType(string,string,uint256,uint256)",
      "arguments": [
        "Contract Audit",
        "audit",
        "200000000",
        "25"
      ],
      "transaction": {
        "from": "0x845e8c808e22469aaf07ace9ab7d26c875fbe44f",
        "to": "0x13f593c6151504ff5fce741245b49771f83497b5",
        "gas": "0x3c876",
        "value": "0x0",
        "input": "0xcf216ee2000000000000000000000000000000000000000000000000000000000000008000000000000000000000000000000000000000000000000000000000000000c0000000000000000000000000000000000000000000000000000000000bebc2000000000000000000000000000000000000000000000000000000000000000019000000000000000000000000000000000000000000000000000000000000000e436f6e747261637420417564697400000000000000000000000000000000000000000000000000000000000000000000000000000000000000000000000000056175646974000000000000000000000000000000000000000000000000000000",
        "nonce": "0x91",
        "chainId": "0x2105"
      },
      "additionalContracts": [],
      "isFixedGasLimit": false
    },
    {
      "hash": "0x8db00f5004a424ddb0910874a35f73d555c2576b8f5771fe4bf33922322540bb",
      "transactionType": "CALL",
      "contractName": "LeftClawServicesV2",
      "contractAddress": "0x13f593c6151504ff5fce741245b49771f83497b5",
      "function": "addServiceType(string,string,uint256,uint256)",
      "arguments": [
        "Frontend QA Audit",
        "qa",
        "50000000",
        "50"
      ],
      "transaction": {
        "from": "0x845e8c808e22469aaf07ace9ab7d26c875fbe44f",
        "to": "0x13f593c6151504ff5fce741245b49771f83497b5",
        "gas": "0x392b9",
        "value": "0x0",
        "input": "0xcf216ee2000000000000000000000000000000000000000000000000000000000000008000000000000000000000000000000000000000000000000000000000000000c00000000000000000000000000000000000000000000000000000000002faf0800000000000000000000000000000000000000000000000000000000000000032000000000000000000000000000000000000000000000000000000000000001146726f6e74656e6420514120417564697400000000000000000000000000000000000000000000000000000000000000000000000000000000000000000000027161000000000000000000000000000000000000000000000000000000000000",
        "nonce": "0x92",
        "chainId": "0x2105"
      },
      "additionalContracts": [],
      "isFixedGasLimit": false
    },
    {
      "hash": "0x8ee9ac1d5bf07d04f4c1bea7251bfb5ff13f52129b9a7c24d92baaa5895dd8ce",
      "transactionType": "CALL",
      "contractName": "LeftClawServicesV2",
      "contractAddress": "0x13f593c6151504ff5fce741245b49771f83497b5",
      "function": "addServiceType(string,string,uint256,uint256)",
      "arguments": [
        "Daily Build",
        "build",
        "1000000000",
        "1"
      ],
      "transaction": {
        "from": "0x845e8c808e22469aaf07ace9ab7d26c875fbe44f",
        "to": "0x13f593c6151504ff5fce741245b49771f83497b5",
        "gas": "0x39276",
        "value": "0x0",
        "input": "0xcf216ee2000000000000000000000000000000000000000000000000000000000000008000000000000000000000000000000000000000000000000000000000000000c0000000000000000000000000000000000000000000000000000000003b9aca000000000000000000000000000000000000000000000000000000000000000001000000000000000000000000000000000000000000000000000000000000000b4461696c79204275696c6400000000000000000000000000000000000000000000000000000000000000000000000000000000000000000000000000000000056275696c64000000000000000000000000000000000000000000000000000000",
        "nonce": "0x93",
        "chainId": "0x2105"
      },
      "additionalContracts": [],
      "isFixedGasLimit": false
    },
    {
      "hash": "0xedd5fcd0ecc08455a099a31cf20808d1d423f9a2d78663f615d6fd1c41276d97",
      "transactionType": "CALL",
      "contractName": "LeftClawServicesV2",
      "contractAddress": "0x13f593c6151504ff5fce741245b49771f83497b5",
      "function": "addServiceType(string,string,uint256,uint256)",
      "arguments": [
        "Research Report",
        "research",
        "100000000",
        "13"
      ],
      "transaction": {
        "from": "0x845e8c808e22469aaf07ace9ab7d26c875fbe44f",
        "to": "0x13f593c6151504ff5fce741245b49771f83497b5",
        "gas": "0x3c8bd",
        "value": "0x0",
        "input": "0xcf216ee2000000000000000000000000000000000000000000000000000000000000008000000000000000000000000000000000000000000000000000000000000000c00000000000000000000000000000000000000000000000000000000005f5e100000000000000000000000000000000000000000000000000000000000000000d000000000000000000000000000000000000000000000000000000000000000f5265736561726368205265706f7274000000000000000000000000000000000000000000000000000000000000000000000000000000000000000000000000087265736561726368000000000000000000000000000000000000000000000000",
        "nonce": "0x94",
        "chainId": "0x2105"
      },
      "additionalContracts": [],
      "isFixedGasLimit": false
    },
    {
      "hash": "0xfa5f9e9e4bf6abff0a6d37ef27a0864927882b46a7da898993eba1772746ff72",
      "transactionType": "CALL",
      "contractName": "LeftClawServicesV2",
      "contractAddress": "0x13f593c6151504ff5fce741245b49771f83497b5",
      "function": "addServiceType(string,string,uint256,uint256)",
      "arguments": [
        "Judge / Oracle",
        "judge",
        "50000000",
        "50"
      ],
      "transaction": {
        "from": "0x845e8c808e22469aaf07ace9ab7d26c875fbe44f",
        "to": "0x13f593c6151504ff5fce741245b49771f83497b5",
        "gas": "0x392b9",
        "value": "0x0",
        "input": "0xcf216ee2000000000000000000000000000000000000000000000000000000000000008000000000000000000000000000000000000000000000000000000000000000c00000000000000000000000000000000000000000000000000000000002faf0800000000000000000000000000000000000000000000000000000000000000032000000000000000000000000000000000000000000000000000000000000000e4a75646765202f204f7261636c6500000000000000000000000000000000000000000000000000000000000000000000000000000000000000000000000000056a75646765000000000000000000000000000000000000000000000000000000",
        "nonce": "0x95",
        "chainId": "0x2105"
      },
      "additionalContracts": [],
      "isFixedGasLimit": false
    },
    {
      "hash": "0x5f71a7dcb7468e6f6979728adea2c0ba42534dc69bcb9bf525c181944426f55a",
      "transactionType": "CALL",
      "contractName": "LeftClawServicesV2",
      "contractAddress": "0x13f593c6151504ff5fce741245b49771f83497b5",
      "function": "addWorker(address)",
      "arguments": [
        "0xa822155c242B3a307086F1e2787E393d78A0B5AC"
      ],
      "transaction": {
        "from": "0x845e8c808e22469aaf07ace9ab7d26c875fbe44f",
        "to": "0x13f593c6151504ff5fce741245b49771f83497b5",
        "gas": "0x10104",
        "value": "0x0",
        "input": "0x806ad57e000000000000000000000000a822155c242b3a307086f1e2787e393d78a0b5ac",
        "nonce": "0x96",
        "chainId": "0x2105"
      },
      "additionalContracts": [],
      "isFixedGasLimit": false
    },
    {
      "hash": "0x9ade7557a9b7ed15b97a81fbaacb6aa2e363c08eb33e348c674674f698bd1b4d",
      "transactionType": "CALL",
      "contractName": "LeftClawServicesV2",
      "contractAddress": "0x13f593c6151504ff5fce741245b49771f83497b5",
      "function": "addWorker(address)",
      "arguments": [
        "0x8c00eae9b9A2f89BddaAE4f6884C716562C7cE93"
      ],
      "transaction": {
        "from": "0x845e8c808e22469aaf07ace9ab7d26c875fbe44f",
        "to": "0x13f593c6151504ff5fce741245b49771f83497b5",
        "gas": "0x100f4",
        "value": "0x0",
        "input": "0x806ad57e0000000000000000000000008c00eae9b9a2f89bddaae4f6884c716562c7ce93",
        "nonce": "0x97",
        "chainId": "0x2105"
      },
      "additionalContracts": [],
      "isFixedGasLimit": false
    },
    {
      "hash": "0xc1242edf6111065505682c7491d3dbbce23c44857ec8b98e52bb040487d4cec7",
      "transactionType": "CALL",
      "contractName": "LeftClawServicesV2",
      "contractAddress": "0x13f593c6151504ff5fce741245b49771f83497b5",
      "function": "addWorker(address)",
      "arguments": [
        "0x472C382550780cD30e1D27155b96Fa4b63d9247e"
      ],
      "transaction": {
        "from": "0x845e8c808e22469aaf07ace9ab7d26c875fbe44f",
        "to": "0x13f593c6151504ff5fce741245b49771f83497b5",
        "gas": "0x10104",
        "value": "0x0",
        "input": "0x806ad57e000000000000000000000000472c382550780cd30e1d27155b96fa4b63d9247e",
        "nonce": "0x98",
        "chainId": "0x2105"
      },
      "additionalContracts": [],
      "isFixedGasLimit": false
    },
    {
      "hash": "0xeb64733e263bfd054b990b38691e50590b95ead8dc5c3775cdfbfa4e5d4571d4",
      "transactionType": "CALL",
      "contractName": "LeftClawServicesV2",
      "contractAddress": "0x13f593c6151504ff5fce741245b49771f83497b5",
      "function": "addWorker(address)",
      "arguments": [
        "0x09defC9E6ffc5e41F42e0D50512EEf9354523E0E"
      ],
      "transaction": {
        "from": "0x845e8c808e22469aaf07ace9ab7d26c875fbe44f",
        "to": "0x13f593c6151504ff5fce741245b49771f83497b5",
        "gas": "0x10104",
        "value": "0x0",
        "input": "0x806ad57e00000000000000000000000009defc9e6ffc5e41f42e0d50512eef9354523e0e",
        "nonce": "0x99",
        "chainId": "0x2105"
      },
      "additionalContracts": [],
      "isFixedGasLimit": false
    },
    {
      "hash": "0x362c7500dff5d75a38507ee10af37cfd49995fce5cca4dd7b24d401ee8d09826",
      "transactionType": "CALL",
      "contractName": "LeftClawServicesV2",
      "contractAddress": "0x13f593c6151504ff5fce741245b49771f83497b5",
      "function": "addWorker(address)",
      "arguments": [
        "0x9f7cF1d1F558E57ef88a59ac3D47214eF25B6A06"
      ],
      "transaction": {
        "from": "0x845e8c808e22469aaf07ace9ab7d26c875fbe44f",
        "to": "0x13f593c6151504ff5fce741245b49771f83497b5",
        "gas": "0x10104",
        "value": "0x0",
        "input": "0x806ad57e0000000000000000000000009f7cf1d1f558e57ef88a59ac3d47214ef25b6a06",
        "nonce": "0x9a",
        "chainId": "0x2105"
      },
      "additionalContracts": [],
      "isFixedGasLimit": false
    },
    {
      "hash": "0x790e2fbeb2b382062713d463a9d58f6ba3743a2ec6c66dbadce64f226f5d7287",
      "transactionType": "CALL",
      "contractName": "LeftClawServicesV2",
      "contractAddress": "0x13f593c6151504ff5fce741245b49771f83497b5",
      "function": "transferOwnership(address)",
      "arguments": [
        "0x11ce532845cE0eAcdA41f72FDc1C88c335981442"
      ],
      "transaction": {
        "from": "0x845e8c808e22469aaf07ace9ab7d26c875fbe44f",
        "to": "0x13f593c6151504ff5fce741245b49771f83497b5",
        "gas": "0x9e38",
        "value": "0x0",
        "input": "0xf2fde38b00000000000000000000000011ce532845ce0eacda41f72fdc1c88c335981442",
        "nonce": "0x9b",
        "chainId": "0x2105"
      },
      "additionalContracts": [],
      "isFixedGasLimit": false
    }
  ],
  "receipts": [
    {
      "status": "0x1",
      "cumulativeGasUsed": "0x2de852f",
      "logs": [
        {
          "address": "0x13f593c6151504ff5fce741245b49771f83497b5",
          "topics": [
            "0x8be0079c531659141344cd1fd0a4f28419497f9722a3daafe3b4186f6b6457e0",
            "0x0000000000000000000000000000000000000000000000000000000000000000",
            "0x000000000000000000000000845e8c808e22469aaf07ace9ab7d26c875fbe44f"
          ],
          "data": "0x",
          "blockHash": "0x0000000000000000000000000000000000000000000000000000000000000000",
          "blockNumber": "0x299b6a7",
          "blockTimestamp": "0x69bdca31",
          "transactionHash": "0x790e2fbeb2b382062713d463a9d58f6ba3743a2ec6c66dbadce64f226f5d7287",
          "transactionIndex": "0xb0",
          "logIndex": "0x416",
          "removed": false
        }
      ],
      "logsBloom": "0x00000000000000000000000000000010000000000000000000800000000000800000000000000000000000000000000000000000000000000000000000000000000000000000000000000000000000000001000000000000000000000000000002000000020000000000000000000800000000000000000000000010000000400000000000000000000000000000000000000000000000000000000000000000000000000000000000000000000080000000000000000000000000000000000000000000000000000000000000000000000000000000000000000000000020000000000000000400000000000000000000000000000000000000000000000000",
      "type": "0x2",
      "transactionHash": "0x790e2fbeb2b382062713d463a9d58f6ba3743a2ec6c66dbadce64f226f5d7287",
      "transactionIndex": "0xb0",
      "blockHash": "0x0000000000000000000000000000000000000000000000000000000000000000",
      "blockNumber": "0x299b6a7",
      "gasUsed": "0x455c3b",
      "effectiveGasPrice": "0x4c4b41",
      "blobGasUsed": "0x16511e",
      "from": "0x845e8c808e22469aaf07ace9ab7d26c875fbe44f",
      "to": null,
      "contractAddress": "0x13f593c6151504ff5fce741245b49771f83497b5",
      "daFootprintGasScalar": "0x8b",
      "l1BaseFeeScalar": "0x8dd",
      "l1BlobBaseFee": "0x30897b",
      "l1BlobBaseFeeScalar": "0x101c12",
      "l1Fee": "0x1fc36230",
      "l1GasPrice": "0x33c4a86",
      "l1GasUsed": "0x291a6"
    },
    {
      "status": "0x1",
      "cumulativeGasUsed": "0x2e11baa",
      "logs": [
        {
          "address": "0x13f593c6151504ff5fce741245b49771f83497b5",
          "topics": [
            "0x791d0f3c8799c9df05b4434624f423e70d3c803aa8192c9c2557c19654000f37",
            "0x0000000000000000000000000000000000000000000000000000000000000001"
          ],
          "data": "0x000000000000000000000000000000000000000000000000000000000000008000000000000000000000000000000000000000000000000000000000000000c00000000000000000000000000000000000000000000000000000000001312d0000000000000000000000000000000000000000000000000000000000000000640000000000000000000000000000000000000000000000000000000000000012517569636b20436f6e73756c746174696f6e00000000000000000000000000000000000000000000000000000000000000000000000000000000000000000007636f6e73756c7400000000000000000000000000000000000000000000000000",
          "blockHash": "0x0000000000000000000000000000000000000000000000000000000000000000",
          "blockNumber": "0x299b6a7",
          "blockTimestamp": "0x69bdca31",
          "transactionHash": "0x09d12d85c5465e11d253347aedcd14727785048619f55ba20123834d4fd376b7",
          "transactionIndex": "0xb1",
          "logIndex": "0x417",
          "removed": false
        }
      ],
      "logsBloom": "0x00000000000000000000000000000010000000000000400000000000000000800000000000000000000000000000000000000000000000000000000000040100000000000000000000000000000000000000000000040100000000000000000002000000000000000000000000000000000000000000000000000000000000000000000000000000000000000000000000000000000000000000000000000000000000000000000000000000000000000000000000000000000000000000000000000000000000000000000000000000000000000000000000000000000040000000000000000000000000000000000000000000000000000000000000000000",
      "type": "0x2",
      "transactionHash": "0x09d12d85c5465e11d253347aedcd14727785048619f55ba20123834d4fd376b7",
      "transactionIndex": "0xb1",
      "blockHash": "0x0000000000000000000000000000000000000000000000000000000000000000",
      "blockNumber": "0x299b6a7",
      "gasUsed": "0x2967b",
      "effectiveGasPrice": "0x4c4b41",
      "blobGasUsed": "0x3e71",
      "from": "0x845e8c808e22469aaf07ace9ab7d26c875fbe44f",
      "to": "0x13f593c6151504ff5fce741245b49771f83497b5",
      "contractAddress": null,
      "daFootprintGasScalar": "0x8b",
      "l1BaseFeeScalar": "0x8dd",
      "l1BlobBaseFee": "0x30897b",
      "l1BlobBaseFeeScalar": "0x101c12",
      "l1Fee": "0x1fc36230",
      "l1GasPrice": "0x33c4a86",
      "l1GasUsed": "0x738"
    },
    {
      "status": "0x1",
      "cumulativeGasUsed": "0x2e3b261",
      "logs": [
        {
          "address": "0x13f593c6151504ff5fce741245b49771f83497b5",
          "topics": [
            "0x791d0f3c8799c9df05b4434624f423e70d3c803aa8192c9c2557c19654000f37",
            "0x0000000000000000000000000000000000000000000000000000000000000002"
          ],
          "data": "0x000000000000000000000000000000000000000000000000000000000000008000000000000000000000000000000000000000000000000000000000000000c00000000000000000000000000000000000000000000000000000000001c9c380000000000000000000000000000000000000000000000000000000000000003200000000000000000000000000000000000000000000000000000000000000114465657020436f6e73756c746174696f6e000000000000000000000000000000000000000000000000000000000000000000000000000000000000000000000c636f6e73756c742d646565700000000000000000000000000000000000000000",
          "blockHash": "0x0000000000000000000000000000000000000000000000000000000000000000",
          "blockNumber": "0x299b6a7",
          "blockTimestamp": "0x69bdca31",
          "transactionHash": "0x5aa1eb292032d65786e93aa257ec43915d162c32e5bd104aebdd79e7a41ff07c",
          "transactionIndex": "0xb2",
          "logIndex": "0x418",
          "removed": false
        }
      ],
      "logsBloom": "0x04000000000000000000000000000010000000000000400000000000000000800000000000000000000000000000000000000000000000000000000000000100000000000000000000000000000000000000000000000100000000000000000002000000000000000000000000000000000000000000000000000000000000000000000000000000000000000000000000000000000000000000000000000000000000000000000000000100000000000000000000000000000000000000000000000000000000000000000000000000000000000000000000000000000000000000000000000000000000000000000000000000008000000000000000000000",
      "type": "0x2",
      "transactionHash": "0x5aa1eb292032d65786e93aa257ec43915d162c32e5bd104aebdd79e7a41ff07c",
      "transactionIndex": "0xb2",
      "blockHash": "0x0000000000000000000000000000000000000000000000000000000000000000",
      "blockNumber": "0x299b6a7",
      "gasUsed": "0x296b7",
      "effectiveGasPrice": "0x4c4b41",
      "blobGasUsed": "0x3de6",
      "from": "0x845e8c808e22469aaf07ace9ab7d26c875fbe44f",
      "to": "0x13f593c6151504ff5fce741245b49771f83497b5",
      "contractAddress": null,
      "daFootprintGasScalar": "0x8b",
      "l1BaseFeeScalar": "0x8dd",
      "l1BlobBaseFee": "0x30897b",
      "l1BlobBaseFeeScalar": "0x101c12",
      "l1Fee": "0x1fc36230",
      "l1GasPrice": "0x33c4a86",
      "l1GasUsed": "0x72a"
    },
    {
      "status": "0x1",
      "cumulativeGasUsed": "0x2e6487c",
      "logs": [
        {
          "address": "0x13f593c6151504ff5fce741245b49771f83497b5",
          "topics": [
            "0x791d0f3c8799c9df05b4434624f423e70d3c803aa8192c9c2557c19654000f37",
            "0x0000000000000000000000000000000000000000000000000000000000000003"
          ],
          "data": "0x000000000000000000000000000000000000000000000000000000000000008000000000000000000000000000000000000000000000000000000000000000c0000000000000000000000000000000000000000000000000000000000003d09000000000000000000000000000000000000000000000000000000000000001f4000000000000000000000000000000000000000000000000000000000000000d5046502047656e657261746f720000000000000000000000000000000000000000000000000000000000000000000000000000000000000000000000000000037066700000000000000000000000000000000000000000000000000000000000",
          "blockHash": "0x0000000000000000000000000000000000000000000000000000000000000000",
          "blockNumber": "0x299b6a7",
          "blockTimestamp": "0x69bdca31",
          "transactionHash": "0xc1242edf6111065505682c7491d3dbbce23c44857ec8b98e52bb040487d4cec7",
          "transactionIndex": "0xb3",
          "logIndex": "0x419",
          "removed": false
        }
      ],
      "logsBloom": "0x00000000000000000000000000000010000000000000400000000000000000800000000000000000000000000000000000000000020000000000000000000100000000000000000000000000000000000000000000000100000000000000000002000000000000000000000000000000000000000000000000000000000000000000000000000000000000000000000000000000000000000000000000000000000000000000000000000000000000000000000000800000000000000000400000000000000000000000000000000000000000000000000000000000000000000000000000000000000000000000000000000000000000000000000000000000",
      "type": "0x2",
      "transactionHash": "0xc1242edf6111065505682c7491d3dbbce23c44857ec8b98e52bb040487d4cec7",
      "transactionIndex": "0xb3",
      "blockHash": "0x0000000000000000000000000000000000000000000000000000000000000000",
      "blockNumber": "0x299b6a7",
      "gasUsed": "0x2961b",
      "effectiveGasPrice": "0x4c4b41",
      "blobGasUsed": "0x3cd0",
      "from": "0x845e8c808e22469aaf07ace9ab7d26c875fbe44f",
      "to": "0x13f593c6151504ff5fce741245b49771f83497b5",
      "contractAddress": null,
      "daFootprintGasScalar": "0x8b",
      "l1BaseFeeScalar": "0x8dd",
      "l1BlobBaseFee": "0x30897b",
      "l1BlobBaseFeeScalar": "0x101c12",
      "l1Fee": "0x1fc36230",
      "l1GasPrice": "0x33c4a86",
      "l1GasUsed": "0x702"
    },
    {
      "status": "0x1",
      "cumulativeGasUsed": "0x2e987ac",
      "logs": [
        {
          "address": "0x13f593c6151504ff5fce741245b49771f83497b5",
          "topics": [
            "0x791d0f3c8799c9df05b4434624f423e70d3c803aa8192c9c2557c19654000f37",
            "0x0000000000000000000000000000000000000000000000000000000000000004"
          ],
          "data": "0x000000000000000000000000000000000000000000000000000000000000008000000000000000000000000000000000000000000000000000000000000000c0000000000000000000000000000000000000000000000000000000000bebc2000000000000000000000000000000000000000000000000000000000000000019000000000000000000000000000000000000000000000000000000000000000e436f6e747261637420417564697400000000000000000000000000000000000000000000000000000000000000000000000000000000000000000000000000056175646974000000000000000000000000000000000000000000000000000000",
          "blockHash": "0x0000000000000000000000000000000000000000000000000000000000000000",
          "blockNumber": "0x299b6a7",
          "blockTimestamp": "0x69bdca31",
          "transactionHash": "0x362c7500dff5d75a38507ee10af37cfd49995fce5cca4dd7b24d401ee8d09826",
          "transactionIndex": "0xb5",
          "logIndex": "0x41b",
          "removed": false
        }
      ],
      "logsBloom": "0x0000000000000000000000000000001000000000000040000000000000000080000000000000000000000000000000000000000000000000000000000000010000000000000000000000000000000000000000000000010000000000000000000a000000000000000000000000000000000000000000000000000000000000000000000000000000000000000000000000000000000000000000000000000000000000000000000000000000000000000000000000000000002000000000000000000000000000000000000000000000000000008000000000000000000000000000000000000000000000000000000000000000000000000000000000000000",
      "type": "0x2",
      "transactionHash": "0x362c7500dff5d75a38507ee10af37cfd49995fce5cca4dd7b24d401ee8d09826",
      "transactionIndex": "0xb5",
      "blockHash": "0x0000000000000000000000000000000000000000000000000000000000000000",
      "blockNumber": "0x299b6a7",
      "gasUsed": "0x29633",
      "effectiveGasPrice": "0x4c4b41",
      "blobGasUsed": "0x3aa4",
      "from": "0x845e8c808e22469aaf07ace9ab7d26c875fbe44f",
      "to": "0x13f593c6151504ff5fce741245b49771f83497b5",
      "contractAddress": null,
      "daFootprintGasScalar": "0x8b",
      "l1BaseFeeScalar": "0x8dd",
      "l1BlobBaseFee": "0x30897b",
      "l1BlobBaseFeeScalar": "0x101c12",
      "l1Fee": "0x1fc36230",
      "l1GasPrice": "0x33c4a86",
      "l1GasUsed": "0x6cd"
    },
    {
      "status": "0x1",
      "cumulativeGasUsed": "0x2ec1deb",
      "logs": [
        {
          "address": "0x13f593c6151504ff5fce741245b49771f83497b5",
          "topics": [
            "0x791d0f3c8799c9df05b4434624f423e70d3c803aa8192c9c2557c19654000f37",
            "0x0000000000000000000000000000000000000000000000000000000000000005"
          ],
          "data": "0x000000000000000000000000000000000000000000000000000000000000008000000000000000000000000000000000000000000000000000000000000000c00000000000000000000000000000000000000000000000000000000002faf0800000000000000000000000000000000000000000000000000000000000000032000000000000000000000000000000000000000000000000000000000000001146726f6e74656e6420514120417564697400000000000000000000000000000000000000000000000000000000000000000000000000000000000000000000027161000000000000000000000000000000000000000000000000000000000000",
          "blockHash": "0x0000000000000000000000000000000000000000000000000000000000000000",
          "blockNumber": "0x299b6a7",
          "blockTimestamp": "0x69bdca31",
          "transactionHash": "0xb47cdcabb7d069b53f5fb157245162f3e788e739f863242e5071cbc22798e516",
          "transactionIndex": "0xb6",
          "logIndex": "0x41c",
          "removed": false
        }
      ],
      "logsBloom": "0x00000000000000000000000000000010000000000000400000000000000000800000000000000000000000000000000000000000000000000000000000000100000010000000000000000000000000000000000000000100000000000000000002000000000000000000000000000000000000000000000000000000000000000000000000000000000000000000001000000800000000000000000000000000000000000000000000000000000000000000000000000000000000000000000000000000000000000000000000000000000000000000000000000000000000000000000000000000000000000000000000000000000000000000000000000000",
      "type": "0x2",
      "transactionHash": "0xb47cdcabb7d069b53f5fb157245162f3e788e739f863242e5071cbc22798e516",
      "transactionIndex": "0xb6",
      "blockHash": "0x0000000000000000000000000000000000000000000000000000000000000000",
      "blockNumber": "0x299b6a7",
      "gasUsed": "0x2963f",
      "effectiveGasPrice": "0x4c4b41",
      "blobGasUsed": "0x3b2f",
      "from": "0x845e8c808e22469aaf07ace9ab7d26c875fbe44f",
      "to": "0x13f593c6151504ff5fce741245b49771f83497b5",
      "contractAddress": null,
      "daFootprintGasScalar": "0x8b",
      "l1BaseFeeScalar": "0x8dd",
      "l1BlobBaseFee": "0x30897b",
      "l1BlobBaseFeeScalar": "0x101c12",
      "l1Fee": "0x1fc36230",
      "l1GasPrice": "0x33c4a86",
      "l1GasUsed": "0x6da"
    },
    {
      "status": "0x1",
      "cumulativeGasUsed": "0x2eeb3fa",
      "logs": [
        {
          "address": "0x13f593c6151504ff5fce741245b49771f83497b5",
          "topics": [
            "0x791d0f3c8799c9df05b4434624f423e70d3c803aa8192c9c2557c19654000f37",
            "0x0000000000000000000000000000000000000000000000000000000000000006"
          ],
          "data": "0x000000000000000000000000000000000000000000000000000000000000008000000000000000000000000000000000000000000000000000000000000000c0000000000000000000000000000000000000000000000000000000003b9aca000000000000000000000000000000000000000000000000000000000000000001000000000000000000000000000000000000000000000000000000000000000b4461696c79204275696c6400000000000000000000000000000000000000000000000000000000000000000000000000000000000000000000000000000000056275696c64000000000000000000000000000000000000000000000000000000",
          "blockHash": "0x0000000000000000000000000000000000000000000000000000000000000000",
          "blockNumber": "0x299b6a7",
          "blockTimestamp": "0x69bdca31",
          "transactionHash": "0x8db00f5004a424ddb0910874a35f73d555c2576b8f5771fe4bf33922322540bb",
          "transactionIndex": "0xb7",
          "logIndex": "0x41d",
          "removed": false
        }
      ],
      "logsBloom": "0x00000000000000000000000000000010000000000000400000000000000000800000000000000000000000000000000000000000000400000000000000000100000000000000000000000000000000000000000000000100000000000000000002000000000000000000000000000000000000000000000000000000000000000000000400000000000000000000000000000000000000000000000000000000000000000000000000000000000000000000000000000000000000080000000000000000000000000000000000000000000000000000000000000000000000000000000000000000000000000000000000000000000000000000000000000000",
      "type": "0x2",
      "transactionHash": "0x8db00f5004a424ddb0910874a35f73d555c2576b8f5771fe4bf33922322540bb",
      "transactionIndex": "0xb7",
      "blockHash": "0x0000000000000000000000000000000000000000000000000000000000000000",
      "blockNumber": "0x299b6a7",
      "gasUsed": "0x2960f",
      "effectiveGasPrice": "0x4c4b41",
      "blobGasUsed": "0x398e",
      "from": "0x845e8c808e22469aaf07ace9ab7d26c875fbe44f",
      "to": "0x13f593c6151504ff5fce741245b49771f83497b5",
      "contractAddress": null,
      "daFootprintGasScalar": "0x8b",
      "l1BaseFeeScalar": "0x8dd",
      "l1BlobBaseFee": "0x30897b",
      "l1BlobBaseFeeScalar": "0x101c12",
      "l1Fee": "0x1fc36230",
      "l1GasPrice": "0x33c4a86",
      "l1GasUsed": "0x6a4"
    },
    {
      "status": "0x1",
      "cumulativeGasUsed": "0x2f14a5d",
      "logs": [
        {
          "address": "0x13f593c6151504ff5fce741245b49771f83497b5",
          "topics": [
            "0x791d0f3c8799c9df05b4434624f423e70d3c803aa8192c9c2557c19654000f37",
            "0x0000000000000000000000000000000000000000000000000000000000000007"
          ],
          "data": "0x000000000000000000000000000000000000000000000000000000000000008000000000000000000000000000000000000000000000000000000000000000c00000000000000000000000000000000000000000000000000000000005f5e100000000000000000000000000000000000000000000000000000000000000000d000000000000000000000000000000000000000000000000000000000000000f5265736561726368205265706f7274000000000000000000000000000000000000000000000000000000000000000000000000000000000000000000000000087265736561726368000000000000000000000000000000000000000000000000",
          "blockHash": "0x0000000000000000000000000000000000000000000000000000000000000000",
          "blockNumber": "0x299b6a7",
          "blockTimestamp": "0x69bdca31",
          "transactionHash": "0xf1c71c642fbb207ed9e8672c41fad514720f7d55cfaa6f12f617ce30557261d5",
          "transactionIndex": "0xb8",
          "logIndex": "0x41e",
          "removed": false
        }
      ],
      "logsBloom": "0x00000000000000000000000000000010000000000000400000000000000000800000000000000000000000000000000000001000000000000000000000000100000020000000000000000000000000000000000000000100000000000000000002000000000000000000000000000000000000000000000000000000000000000000000000000000000000000000000000000000000000000000000000000000000000000000000000000000000000000000000000000000000000000000000000000000000000000000000000000000000000000000000000000100000000000000000000000000000000000000000000000000000000000000000000000000",
      "type": "0x2",
      "transactionHash": "0xf1c71c642fbb207ed9e8672c41fad514720f7d55cfaa6f12f617ce30557261d5",
      "transactionIndex": "0xb8",
      "blockHash": "0x0000000000000000000000000000000000000000000000000000000000000000",
      "blockNumber": "0x299b6a7",
      "gasUsed": "0x29663",
      "effectiveGasPrice": "0x4c4b41",
      "blobGasUsed": "0x3c45",
      "from": "0x845e8c808e22469aaf07ace9ab7d26c875fbe44f",
      "to": "0x13f593c6151504ff5fce741245b49771f83497b5",
      "contractAddress": null,
      "daFootprintGasScalar": "0x8b",
      "l1BaseFeeScalar": "0x8dd",
      "l1BlobBaseFee": "0x30897b",
      "l1BlobBaseFeeScalar": "0x101c12",
      "l1Fee": "0x1fc36230",
      "l1GasPrice": "0x33c4a86",
      "l1GasUsed": "0x6f5"
    },
    {
      "status": "0x1",
      "cumulativeGasUsed": "0x2f3e09c",
      "logs": [
        {
          "address": "0x13f593c6151504ff5fce741245b49771f83497b5",
          "topics": [
            "0x791d0f3c8799c9df05b4434624f423e70d3c803aa8192c9c2557c19654000f37",
            "0x0000000000000000000000000000000000000000000000000000000000000008"
          ],
          "data": "0x000000000000000000000000000000000000000000000000000000000000008000000000000000000000000000000000000000000000000000000000000000c00000000000000000000000000000000000000000000000000000000002faf0800000000000000000000000000000000000000000000000000000000000000032000000000000000000000000000000000000000000000000000000000000000e4a75646765202f204f7261636c6500000000000000000000000000000000000000000000000000000000000000000000000000000000000000000000000000056a75646765000000000000000000000000000000000000000000000000000000",
          "blockHash": "0x0000000000000000000000000000000000000000000000000000000000000000",
          "blockNumber": "0x299b6a7",
          "blockTimestamp": "0x69bdca31",
          "transactionHash": "0xfaa007e7a1c27585c805cc6bf0938bfc62aef10102521b9d48c34a2071adbbc5",
          "transactionIndex": "0xb9",
          "logIndex": "0x41f",
          "removed": false
        }
      ],
      "logsBloom": "0x00000000000000000000000000000010000000000000400000000000000000800000000000000000000000000000000000000000000080000000000000000100000000000000000000000000000000000000000000000100000000000000000002000000000000000000000000000000000000000000000000000000000000000080000000000000000000000000000000000000000000000000000000000000000000000000000000000000000000000000000000000000000000000000000040000000000000000000000000000000000000000000000000000000000000000000000000000000000000000000000000000000000000000000000000000000",
      "type": "0x2",
      "transactionHash": "0xfaa007e7a1c27585c805cc6bf0938bfc62aef10102521b9d48c34a2071adbbc5",
      "transactionIndex": "0xb9",
      "blockHash": "0x0000000000000000000000000000000000000000000000000000000000000000",
      "blockNumber": "0x299b6a7",
      "gasUsed": "0x2963f",
      "effectiveGasPrice": "0x4c4b41",
      "blobGasUsed": "0x3a19",
      "from": "0x845e8c808e22469aaf07ace9ab7d26c875fbe44f",
      "to": "0x13f593c6151504ff5fce741245b49771f83497b5",
      "contractAddress": null,
      "daFootprintGasScalar": "0x8b",
      "l1BaseFeeScalar": "0x8dd",
      "l1BlobBaseFee": "0x30897b",
      "l1BlobBaseFeeScalar": "0x101c12",
      "l1Fee": "0x1fc36230",
      "l1GasPrice": "0x33c4a86",
      "l1GasUsed": "0x6bf"
    },
    {
      "status": "0x1",
      "cumulativeGasUsed": "0x2f49ab0",
      "logs": [
        {
          "address": "0x13f593c6151504ff5fce741245b49771f83497b5",
          "topics": [
            "0xb10d2a24a8c3686841e966f0c2c64c385cfaecb50a09b16aa3579bfcf3989dcd",
            "0x000000000000000000000000a822155c242b3a307086f1e2787e393d78a0b5ac"
          ],
          "data": "0x",
          "blockHash": "0x0000000000000000000000000000000000000000000000000000000000000000",
          "blockNumber": "0x299b6a7",
          "blockTimestamp": "0x69bdca31",
          "transactionHash": "0xeb64733e263bfd054b990b38691e50590b95ead8dc5c3775cdfbfa4e5d4571d4",
          "transactionIndex": "0xba",
          "logIndex": "0x420",
          "removed": false
        }
      ],
      "logsBloom": "0x00000000004000000000000000000010000000000000000000000000000000800000000000000000000000000000000000000000000000000000000000000000000000000000000000000000000000000000000000000000000000800000000002000000000000000000000000000000000000000000000020001000000000000000000000000000000000000000000000000000000000000000000020000000000000000000000000000000000000000000000000000000000000000000000000000000000000000000000000000000000000000000000000000000000000000000000000000000000000000000100000000000000000000000000000000000",
      "type": "0x2",
      "transactionHash": "0xeb64733e263bfd054b990b38691e50590b95ead8dc5c3775cdfbfa4e5d4571d4",
      "transactionIndex": "0xba",
      "blockHash": "0x0000000000000000000000000000000000000000000000000000000000000000",
      "blockNumber": "0x299b6a7",
      "gasUsed": "0xba14",
      "effectiveGasPrice": "0x4c4b41",
      "blobGasUsed": "0x364c",
      "from": "0x845e8c808e22469aaf07ace9ab7d26c875fbe44f",
      "to": "0x13f593c6151504ff5fce741245b49771f83497b5",
      "contractAddress": null,
      "daFootprintGasScalar": "0x8b",
      "l1BaseFeeScalar": "0x8dd",
      "l1BlobBaseFee": "0x30897b",
      "l1BlobBaseFeeScalar": "0x101c12",
      "l1Fee": "0x1fc36230",
      "l1GasPrice": "0x33c4a86",
      "l1GasUsed": "0x640"
    },
    {
      "status": "0x1",
      "cumulativeGasUsed": "0x2f554b8",
      "logs": [
        {
          "address": "0x13f593c6151504ff5fce741245b49771f83497b5",
          "topics": [
            "0xb10d2a24a8c3686841e966f0c2c64c385cfaecb50a09b16aa3579bfcf3989dcd",
            "0x0000000000000000000000008c00eae9b9a2f89bddaae4f6884c716562c7ce93"
          ],
          "data": "0x",
          "blockHash": "0x0000000000000000000000000000000000000000000000000000000000000000",
          "blockNumber": "0x299b6a7",
          "blockTimestamp": "0x69bdca31",
          "transactionHash": "0x8ee9ac1d5bf07d04f4c1bea7251bfb5ff13f52129b9a7c24d92baaa5895dd8ce",
          "transactionIndex": "0xbb",
          "logIndex": "0x421",
          "removed": false
        }
      ],
      "logsBloom": "0x00000000004000000000000000000010000000000000000000000000000000800000000000000000000000000000000000000000000000000000000000000000000000000000000000000000000000000000000000000000040000000000000002000000000000000000000000000000000000000000000020000000000000000000000000000000000000000000000000000000000000000000000000000000000000000000000000000000000000000000000000000000000000000000000000000000000000000000000000000000000000000000000000000000000000000000000000000000800000000000100000000000000000000008000000000000",
      "type": "0x2",
      "transactionHash": "0x8ee9ac1d5bf07d04f4c1bea7251bfb5ff13f52129b9a7c24d92baaa5895dd8ce",
      "transactionIndex": "0xbb",
      "blockHash": "0x0000000000000000000000000000000000000000000000000000000000000000",
      "blockNumber": "0x299b6a7",
      "gasUsed": "0xba08",
      "effectiveGasPrice": "0x4c4b41",
      "blobGasUsed": "0x364c",
      "from": "0x845e8c808e22469aaf07ace9ab7d26c875fbe44f",
      "to": "0x13f593c6151504ff5fce741245b49771f83497b5",
      "contractAddress": null,
      "daFootprintGasScalar": "0x8b",
      "l1BaseFeeScalar": "0x8dd",
      "l1BlobBaseFee": "0x30897b",
      "l1BlobBaseFeeScalar": "0x101c12",
      "l1Fee": "0x1fc36230",
      "l1GasPrice": "0x33c4a86",
      "l1GasUsed": "0x640"
    },
    {
      "status": "0x1",
      "cumulativeGasUsed": "0x2f60ecc",
      "logs": [
        {
          "address": "0x13f593c6151504ff5fce741245b49771f83497b5",
          "topics": [
            "0xb10d2a24a8c3686841e966f0c2c64c385cfaecb50a09b16aa3579bfcf3989dcd",
            "0x000000000000000000000000472c382550780cd30e1d27155b96fa4b63d9247e"
          ],
          "data": "0x",
          "blockHash": "0x0000000000000000000000000000000000000000000000000000000000000000",
          "blockNumber": "0x299b6a7",
          "blockTimestamp": "0x69bdca31",
          "transactionHash": "0xfa5f9e9e4bf6abff0a6d37ef27a0864927882b46a7da898993eba1772746ff72",
          "transactionIndex": "0xbc",
          "logIndex": "0x422",
          "removed": false
        }
      ],
      "logsBloom": "0x00000000004000000000000000000010000000000000000000000000000000800000000000000000004000000000000000000000000000000000000000000000000000000000000000000000000000000000000000000000000000000000000002000000000000000000000000000000000000000000000020000000000000000000000000000000000000000000000000000000000000000000004000000000000000000000000000000000000000000000000000000000000000000000000000000000000000000000000000000000000000000000000000000000000000000000000000000000000000000020100000000000000000000000000000000000",
      "type": "0x2",
      "transactionHash": "0xfa5f9e9e4bf6abff0a6d37ef27a0864927882b46a7da898993eba1772746ff72",
      "transactionIndex": "0xbc",
      "blockHash": "0x0000000000000000000000000000000000000000000000000000000000000000",
      "blockNumber": "0x299b6a7",
      "gasUsed": "0xba14",
      "effectiveGasPrice": "0x4c4b41",
      "blobGasUsed": "0x364c",
      "from": "0x845e8c808e22469aaf07ace9ab7d26c875fbe44f",
      "to": "0x13f593c6151504ff5fce741245b49771f83497b5",
      "contractAddress": null,
      "daFootprintGasScalar": "0x8b",
      "l1BaseFeeScalar": "0x8dd",
      "l1BlobBaseFee": "0x30897b",
      "l1BlobBaseFeeScalar": "0x101c12",
      "l1Fee": "0x1fc36230",
      "l1GasPrice": "0x33c4a86",
      "l1GasUsed": "0x640"
    },
    {
      "status": "0x1",
      "cumulativeGasUsed": "0x2f6c8e0",
      "logs": [
        {
          "address": "0x13f593c6151504ff5fce741245b49771f83497b5",
          "topics": [
            "0xb10d2a24a8c3686841e966f0c2c64c385cfaecb50a09b16aa3579bfcf3989dcd",
            "0x00000000000000000000000009defc9e6ffc5e41f42e0d50512eef9354523e0e"
          ],
          "data": "0x",
          "blockHash": "0x0000000000000000000000000000000000000000000000000000000000000000",
          "blockNumber": "0x299b6a7",
          "blockTimestamp": "0x69bdca31",
          "transactionHash": "0x5f71a7dcb7468e6f6979728adea2c0ba42534dc69bcb9bf525c181944426f55a",
          "transactionIndex": "0xbd",
          "logIndex": "0x423",
          "removed": false
        }
      ],
      "logsBloom": "0x00000000004000000000000000000010000000000000000000000000000000800000000000000000000000000000000000000000000000000000000000000000000001000000000000000000000000000000000000000000000000000000000002000000000000000000000000000000000000000000000020000000000000000000000040000000000000000000000000000000000000000000000000000000000000000000000000000000000000000000000000000000000000000000000000000000000000000000000000000000000000000000000000000000000000000000000000000000000000000000100000000000000000000000800000000000",
      "type": "0x2",
      "transactionHash": "0x5f71a7dcb7468e6f6979728adea2c0ba42534dc69bcb9bf525c181944426f55a",
      "transactionIndex": "0xbd",
      "blockHash": "0x0000000000000000000000000000000000000000000000000000000000000000",
      "blockNumber": "0x299b6a7",
      "gasUsed": "0xba14",
      "effectiveGasPrice": "0x4c4b41",
      "blobGasUsed": "0x364c",
      "from": "0x845e8c808e22469aaf07ace9ab7d26c875fbe44f",
      "to": "0x13f593c6151504ff5fce741245b49771f83497b5",
      "contractAddress": null,
      "daFootprintGasScalar": "0x8b",
      "l1BaseFeeScalar": "0x8dd",
      "l1BlobBaseFee": "0x30897b",
      "l1BlobBaseFeeScalar": "0x101c12",
      "l1Fee": "0x1fc36230",
      "l1GasPrice": "0x33c4a86",
      "l1GasUsed": "0x640"
    },
    {
      "status": "0x1",
      "cumulativeGasUsed": "0x2f782f4",
      "logs": [
        {
          "address": "0x13f593c6151504ff5fce741245b49771f83497b5",
          "topics": [
            "0xb10d2a24a8c3686841e966f0c2c64c385cfaecb50a09b16aa3579bfcf3989dcd",
            "0x0000000000000000000000009f7cf1d1f558e57ef88a59ac3d47214ef25b6a06"
          ],
          "data": "0x",
          "blockHash": "0x0000000000000000000000000000000000000000000000000000000000000000",
          "blockNumber": "0x299b6a7",
          "blockTimestamp": "0x69bdca31",
          "transactionHash": "0x9ade7557a9b7ed15b97a81fbaacb6aa2e363c08eb33e348c674674f698bd1b4d",
          "transactionIndex": "0xbe",
          "logIndex": "0x424",
          "removed": false
        }
      ],
      "logsBloom": "0x00000000004000000000000000000010000000000000000000000000000000800000000000000000000000000000000000000000000000000000000000000000000040000000000000000000000000000000000000000000000000000000000002000000000000000000000000000000000000000000000020000000000000000000000000000000000000800000000000000000000000000000000000000000000000004000000000000000000000000000000000000000000000000000000000000000000000000000000000000000000000000000000000000000000000000000000000000000000000000000100000000000000000000000000000000000",
      "type": "0x2",
      "transactionHash": "0x9ade7557a9b7ed15b97a81fbaacb6aa2e363c08eb33e348c674674f698bd1b4d",
      "transactionIndex": "0xbe",
      "blockHash": "0x0000000000000000000000000000000000000000000000000000000000000000",
      "blockNumber": "0x299b6a7",
      "gasUsed": "0xba14",
      "effectiveGasPrice": "0x4c4b41",
      "blobGasUsed": "0x364c",
      "from": "0x845e8c808e22469aaf07ace9ab7d26c875fbe44f",
      "to": "0x13f593c6151504ff5fce741245b49771f83497b5",
      "contractAddress": null,
      "daFootprintGasScalar": "0x8b",
      "l1BaseFeeScalar": "0x8dd",
      "l1BlobBaseFee": "0x30897b",
      "l1BlobBaseFeeScalar": "0x101c12",
      "l1Fee": "0x1fc36230",
      "l1GasPrice": "0x33c4a86",
      "l1GasUsed": "0x640"
    },
    {
      "status": "0x1",
      "cumulativeGasUsed": "0x2f7f581",
      "logs": [
        {
          "address": "0x13f593c6151504ff5fce741245b49771f83497b5",
          "topics": [
            "0x8be0079c531659141344cd1fd0a4f28419497f9722a3daafe3b4186f6b6457e0",
            "0x000000000000000000000000845e8c808e22469aaf07ace9ab7d26c875fbe44f",
            "0x00000000000000000000000011ce532845ce0eacda41f72fdc1c88c335981442"
          ],
          "data": "0x",
          "blockHash": "0x0000000000000000000000000000000000000000000000000000000000000000",
          "blockNumber": "0x299b6a7",
          "blockTimestamp": "0x69bdca31",
          "transactionHash": "0xedd5fcd0ecc08455a099a31cf20808d1d423f9a2d78663f615d6fd1c41276d97",
          "transactionIndex": "0xbf",
          "logIndex": "0x425",
          "removed": false
        }
      ],
      "logsBloom": "0x00000000000000000000000000000010000000000000000000800040000000800000000000000000000000000000000000000000000000000000000000000000000000000000800000000000000000000001000000000000000000000000000002000000000000000000000000000000000000000000008000000010000000400000000000000000000000000000000000000000000000000000000000000000000000000000000000000000000080000000000000000000000000000000000000000000000000000000000000000000000000000000000000000000000000000000000000000400000000000000000000000000000000000000000000000000",
      "type": "0x2",
      "transactionHash": "0xedd5fcd0ecc08455a099a31cf20808d1d423f9a2d78663f615d6fd1c41276d97",
      "transactionIndex": "0xbf",
      "blockHash": "0x0000000000000000000000000000000000000000000000000000000000000000",
      "blockNumber": "0x299b6a7",
      "gasUsed": "0x728d",
      "effectiveGasPrice": "0x4c4b41",
      "blobGasUsed": "0x364c",
      "from": "0x845e8c808e22469aaf07ace9ab7d26c875fbe44f",
      "to": "0x13f593c6151504ff5fce741245b49771f83497b5",
      "contractAddress": null,
      "daFootprintGasScalar": "0x8b",
      "l1BaseFeeScalar": "0x8dd",
      "l1BlobBaseFee": "0x30897b",
      "l1BlobBaseFeeScalar": "0x101c12",
      "l1Fee": "0x1fc36230",
      "l1GasPrice": "0x33c4a86",
      "l1GasUsed": "0x640"
    }
  ],
  "libraries": [],
  "pending": [],
  "returns": {},
  "timestamp": 1774045744886,
  "chain": 8453,
  "commit": "6f082f8"
}