{
  "transactions": [
    {
      "hash": "0x23a8903810c574931e37696aeac24bc6936a86138f708d176ff36615fe0dca19",
      "transactionType": "CREATE",
      "contractName": "LeftClawServicesV2",
      "contractAddress": "0x103c5fafd8734ae9ec4cc2f116ed03ff6cc2ca5f",
      "function": null,
      "arguments": [
        "0x9f86dB9fc6f7c9408e8Fda3Ff8ce4e78ac7a6b07",
        "0x833589fCD6eDb6E08f4c7C32D4f71b54bdA02913",
        "0x2626664c2603336E57B271c5C0b26F421741e481",
        "0x4200000000000000000000000000000000000006",
        "0x90eF2A9211A3E7CE788561E5af54C76B0Fa3aEd0"
      ],
      "transaction": {
        "from": "0x845e8c808e22469aaf07ace9ab7d26c875fbe44f",
        "gas": "0x601cf5",
        "value": "0x0",
        "input": "0x610100806040523461056f5760a08161573680380380916100208285610573565b83398101031261056f5761003381610596565b61003f60208301610596565b9161004c60408201610596565b610064608061005d60608501610596565b9301610596565b331561055c575f8054336001600160a01b0319821681178355916001600160a01b03909116907f8be0079c531659141344cd1fd0a4f28419497f9722a3daafe3b4186f6b6457e09080a360017f9b779b17422d0df92223018b32b4d1fa46e071723d6817e2486d003becc55f00556001600160a01b038416918215158061054a575b6100ef906105aa565b6001600160a01b03169081151580610538575b61010b906105aa565b6001600160a01b0316918215610507576080526001600160a01b03851660a05260c05260e0829052600880546001600160a01b031916919091179055600160028190556004556040516001600160601b0319606094851b81166020830152607d60ea1b603483015291841b82166037820181905261027160ec1b604b8301529290931b16604e8301819052604283526101a5606284610573565b82516001600160401b03811161040d57600954600181811c911680156104fd575b60208210146103ef57601f811161048f575b506020601f821160011461042c57819293945f92610421575b50508160011b915f199060031b1c1916176009555b60405191602083015261027160ec1b60348301526037820152602b815261022e604b82610573565b80516001600160401b03811161040d57600a54600181811c91168015610403575b60208210146103ef57601f8111610381575b50602091601f8211600114610321579181925f92610316575b50508160011b915f199060031b1c191617600a555b60405161515790816105df823960805181818161026401528181610df901528181611e1c015281816128370152818161309a015281816136a80152613aa3015260a051818181610766015281816129fe0152613a2a015260c05181818161079301528181612004015281816125c60152612a2b015260e051818181611fa30152612b0e0152f35b015190505f8061027a565b601f19821692600a5f52805f20915f5b85811061036957508360019510610351575b505050811b01600a5561028f565b01515f1960f88460031b161c191690555f8080610343565b91926020600181928685015181550194019201610331565b8181111561026157600a5f52601f820160051c7fc65a7bb8d6351c1cf70c95a316cc6a92839c986682d98bc35f958f4883f9d2a8602084106103e7575b81601f9101920160051c03905f5b8281106103da575050610261565b5f828201556001016103cc565b5f91506103be565b634e487b7160e01b5f52602260045260245ffd5b90607f169061024f565b634e487b7160e01b5f52604160045260245ffd5b015190505f806101f1565b601f1982169060095f52805f20915f5b8181106104775750958360019596971061045f575b505050811b01600955610206565b01515f1960f88460031b161c191690555f8080610451565b9192602060018192868b01518155019401920161043c565b818111156101d85760095f52601f820160051c7f6e1540171b6c0c960b71a7020d9f60077f6af931a8bbf590da0223dacf75c7af602084106104f5575b81601f9101920160051c03905f5b8281106104e85750506101d8565b5f828201556001016104da565b5f91506104cc565b90607f16906101c6565b60405162461bcd60e51b815260206004820152600960248201526821747265617375727960b81b6044820152606490fd5b506001600160a01b0384161515610102565b506001600160a01b03861615156100e6565b631e4fbdf760e01b5f525f60045260245ffd5b5f80fd5b601f909101601f19168101906001600160401b0382119082101761040d57604052565b51906001600160a01b038216820361056f57565b156105b157565b60405162461bcd60e51b815260206004820152600560248201526410b0b2323960d91b6044820152606490fdfe6080604052600436101561001a575b3615610018575f80fd5b005b5f3560e01c80630644100b14613ead578063111b9a4714613a5957806311eac85514613a155780631321c95e1461394f578063153c651914613847578063180aedf3146136d35780631dffa3dc146135d957806321e92a5d1461315a57806325b86edf1461300b5780632df50a2114612ed1578063347ba9a614612b7a5780633aee799614612b3d5780633fc8cef314612af95780634ba43c2d146129a45780634c3912e7146128e957806361d027b3146128c157806363b2f3c914612700578063690d832014612639578063715018a6146125f5578063735de9f7146125b15780637507f8b614611f74578063806ad57e14611e725780638da5cb5b14611e4b57806390111b0d14611e07578063980db6f414611c86578063a65c61f714611b42578063aa15664514611b15578063b0c2aa5e14611af8578063b618d5a714611a23578063be38eaff14611a06578063bf22c4571461174c578063c1499f71146116a1578063c4f987a514611678578063c5d18537146115a4578063cf216ee2146111e4578063d1519098146111c7578063d190508f14610fe4578063d87dac2914610f70578063dd8f7d1b14610e8e578063df5af13f14610e5b578063e0d1efc814610d0c578063f0f4426014610c9f578063f1a22dc214610c5d578063f2fde38b14610beb578063f573453f1461087e578063fbfc4dc3146106ec5763ff49a4460361000e57346106e85761023136614107565b9261023d9291926148a7565b610251670de0b6b3a764000082101561432f565b61025c8415156142fb565b6102888130337f00000000000000000000000000000000000000000000000000000000000000006149ad565b6102d06004549361029885614717565b600455826106d4575b604051956102ae87613f51565b8587523360208801525f6040880152836060880152846080880152369161483b565b60a08501525f60c08501524260e08501525f6101008501525f6101208501526020936040516102ff8682613f6d565b5f80825261014083019190915261016082018190526101808201525f6101a08201525f6101c08201526040516103358682613f6d565b5f8082526101e083019190915284815260038087526040918290208351815560208401516001820180546001600160a01b0319166001600160a01b03929092169190911790559183015160028301556060830151908201556080820151600482015560a0820151805160058301916001600160401b0382116105fa576103c5826103bf8554613ec8565b85614572565b8890601f8311600114610671576103e692915f918361058c575b50506145b6565b90555b60c08201516005811015610578576104049060068301614414565b60e08201516007820155610100820151600882015561012082015160098201556101408201518051600a8301916001600160401b0382116105fa5761044d826103bf8554613ec8565b8890601f831160011461060e5761046d92915f918361058c5750506145b6565b90555b610160820151600b820180546001600160a01b0319166001600160a01b03929092169190911781556101808301519091906104ad90151583614662565b6101a083015190600482101561057857825460ff60a81b191660a89290921b60ff60a81b16919091179091556101c0820151600c8201556101e091909101518051600d9290920191906001600160401b0382116105fa57610512826103bf8554613ec8565b8690601f83116001146105975761053292915f918361058c5750506145b6565b90555b604080515f8152948501919091528301525f60608301525f60808301525f5160206151025f395f51905f5260a03393a360015f5160206150e25f395f51905f5255005b634e487b7160e01b5f52602160045260245ffd5b015190505f806103df565b90601f19831691845f52885f20925f5b8a8282106105e45750509084600195949392106105cc575b505050811b019055610535565b01515f1960f88460031b161c191690555f80806105bf565b60018596829396860151815501950193016105a7565b634e487b7160e01b5f52604160045260245ffd5b90601f19831691845f528a5f20925f5b8c82821061065b575050908460019594939210610643575b505050811b019055610470565b01515f1960f88460031b161c191690555f8080610636565b600185968293968601518155019501930161061e565b90601f19831691845f528a5f20925f5b8c8282106106be5750509084600195949392106106a6575b505050811b0190556103e9565b01515f1960f88460031b161c191690555f8080610699565b6001859682939686015181550195019301610681565b6106e0836007546144cf565b6007556102a1565b5f80fd5b346106e85760803660031901126106e857610705614211565b60443590602435906001600160401b0383116106e85761072a5f9336906004016140da565b9290916107356148a7565b6107496001600160a01b03821615156143aa565b610752826148df565b509161075f8515156142fb565b602061080e7f0000000000000000000000000000000000000000000000000000000000000000610791863033846149ad565b7f00000000000000000000000000000000000000000000000000000000000000006001600160a01b0316906107c99087908390614eec565b6040516107d581613f36565b6107dd614034565b815230848201528660408201526064356060820152604051998a8094819363b858183f60e01b8352600483016145e8565b03925af1918215610873575f9261083d575b61082a9650614a3f565b60015f5160206150e25f395f51905f5255005b91506020863d60201161086b575b8161085860209383613f6d565b810103126106e85761082a955191610820565b3d915061084b565b6040513d5f823e3d90fd5b346106e85760603660031901126106e8576004356024356001600160401b0381116106e8576108b19036906004016140da565b916044356001600160401b0381116106e8576108d19036906004016140da565b92906108db6148a7565b600554935f805b868110610bb1575b506108f991929394955061462c565b835f52600360205260405f2061091181541515614378565b60ff600682015416600581101561057857600161092e9114614871565b85151580610ba5575b15610b785781610abe575b505050815f52600660205260405f206040519061095e82613f00565b61096936868561483b565b825260208201904282528054600160401b8110156105fa57610990916001820181556142b6565b929092610aab57518051906001600160401b0382116105fa576109bd826109b78654613ec8565b86614572565b602090601f8311600114610a3357926109f583610a1296946001945f5160206150625f395f51905f5299975f92610a285750506145b6565b83555b5191015560405191829160208352339660208401916145c8565b0390a360015f5160206150e25f395f51905f5255005b015190508b806103df565b90601f19831691855f52815f20925f5b818110610a935750936001935f5160206150625f395f51905f52989693859383610a129a9810610a7b575b505050811b0183556109f8565b01515f1960f88460031b161c191690558a8080610a6e565b92936020600181928786015181550195019301610a43565b634e487b7160e01b5f525f60045260245ffd5b600d01916001600160401b0382116105fa57610ade826103bf8554613ec8565b5f90601f8311600114610b1457610afe92915f9183610b095750506145b6565b90555b838080610942565b0135905087806103df565b601f19831691845f5260205f20925f5b818110610b605750908460019594939210610b47575b505050811b019055610b01565b01355f19600384901b60f8161c19169055868080610b3a565b91936020600181928787013581550195019201610b24565b60405162461bcd60e51b8152602060048201526005602482015264216e6f746560d81b6044820152606490fd5b506101f4861115610937565b610bba816142e3565b905460039190911b1c6001600160a01b03163314610bda576001016108e2565b5093945084935060016108f96108ea565b346106e85760203660031901126106e857610c04614211565b610c0c614ec6565b6001600160a01b03168015610c4a575f80546001600160a01b03198116831782556001600160a01b0316905f5160206150825f395f51905f529080a3005b631e4fbdf760e01b5f525f60045260245ffd5b346106e85760203660031901126106e8576004356005548110156106e857610c866020916142e3565b905460405160039290921b1c6001600160a01b03168152f35b346106e85760203660031901126106e857610cb8614211565b610cc0614ec6565b6001600160a01b0316610cd4811515614439565b600880546001600160a01b031916821790557f7dae230f18360d76a040c81f050aa14eb9d6dc7901b20fc5d855e2a20fe814d15f80a2005b346106e85760203660031901126106e857600435610d286148a7565b6005545f805b828110610e24575b50610d41915061462c565b805f52600360205260405f20610d5981541515614378565b6006810160ff815416600581101561057857610d7590156143e0565b600360ff198254161790556003810180549081610dd4575b5050600101546001600160a01b0316907fd2762ab9963f262989c416c26fa7505667e4b4fe26af9ef39804a21b3ce261795f80a360015f5160206150e25f395f51905f5255005b610de3610e1d9260075461442c565b60075560018301549054906001600160a01b03167f0000000000000000000000000000000000000000000000000000000000000000614e6e565b8280610d8d565b610e2d816142e3565b905460039190911b1c6001600160a01b03163314610e4d57600101610d2e565b505050610d41600183610d36565b346106e8575f3660031901126106e857610e8a610e76614034565b6040519182916020835260208301906140b6565b0390f35b346106e85760203660031901126106e8576004356005811015806106e8576004545f60015b828110610f2b5750610ec490614725565b915f60015b838110610ede5760405180610e8a878261413d565b8083915f52600360205260ff600660405f2001541691610578576005821015610578578660019214610f11575b01610ec9565b80610f25610f1e85614717565b94886144dc565b52610f0b565b805f5260036020528360ff600660405f2001541690610578576005811015610578578514610f5c575b600101610eb3565b90610f68600191614717565b919050610f54565b346106e85760403660031901126106e8576024356004355f52600660205260405f2080548210156106e857610fda91610fa8916142b6565b50600160405191610fc483610fbd8184614176565b0384613f6d565b01546040519283926040845260408401906140b6565b9060208301520390f35b346106e857610ff236614287565b91610ffb6148a7565b600554915f805b84811061118d575b506110179192935061462c565b815f52600360205260405f2061102f81541515614378565b6006810160ff815416600581101561057857600161104d9114614871565b841561115e57805460ff19166002179055600a81016001600160401b0385116105fa576110848561107e8354613ec8565b83614572565b845f601f82116001146110e257916110b882610a1295935f516020614fe25f395f51905f5297955f916110d7575b506145b6565b90555b60094291015560405191829160208352339660208401916145c8565b90508501358a6110b2565b5f8381526020812092508790601f198216905b818110611143575091610a129593915f516020614fe25f395f51905f529795931061112a575b5050600187811b0190556110bb565b8401355f1960038a901b60f8161c19169055878061111b565b8784013585556001909401936020938401938a9350016110f5565b60405162461bcd60e51b8152602060048201526007602482015266085c995cdd5b1d60ca1b6044820152606490fd5b611196816142e3565b905460039190911b1c6001600160a01b031633146111b657600101611002565b50919250829150600161101761100a565b346106e8575f3660031901126106e8576020600254604051908152f35b346106e85760803660031901126106e8576004356001600160401b0381116106e8576112149036906004016140da565b6024356001600160401b0381116106e8576112339036906004016140da565b92909160443593606435611245614ec6565b8215158061159b575b1561156e57602095611261821515614522565b6002549561126e87614717565b6002556040519361127e85613f1b565b87855261128c36878961483b565b9489810195865261129e36838561483b565b604082019081526060820185815260808301918783526040986561637469766560d01b8a519e8f6112cf8d82613f6d565b60068152015260a085019d8e528c5f526001602052895f209451855560018501905180519060018060401b0382116105fa5761130f826103bf8554613ec8565b602090601f831160011461150b5761133092915f918361058c5750506145b6565b90555b51805160028501916001600160401b0382116105fa57611357826103bf8554613ec8565b602090601f83116001146114a257918061137f92600598979695945f9261058c5750506145b6565b90555b51600383015551600482015501985198895160018060401b0381116105fa576113b5816113af8454613ec8565b84614572565b6020601f821160011461142b5781611412959493926113eb925f5160206150a25f395f51905f529d9e5f926114205750506145b6565b90555b611404865198899860808a5260808a01916145c8565b9187830360208901526145c8565b9284015260608301520390a2005b015190508e806103df565b601f19821690835f52805f20915f5b81811061148a57509183915f5160206150a25f395f51905f529d9e6114129897969560019510611472575b505050811b0190556113ee565b01515f1960f88460031b161c191690558d8080611465565b8e83015184556001909301926020928301920161143a565b90601f19831691845f52815f20925f5b8181106114f3575091600193918560059a9998979694106114db575b505050811b019055611382565b01515f1960f88460031b161c191690555f80806114ce565b929360206001819287860151815501950193016114b2565b90601f19831691845f52815f20925f5b818110611556575090846001959493921061153e575b505050811b019055611333565b01515f1960f88460031b161c191690555f8080611531565b9293602060018192878601518155019501930161151b565b60405162461bcd60e51b8152602060048201526005602482015264216e616d6560d81b6044820152606490fd5b5081151561124e565b346106e85760203660031901126106e8576004356115c061449f565b508015158061166d575b6115d3906144f0565b5f526001602052610e8a60405f206005611654604051926115f384613f1b565b805484526040516116128161160b8160018601614176565b0382613f6d565b602085015260405161162b8161160b8160028601614176565b6040850152600381015460608501526004810154608085015261160b6040518094819301614176565b60a0820152604051918291602083526020830190614227565b5060025481106115ca565b346106e85760203660031901126106e857610018611694614211565b61169c614ec6565b614763565b346106e8575f3660031901126106e8576040518060206005549283815201809260055f5260205f20905f5b81811061172d57505050816116e2910382613f6d565b604051918291602083019060208452518091526040830191905f5b81811061170b575050500390f35b82516001600160a01b03168452859450602093840193909201916001016116fd565b82546001600160a01b03168452602090930192600192830192016116cc565b346106e85760203660031901126106e85760043560606101e060405161177181613f51565b5f81525f60208201525f60408201525f838201525f60808201528260a08201525f60c08201525f60e08201525f6101008201525f610120820152826101408201525f6101608201525f6101808201525f6101a08201525f6101c08201520152805f5260036020526117e760405f20541515614378565b5f52600360205260405f206040516117fe81613f51565b8154815260018201546001600160a01b0316602082015260028201546040808301919091526003830154606083015260048301546080830152516118498161160b8160058701614176565b60a082015260ff600683015416916005831015610578576118fc600d91610e8a9460c0850152600781015460e0850152600881015461010085015260098101546101208501526040516118a38161160b81600a8601614176565b610140850152600b8101546001600160a01b03811661016086015260ff60a082901c811615156101808701526118e19160a81c166101a08601614757565b600c8101546101c085015261160b6040518094819301614176565b6101e0820152604051918291602083528051602084015260018060a01b0360208201511660408401526040810151606084015260608101516080840152608081015160a08401526101e06119b161196460a084015161020060c08801526102208701906140b6565b61197660c085015160e08801906141f7565b60e0840151610100870152610100840151610120870152610120840151610140870152610140840151601f19878303016101608801526140b6565b9160018060a01b036101608201511661018086015261018081015115156101a08601526119e86101a08201516101c0870190614204565b6101c0810151858301520151838203601f19016102008501526140b6565b346106e8575f3660031901126106e8576020600754604051908152f35b346106e85760203660031901126106e857611a3c614211565b6004546001600160a01b03909116905f60015b828110611abb5750611a6090614725565b915f9060015b838110611a7b5760405180610e8a878261413d565b806001915f52600360205282828060a01b038360405f2001541614611aa1575b01611a66565b80611ab5611aae86614717565b95886144dc565b52611a9b565b5f818152600360205260409020600101546001600160a01b03168414611ae4575b600101611a4f565b90611af0600191614717565b919050611adc565b346106e8575f3660031901126106e8576020600454604051908152f35b346106e85760203660031901126106e8576020611b38611b33614211565b6146ce565b6040519015158152f35b346106e85760203660031901126106e8576004356001600160401b0381116106e857611b729036906004016140da565b611b7a614ec6565b611b87601782101561469a565b6001600160401b0381116105fa57611ba0600a54613ec8565b601f8111611c38575b505f601f8211600114611bd9578190611bc9935f92611bce5750506145b6565b600a55005b0135905083806103df565b601f19821692600a5f5260205f20915f5b858110611c2057508360019510611c07575b505050811b01600a55005b01355f19600384901b60f8161c19169055828080611bfc565b90926020600181928686013581550194019101611bea565b81811115611ba957600a5f52611c78905f5160206150225f395f51905f5290601f840160051c9060208510611c7e575b601f82910160051c039101614557565b82611ba9565b5f9150611c68565b346106e85760203660031901126106e8576004356001600160401b0381116106e857611cb69036906004016140da565b90611cbf614ec6565b611ccc602b83101561469a565b6001600160401b0382116105fa57611ce5600954613ec8565b601f8111611dc2575b505f91601f8111600114611d4757611d1c81805f5160206150025f395f51905f52955f91611d3c57506145b6565b6009555b611d376040519283926020845260208401916145c8565b0390a1005b9050840135866110b2565b60095f908152601f198216935f5160206150c25f395f51905f52915b858110611daa5750825f5160206150025f395f51905f529510611d91575b5050600181811b01600955611d20565b8301355f19600384901b60f8161c191690558380611d81565b90916020600181928588013581550193019101611d63565b82811115611cee5760095f52611e01905f5160206150c25f395f51905f5290601f850160051c9060208610611c7e57601f82910160051c039101614557565b82611cee565b346106e8575f3660031901126106e8576040517f00000000000000000000000000000000000000000000000000000000000000006001600160a01b03168152602090f35b346106e8575f3660031901126106e8575f546040516001600160a01b039091168152602090f35b346106e85760203660031901126106e857611e8b614211565b611e93614ec6565b6001600160a01b03811690611ea9821515614439565b600554905f5b828110611f205750600160401b8210156105fa57611ed6826001611efa94016005556142e3565b9080546001600160a01b0360039390931b83811b199091169290931690921b179055565b7fb10d2a24a8c3686841e966f0c2c64c385cfaecb50a09b16aa3579bfcf3989dcd5f80a2005b83611f2a826142e3565b905460039190911b1c6001600160a01b031614611f4957600101611eaf565b606460405162461bcd60e51b81526020600482015260046024820152630216475760e41b6044820152fd5b611f7d36614287565b611f856148a7565b611f8e836148df565b5090611f9b8115156142fb565b3415612586577f00000000000000000000000000000000000000000000000000000000000000006001600160a01b031690813b156106e857604051630d0e30db60e41b81525f8160048134875af1801561087357612576575b5060405163095ea7b360e01b81527f00000000000000000000000000000000000000000000000000000000000000006001600160a01b03166004820181905234602483015292602090829060449082905f905af1801561087357612539575b50602061209f5f9360405161206781613f36565b61206f613f90565b815230848201523460408201526001606082015260405195868094819363b858183f60e01b8352600483016145e8565b03925af1918215610873575f92612505575b506120fa600454946120c286614717565b600455836124f1575b604051926120d884613f51565b868452336020850152876040850152846060850152856080850152369161483b565b60a08201525f60c08201524260e08201525f6101008201525f6101208201526020906040516121298382613f6d565b5f808252610140830191909152610160820181905261018082015260026101a08201525f6101c08201526040516121608382613f6d565b5f8082526101e083019190915285815260038084526040918290208351815560208401516001820180546001600160a01b0319166001600160a01b03929092169190911790559183015160028301556060830151908201556080820151600482015560a08201518051906001600160401b0382116105fa576121f2826121e96005860154613ec8565b60058601614572565b8490601f83116001146124845761221292915f91836124795750506145b6565b60058201555b60c08201516005811015610578576122339060068301614414565b60e08201516007820155610100820151600882015561012082015160098201556101408201518051600a8301916001600160401b0382116105fa5761227c826103bf8554613ec8565b8590601f83116001146124165761229c92915f9183610a285750506145b6565b90555b610160820151600b820180546001600160a01b0319166001600160a01b03929092169190911781556101808301519091906122dc90151583614662565b6101a083015190600482101561057857825460ff60a81b191660a89290921b60ff60a81b16919091179091556101c0820151600c8201556101e091909101518051600d9290920191906001600160401b0382116105fa57612341826103bf8554613ec8565b8390601f83116001146123b35761236192915f91836123a85750506145b6565b90555b6040805195865290850191909152830152600260608301525f60808301525f5160206151025f395f51905f5260a03393a360015f5160206150e25f395f51905f5255005b0151905089806103df565b90601f19831691845f52855f20925f5b878282106124005750509084600195949392106123e8575b505050811b019055612364565b01515f1960f88460031b161c191690558880806123db565b60018596829396860151815501950193016123c3565b90601f19831691845f52875f20925f5b8982821061246357505090846001959493921061244b575b505050811b01905561229f565b01515f1960f88460031b161c191690558a808061243e565b6001859682939686015181550195019301612426565b015190508a806103df565b9190600584015f52855f20905f935b87601f19851686106124d857506001945083601f198116106124c0575b505050811b016005820155612218565b01515f1960f88460031b161c191690558980806124b0565b8282015184559485019460019093019290910190612493565b6124fd846007546144cf565b6007556120cb565b9091506020813d602011612531575b8161252160209383613f6d565b810103126106e8575190856120b1565b3d9150612514565b6020813d60201161256e575b8161255260209383613f6d565b810103126106e857519182151583036106e85791506020612053565b3d9150612545565b5f61258091613f6d565b85611ff4565b606460405162461bcd60e51b8152602060048201526004602482015263042cae8d60e31b6044820152fd5b346106e8575f3660031901126106e8576040517f00000000000000000000000000000000000000000000000000000000000000006001600160a01b03168152602090f35b346106e8575f3660031901126106e85761260d614ec6565b5f80546001600160a01b0319811682556001600160a01b03165f5160206150825f395f51905f528280a3005b346106e85760203660031901126106e8576004356001600160a01b038116908190036106e8575f8080809361266c614ec6565b6126746148a7565b61267f811515614439565b479061268c82151561446d565b5af13d156126fb573d61269e8161467f565b906126ac6040519283613f6d565b81525f60203d92013e5b156126ce5760015f5160206150e25f395f51905f5255005b60405162461bcd60e51b8152602060048201526005602482015264085cd95b9960da1b6044820152606490fd5b6126b6565b346106e85760203660031901126106e85760043561271c6148a7565b6005545f805b82811061288a575b50612735915061462c565b805f52600360205260405f2061274d81541515614378565b6006810160ff81541660058110156105785761276990156143e0565b805460ff19166001179055600b810180546001600160a01b03191633178155426008830155600d8201805491926003929091906127a590613ec8565b601f8111612863575b506010671858d8d95c1d195960c21b0190550180549182612803575b33847f4426e4a90a9570c8f678a263b11785eaaade8b79d76d18c43d4d8e00062e4f835f80a360015f5160206150e25f395f51905f5255005b61281261285b9360075461442c565b600755805460ff60a01b1916600160a01b1790556008549054906001600160a01b03167f0000000000000000000000000000000000000000000000000000000000000000614e6e565b8180806127ca565b60088111156127ae5761288490825f52601f60205f20910160051c90614557565b856127ae565b612893816142e3565b905460039190911b1c6001600160a01b031633146128b357600101612722565b50505061273560018361272a565b346106e8575f3660031901126106e8576008546040516001600160a01b039091168152602090f35b346106e85760203660031901126106e8576004355f52600160205260405f208054610e8a60405192612929846129228160018501614176565b0385613f6d565b60056040519161294083610fbd8160028501614176565b61298c6003820154936129626004840154936129226040518097819301614176565b61297e604051988998895260c060208a015260c08901906140b6565b9087820360408901526140b6565b926060860152608085015283820360a08501526140b6565b346106e85760603660031901126106e8576024356004356001600160401b0382116106e8576129d85f9236906004016140da565b916129e16148a7565b6129ea816148df565b50906129f78415156142fb565b6020612aa67f0000000000000000000000000000000000000000000000000000000000000000612a29853033846149ad565b7f00000000000000000000000000000000000000000000000000000000000000006001600160a01b031690612a619086908390614eec565b604051612a6d81613f36565b612a75614034565b81523084820152856040820152604435606082015260405198898094819363b858183f60e01b8352600483016145e8565b03925af1908115610873575f91612ac3575b61082a955033614a3f565b90506020853d602011612af1575b81612ade60209383613f6d565b810103126106e85761082a945190612ab8565b3d9150612ad1565b346106e8575f3660031901126106e8576040517f00000000000000000000000000000000000000000000000000000000000000006001600160a01b03168152602090f35b346106e8575f3660031901126106e8576004545f198101908111612b6657602090604051908152f35b634e487b7160e01b5f52601160045260245ffd5b346106e85760c03660031901126106e8576004356024356001600160401b0381116106e857612bad9036906004016140da565b91906044356001600160401b0381116106e857612bce9036906004016140da565b93906064359060843560a4356001600160401b0381116106e857612bf69036906004016140da565b929097612c01614ec6565b87151580612ec6575b612c13906144f0565b612c1e831515614522565b875f52600160205260405f206001810160018060401b0388116105fa57612c498861107e8354613ec8565b5f88601f8111600114612e625780612c67925f91612e5757506145b6565b90555b60028101906001600160401b0383116105fa57612c8b836113af8454613ec8565b5f9183601f8111600114612dee5780612cad916005955f91612de357506145b6565b90555b6003810187905560048101859055016001600160401b0385116105fa57612cdb8561107e8354613ec8565b5f601f8611600114612d655792859492612d3d92612d1587612d559a995f5160206150425f395f51905f529e9f985f91612d5a57506145b6565b90555b612d2f6040519a8b9a60a08c5260a08c01916145c8565b9189830360208b01526145c8565b936040870152606086015284830360808601526145c8565b0390a2005b90508801355f6110b2565b601f19861690825f5260205f20915f5b818110612dcb5750925f5160206150425f395f51905f529b9c959288979592612d559a99612d3d9610612db2575b5050600187811b019055612d18565b8701355f1960038a901b60f8161c191690558d80612da3565b8d830135845560019093019260209283019201612d75565b90508701358f6110b2565b505f81815260208120909385601f1981165b808710612e39576005965010612e20575b5050600184811b019055612cb0565b8601355f19600387901b60f8161c191690558c80612e11565b88830135845560209687019660019094019390920191879150612e00565b90508b01358e6110b2565b50601f19891690825f528960205f20925f5b8d828210612eac57505010612e93575b5050600188811b019055612c6a565b8a01355f1960038b901b60f8161c191690558b80612e84565b84013585556001909401936020938401938d935001612e74565b506002548810612c0a565b346106e8575f3660031901126106e8576002545f198101908111612b6657612ef881614361565b90612f066040519283613f6d565b808252601f19612f1582614361565b015f5b818110612ff45750505f5b818110612f9157826040518091602082016020835281518091526040830190602060408260051b8601019301915f905b828210612f6257505050500390f35b91936001919395506020612f818192603f198a82030186528851614227565b9601920192018594939192612f53565b6001810190818111612b66576001915f528160205260405f206005612fd360405192612fbc84613f1b565b805484526040516116128161160b818a8601614176565b60a0820152612fe282866144dc565b52612fed81856144dc565b5001612f23565b602090612fff61449f565b82828701015201612f18565b346106e85760403660031901126106e857613024614211565b602435906001600160a01b0382168083036106e85761305490613045614ec6565b61304d6148a7565b1515614439565b6040516370a0823160e01b8152306004820152916001600160a01b039190911690602083602481855afa928315610873575f93613126575b5061309883151561446d565b7f00000000000000000000000000000000000000000000000000000000000000006001600160a01b031682036131175760075492838111156130e75761082a936130e19161442c565b91614e6e565b60405162461bcd60e51b815260206004820152600860248201526721737572706c757360c01b6044820152606490fd5b6131219291614e6e565b61082a565b9092506020813d602011613152575b8161314260209383613f6d565b810103126106e85751918361308c565b3d9150613135565b346106e85761316836614107565b6131739291926148a7565b61317c846148df565b50906131898115156142fb565b82156135ae576131d16004549461319f86614717565b600455604051926131af84613f51565b8684523360208501528760408501525f6060850152846080850152369161483b565b60a08201525f60c08201524260e08201525f6101008201525f6101208201526020906040516132008382613f6d565b5f808252610140830191909152610160820181905261018082015260036101a0820152836101c08201526040516132378382613f6d565b5f8082526101e083019190915285815260038084526040918290208351815560208401516001820180546001600160a01b0319166001600160a01b03929092169190911790559183015160028301556060830151908201556080820151600482015560a08201518051906001600160401b0382116105fa576132c0826121e96005860154613ec8565b8490601f8311600114613541576132e092915f91836124795750506145b6565b60058201555b60c08201516005811015610578576133019060068301614414565b60e08201516007820155610100820151600882015561012082015160098201556101408201518051600a8301916001600160401b0382116105fa5761334a826103bf8554613ec8565b8590601f83116001146134de5761336a92915f9183610a285750506145b6565b90555b610160820151600b820180546001600160a01b0319166001600160a01b03929092169190911781556101808301519091906133aa90151583614662565b6101a083015190600482101561057857825460ff60a81b191660a89290921b60ff60a81b16919091179091556101c0820151600c8201556101e091909101518051600d9290920191906001600160401b0382116105fa5761340f826103bf8554613ec8565b8390601f8311600114613479579180613433925f96959487926124795750506145b6565b90555b60408051968752908601919091528401526003606084015260808301525f5160206151025f395f51905f5260a03393a360015f5160206150e25f395f51905f5255005b90601f19831691845f52855f20925f5b8181106134c757509160019391855f98979694106134af575b505050811b019055613436565b0151861960f88460031b161c191690558980806134a2565b929387600181928786015181550195019301613489565b90601f19831691845f52875f20925f5b8982821061352b575050908460019594939210613513575b505050811b01905561336d565b01515f1960f88460031b161c191690558a8080613506565b60018596829396860151815501950193016134ee565b9190600584015f52855f20905f935b87601f198516861061359557506001945083601f1981161061357d575b505050811b0160058201556132e6565b01515f1960f88460031b161c1916905589808061356d565b8282015184559485019460019093019290910190613550565b60405162461bcd60e51b815260206004820152600360248201526210b1bb60e91b6044820152606490fd5b346106e85760203660031901126106e8576004356135f56148a7565b805f52600360205260405f2061360d81541515614378565b61362460018060a01b0360018301541633146143aa565b600681019060ff82541691600583101561057857613644600393156143e0565b805460ff191660041790550180549081613692575b33837ff1ab0865975dad5c69ae8e4baaf13114c875728afa7cc86368534c22a631d0b05f80a360015f5160206150e25f395f51905f5255005b6136a16136cc9260075461442c565b60075554337f0000000000000000000000000000000000000000000000000000000000000000614e6e565b8180613659565b346106e85760203660031901126106e8576004355f52600360205260405f208054600160a01b6001900360018301541691600281015460038201549060048301546040518080600587019061372791614176565b036137329082613f6d565b600685015460ff16906007860154600887015490600988015492604051958680600a8c019061376091614176565b0361376b9088613f6d565b600b8a015498600c8b01549860405180600d819e019061378a91614176565b03613795908d613f6d565b6040519d8e809e81526020015260408d015260608c015260808b015260a08a0161020090526102008a016137c8916140b6565b9360c08a016137d6916141f7565b60e08901526101008801526101208701528581036101408701526137f9916140b6565b6001600160a01b03831661016086015260ff60a084901c81161515610180870152909261382f916101a087019160a81c16614204565b6101c08401528281036101e0840152610e8a916140b6565b346106e85760203660031901126106e8576004355f52600660205260405f2080549061387282614361565b916138806040519384613f6d565b8083526020830180925f5260205f205f915b83831061391357848660405191829160208301906020845251809152604083019060408160051b85010192915f905b8282106138d057505050500390f35b919360019193955060208091603f1989820301855287519082806138fd84516040855260408501906140b6565b93015191015296019201920185949391926138c1565b6002602060019260405161392681613f00565b6040516139378161160b818a614176565b81528486015483820152815201920192019190613892565b346106e8575f3660031901126106e8576004545f60015b8281106139d7575061397790614725565b5f9160015b8181106139915760405180610e8a858261413d565b805f52600360205260ff600660405f2001541690600582101561057857600191156139bd575b0161397c565b806139d16139ca87614717565b96866144dc565b526139b7565b805f52600360205260ff600660405f2001541660058110156105785715613a01575b600101613966565b90613a0d600191614717565b9190506139f9565b346106e8575f3660031901126106e8576040517f00000000000000000000000000000000000000000000000000000000000000006001600160a01b03168152602090f35b346106e857613a6736614107565b9091613a716148a7565b613a7a846148df565b5091613a878115156142fb565b613a9b670de0b6b3a764000083101561432f565b613ac78230337f00000000000000000000000000000000000000000000000000000000000000006149ad565b613ad7600454946120c286614717565b60a08201525f60c08201524260e08201525f6101008201525f610120820152602090604051613b068382613f6d565b5f80825261014083019190915261016082018190526101808201525f6101a08201525f6101c0820152604051613b3c8382613f6d565b5f8082526101e083019190915285815260038084526040918290208351815560208401516001820180546001600160a01b0319166001600160a01b03929092169190911790559183015160028301556060830151908201556080820151600482015560a08201518051906001600160401b0382116105fa57613bc5826121e96005860154613ec8565b8490601f8311600114613e4057613be592915f91836124795750506145b6565b60058201555b60c0820151600581101561057857613c069060068301614414565b60e08201516007820155610100820151600882015561012082015160098201556101408201518051600a8301916001600160401b0382116105fa57613c4f826103bf8554613ec8565b8590601f8311600114613ddd57613c6f92915f9183610a285750506145b6565b90555b610160820151600b820180546001600160a01b0319166001600160a01b0392909216919091178155610180830151909190613caf90151583614662565b6101a083015190600482101561057857825460ff60a81b191660a89290921b60ff60a81b16919091179091556101c0820151600c8201556101e091909101518051600d9290920191906001600160401b0382116105fa57613d14826103bf8554613ec8565b8390601f8311600114613d7a57613d3492915f91836123a85750506145b6565b90555b60408051958652908501919091528301525f60608301525f60808301525f5160206151025f395f51905f5260a03393a360015f5160206150e25f395f51905f5255005b90601f19831691845f52855f20925f5b87828210613dc7575050908460019594939210613daf575b505050811b019055613d37565b01515f1960f88460031b161c19169055888080613da2565b6001859682939686015181550195019301613d8a565b90601f19831691845f52875f20925f5b89828210613e2a575050908460019594939210613e12575b505050811b019055613c72565b01515f1960f88460031b161c191690558a8080613e05565b6001859682939686015181550195019301613ded565b9190600584015f52855f20905f935b87601f1985168610613e9457506001945083601f19811610613e7c575b505050811b016005820155613beb565b01515f1960f88460031b161c19169055898080613e6c565b8282015184559485019460019093019290910190613e4f565b346106e8575f3660031901126106e857610e8a610e76613f90565b90600182811c92168015613ef6575b6020831014613ee257565b634e487b7160e01b5f52602260045260245ffd5b91607f1691613ed7565b604081019081106001600160401b038211176105fa57604052565b60c081019081106001600160401b038211176105fa57604052565b608081019081106001600160401b038211176105fa57604052565b61020081019081106001600160401b038211176105fa57604052565b601f909101601f19168101906001600160401b038211908210176105fa57604052565b604051905f82600a5491613fa383613ec8565b80835292600181169081156140155750600114613fc9575b613fc792500383613f6d565b565b50600a5f90815290915f5160206150225f395f51905f525b818310613ff9575050906020613fc792820101613fbb565b6020919350806001915483858901015201910190918492613fe1565b60209250613fc794915060ff191682840152151560051b820101613fbb565b604051905f826009549161404783613ec8565b8083529260018116908115614015575060011461406a57613fc792500383613f6d565b5060095f90815290915f5160206150c25f395f51905f525b81831061409a575050906020613fc792820101613fbb565b6020919350806001915483858901015201910190918492614082565b805180835260209291819084018484015e5f828201840152601f01601f1916010190565b9181601f840112156106e8578235916001600160401b0383116106e857602083818601950101116106e857565b60606003198201126106e8576004359160243591604435906001600160401b0382116106e857614139916004016140da565b9091565b60206040818301928281528451809452019201905f5b8181106141605750505090565b8251845260209384019390920191600101614153565b5f929181549161418583613ec8565b80835292600181169081156141da57506001146141a157505050565b5f9081526020812093945091925b8383106141c0575060209250010190565b6001816020929493945483858701015201910191906141af565b915050602093945060ff929192191683830152151560051b010190565b9060058210156105785752565b9060048210156105785752565b600435906001600160a01b03821682036106e857565b614284918151815260a061425f61424d602085015160c0602086015260c08501906140b6565b604085015184820360408601526140b6565b92606081015160608401526080810151608084015201519060a08184039101526140b6565b90565b9060406003198301126106e85760043591602435906001600160401b0382116106e857614139916004016140da565b80548210156142cf575f5260205f209060011b01905f90565b634e487b7160e01b5f52603260045260245ffd5b6005548110156142cf5760055f5260205f2001905f90565b1561430257565b60405162461bcd60e51b8152602060048201526005602482015264216465736360d81b6044820152606490fd5b1561433657565b606460405162461bcd60e51b815260206004820152600460248201526310b6b4b760e11b6044820152fd5b6001600160401b0381116105fa5760051b60200190565b1561437f57565b606460405162461bcd60e51b815260206004820152600460248201526310b537b160e11b6044820152fd5b156143b157565b60405162461bcd60e51b81526020600482015260076024820152660858db1a595b9d60ca1b6044820152606490fd5b156143e757565b60405162461bcd60e51b815260206004820152600560248201526410b7b832b760d91b6044820152606490fd5b9060058110156105785760ff80198354169116179055565b91908203918211612b6657565b1561444057565b60405162461bcd60e51b815260206004820152600560248201526410b0b2323960d91b6044820152606490fd5b1561447457565b606460405162461bcd60e51b81526020600482015260046024820152630858985b60e21b6044820152fd5b604051906144ac82613f1b565b606060a0835f81528260208201528260408201525f838201525f60808201520152565b91908201809211612b6657565b80518210156142cf5760209160051b010190565b156144f757565b60405162461bcd60e51b8152602060048201526003602482015262085a5960ea1b6044820152606490fd5b1561452957565b60405162461bcd60e51b815260206004820152600660248201526510b1bb2234bb60d11b6044820152606490fd5b5f5b82811061456557505050565b5f82820155600101614559565b91601f821161458057505050565b80821161458c57505050565b613fc7925f5260205f20916020601f830160051c9210611c7e57601f82910160051c039101614557565b8160011b915f199060031b1c19161790565b908060209392818452848401375f828201840152601f01601f1916010190565b6020815260806060614605845183602086015260a08501906140b6565b60208501516001600160a01b03166040858101919091528501518285015293015191015290565b1561463357565b60405162461bcd60e51b815260206004820152600760248201526610bbb7b935b2b960c91b6044820152606490fd5b805460ff60a01b191691151560a01b60ff60a01b16919091179055565b6001600160401b0381116105fa57601f01601f191660200190565b156146a157565b60405162461bcd60e51b8152602060048201526005602482015264042e0c2e8d60db1b6044820152606490fd5b600554905f5b8281106146e2575050505f90565b6146eb816142e3565b905460039190911b1c6001600160a01b039081169083161461470f576001016146d4565b505050600190565b5f198114612b665760010190565b9061472f82614361565b61473c6040519182613f6d565b828152809261474d601f1991614361565b0190602036910137565b60048210156105785752565b5f905b60055491828110156146335761477b816142e3565b90546001600160a01b03848116959260031b9190911c1684146147a357506001019150614766565b5f19810192508211612b6657611ed66147be6147d6936142e3565b905460039190911b1c6001600160a01b0316916142e3565b6005548015614827575f19016147eb816142e3565b81549060018060a01b039060031b1b191690556005557f6cfb0504498d3a8155a2a3dd5f41940ad5ab571197ac70f6d6948d189f6a0d275f80a2565b634e487b7160e01b5f52603160045260245ffd5b9291926148478261467f565b916148556040519384613f6d565b8294818452818301116106e8578281602093845f960137010152565b1561487857565b60405162461bcd60e51b81526020600482015260076024820152662161637469766560c81b6044820152606490fd5b60025f5160206150e25f395f51905f5254146148d05760025f5160206150e25f395f51905f5255565b633ee5aeb560e01b5f5260045ffd5b801515806149a2575b15614977575f52600160205260405f20600381015491821561494957613fc77f9651c33eb23976f7c15240e86443dc2ded40546fa9ba457a14abab4090e023b560405161493c8161160b8160058901614176565b6020815191012014614871565b60405162461bcd60e51b815260206004820152600660248201526521707269636560d01b6044820152606490fd5b606460405162461bcd60e51b81526020600482015260046024820152632173766360e01b6044820152fd5b5060025481106148e8565b6040516323b872dd60e01b5f9081526001600160a01b039384166004529290931660245260449390935260209060648180865af19060015f5114821615614a1e575b6040525f606052156149fe5750565b635274afe760e01b5f9081526001600160a01b0391909116600452602490fd5b906001811516614a3657823b15153d151616906149ef565b503d5f823e3d90fd5b92919092614a9460045495614a5387614717565b60045583614e5a575b60405192614a6984613f51565b87845260018060a01b031697886020850152866040850152846060850152856080850152369161483b565b60a08201525f60c08201524260e08201525f6101008201525f610120820152602090604051614ac38382613f6d565b5f808252610140830191909152610160820181905261018082015260016101a08201525f6101c0820152604051614afa8382613f6d565b5f8082526101e083019190915286815260038084526040918290208351815560208401516001820180546001600160a01b0319166001600160a01b03929092169190911790559183015160028301556060830151908201556080820151600482015560a08201518051906001600160401b0382116105fa57614b83826121e96005860154613ec8565b8490601f8311600114614ded57614ba392915f918361058c5750506145b6565b60058201555b60c0820151600581101561057857614bc49060068301614414565b60e08201516007820155610100820151600882015561012082015160098201556101408201518051600a8301916001600160401b0382116105fa57614c0d826103bf8554613ec8565b8590601f8311600114614d8a57614c2d92915f918361058c5750506145b6565b90555b610160820151600b820180546001600160a01b0319166001600160a01b0392909216919091178155610180830151909190614c6d90151583614662565b6101a083015190600482101561057857825460ff60a81b191660a89290921b60ff60a81b16919091179091556101c0820151600c8201556101e091909101518051600d9290920191906001600160401b0382116105fa57614cd2826103bf8554613ec8565b8390601f8311600114614d2757614cf292915f918361058c5750506145b6565b90555b604080519485529084019190915282015260a081600160605f5160206151025f395f51905f529401525f6080820152a3565b90601f19831691845f52855f20925f5b87828210614d74575050908460019594939210614d5c575b505050811b019055614cf5565b01515f1960f88460031b161c191690555f8080614d4f565b6001859682939686015181550195019301614d37565b90601f19831691845f52875f20925f5b89828210614dd7575050908460019594939210614dbf575b505050811b019055614c30565b01515f1960f88460031b161c191690555f8080614db2565b6001859682939686015181550195019301614d9a565b9190600584015f52855f20905f935b87601f1985168610614e4157506001945083601f19811610614e29575b505050811b016005820155614ba9565b01515f1960f88460031b161c191690555f8080614e19565b8282015184559485019460019093019290910190614dfc565b614e66846007546144cf565b600755614a5c565b916040519163a9059cbb60e01b5f5260018060a01b031660045260245260205f60448180865af19060015f5114821615614eae575b604052156149fe5750565b906001811516614a3657823b15153d15161690614ea3565b5f546001600160a01b03163303614ed957565b63118cdaa760e01b5f523360045260245ffd5b916040519163095ea7b360e01b5f5260018060a01b031691826004528160245260205f60448180885af19060015f5114821615614fd2575b60405215614f3157505050565b60405163095ea7b360e01b5f52826004525f60245260205f60448180885af19060015f5114821615614fba575b60405215614f9c576040519163095ea7b360e01b5f5260045260245260205f60448180865af19060015f5114821615614eae57604052156149fe5750565b635274afe760e01b5f9081526001600160a01b038416600452602490fd5b906001811516614a3657843b15153d15161690614f5e565b90843b15153d15161690614f2456fe884d377a76a733295a9fde0f6f3729db2762d3ed11c468fa3904b134ab552ddac96f2aaf957f127be031b5ffc014c798de57808a7d0d7be6408436a77b55105dc65a7bb8d6351c1cf70c95a316cc6a92839c986682d98bc35f958f4883f9d2a8c8f8c4a419ff4726d3b34be1e7439e3ede063b16686388bdaa104005d586a560c181770b18c66c81dce39e4f7d4100884b62c26403dddf12b19b1de85cdc3ac48be0079c531659141344cd1fd0a4f28419497f9722a3daafe3b4186f6b6457e0791d0f3c8799c9df05b4434624f423e70d3c803aa8192c9c2557c19654000f376e1540171b6c0c960b71a7020d9f60077f6af931a8bbf590da0223dacf75c7af9b779b17422d0df92223018b32b4d1fa46e071723d6817e2486d003becc55f00fedb08719ec013458bbe9c86e0b87a10413be78ff76c974a0dac8cce68e73e8aa26469706673582212200d40c72b0a72a9dae873a89ef0bf17b009cb90472c696665040382ff0c720db764736f6c634300082100330000000000000000000000009f86db9fc6f7c9408e8fda3ff8ce4e78ac7a6b07000000000000000000000000833589fcd6edb6e08f4c7c32d4f71b54bda029130000000000000000000000002626664c2603336e57b271c5c0b26f421741e481000000000000000000000000420000000000000000000000000000000000000600000000000000000000000090ef2a9211a3e7ce788561e5af54c76b0fa3aed0",
        "nonce": "0xe3",
        "chainId": "0x2105"
      },
      "additionalContracts": [],
      "isFixedGasLimit": false
    },
    {
      "hash": "0x4bf58d237240573d84218646a997cea4b9d652add50edc08d4e550e83073ef6d",
      "transactionType": "CALL",
      "contractName": "LeftClawServicesV2",
      "contractAddress": "0x103c5fafd8734ae9ec4cc2f116ed03ff6cc2ca5f",
      "function": "addServiceType(string,string,uint256,uint256)",
      "arguments": [
        "Quick Consultation",
        "consult",
        "20000000",
        "100"
      ],
      "transaction": {
        "from": "0x845e8c808e22469aaf07ace9ab7d26c875fbe44f",
        "to": "0x103c5fafd8734ae9ec4cc2f116ed03ff6cc2ca5f",
        "gas": "0x3c900",
        "value": "0x0",
        "input": "0xcf216ee2000000000000000000000000000000000000000000000000000000000000008000000000000000000000000000000000000000000000000000000000000000c00000000000000000000000000000000000000000000000000000000001312d0000000000000000000000000000000000000000000000000000000000000000640000000000000000000000000000000000000000000000000000000000000012517569636b20436f6e73756c746174696f6e00000000000000000000000000000000000000000000000000000000000000000000000000000000000000000007636f6e73756c7400000000000000000000000000000000000000000000000000",
        "nonce": "0xe4",
        "chainId": "0x2105"
      },
      "additionalContracts": [],
      "isFixedGasLimit": false
    },
    {
      "hash": "0x7f8756717b8d2abf7c1ed0a684da3ebaca898190b254dffa28cea1b04270526f",
      "transactionType": "CALL",
      "contractName": "LeftClawServicesV2",
      "contractAddress": "0x103c5fafd8734ae9ec4cc2f116ed03ff6cc2ca5f",
      "function": "addServiceType(string,string,uint256,uint256)",
      "arguments": [
        "Deep Consultation",
        "consult-deep",
        "30000000",
        "50"
      ],
      "transaction": {
        "from": "0x845e8c808e22469aaf07ace9ab7d26c875fbe44f",
        "to": "0x103c5fafd8734ae9ec4cc2f116ed03ff6cc2ca5f",
        "gas": "0x3937d",
        "value": "0x0",
        "input": "0xcf216ee2000000000000000000000000000000000000000000000000000000000000008000000000000000000000000000000000000000000000000000000000000000c00000000000000000000000000000000000000000000000000000000001c9c380000000000000000000000000000000000000000000000000000000000000003200000000000000000000000000000000000000000000000000000000000000114465657020436f6e73756c746174696f6e000000000000000000000000000000000000000000000000000000000000000000000000000000000000000000000c636f6e73756c742d646565700000000000000000000000000000000000000000",
        "nonce": "0xe5",
        "chainId": "0x2105"
      },
      "additionalContracts": [],
      "isFixedGasLimit": false
    },
    {
      "hash": "0x17e627cae8d85c75d6cd4daf16d04e5c2000b61cb23a1ab0f4c558e5fc94fa16",
      "transactionType": "CALL",
      "contractName": "LeftClawServicesV2",
      "contractAddress": "0x103c5fafd8734ae9ec4cc2f116ed03ff6cc2ca5f",
      "function": "addServiceType(string,string,uint256,uint256)",
      "arguments": [
        "PFP Generator",
        "pfp",
        "250000",
        "500"
      ],
      "transaction": {
        "from": "0x845e8c808e22469aaf07ace9ab7d26c875fbe44f",
        "to": "0x103c5fafd8734ae9ec4cc2f116ed03ff6cc2ca5f",
        "gas": "0x3c874",
        "value": "0x0",
        "input": "0xcf216ee2000000000000000000000000000000000000000000000000000000000000008000000000000000000000000000000000000000000000000000000000000000c0000000000000000000000000000000000000000000000000000000000003d09000000000000000000000000000000000000000000000000000000000000001f4000000000000000000000000000000000000000000000000000000000000000d5046502047656e657261746f720000000000000000000000000000000000000000000000000000000000000000000000000000000000000000000000000000037066700000000000000000000000000000000000000000000000000000000000",
        "nonce": "0xe6",
        "chainId": "0x2105"
      },
      "additionalContracts": [],
      "isFixedGasLimit": false
    },
    {
      "hash": "0x4640047d6d90dcd31fbddec7990490752c753c2a7e87deb4427c1346f58ba23f",
      "transactionType": "CALL",
      "contractName": "LeftClawServicesV2",
      "contractAddress": "0x103c5fafd8734ae9ec4cc2f116ed03ff6cc2ca5f",
      "function": "addServiceType(string,string,uint256,uint256)",
      "arguments": [
        "Contract Audit",
        "audit",
        "200000000",
        "25"
      ],
      "transaction": {
        "from": "0x845e8c808e22469aaf07ace9ab7d26c875fbe44f",
        "to": "0x103c5fafd8734ae9ec4cc2f116ed03ff6cc2ca5f",
        "gas": "0x3c897",
        "value": "0x0",
        "input": "0xcf216ee2000000000000000000000000000000000000000000000000000000000000008000000000000000000000000000000000000000000000000000000000000000c0000000000000000000000000000000000000000000000000000000000bebc2000000000000000000000000000000000000000000000000000000000000000019000000000000000000000000000000000000000000000000000000000000000e436f6e747261637420417564697400000000000000000000000000000000000000000000000000000000000000000000000000000000000000000000000000056175646974000000000000000000000000000000000000000000000000000000",
        "nonce": "0xe7",
        "chainId": "0x2105"
      },
      "additionalContracts": [],
      "isFixedGasLimit": false
    },
    {
      "hash": "0xb6a35cc271c0d6a52b102e750f2ec5e75b1188da4bb0ae57b911681638283a13",
      "transactionType": "CALL",
      "contractName": "LeftClawServicesV2",
      "contractAddress": "0x103c5fafd8734ae9ec4cc2f116ed03ff6cc2ca5f",
      "function": "addServiceType(string,string,uint256,uint256)",
      "arguments": [
        "Frontend QA Audit",
        "qa",
        "50000000",
        "50"
      ],
      "transaction": {
        "from": "0x845e8c808e22469aaf07ace9ab7d26c875fbe44f",
        "to": "0x103c5fafd8734ae9ec4cc2f116ed03ff6cc2ca5f",
        "gas": "0x392d8",
        "value": "0x0",
        "input": "0xcf216ee2000000000000000000000000000000000000000000000000000000000000008000000000000000000000000000000000000000000000000000000000000000c00000000000000000000000000000000000000000000000000000000002faf0800000000000000000000000000000000000000000000000000000000000000032000000000000000000000000000000000000000000000000000000000000001146726f6e74656e6420514120417564697400000000000000000000000000000000000000000000000000000000000000000000000000000000000000000000027161000000000000000000000000000000000000000000000000000000000000",
        "nonce": "0xe8",
        "chainId": "0x2105"
      },
      "additionalContracts": [],
      "isFixedGasLimit": false
    },
    {
      "hash": "0x8b6b2bec1709eab1a43a3c7acd9ebc87f5d60ead1f50a191711893407df86fc5",
      "transactionType": "CALL",
      "contractName": "LeftClawServicesV2",
      "contractAddress": "0x103c5fafd8734ae9ec4cc2f116ed03ff6cc2ca5f",
      "function": "addServiceType(string,string,uint256,uint256)",
      "arguments": [
        "Build",
        "build",
        "1000000000",
        "1"
      ],
      "transaction": {
        "from": "0x845e8c808e22469aaf07ace9ab7d26c875fbe44f",
        "to": "0x103c5fafd8734ae9ec4cc2f116ed03ff6cc2ca5f",
        "gas": "0x39231",
        "value": "0x0",
        "input": "0xcf216ee2000000000000000000000000000000000000000000000000000000000000008000000000000000000000000000000000000000000000000000000000000000c0000000000000000000000000000000000000000000000000000000003b9aca00000000000000000000000000000000000000000000000000000000000000000100000000000000000000000000000000000000000000000000000000000000054275696c6400000000000000000000000000000000000000000000000000000000000000000000000000000000000000000000000000000000000000000000056275696c64000000000000000000000000000000000000000000000000000000",
        "nonce": "0xe9",
        "chainId": "0x2105"
      },
      "additionalContracts": [],
      "isFixedGasLimit": false
    },
    {
      "hash": "0x281d023dea63e6f69161a9af8dc5c6d634159a0c5b282c71c21429515110c758",
      "transactionType": "CALL",
      "contractName": "LeftClawServicesV2",
      "contractAddress": "0x103c5fafd8734ae9ec4cc2f116ed03ff6cc2ca5f",
      "function": "addServiceType(string,string,uint256,uint256)",
      "arguments": [
        "Research Report",
        "research",
        "100000000",
        "13"
      ],
      "transaction": {
        "from": "0x845e8c808e22469aaf07ace9ab7d26c875fbe44f",
        "to": "0x103c5fafd8734ae9ec4cc2f116ed03ff6cc2ca5f",
        "gas": "0x3c8dd",
        "value": "0x0",
        "input": "0xcf216ee2000000000000000000000000000000000000000000000000000000000000008000000000000000000000000000000000000000000000000000000000000000c00000000000000000000000000000000000000000000000000000000005f5e100000000000000000000000000000000000000000000000000000000000000000d000000000000000000000000000000000000000000000000000000000000000f5265736561726368205265706f7274000000000000000000000000000000000000000000000000000000000000000000000000000000000000000000000000087265736561726368000000000000000000000000000000000000000000000000",
        "nonce": "0xea",
        "chainId": "0x2105"
      },
      "additionalContracts": [],
      "isFixedGasLimit": false
    },
    {
      "hash": "0xa0bd8dc28d59ec1c881f141a8061bf61b7fe8b7ed8033924d1248b2d9c5769dc",
      "transactionType": "CALL",
      "contractName": "LeftClawServicesV2",
      "contractAddress": "0x103c5fafd8734ae9ec4cc2f116ed03ff6cc2ca5f",
      "function": "addServiceType(string,string,uint256,uint256)",
      "arguments": [
        "Judge / Oracle",
        "judge",
        "50000000",
        "50"
      ],
      "transaction": {
        "from": "0x845e8c808e22469aaf07ace9ab7d26c875fbe44f",
        "to": "0x103c5fafd8734ae9ec4cc2f116ed03ff6cc2ca5f",
        "gas": "0x392d8",
        "value": "0x0",
        "input": "0xcf216ee2000000000000000000000000000000000000000000000000000000000000008000000000000000000000000000000000000000000000000000000000000000c00000000000000000000000000000000000000000000000000000000002faf0800000000000000000000000000000000000000000000000000000000000000032000000000000000000000000000000000000000000000000000000000000000e4a75646765202f204f7261636c6500000000000000000000000000000000000000000000000000000000000000000000000000000000000000000000000000056a75646765000000000000000000000000000000000000000000000000000000",
        "nonce": "0xeb",
        "chainId": "0x2105"
      },
      "additionalContracts": [],
      "isFixedGasLimit": false
    },
    {
      "hash": "0xc6b0e15aee02020bd51ee07b34d3381af3c61472c1ba43974e050cdc92ed37fa",
      "transactionType": "CALL",
      "contractName": "LeftClawServicesV2",
      "contractAddress": "0x103c5fafd8734ae9ec4cc2f116ed03ff6cc2ca5f",
      "function": "addServiceType(string,string,uint256,uint256)",
      "arguments": [
        "HumanQA",
        "humanqa",
        "200000000",
        "25"
      ],
      "transaction": {
        "from": "0x845e8c808e22469aaf07ace9ab7d26c875fbe44f",
        "to": "0x103c5fafd8734ae9ec4cc2f116ed03ff6cc2ca5f",
        "gas": "0x39274",
        "value": "0x0",
        "input": "0xcf216ee2000000000000000000000000000000000000000000000000000000000000008000000000000000000000000000000000000000000000000000000000000000c0000000000000000000000000000000000000000000000000000000000bebc2000000000000000000000000000000000000000000000000000000000000000019000000000000000000000000000000000000000000000000000000000000000748756d616e514100000000000000000000000000000000000000000000000000000000000000000000000000000000000000000000000000000000000000000768756d616e716100000000000000000000000000000000000000000000000000",
        "nonce": "0xec",
        "chainId": "0x2105"
      },
      "additionalContracts": [],
      "isFixedGasLimit": false
    },
    {
      "hash": "0x2bd9164c919651674671f54609f51de398a2345825523ccfce932c5fc5e22bee",
      "transactionType": "CALL",
      "contractName": "LeftClawServicesV2",
      "contractAddress": "0x103c5fafd8734ae9ec4cc2f116ed03ff6cc2ca5f",
      "function": "addWorker(address)",
      "arguments": [
        "0xa822155c242B3a307086F1e2787E393d78A0B5AC"
      ],
      "transaction": {
        "from": "0x845e8c808e22469aaf07ace9ab7d26c875fbe44f",
        "to": "0x103c5fafd8734ae9ec4cc2f116ed03ff6cc2ca5f",
        "gas": "0x19022",
        "value": "0x0",
        "input": "0x806ad57e000000000000000000000000a822155c242b3a307086f1e2787e393d78a0b5ac",
        "nonce": "0xed",
        "chainId": "0x2105"
      },
      "additionalContracts": [],
      "isFixedGasLimit": false
    },
    {
      "hash": "0x7364bbb6f0cc77c04abaa6cdb9d87c82a53b98501e6b85eee051c272e8c3e165",
      "transactionType": "CALL",
      "contractName": "LeftClawServicesV2",
      "contractAddress": "0x103c5fafd8734ae9ec4cc2f116ed03ff6cc2ca5f",
      "function": "addWorker(address)",
      "arguments": [
        "0x8c00eae9b9A2f89BddaAE4f6884C716562C7cE93"
      ],
      "transaction": {
        "from": "0x845e8c808e22469aaf07ace9ab7d26c875fbe44f",
        "to": "0x103c5fafd8734ae9ec4cc2f116ed03ff6cc2ca5f",
        "gas": "0x12a95",
        "value": "0x0",
        "input": "0x806ad57e0000000000000000000000008c00eae9b9a2f89bddaae4f6884c716562c7ce93",
        "nonce": "0xee",
        "chainId": "0x2105"
      },
      "additionalContracts": [],
      "isFixedGasLimit": false
    },
    {
      "hash": "0x628fbc3983f3f84d1b1b5ea6ea463132ad38a66f952c13ef61184486876681db",
      "transactionType": "CALL",
      "contractName": "LeftClawServicesV2",
      "contractAddress": "0x103c5fafd8734ae9ec4cc2f116ed03ff6cc2ca5f",
      "function": "addWorker(address)",
      "arguments": [
        "0x472C382550780cD30e1D27155b96Fa4b63d9247e"
      ],
      "transaction": {
        "from": "0x845e8c808e22469aaf07ace9ab7d26c875fbe44f",
        "to": "0x103c5fafd8734ae9ec4cc2f116ed03ff6cc2ca5f",
        "gas": "0x149fd",
        "value": "0x0",
        "input": "0x806ad57e000000000000000000000000472c382550780cd30e1d27155b96fa4b63d9247e",
        "nonce": "0xef",
        "chainId": "0x2105"
      },
      "additionalContracts": [],
      "isFixedGasLimit": false
    },
    {
      "hash": "0x6cb1dfe713988bed928e7ef41e4bef94fdc9ec3ff67b43f9fb6fc0e4295bcb6b",
      "transactionType": "CALL",
      "contractName": "LeftClawServicesV2",
      "contractAddress": "0x103c5fafd8734ae9ec4cc2f116ed03ff6cc2ca5f",
      "function": "addWorker(address)",
      "arguments": [
        "0x09defC9E6ffc5e41F42e0D50512EEf9354523E0E"
      ],
      "transaction": {
        "from": "0x845e8c808e22469aaf07ace9ab7d26c875fbe44f",
        "to": "0x103c5fafd8734ae9ec4cc2f116ed03ff6cc2ca5f",
        "gas": "0x144aa",
        "value": "0x0",
        "input": "0x806ad57e00000000000000000000000009defc9e6ffc5e41f42e0d50512eef9354523e0e",
        "nonce": "0xf0",
        "chainId": "0x2105"
      },
      "additionalContracts": [],
      "isFixedGasLimit": false
    },
    {
      "hash": "0x23569bd7a4d5240242ec423486a1bcafd4dd1cc7edacc8e50f017647d564169d",
      "transactionType": "CALL",
      "contractName": "LeftClawServicesV2",
      "contractAddress": "0x103c5fafd8734ae9ec4cc2f116ed03ff6cc2ca5f",
      "function": "transferOwnership(address)",
      "arguments": [
        "0x11ce532845cE0eAcdA41f72FDc1C88c335981442"
      ],
      "transaction": {
        "from": "0x845e8c808e22469aaf07ace9ab7d26c875fbe44f",
        "to": "0x103c5fafd8734ae9ec4cc2f116ed03ff6cc2ca5f",
        "gas": "0xa7c8",
        "value": "0x0",
        "input": "0xf2fde38b00000000000000000000000011ce532845ce0eacda41f72fdc1c88c335981442",
        "nonce": "0xf1",
        "chainId": "0x2105"
      },
      "additionalContracts": [],
      "isFixedGasLimit": false
    }
  ],
  "receipts": [
    {
      "status": "0x1",
      "cumulativeGasUsed": "0x1b8d21b",
      "logs": [
        {
          "address": "0x103c5fafd8734ae9ec4cc2f116ed03ff6cc2ca5f",
          "topics": [
            "0x8be0079c531659141344cd1fd0a4f28419497f9722a3daafe3b4186f6b6457e0",
            "0x0000000000000000000000000000000000000000000000000000000000000000",
            "0x000000000000000000000000845e8c808e22469aaf07ace9ab7d26c875fbe44f"
          ],
          "data": "0x",
          "blockHash": "0x0000000000000000000000000000000000000000000000000000000000000000",
          "blockNumber": "0x29d104b",
          "blockTimestamp": "0x69c47d79",
          "transactionHash": "0x6cb1dfe713988bed928e7ef41e4bef94fdc9ec3ff67b43f9fb6fc0e4295bcb6b",
          "transactionIndex": "0x84",
          "logIndex": "0x2a4",
          "removed": false
        }
      ],
      "logsBloom": "0x00000000000000080000000000000000000000000000000000800000000200000000000040000000000000000000000000000000000000000000000000000000000000000000000000000000000000000001000000000000000000000000000000000000020000000000000000000800000000000000000000000010000000400000000000000000000000000000000000000000000000000000000000000000000000000000000000000000000080000000000000000000000000000000000000000000000000000000000000000000000000000000000000000000000020000000000000000400000000000000000000000000000000000000000000000000",
      "type": "0x2",
      "transactionHash": "0x6cb1dfe713988bed928e7ef41e4bef94fdc9ec3ff67b43f9fb6fc0e4295bcb6b",
      "transactionIndex": "0x84",
      "blockHash": "0x0000000000000000000000000000000000000000000000000000000000000000",
      "blockNumber": "0x29d104b",
      "gasUsed": "0x49eee4",
      "effectiveGasPrice": "0x4e35e0",
      "blobGasUsed": "0x19efc4",
      "from": "0x845e8c808e22469aaf07ace9ab7d26c875fbe44f",
      "to": null,
      "contractAddress": "0x103c5fafd8734ae9ec4cc2f116ed03ff6cc2ca5f",
      "daFootprintGasScalar": "0x94",
      "l1BaseFeeScalar": "0x8dd",
      "l1BlobBaseFee": "0x3889fd",
      "l1BlobBaseFeeScalar": "0x101c12",
      "l1Fee": "0x39a1ce8e",
      "l1GasPrice": "0x3822e71",
      "l1GasUsed": "0x2cdd3"
    },
    {
      "status": "0x1",
      "cumulativeGasUsed": "0x1bb68ac",
      "logs": [
        {
          "address": "0x103c5fafd8734ae9ec4cc2f116ed03ff6cc2ca5f",
          "topics": [
            "0x791d0f3c8799c9df05b4434624f423e70d3c803aa8192c9c2557c19654000f37",
            "0x0000000000000000000000000000000000000000000000000000000000000001"
          ],
          "data": "0x000000000000000000000000000000000000000000000000000000000000008000000000000000000000000000000000000000000000000000000000000000c00000000000000000000000000000000000000000000000000000000001312d0000000000000000000000000000000000000000000000000000000000000000640000000000000000000000000000000000000000000000000000000000000012517569636b20436f6e73756c746174696f6e00000000000000000000000000000000000000000000000000000000000000000000000000000000000000000007636f6e73756c7400000000000000000000000000000000000000000000000000",
          "blockHash": "0x0000000000000000000000000000000000000000000000000000000000000000",
          "blockNumber": "0x29d104b",
          "blockTimestamp": "0x69c47d79",
          "transactionHash": "0xc6b0e15aee02020bd51ee07b34d3381af3c61472c1ba43974e050cdc92ed37fa",
          "transactionIndex": "0x85",
          "logIndex": "0x2a5",
          "removed": false
        }
      ],
      "logsBloom": "0x00000000000000080000000000000000000000000000400000000000000200000000000040000000000000000000000000000000000000000000000000040100000000000000000000000000000000000000000000040100000000000000000000000000000000000000000000000000000000000000000000000000000000000000000000000000000000000000000000000000000000000000000000000000000000000000000000000000000000000000000000000000000000000000000000000000000000000000000000000000000000000000000000000000000040000000000000000000000000000000000000000000000000000000000000000000",
      "type": "0x2",
      "transactionHash": "0xc6b0e15aee02020bd51ee07b34d3381af3c61472c1ba43974e050cdc92ed37fa",
      "transactionIndex": "0x85",
      "blockHash": "0x0000000000000000000000000000000000000000000000000000000000000000",
      "blockNumber": "0x29d104b",
      "gasUsed": "0x29691",
      "effectiveGasPrice": "0x4e35e0",
      "blobGasUsed": "0x4438",
      "from": "0x845e8c808e22469aaf07ace9ab7d26c875fbe44f",
      "to": "0x103c5fafd8734ae9ec4cc2f116ed03ff6cc2ca5f",
      "contractAddress": null,
      "daFootprintGasScalar": "0x94",
      "l1BaseFeeScalar": "0x8dd",
      "l1BlobBaseFee": "0x3889fd",
      "l1BlobBaseFeeScalar": "0x101c12",
      "l1Fee": "0x39a1ce8e",
      "l1GasPrice": "0x3822e71",
      "l1GasUsed": "0x760"
    },
    {
      "status": "0x1",
      "cumulativeGasUsed": "0x1bdff79",
      "logs": [
        {
          "address": "0x103c5fafd8734ae9ec4cc2f116ed03ff6cc2ca5f",
          "topics": [
            "0x791d0f3c8799c9df05b4434624f423e70d3c803aa8192c9c2557c19654000f37",
            "0x0000000000000000000000000000000000000000000000000000000000000002"
          ],
          "data": "0x000000000000000000000000000000000000000000000000000000000000008000000000000000000000000000000000000000000000000000000000000000c00000000000000000000000000000000000000000000000000000000001c9c380000000000000000000000000000000000000000000000000000000000000003200000000000000000000000000000000000000000000000000000000000000114465657020436f6e73756c746174696f6e000000000000000000000000000000000000000000000000000000000000000000000000000000000000000000000c636f6e73756c742d646565700000000000000000000000000000000000000000",
          "blockHash": "0x0000000000000000000000000000000000000000000000000000000000000000",
          "blockNumber": "0x29d104b",
          "blockTimestamp": "0x69c47d79",
          "transactionHash": "0x628fbc3983f3f84d1b1b5ea6ea463132ad38a66f952c13ef61184486876681db",
          "transactionIndex": "0x86",
          "logIndex": "0x2a6",
          "removed": false
        }
      ],
      "logsBloom": "0x04000000000000080000000000000000000000000000400000000000000200000000000040000000000000000000000000000000000000000000000000000100000000000000000000000000000000000000000000000100000000000000000000000000000000000000000000000000000000000000000000000000000000000000000000000000000000000000000000000000000000000000000000000000000000000000000000000100000000000000000000000000000000000000000000000000000000000000000000000000000000000000000000000000000000000000000000000000000000000000000000000000008000000000000000000000",
      "type": "0x2",
      "transactionHash": "0x628fbc3983f3f84d1b1b5ea6ea463132ad38a66f952c13ef61184486876681db",
      "transactionIndex": "0x86",
      "blockHash": "0x0000000000000000000000000000000000000000000000000000000000000000",
      "blockNumber": "0x29d104b",
      "gasUsed": "0x296cd",
      "effectiveGasPrice": "0x4e35e0",
      "blobGasUsed": "0x43a4",
      "from": "0x845e8c808e22469aaf07ace9ab7d26c875fbe44f",
      "to": "0x103c5fafd8734ae9ec4cc2f116ed03ff6cc2ca5f",
      "contractAddress": null,
      "daFootprintGasScalar": "0x94",
      "l1BaseFeeScalar": "0x8dd",
      "l1BlobBaseFee": "0x3889fd",
      "l1BlobBaseFeeScalar": "0x101c12",
      "l1Fee": "0x39a1ce8e",
      "l1GasPrice": "0x3822e71",
      "l1GasUsed": "0x752"
    },
    {
      "status": "0x1",
      "cumulativeGasUsed": "0x1c095aa",
      "logs": [
        {
          "address": "0x103c5fafd8734ae9ec4cc2f116ed03ff6cc2ca5f",
          "topics": [
            "0x791d0f3c8799c9df05b4434624f423e70d3c803aa8192c9c2557c19654000f37",
            "0x0000000000000000000000000000000000000000000000000000000000000003"
          ],
          "data": "0x000000000000000000000000000000000000000000000000000000000000008000000000000000000000000000000000000000000000000000000000000000c0000000000000000000000000000000000000000000000000000000000003d09000000000000000000000000000000000000000000000000000000000000001f4000000000000000000000000000000000000000000000000000000000000000d5046502047656e657261746f720000000000000000000000000000000000000000000000000000000000000000000000000000000000000000000000000000037066700000000000000000000000000000000000000000000000000000000000",
          "blockHash": "0x0000000000000000000000000000000000000000000000000000000000000000",
          "blockNumber": "0x29d104b",
          "blockTimestamp": "0x69c47d79",
          "transactionHash": "0xb6a35cc271c0d6a52b102e750f2ec5e75b1188da4bb0ae57b911681638283a13",
          "transactionIndex": "0x87",
          "logIndex": "0x2a7",
          "removed": false
        }
      ],
      "logsBloom": "0x00000000000000080000000000000000000000000000400000000000000200000000000040000000000000000000000000000000020000000000000000000100000000000000000000000000000000000000000000000100000000000000000000000000000000000000000000000000000000000000000000000000000000000000000000000000000000000000000000000000000000000000000000000000000000000000000000000000000000000000000000800000000000000000400000000000000000000000000000000000000000000000000000000000000000000000000000000000000000000000000000000000000000000000000000000000",
      "type": "0x2",
      "transactionHash": "0xb6a35cc271c0d6a52b102e750f2ec5e75b1188da4bb0ae57b911681638283a13",
      "transactionIndex": "0x87",
      "blockHash": "0x0000000000000000000000000000000000000000000000000000000000000000",
      "blockNumber": "0x29d104b",
      "gasUsed": "0x29631",
      "effectiveGasPrice": "0x4e35e0",
      "blobGasUsed": "0x41e8",
      "from": "0x845e8c808e22469aaf07ace9ab7d26c875fbe44f",
      "to": "0x103c5fafd8734ae9ec4cc2f116ed03ff6cc2ca5f",
      "contractAddress": null,
      "daFootprintGasScalar": "0x94",
      "l1BaseFeeScalar": "0x8dd",
      "l1BlobBaseFee": "0x3889fd",
      "l1BlobBaseFeeScalar": "0x101c12",
      "l1Fee": "0x39a1ce8e",
      "l1GasPrice": "0x3822e71",
      "l1GasUsed": "0x72a"
    },
    {
      "status": "0x1",
      "cumulativeGasUsed": "0x1c32bf3",
      "logs": [
        {
          "address": "0x103c5fafd8734ae9ec4cc2f116ed03ff6cc2ca5f",
          "topics": [
            "0x791d0f3c8799c9df05b4434624f423e70d3c803aa8192c9c2557c19654000f37",
            "0x0000000000000000000000000000000000000000000000000000000000000004"
          ],
          "data": "0x000000000000000000000000000000000000000000000000000000000000008000000000000000000000000000000000000000000000000000000000000000c0000000000000000000000000000000000000000000000000000000000bebc2000000000000000000000000000000000000000000000000000000000000000019000000000000000000000000000000000000000000000000000000000000000e436f6e747261637420417564697400000000000000000000000000000000000000000000000000000000000000000000000000000000000000000000000000056175646974000000000000000000000000000000000000000000000000000000",
          "blockHash": "0x0000000000000000000000000000000000000000000000000000000000000000",
          "blockNumber": "0x29d104b",
          "blockTimestamp": "0x69c47d79",
          "transactionHash": "0x7364bbb6f0cc77c04abaa6cdb9d87c82a53b98501e6b85eee051c272e8c3e165",
          "transactionIndex": "0x88",
          "logIndex": "0x2a8",
          "removed": false
        }
      ],
      "logsBloom": "0x00000000000000080000000000000000000000000000400000000000000200000000000040000000000000000000000000000000000000000000000000000100000000000000000000000000000000000000000000000100000000000000000008000000000000000000000000000000000000000000000000000000000000000000000000000000000000000000000000000000000000000000000000000000000000000000000000000000000000000000000000000000002000000000000000000000000000000000000000000000000000008000000000000000000000000000000000000000000000000000000000000000000000000000000000000000",
      "type": "0x2",
      "transactionHash": "0x7364bbb6f0cc77c04abaa6cdb9d87c82a53b98501e6b85eee051c272e8c3e165",
      "transactionIndex": "0x88",
      "blockHash": "0x0000000000000000000000000000000000000000000000000000000000000000",
      "blockNumber": "0x29d104b",
      "gasUsed": "0x29649",
      "effectiveGasPrice": "0x4e35e0",
      "blobGasUsed": "0x402c",
      "from": "0x845e8c808e22469aaf07ace9ab7d26c875fbe44f",
      "to": "0x103c5fafd8734ae9ec4cc2f116ed03ff6cc2ca5f",
      "contractAddress": null,
      "daFootprintGasScalar": "0x94",
      "l1BaseFeeScalar": "0x8dd",
      "l1BlobBaseFee": "0x3889fd",
      "l1BlobBaseFeeScalar": "0x101c12",
      "l1Fee": "0x39a1ce8e",
      "l1GasPrice": "0x3822e71",
      "l1GasUsed": "0x6f5"
    },
    {
      "status": "0x1",
      "cumulativeGasUsed": "0x1c5c248",
      "logs": [
        {
          "address": "0x103c5fafd8734ae9ec4cc2f116ed03ff6cc2ca5f",
          "topics": [
            "0x791d0f3c8799c9df05b4434624f423e70d3c803aa8192c9c2557c19654000f37",
            "0x0000000000000000000000000000000000000000000000000000000000000005"
          ],
          "data": "0x000000000000000000000000000000000000000000000000000000000000008000000000000000000000000000000000000000000000000000000000000000c00000000000000000000000000000000000000000000000000000000002faf0800000000000000000000000000000000000000000000000000000000000000032000000000000000000000000000000000000000000000000000000000000001146726f6e74656e6420514120417564697400000000000000000000000000000000000000000000000000000000000000000000000000000000000000000000027161000000000000000000000000000000000000000000000000000000000000",
          "blockHash": "0x0000000000000000000000000000000000000000000000000000000000000000",
          "blockNumber": "0x29d104b",
          "blockTimestamp": "0x69c47d79",
          "transactionHash": "0x4bf58d237240573d84218646a997cea4b9d652add50edc08d4e550e83073ef6d",
          "transactionIndex": "0x89",
          "logIndex": "0x2a9",
          "removed": false
        }
      ],
      "logsBloom": "0x00000000000000080000000000000000000000000000400000000000000200000000000040000000000000000000000000000000000000000000000000000100000010000000000000000000000000000000000000000100000000000000000000000000000000000000000000000000000000000000000000000000000000000000000000000000000000000000001000000800000000000000000000000000000000000000000000000000000000000000000000000000000000000000000000000000000000000000000000000000000000000000000000000000000000000000000000000000000000000000000000000000000000000000000000000000",
      "type": "0x2",
      "transactionHash": "0x4bf58d237240573d84218646a997cea4b9d652add50edc08d4e550e83073ef6d",
      "transactionIndex": "0x89",
      "blockHash": "0x0000000000000000000000000000000000000000000000000000000000000000",
      "blockNumber": "0x29d104b",
      "gasUsed": "0x29655",
      "effectiveGasPrice": "0x4e35e0",
      "blobGasUsed": "0x40c0",
      "from": "0x845e8c808e22469aaf07ace9ab7d26c875fbe44f",
      "to": "0x103c5fafd8734ae9ec4cc2f116ed03ff6cc2ca5f",
      "contractAddress": null,
      "daFootprintGasScalar": "0x94",
      "l1BaseFeeScalar": "0x8dd",
      "l1BlobBaseFee": "0x3889fd",
      "l1BlobBaseFeeScalar": "0x101c12",
      "l1Fee": "0x39a1ce8e",
      "l1GasPrice": "0x3822e71",
      "l1GasUsed": "0x702"
    },
    {
      "status": "0x1",
      "cumulativeGasUsed": "0x1c85825",
      "logs": [
        {
          "address": "0x103c5fafd8734ae9ec4cc2f116ed03ff6cc2ca5f",
          "topics": [
            "0x791d0f3c8799c9df05b4434624f423e70d3c803aa8192c9c2557c19654000f37",
            "0x0000000000000000000000000000000000000000000000000000000000000006"
          ],
          "data": "0x000000000000000000000000000000000000000000000000000000000000008000000000000000000000000000000000000000000000000000000000000000c0000000000000000000000000000000000000000000000000000000003b9aca00000000000000000000000000000000000000000000000000000000000000000100000000000000000000000000000000000000000000000000000000000000054275696c6400000000000000000000000000000000000000000000000000000000000000000000000000000000000000000000000000000000000000000000056275696c64000000000000000000000000000000000000000000000000000000",
          "blockHash": "0x0000000000000000000000000000000000000000000000000000000000000000",
          "blockNumber": "0x29d104b",
          "blockTimestamp": "0x69c47d79",
          "transactionHash": "0x23a8903810c574931e37696aeac24bc6936a86138f708d176ff36615fe0dca19",
          "transactionIndex": "0x8a",
          "logIndex": "0x2aa",
          "removed": false
        }
      ],
      "logsBloom": "0x00000000000000080000000000000000000000000000400000000000000200000000000040000000000000000000000000000000000400000000000000000100000000000000000000000000000000000000000000000100000000000000000000000000000000000000000000000000000000000000000000000000000000000000000400000000000000000000000000000000000000000000000000000000000000000000000000000000000000000000000000000000000000080000000000000000000000000000000000000000000000000000000000000000000000000000000000000000000000000000000000000000000000000000000000000000",
      "type": "0x2",
      "transactionHash": "0x23a8903810c574931e37696aeac24bc6936a86138f708d176ff36615fe0dca19",
      "transactionIndex": "0x8a",
      "blockHash": "0x0000000000000000000000000000000000000000000000000000000000000000",
      "blockNumber": "0x29d104b",
      "gasUsed": "0x295dd",
      "effectiveGasPrice": "0x4e35e0",
      "blobGasUsed": "0x3b8c",
      "from": "0x845e8c808e22469aaf07ace9ab7d26c875fbe44f",
      "to": "0x103c5fafd8734ae9ec4cc2f116ed03ff6cc2ca5f",
      "contractAddress": null,
      "daFootprintGasScalar": "0x94",
      "l1BaseFeeScalar": "0x8dd",
      "l1BlobBaseFee": "0x3889fd",
      "l1BlobBaseFeeScalar": "0x101c12",
      "l1Fee": "0x39a1ce8e",
      "l1GasPrice": "0x3822e71",
      "l1GasUsed": "0x67c"
    },
    {
      "status": "0x1",
      "cumulativeGasUsed": "0x1caee9e",
      "logs": [
        {
          "address": "0x103c5fafd8734ae9ec4cc2f116ed03ff6cc2ca5f",
          "topics": [
            "0x791d0f3c8799c9df05b4434624f423e70d3c803aa8192c9c2557c19654000f37",
            "0x0000000000000000000000000000000000000000000000000000000000000007"
          ],
          "data": "0x000000000000000000000000000000000000000000000000000000000000008000000000000000000000000000000000000000000000000000000000000000c00000000000000000000000000000000000000000000000000000000005f5e100000000000000000000000000000000000000000000000000000000000000000d000000000000000000000000000000000000000000000000000000000000000f5265736561726368205265706f7274000000000000000000000000000000000000000000000000000000000000000000000000000000000000000000000000087265736561726368000000000000000000000000000000000000000000000000",
          "blockHash": "0x0000000000000000000000000000000000000000000000000000000000000000",
          "blockNumber": "0x29d104b",
          "blockTimestamp": "0x69c47d79",
          "transactionHash": "0x17e627cae8d85c75d6cd4daf16d04e5c2000b61cb23a1ab0f4c558e5fc94fa16",
          "transactionIndex": "0x8b",
          "logIndex": "0x2ab",
          "removed": false
        }
      ],
      "logsBloom": "0x00000000000000080000000000000000000000000000400000000000000200000000000040000000000000000000000000001000000000000000000000000100000020000000000000000000000000000000000000000100000000000000000000000000000000000000000000000000000000000000000000000000000000000000000000000000000000000000000000000000000000000000000000000000000000000000000000000000000000000000000000000000000000000000000000000000000000000000000000000000000000000000000000000100000000000000000000000000000000000000000000000000000000000000000000000000",
      "type": "0x2",
      "transactionHash": "0x17e627cae8d85c75d6cd4daf16d04e5c2000b61cb23a1ab0f4c558e5fc94fa16",
      "transactionIndex": "0x8b",
      "blockHash": "0x0000000000000000000000000000000000000000000000000000000000000000",
      "blockNumber": "0x29d104b",
      "gasUsed": "0x29679",
      "effectiveGasPrice": "0x4e35e0",
      "blobGasUsed": "0x4154",
      "from": "0x845e8c808e22469aaf07ace9ab7d26c875fbe44f",
      "to": "0x103c5fafd8734ae9ec4cc2f116ed03ff6cc2ca5f",
      "contractAddress": null,
      "daFootprintGasScalar": "0x94",
      "l1BaseFeeScalar": "0x8dd",
      "l1BlobBaseFee": "0x3889fd",
      "l1BlobBaseFeeScalar": "0x101c12",
      "l1Fee": "0x39a1ce8e",
      "l1GasPrice": "0x3822e71",
      "l1GasUsed": "0x71d"
    },
    {
      "status": "0x1",
      "cumulativeGasUsed": "0x1cd84f3",
      "logs": [
        {
          "address": "0x103c5fafd8734ae9ec4cc2f116ed03ff6cc2ca5f",
          "topics": [
            "0x791d0f3c8799c9df05b4434624f423e70d3c803aa8192c9c2557c19654000f37",
            "0x0000000000000000000000000000000000000000000000000000000000000008"
          ],
          "data": "0x000000000000000000000000000000000000000000000000000000000000008000000000000000000000000000000000000000000000000000000000000000c00000000000000000000000000000000000000000000000000000000002faf0800000000000000000000000000000000000000000000000000000000000000032000000000000000000000000000000000000000000000000000000000000000e4a75646765202f204f7261636c6500000000000000000000000000000000000000000000000000000000000000000000000000000000000000000000000000056a75646765000000000000000000000000000000000000000000000000000000",
          "blockHash": "0x0000000000000000000000000000000000000000000000000000000000000000",
          "blockNumber": "0x29d104b",
          "blockTimestamp": "0x69c47d79",
          "transactionHash": "0x2bd9164c919651674671f54609f51de398a2345825523ccfce932c5fc5e22bee",
          "transactionIndex": "0x8c",
          "logIndex": "0x2ac",
          "removed": false
        }
      ],
      "logsBloom": "0x00000000000000080000000000000000000000000000400000000000000200000000000040000000000000000000000000000000000080000000000000000100000000000000000000000000000000000000000000000100000000000000000000000000000000000000000000000000000000000000000000000000000000000080000000000000000000000000000000000000000000000000000000000000000000000000000000000000000000000000000000000000000000000000000040000000000000000000000000000000000000000000000000000000000000000000000000000000000000000000000000000000000000000000000000000000",
      "type": "0x2",
      "transactionHash": "0x2bd9164c919651674671f54609f51de398a2345825523ccfce932c5fc5e22bee",
      "transactionIndex": "0x8c",
      "blockHash": "0x0000000000000000000000000000000000000000000000000000000000000000",
      "blockNumber": "0x29d104b",
      "gasUsed": "0x29655",
      "effectiveGasPrice": "0x4e35e0",
      "blobGasUsed": "0x3f98",
      "from": "0x845e8c808e22469aaf07ace9ab7d26c875fbe44f",
      "to": "0x103c5fafd8734ae9ec4cc2f116ed03ff6cc2ca5f",
      "contractAddress": null,
      "daFootprintGasScalar": "0x94",
      "l1BaseFeeScalar": "0x8dd",
      "l1BlobBaseFee": "0x3889fd",
      "l1BlobBaseFeeScalar": "0x101c12",
      "l1Fee": "0x39a1ce8e",
      "l1GasPrice": "0x3822e71",
      "l1GasUsed": "0x6e7"
    },
    {
      "status": "0x1",
      "cumulativeGasUsed": "0x1d01b00",
      "logs": [
        {
          "address": "0x103c5fafd8734ae9ec4cc2f116ed03ff6cc2ca5f",
          "topics": [
            "0x791d0f3c8799c9df05b4434624f423e70d3c803aa8192c9c2557c19654000f37",
            "0x0000000000000000000000000000000000000000000000000000000000000009"
          ],
          "data": "0x000000000000000000000000000000000000000000000000000000000000008000000000000000000000000000000000000000000000000000000000000000c0000000000000000000000000000000000000000000000000000000000bebc2000000000000000000000000000000000000000000000000000000000000000019000000000000000000000000000000000000000000000000000000000000000748756d616e514100000000000000000000000000000000000000000000000000000000000000000000000000000000000000000000000000000000000000000768756d616e716100000000000000000000000000000000000000000000000000",
          "blockHash": "0x0000000000000000000000000000000000000000000000000000000000000000",
          "blockNumber": "0x29d104b",
          "blockTimestamp": "0x69c47d79",
          "transactionHash": "0x4640047d6d90dcd31fbddec7990490752c753c2a7e87deb4427c1346f58ba23f",
          "transactionIndex": "0x8d",
          "logIndex": "0x2ad",
          "removed": false
        }
      ],
      "logsBloom": "0x00000000000000080000000000000000000000000000400000000000000200000000000040000000000000000000000000000000000000000000000000200100000000000000000000000000000000000000000000000100000000000000000000000000000000000000000000000000000000000000000000000000000000000000000000000000000000000000000000001000000000000000000000000000000000000000000000000000000000000000000000000000000000000000000000000000000000000000000000000000000000000000000000000000000000000000000000000000000000000000000000000000000000000000000000800000",
      "type": "0x2",
      "transactionHash": "0x4640047d6d90dcd31fbddec7990490752c753c2a7e87deb4427c1346f58ba23f",
      "transactionIndex": "0x8d",
      "blockHash": "0x0000000000000000000000000000000000000000000000000000000000000000",
      "blockNumber": "0x29d104b",
      "gasUsed": "0x2960d",
      "effectiveGasPrice": "0x4e35e0",
      "blobGasUsed": "0x3f04",
      "from": "0x845e8c808e22469aaf07ace9ab7d26c875fbe44f",
      "to": "0x103c5fafd8734ae9ec4cc2f116ed03ff6cc2ca5f",
      "contractAddress": null,
      "daFootprintGasScalar": "0x94",
      "l1BaseFeeScalar": "0x8dd",
      "l1BlobBaseFee": "0x3889fd",
      "l1BlobBaseFeeScalar": "0x101c12",
      "l1Fee": "0x39a1ce8e",
      "l1GasPrice": "0x3822e71",
      "l1GasUsed": "0x6da"
    },
    {
      "status": "0x1",
      "cumulativeGasUsed": "0x1d12c99",
      "logs": [
        {
          "address": "0x103c5fafd8734ae9ec4cc2f116ed03ff6cc2ca5f",
          "topics": [
            "0xb10d2a24a8c3686841e966f0c2c64c385cfaecb50a09b16aa3579bfcf3989dcd",
            "0x000000000000000000000000a822155c242b3a307086f1e2787e393d78a0b5ac"
          ],
          "data": "0x",
          "blockHash": "0x0000000000000000000000000000000000000000000000000000000000000000",
          "blockNumber": "0x29d104b",
          "blockTimestamp": "0x69c47d79",
          "transactionHash": "0x8b6b2bec1709eab1a43a3c7acd9ebc87f5d60ead1f50a191711893407df86fc5",
          "transactionIndex": "0x8e",
          "logIndex": "0x2ae",
          "removed": false
        }
      ],
      "logsBloom": "0x00000000004000080000000000000000000000000000000000000000000200000000000040000000000000000000000000000000000000000000000000000000000000000000000000000000000000000000000000000000000000800000000000000000000000000000000000000000000000000000000020001000000000000000000000000000000000000000000000000000000000000000000020000000000000000000000000000000000000000000000000000000000000000000000000000000000000000000000000000000000000000000000000000000000000000000000000000000000000000000100000000000000000000000000000000000",
      "type": "0x2",
      "transactionHash": "0x8b6b2bec1709eab1a43a3c7acd9ebc87f5d60ead1f50a191711893407df86fc5",
      "transactionIndex": "0x8e",
      "blockHash": "0x0000000000000000000000000000000000000000000000000000000000000000",
      "blockNumber": "0x29d104b",
      "gasUsed": "0x11199",
      "effectiveGasPrice": "0x4e35e0",
      "blobGasUsed": "0x39d0",
      "from": "0x845e8c808e22469aaf07ace9ab7d26c875fbe44f",
      "to": "0x103c5fafd8734ae9ec4cc2f116ed03ff6cc2ca5f",
      "contractAddress": null,
      "daFootprintGasScalar": "0x94",
      "l1BaseFeeScalar": "0x8dd",
      "l1BlobBaseFee": "0x3889fd",
      "l1BlobBaseFeeScalar": "0x101c12",
      "l1Fee": "0x39a1ce8e",
      "l1GasPrice": "0x3822e71",
      "l1GasUsed": "0x640"
    },
    {
      "status": "0x1",
      "cumulativeGasUsed": "0x1d204c5",
      "logs": [
        {
          "address": "0x103c5fafd8734ae9ec4cc2f116ed03ff6cc2ca5f",
          "topics": [
            "0xb10d2a24a8c3686841e966f0c2c64c385cfaecb50a09b16aa3579bfcf3989dcd",
            "0x0000000000000000000000008c00eae9b9a2f89bddaae4f6884c716562c7ce93"
          ],
          "data": "0x",
          "blockHash": "0x0000000000000000000000000000000000000000000000000000000000000000",
          "blockNumber": "0x29d104b",
          "blockTimestamp": "0x69c47d79",
          "transactionHash": "0x281d023dea63e6f69161a9af8dc5c6d634159a0c5b282c71c21429515110c758",
          "transactionIndex": "0x8f",
          "logIndex": "0x2af",
          "removed": false
        }
      ],
      "logsBloom": "0x00000000004000080000000000000000000000000000000000000000000200000000000040000000000000000000000000000000000000000000000000000000000000000000000000000000000000000000000000000000040000000000000000000000000000000000000000000000000000000000000020000000000000000000000000000000000000000000000000000000000000000000000000000000000000000000000000000000000000000000000000000000000000000000000000000000000000000000000000000000000000000000000000000000000000000000000000000000800000000000100000000000000000000008000000000000",
      "type": "0x2",
      "transactionHash": "0x281d023dea63e6f69161a9af8dc5c6d634159a0c5b282c71c21429515110c758",
      "transactionIndex": "0x8f",
      "blockHash": "0x0000000000000000000000000000000000000000000000000000000000000000",
      "blockNumber": "0x29d104b",
      "gasUsed": "0xd82c",
      "effectiveGasPrice": "0x4e35e0",
      "blobGasUsed": "0x39d0",
      "from": "0x845e8c808e22469aaf07ace9ab7d26c875fbe44f",
      "to": "0x103c5fafd8734ae9ec4cc2f116ed03ff6cc2ca5f",
      "contractAddress": null,
      "daFootprintGasScalar": "0x94",
      "l1BaseFeeScalar": "0x8dd",
      "l1BlobBaseFee": "0x3889fd",
      "l1BlobBaseFeeScalar": "0x101c12",
      "l1Fee": "0x39a1ce8e",
      "l1GasPrice": "0x3822e71",
      "l1GasUsed": "0x640"
    },
    {
      "status": "0x1",
      "cumulativeGasUsed": "0x1d2e668",
      "logs": [
        {
          "address": "0x103c5fafd8734ae9ec4cc2f116ed03ff6cc2ca5f",
          "topics": [
            "0xb10d2a24a8c3686841e966f0c2c64c385cfaecb50a09b16aa3579bfcf3989dcd",
            "0x000000000000000000000000472c382550780cd30e1d27155b96fa4b63d9247e"
          ],
          "data": "0x",
          "blockHash": "0x0000000000000000000000000000000000000000000000000000000000000000",
          "blockNumber": "0x29d104b",
          "blockTimestamp": "0x69c47d79",
          "transactionHash": "0x23569bd7a4d5240242ec423486a1bcafd4dd1cc7edacc8e50f017647d564169d",
          "transactionIndex": "0x90",
          "logIndex": "0x2b0",
          "removed": false
        }
      ],
      "logsBloom": "0x00000000004000080000000000000000000000000000000000000000000200000000000040000000004000000000000000000000000000000000000000000000000000000000000000000000000000000000000000000000000000000000000000000000000000000000000000000000000000000000000020000000000000000000000000000000000000000000000000000000000000000000004000000000000000000000000000000000000000000000000000000000000000000000000000000000000000000000000000000000000000000000000000000000000000000000000000000000000000000020100000000000000000000000000000000000",
      "type": "0x2",
      "transactionHash": "0x23569bd7a4d5240242ec423486a1bcafd4dd1cc7edacc8e50f017647d564169d",
      "transactionIndex": "0x90",
      "blockHash": "0x0000000000000000000000000000000000000000000000000000000000000000",
      "blockNumber": "0x29d104b",
      "gasUsed": "0xe1a3",
      "effectiveGasPrice": "0x4e35e0",
      "blobGasUsed": "0x39d0",
      "from": "0x845e8c808e22469aaf07ace9ab7d26c875fbe44f",
      "to": "0x103c5fafd8734ae9ec4cc2f116ed03ff6cc2ca5f",
      "contractAddress": null,
      "daFootprintGasScalar": "0x94",
      "l1BaseFeeScalar": "0x8dd",
      "l1BlobBaseFee": "0x3889fd",
      "l1BlobBaseFeeScalar": "0x101c12",
      "l1Fee": "0x39a1ce8e",
      "l1GasPrice": "0x3822e71",
      "l1GasUsed": "0x640"
    },
    {
      "status": "0x1",
      "cumulativeGasUsed": "0x1d3d176",
      "logs": [
        {
          "address": "0x103c5fafd8734ae9ec4cc2f116ed03ff6cc2ca5f",
          "topics": [
            "0xb10d2a24a8c3686841e966f0c2c64c385cfaecb50a09b16aa3579bfcf3989dcd",
            "0x00000000000000000000000009defc9e6ffc5e41f42e0d50512eef9354523e0e"
          ],
          "data": "0x",
          "blockHash": "0x0000000000000000000000000000000000000000000000000000000000000000",
          "blockNumber": "0x29d104b",
          "blockTimestamp": "0x69c47d79",
          "transactionHash": "0x7f8756717b8d2abf7c1ed0a684da3ebaca898190b254dffa28cea1b04270526f",
          "transactionIndex": "0x91",
          "logIndex": "0x2b1",
          "removed": false
        }
      ],
      "logsBloom": "0x00000000004000080000000000000000000000000000000000000000000200000000000040000000000000000000000000000000000000000000000000000000000001000000000000000000000000000000000000000000000000000000000000000000000000000000000000000000000000000000000020000000000000000000000040000000000000000000000000000000000000000000000000000000000000000000000000000000000000000000000000000000000000000000000000000000000000000000000000000000000000000000000000000000000000000000000000000000000000000000100000000000000000000000800000000000",
      "type": "0x2",
      "transactionHash": "0x7f8756717b8d2abf7c1ed0a684da3ebaca898190b254dffa28cea1b04270526f",
      "transactionIndex": "0x91",
      "blockHash": "0x0000000000000000000000000000000000000000000000000000000000000000",
      "blockNumber": "0x29d104b",
      "gasUsed": "0xeb0e",
      "effectiveGasPrice": "0x4e35e0",
      "blobGasUsed": "0x39d0",
      "from": "0x845e8c808e22469aaf07ace9ab7d26c875fbe44f",
      "to": "0x103c5fafd8734ae9ec4cc2f116ed03ff6cc2ca5f",
      "contractAddress": null,
      "daFootprintGasScalar": "0x94",
      "l1BaseFeeScalar": "0x8dd",
      "l1BlobBaseFee": "0x3889fd",
      "l1BlobBaseFeeScalar": "0x101c12",
      "l1Fee": "0x39a1ce8e",
      "l1GasPrice": "0x3822e71",
      "l1GasUsed": "0x640"
    },
    {
      "status": "0x1",
      "cumulativeGasUsed": "0x1d4442f",
      "logs": [
        {
          "address": "0x103c5fafd8734ae9ec4cc2f116ed03ff6cc2ca5f",
          "topics": [
            "0x8be0079c531659141344cd1fd0a4f28419497f9722a3daafe3b4186f6b6457e0",
            "0x000000000000000000000000845e8c808e22469aaf07ace9ab7d26c875fbe44f",
            "0x00000000000000000000000011ce532845ce0eacda41f72fdc1c88c335981442"
          ],
          "data": "0x",
          "blockHash": "0x0000000000000000000000000000000000000000000000000000000000000000",
          "blockNumber": "0x29d104b",
          "blockTimestamp": "0x69c47d79",
          "transactionHash": "0xa0bd8dc28d59ec1c881f141a8061bf61b7fe8b7ed8033924d1248b2d9c5769dc",
          "transactionIndex": "0x92",
          "logIndex": "0x2b2",
          "removed": false
        }
      ],
      "logsBloom": "0x00000000000000080000000000000000000000000000000000800040000200000000000040000000000000000000000000000000000000000000000000000000000000000000800000000000000000000001000000000000000000000000000000000000000000000000000000000000000000000000008000000010000000400000000000000000000000000000000000000000000000000000000000000000000000000000000000000000000080000000000000000000000000000000000000000000000000000000000000000000000000000000000000000000000000000000000000000400000000000000000000000000000000000000000000000000",
      "type": "0x2",
      "transactionHash": "0xa0bd8dc28d59ec1c881f141a8061bf61b7fe8b7ed8033924d1248b2d9c5769dc",
      "transactionIndex": "0x92",
      "blockHash": "0x0000000000000000000000000000000000000000000000000000000000000000",
      "blockNumber": "0x29d104b",
      "gasUsed": "0x72b9",
      "effectiveGasPrice": "0x4e35e0",
      "blobGasUsed": "0x39d0",
      "from": "0x845e8c808e22469aaf07ace9ab7d26c875fbe44f",
      "to": "0x103c5fafd8734ae9ec4cc2f116ed03ff6cc2ca5f",
      "contractAddress": null,
      "daFootprintGasScalar": "0x94",
      "l1BaseFeeScalar": "0x8dd",
      "l1BlobBaseFee": "0x3889fd",
      "l1BlobBaseFeeScalar": "0x101c12",
      "l1Fee": "0x39a1ce8e",
      "l1GasPrice": "0x3822e71",
      "l1GasUsed": "0x640"
    }
  ],
  "libraries": [],
  "pending": [],
  "returns": {},
  "timestamp": 1774484882405,
  "chain": 8453,
  "commit": "807c70e"
}