{
  "transactions": [
    {
      "hash": "0x279e6c45aab035042e602ada0146f5a0f44ca1bd8fe55d5d7cbbd9373ed177ff",
      "transactionType": "CREATE",
      "contractName": "LeftClawServicesV2",
      "contractAddress": "0x62b0afe36fc110011a0f4fb1a146b8f0f7c12fbf",
      "function": null,
      "arguments": [
        "0x9f86dB9fc6f7c9408e8Fda3Ff8ce4e78ac7a6b07",
        "0x833589fCD6eDb6E08f4c7C32D4f71b54bdA02913",
        "0x2626664c2603336E57B271c5C0b26F421741e481",
        "0x4200000000000000000000000000000000000006",
        "0x90eF2A9211A3E7CE788561E5af54C76B0Fa3aEd0"
      ],
      "transaction": {
        "from": "0x845e8c808e22469aaf07ace9ab7d26c875fbe44f",
        "gas": "0x5def9a",
        "value": "0x0",
        "input": "0x61010080604052346105615760a08161552a80380380916100208285610565565b8339810103126105615761003381610588565b61003f60208301610588565b9161004c60408201610588565b610064608061005d60608501610588565b9301610588565b331561054e575f8054336001600160a01b0319821681178355916001600160a01b03909116907f8be0079c531659141344cd1fd0a4f28419497f9722a3daafe3b4186f6b6457e09080a360017f9b779b17422d0df92223018b32b4d1fa46e071723d6817e2486d003becc55f00556001600160a01b038416918215158061053c575b6100ef9061059c565b6001600160a01b0316908115158061052a575b61010b9061059c565b6001600160a01b03169182156104f9576080526001600160a01b03851660a05260c05260e0829052600880546001600160a01b031916919091179055600160028190556004556040516001600160601b0319606094851b81166020830152607d60ea1b603483015291841b82166037820181905261027160ec1b604b8301529290931b16604e8301819052604283526101a5606284610565565b82516001600160401b0381116103ff57600954600181811c911680156104ef575b60208210146103e157601f8111610481575b506020601f821160011461041e57819293945f92610413575b50508160011b915f199060031b1c1916176009555b60405191602083015261027160ec1b60348301526037820152602b815261022e604b82610565565b80516001600160401b0381116103ff57600a54600181811c911680156103f5575b60208210146103e157601f8111610373575b50602091601f8211600114610313579181925f92610308575b50508160011b915f199060031b1c191617600a555b604051614f5990816105d1823960805181818161025901528181610c5c01528181611c7f015281816126a5015281816133e0015281816139fe0152613e28015260a0518181816128650152613daf015260c051818181611e67015281816124340152612899015260e051818181611e060152612e540152f35b015190505f8061027a565b601f19821692600a5f52805f20915f5b85811061035b57508360019510610343575b505050811b01600a5561028f565b01515f1960f88460031b161c191690555f8080610335565b91926020600181928685015181550194019201610323565b8181111561026157600a5f52601f820160051c7fc65a7bb8d6351c1cf70c95a316cc6a92839c986682d98bc35f958f4883f9d2a8602084106103d9575b81601f9101920160051c03905f5b8281106103cc575050610261565b5f828201556001016103be565b5f91506103b0565b634e487b7160e01b5f52602260045260245ffd5b90607f169061024f565b634e487b7160e01b5f52604160045260245ffd5b015190505f806101f1565b601f1982169060095f52805f20915f5b81811061046957509583600195969710610451575b505050811b01600955610206565b01515f1960f88460031b161c191690555f8080610443565b9192602060018192868b01518155019401920161042e565b818111156101d85760095f52601f820160051c7f6e1540171b6c0c960b71a7020d9f60077f6af931a8bbf590da0223dacf75c7af602084106104e7575b81601f9101920160051c03905f5b8281106104da5750506101d8565b5f828201556001016104cc565b5f91506104be565b90607f16906101c6565b60405162461bcd60e51b815260206004820152600960248201526821747265617375727960b81b6044820152606490fd5b506001600160a01b0384161515610102565b506001600160a01b03861615156100e6565b631e4fbdf760e01b5f525f60045260245ffd5b5f80fd5b601f909101601f19168101906001600160401b038211908210176103ff57604052565b51906001600160a01b038216820361056157565b156105a357565b60405162461bcd60e51b815260206004820152600560248201526410b0b2323960d91b6044820152606490fdfe6080604052600436101561001a575b3615610018575f80fd5b005b5f3560e01c80630644100b14614232578063111b9a4714613dde57806311eac85514613d9a5780631321c95e14613cd4578063153c651914613bcc578063180aedf314613a585780631dffa3dc1461393257806321e92a5d146134b357806325b86edf146133515780632df50a2114613217578063347ba9a614612ec05780633aee799614612e835780633fc8cef314612e3f5780634ba43c2d146128125780634c3912e71461275757806361d027b31461272f57806363b2f3c91461256e578063690d8320146124a7578063715018a614612463578063735de9f71461241f5780637507f8b614611dd7578063806ad57e14611cd55780638da5cb5b14611cae57806390111b0d14611c6a578063980db6f414611ae9578063a65c61f7146119a5578063aa15664514611978578063b0c2aa5e1461195b578063b618d5a714611886578063be38eaff14611869578063bf22c457146115af578063c1499f7114611504578063c4f987a5146114db578063c5d1853714611407578063cf216ee214611047578063d15190981461102a578063d190508f14610e47578063d87dac2914610dd3578063dd8f7d1b14610cf1578063df5af13f14610cbe578063e0d1efc814610b6f578063f0f4426014610b02578063f1a22dc214610ac0578063f2fde38b14610a4e578063f573453f146106e15763ff49a4460361000e57346106dd576102263661448c565b92610232929192614bf6565b610246670de0b6b3a76400008210156146b4565b610251841515614680565b61027d8130337f0000000000000000000000000000000000000000000000000000000000000000614cfc565b6102c56004549361028d85614a66565b600455826106c9575b604051956102a3876142d6565b8587523360208801525f60408801528360608801528460808801523691614b8a565b60a08501525f60c08501524260e08501525f6101008501525f6101208501526020936040516102f486826142f2565b5f80825261014083019190915261016082018190526101808201525f6101a08201525f6101c082015260405161032a86826142f2565b5f8082526101e083019190915284815260038087526040918290208351815560208401516001820180546001600160a01b0319166001600160a01b03929092169190911790559183015160028301556060830151908201556080820151600482015560a0820151805160058301916001600160401b0382116105ef576103ba826103b4855461424d565b856148c1565b8890601f8311600114610666576103db92915f9183610581575b5050614905565b90555b60c0820151600581101561056d576103f99060068301614763565b60e08201516007820155610100820151600882015561012082015160098201556101408201518051600a8301916001600160401b0382116105ef57610442826103b4855461424d565b8890601f83116001146106035761046292915f9183610581575050614905565b90555b610160820151600b820180546001600160a01b0319166001600160a01b03929092169190911781556101808301519091906104a2901515836149b1565b6101a083015190600482101561056d57825460ff60a81b191660a89290921b60ff60a81b16919091179091556101c0820151600c8201556101e091909101518051600d9290920191906001600160401b0382116105ef57610507826103b4855461424d565b8690601f831160011461058c5761052792915f9183610581575050614905565b90555b604080515f8152948501919091528301525f60608301525f60808301525f516020614f045f395f51905f5260a03393a360015f516020614ee45f395f51905f5255005b634e487b7160e01b5f52602160045260245ffd5b015190505f806103d4565b90601f19831691845f52885f20925f5b8a8282106105d95750509084600195949392106105c1575b505050811b01905561052a565b01515f1960f88460031b161c191690555f80806105b4565b600185968293968601518155019501930161059c565b634e487b7160e01b5f52604160045260245ffd5b90601f19831691845f528a5f20925f5b8c828210610650575050908460019594939210610638575b505050811b019055610465565b01515f1960f88460031b161c191690555f808061062b565b6001859682939686015181550195019301610613565b90601f19831691845f528a5f20925f5b8c8282106106b357505090846001959493921061069b575b505050811b0190556103de565b01515f1960f88460031b161c191690555f808061068e565b6001859682939686015181550195019301610676565b6106d58360075461481e565b600755610296565b5f80fd5b346106dd5760603660031901126106dd576004356024356001600160401b0381116106dd5761071490369060040161445f565b916044356001600160401b0381116106dd5761073490369060040161445f565b929061073e614bf6565b600554935f805b868110610a14575b5061075c91929394955061497b565b835f52600360205260405f20610774815415156146fd565b60ff600682015416600581101561056d5760016107919114614bc0565b85151580610a08575b156109db5781610921575b505050815f52600660205260405f20604051906107c182614285565b6107cc368685614b8a565b825260208201904282528054600160401b8110156105ef576107f39160018201815561463b565b92909261090e57518051906001600160401b0382116105ef576108208261081a865461424d565b866148c1565b602090601f831160011461089657926108588361087596946001945f516020614e645f395f51905f5299975f9261088b575050614905565b83555b519101556040519182916020835233966020840191614917565b0390a360015f516020614ee45f395f51905f5255005b015190508b806103d4565b90601f19831691855f52815f20925f5b8181106108f65750936001935f516020614e645f395f51905f529896938593836108759a98106108de575b505050811b01835561085b565b01515f1960f88460031b161c191690558a80806108d1565b929360206001819287860151815501950193016108a6565b634e487b7160e01b5f525f60045260245ffd5b600d01916001600160401b0382116105ef57610941826103b4855461424d565b5f90601f83116001146109775761096192915f918361096c575050614905565b90555b8380806107a5565b0135905087806103d4565b601f19831691845f5260205f20925f5b8181106109c357509084600195949392106109aa575b505050811b019055610964565b01355f19600384901b60f8161c1916905586808061099d565b91936020600181928787013581550195019201610987565b60405162461bcd60e51b8152602060048201526005602482015264216e6f746560d81b6044820152606490fd5b506101f486111561079a565b610a1d81614668565b905460039190911b1c6001600160a01b03163314610a3d57600101610745565b50939450849350600161075c61074d565b346106dd5760203660031901126106dd57610a67614596565b610a6f614dbd565b6001600160a01b03168015610aad575f80546001600160a01b03198116831782556001600160a01b0316905f516020614e845f395f51905f529080a3005b631e4fbdf760e01b5f525f60045260245ffd5b346106dd5760203660031901126106dd576004356005548110156106dd57610ae9602091614668565b905460405160039290921b1c6001600160a01b03168152f35b346106dd5760203660031901126106dd57610b1b614596565b610b23614dbd565b6001600160a01b0316610b37811515614788565b600880546001600160a01b031916821790557f7dae230f18360d76a040c81f050aa14eb9d6dc7901b20fc5d855e2a20fe814d15f80a2005b346106dd5760203660031901126106dd57600435610b8b614bf6565b6005545f805b828110610c87575b50610ba4915061497b565b805f52600360205260405f20610bbc815415156146fd565b6006810160ff815416600581101561056d57610bd8901561472f565b600360ff198254161790556003810180549081610c37575b5050600101546001600160a01b0316907fd2762ab9963f262989c416c26fa7505667e4b4fe26af9ef39804a21b3ce261795f80a360015f516020614ee45f395f51905f5255005b610c46610c809260075461477b565b60075560018301549054906001600160a01b03167f0000000000000000000000000000000000000000000000000000000000000000614d65565b8280610bf0565b610c9081614668565b905460039190911b1c6001600160a01b03163314610cb057600101610b91565b505050610ba4600183610b99565b346106dd575f3660031901126106dd57610ced610cd96143b9565b60405191829160208352602083019061443b565b0390f35b346106dd5760203660031901126106dd576004356005811015806106dd576004545f60015b828110610d8e5750610d2790614a74565b915f60015b838110610d415760405180610ced87826144c2565b8083915f52600360205260ff600660405f200154169161056d57600582101561056d578660019214610d74575b01610d2c565b80610d88610d8185614a66565b948861482b565b52610d6e565b805f5260036020528360ff600660405f200154169061056d57600581101561056d578514610dbf575b600101610d16565b90610dcb600191614a66565b919050610db7565b346106dd5760403660031901126106dd576024356004355f52600660205260405f2080548210156106dd57610e3d91610e0b9161463b565b50600160405191610e2783610e2081846144fb565b03846142f2565b015460405192839260408452604084019061443b565b9060208301520390f35b346106dd57610e553661460c565b91610e5e614bf6565b600554915f805b848110610ff0575b50610e7a9192935061497b565b815f52600360205260405f20610e92815415156146fd565b6006810160ff815416600581101561056d576001610eb09114614bc0565b8415610fc157805460ff19166002179055600a81016001600160401b0385116105ef57610ee785610ee1835461424d565b836148c1565b845f601f8211600114610f455791610f1b8261087595935f516020614de45f395f51905f5297955f91610f3a575b50614905565b90555b6009429101556040519182916020835233966020840191614917565b90508501358a610f15565b5f8381526020812092508790601f198216905b818110610fa65750916108759593915f516020614de45f395f51905f5297959310610f8d575b5050600187811b019055610f1e565b8401355f1960038a901b60f8161c191690558780610f7e565b8784013585556001909401936020938401938a935001610f58565b60405162461bcd60e51b8152602060048201526007602482015266085c995cdd5b1d60ca1b6044820152606490fd5b610ff981614668565b905460039190911b1c6001600160a01b0316331461101957600101610e65565b509192508291506001610e7a610e6d565b346106dd575f3660031901126106dd576020600254604051908152f35b346106dd5760803660031901126106dd576004356001600160401b0381116106dd5761107790369060040161445f565b6024356001600160401b0381116106dd5761109690369060040161445f565b929091604435936064356110a8614dbd565b821515806113fe575b156113d1576020956110c4821515614871565b600254956110d187614a66565b600255604051936110e1856142a0565b8785526110ef368789614b8a565b94898101958652611101368385614b8a565b604082019081526060820185815260808301918783526040986561637469766560d01b8a519e8f6111328d826142f2565b60068152015260a085019d8e528c5f526001602052895f209451855560018501905180519060018060401b0382116105ef57611172826103b4855461424d565b602090601f831160011461136e5761119392915f9183610581575050614905565b90555b51805160028501916001600160401b0382116105ef576111ba826103b4855461424d565b602090601f83116001146113055791806111e292600598979695945f92610581575050614905565b90555b51600383015551600482015501985198895160018060401b0381116105ef5761121881611212845461424d565b846148c1565b6020601f821160011461128e57816112759594939261124e925f516020614ea45f395f51905f529d9e5f92611283575050614905565b90555b611267865198899860808a5260808a0191614917565b918783036020890152614917565b9284015260608301520390a2005b015190508e806103d4565b601f19821690835f52805f20915f5b8181106112ed57509183915f516020614ea45f395f51905f529d9e61127598979695600195106112d5575b505050811b019055611251565b01515f1960f88460031b161c191690558d80806112c8565b8e83015184556001909301926020928301920161129d565b90601f19831691845f52815f20925f5b818110611356575091600193918560059a99989796941061133e575b505050811b0190556111e5565b01515f1960f88460031b161c191690555f8080611331565b92936020600181928786015181550195019301611315565b90601f19831691845f52815f20925f5b8181106113b957509084600195949392106113a1575b505050811b019055611196565b01515f1960f88460031b161c191690555f8080611394565b9293602060018192878601518155019501930161137e565b60405162461bcd60e51b8152602060048201526005602482015264216e616d6560d81b6044820152606490fd5b508115156110b1565b346106dd5760203660031901126106dd576004356114236147ee565b50801515806114d0575b6114369061483f565b5f526001602052610ced60405f2060056114b760405192611456846142a0565b805484526040516114758161146e81600186016144fb565b03826142f2565b602085015260405161148e8161146e81600286016144fb565b6040850152600381015460608501526004810154608085015261146e60405180948193016144fb565b60a08201526040519182916020835260208301906145ac565b50600254811061142d565b346106dd5760203660031901126106dd576100186114f7614596565b6114ff614dbd565b614ab2565b346106dd575f3660031901126106dd576040518060206005549283815201809260055f5260205f20905f5b81811061159057505050816115459103826142f2565b604051918291602083019060208452518091526040830191905f5b81811061156e575050500390f35b82516001600160a01b0316845285945060209384019390920191600101611560565b82546001600160a01b031684526020909301926001928301920161152f565b346106dd5760203660031901126106dd5760043560606101e06040516115d4816142d6565b5f81525f60208201525f60408201525f838201525f60808201528260a08201525f60c08201525f60e08201525f6101008201525f610120820152826101408201525f6101608201525f6101808201525f6101a08201525f6101c08201520152805f52600360205261164a60405f205415156146fd565b5f52600360205260405f20604051611661816142d6565b8154815260018201546001600160a01b0316602082015260028201546040808301919091526003830154606083015260048301546080830152516116ac8161146e81600587016144fb565b60a082015260ff60068301541691600583101561056d5761175f600d91610ced9460c0850152600781015460e0850152600881015461010085015260098101546101208501526040516117068161146e81600a86016144fb565b610140850152600b8101546001600160a01b03811661016086015260ff60a082901c811615156101808701526117449160a81c166101a08601614aa6565b600c8101546101c085015261146e60405180948193016144fb565b6101e0820152604051918291602083528051602084015260018060a01b0360208201511660408401526040810151606084015260608101516080840152608081015160a08401526101e06118146117c760a084015161020060c088015261022087019061443b565b6117d960c085015160e088019061457c565b60e0840151610100870152610100840151610120870152610120840151610140870152610140840151601f198783030161016088015261443b565b9160018060a01b036101608201511661018086015261018081015115156101a086015261184b6101a08201516101c0870190614589565b6101c0810151858301520151838203601f190161020085015261443b565b346106dd575f3660031901126106dd576020600754604051908152f35b346106dd5760203660031901126106dd5761189f614596565b6004546001600160a01b03909116905f60015b82811061191e57506118c390614a74565b915f9060015b8381106118de5760405180610ced87826144c2565b806001915f52600360205282828060a01b038360405f2001541614611904575b016118c9565b8061191861191186614a66565b958861482b565b526118fe565b5f818152600360205260409020600101546001600160a01b03168414611947575b6001016118b2565b90611953600191614a66565b91905061193f565b346106dd575f3660031901126106dd576020600454604051908152f35b346106dd5760203660031901126106dd57602061199b611996614596565b614a1d565b6040519015158152f35b346106dd5760203660031901126106dd576004356001600160401b0381116106dd576119d590369060040161445f565b6119dd614dbd565b6119ea60178210156149e9565b6001600160401b0381116105ef57611a03600a5461424d565b601f8111611a9b575b505f601f8211600114611a3c578190611a2c935f92611a31575050614905565b600a55005b0135905083806103d4565b601f19821692600a5f5260205f20915f5b858110611a8357508360019510611a6a575b505050811b01600a55005b01355f19600384901b60f8161c19169055828080611a5f565b90926020600181928686013581550194019101611a4d565b81811115611a0c57600a5f52611adb905f516020614e245f395f51905f5290601f840160051c9060208510611ae1575b601f82910160051c0391016148a6565b82611a0c565b5f9150611acb565b346106dd5760203660031901126106dd576004356001600160401b0381116106dd57611b1990369060040161445f565b90611b22614dbd565b611b2f602b8310156149e9565b6001600160401b0382116105ef57611b4860095461424d565b601f8111611c25575b505f91601f8111600114611baa57611b7f81805f516020614e045f395f51905f52955f91611b9f5750614905565b6009555b611b9a604051928392602084526020840191614917565b0390a1005b905084013586610f15565b60095f908152601f198216935f516020614ec45f395f51905f52915b858110611c0d5750825f516020614e045f395f51905f529510611bf4575b5050600181811b01600955611b83565b8301355f19600384901b60f8161c191690558380611be4565b90916020600181928588013581550193019101611bc6565b82811115611b515760095f52611c64905f516020614ec45f395f51905f5290601f850160051c9060208610611ae157601f82910160051c0391016148a6565b82611b51565b346106dd575f3660031901126106dd576040517f00000000000000000000000000000000000000000000000000000000000000006001600160a01b03168152602090f35b346106dd575f3660031901126106dd575f546040516001600160a01b039091168152602090f35b346106dd5760203660031901126106dd57611cee614596565b611cf6614dbd565b6001600160a01b03811690611d0c821515614788565b600554905f5b828110611d835750600160401b8210156105ef57611d39826001611d5d9401600555614668565b9080546001600160a01b0360039390931b83811b199091169290931690921b179055565b7fb10d2a24a8c3686841e966f0c2c64c385cfaecb50a09b16aa3579bfcf3989dcd5f80a2005b83611d8d82614668565b905460039190911b1c6001600160a01b031614611dac57600101611d12565b606460405162461bcd60e51b81526020600482015260046024820152630216475760e41b6044820152fd5b611de03661460c565b611de8614bf6565b611df183614c2e565b5090611dfe811515614680565b34156123f4577f00000000000000000000000000000000000000000000000000000000000000006001600160a01b031690813b156106dd57604051630d0e30db60e41b81525f8160048134875af1801561239c576123e4575b5060405163095ea7b360e01b81527f00000000000000000000000000000000000000000000000000000000000000006001600160a01b03166004820181905234602483015292602090829060449082905f905af1801561239c576123a7575b506020611f025f93604051611eca816142bb565b611ed2614315565b815230848201523460408201526001606082015260405195868094819363b858183f60e01b835260048301614937565b03925af191821561239c575f92612368575b50611f5d60045494611f2586614a66565b60045583612354575b60405192611f3b846142d6565b8684523360208501528760408501528460608501528560808501523691614b8a565b60a08201525f60c08201524260e08201525f6101008201525f610120820152602090604051611f8c83826142f2565b5f808252610140830191909152610160820181905261018082015260026101a08201525f6101c0820152604051611fc383826142f2565b5f8082526101e083019190915285815260038084526040918290208351815560208401516001820180546001600160a01b0319166001600160a01b03929092169190911790559183015160028301556060830151908201556080820151600482015560a08201518051906001600160401b0382116105ef576120558261204c600586015461424d565b600586016148c1565b8490601f83116001146122e75761207592915f91836122dc575050614905565b60058201555b60c0820151600581101561056d576120969060068301614763565b60e08201516007820155610100820151600882015561012082015160098201556101408201518051600a8301916001600160401b0382116105ef576120df826103b4855461424d565b8590601f8311600114612279576120ff92915f918361088b575050614905565b90555b610160820151600b820180546001600160a01b0319166001600160a01b039290921691909117815561018083015190919061213f901515836149b1565b6101a083015190600482101561056d57825460ff60a81b191660a89290921b60ff60a81b16919091179091556101c0820151600c8201556101e091909101518051600d9290920191906001600160401b0382116105ef576121a4826103b4855461424d565b8390601f8311600114612216576121c492915f918361220b575050614905565b90555b6040805195865290850191909152830152600260608301525f60808301525f516020614f045f395f51905f5260a03393a360015f516020614ee45f395f51905f5255005b0151905089806103d4565b90601f19831691845f52855f20925f5b8782821061226357505090846001959493921061224b575b505050811b0190556121c7565b01515f1960f88460031b161c1916905588808061223e565b6001859682939686015181550195019301612226565b90601f19831691845f52875f20925f5b898282106122c65750509084600195949392106122ae575b505050811b019055612102565b01515f1960f88460031b161c191690558a80806122a1565b6001859682939686015181550195019301612289565b015190508a806103d4565b9190600584015f52855f20905f935b87601f198516861061233b57506001945083601f19811610612323575b505050811b01600582015561207b565b01515f1960f88460031b161c19169055898080612313565b82820151845594850194600190930192909101906122f6565b6123608460075461481e565b600755611f2e565b9091506020813d602011612394575b81612384602093836142f2565b810103126106dd57519085611f14565b3d9150612377565b6040513d5f823e3d90fd5b6020813d6020116123dc575b816123c0602093836142f2565b810103126106dd57519182151583036106dd5791506020611eb6565b3d91506123b3565b5f6123ee916142f2565b85611e57565b606460405162461bcd60e51b8152602060048201526004602482015263042cae8d60e31b6044820152fd5b346106dd575f3660031901126106dd576040517f00000000000000000000000000000000000000000000000000000000000000006001600160a01b03168152602090f35b346106dd575f3660031901126106dd5761247b614dbd565b5f80546001600160a01b0319811682556001600160a01b03165f516020614e845f395f51905f528280a3005b346106dd5760203660031901126106dd576004356001600160a01b038116908190036106dd575f808080936124da614dbd565b6124e2614bf6565b6124ed811515614788565b47906124fa8215156147bc565b5af13d15612569573d61250c816149ce565b9061251a60405192836142f2565b81525f60203d92013e5b1561253c5760015f516020614ee45f395f51905f5255005b60405162461bcd60e51b8152602060048201526005602482015264085cd95b9960da1b6044820152606490fd5b612524565b346106dd5760203660031901126106dd5760043561258a614bf6565b6005545f805b8281106126f8575b506125a3915061497b565b805f52600360205260405f206125bb815415156146fd565b6006810160ff815416600581101561056d576125d7901561472f565b805460ff19166001179055600b810180546001600160a01b03191633178155426008830155600d8201805491926003929091906126139061424d565b601f81116126d1575b506010671858d8d95c1d195960c21b0190550180549182612671575b33847f4426e4a90a9570c8f678a263b11785eaaade8b79d76d18c43d4d8e00062e4f835f80a360015f516020614ee45f395f51905f5255005b6126806126c99360075461477b565b600755805460ff60a01b1916600160a01b1790556008549054906001600160a01b03167f0000000000000000000000000000000000000000000000000000000000000000614d65565b818080612638565b600881111561261c576126f290825f52601f60205f20910160051c906148a6565b8561261c565b61270181614668565b905460039190911b1c6001600160a01b0316331461272157600101612590565b5050506125a3600183612598565b346106dd575f3660031901126106dd576008546040516001600160a01b039091168152602090f35b346106dd5760203660031901126106dd576004355f52600160205260405f208054610ced604051926127978461279081600185016144fb565b03856142f2565b6005604051916127ae83610e2081600285016144fb565b6127fa6003820154936127d060048401549361279060405180978193016144fb565b6127ec604051988998895260c060208a015260c089019061443b565b90878203604089015261443b565b926060860152608085015283820360a085015261443b565b346106dd5760603660031901126106dd576004356024356001600160401b0381116106dd5761284590369060040161445f565b61284d614bf6565b61285683614c2e565b5090612863811515614680565b7f000000000000000000000000000000000000000000000000000000000000000061289083303384614cfc565b60018060a01b037f0000000000000000000000000000000000000000000000000000000000000000169060405163095ea7b360e01b5f52826004528460245260205f60448180865af19060015f5114821615612e30575b60405215612d6d575b5090602061293e5f93604051612905816142bb565b61290d6143b9565b81523084820152866040820152604435606082015260405195868094819363b858183f60e01b835260048301614937565b03925af191821561239c575f92612d39575b5061296160045494611f2586614a66565b60a08201525f60c08201524260e08201525f6101008201525f61012082015260209060405161299083826142f2565b5f808252610140830191909152610160820181905261018082015260016101a08201525f6101c08201526040516129c783826142f2565b5f8082526101e083019190915285815260038084526040918290208351815560208401516001820180546001600160a01b0319166001600160a01b03929092169190911790559183015160028301556060830151908201556080820151600482015560a08201518051906001600160401b0382116105ef57612a508261204c600586015461424d565b8490601f8311600114612ccc57612a7092915f91836122dc575050614905565b60058201555b60c0820151600581101561056d57612a919060068301614763565b60e08201516007820155610100820151600882015561012082015160098201556101408201518051600a8301916001600160401b0382116105ef57612ada826103b4855461424d565b8590601f8311600114612c6957612afa92915f918361088b575050614905565b90555b610160820151600b820180546001600160a01b0319166001600160a01b0392909216919091178155610180830151909190612b3a901515836149b1565b6101a083015190600482101561056d57825460ff60a81b191660a89290921b60ff60a81b16919091179091556101c0820151600c8201556101e091909101518051600d9290920191906001600160401b0382116105ef57612b9f826103b4855461424d565b8390601f8311600114612c0657612bbf92915f918361220b575050614905565b90555b6040805195865290850191909152830152600160608301525f60808301525f516020614f045f395f51905f5260a03393a360015f516020614ee45f395f51905f5255005b90601f19831691845f52855f20925f5b87828210612c53575050908460019594939210612c3b575b505050811b019055612bc2565b01515f1960f88460031b161c19169055888080612c2e565b6001859682939686015181550195019301612c16565b90601f19831691845f52875f20925f5b89828210612cb6575050908460019594939210612c9e575b505050811b019055612afd565b01515f1960f88460031b161c191690558a8080612c91565b6001859682939686015181550195019301612c79565b9190600584015f52855f20905f935b87601f1985168610612d2057506001945083601f19811610612d08575b505050811b016005820155612a76565b01515f1960f88460031b161c19169055898080612cf8565b8282015184559485019460019093019290910190612cdb565b9091506020813d602011612d65575b81612d55602093836142f2565b810103126106dd57519085612950565b3d9150612d48565b60405163095ea7b360e01b5f52826004525f60245260205f60448180865af19060015f5114821615612e18575b60405215612dd75760405163095ea7b360e01b5f52826004528460245260205f60448180865af19060015f5114821615612df7575b6040526128f0575b635274afe760e01b5f9081526001600160a01b0391909116600452602490fd5b906001811516612e0f57823b15153d15161690612dcf565b503d5f823e3d90fd5b906001811516612e0f57823b15153d15161690612d9a565b90823b15153d151616906128e7565b346106dd575f3660031901126106dd576040517f00000000000000000000000000000000000000000000000000000000000000006001600160a01b03168152602090f35b346106dd575f3660031901126106dd576004545f198101908111612eac57602090604051908152f35b634e487b7160e01b5f52601160045260245ffd5b346106dd5760c03660031901126106dd576004356024356001600160401b0381116106dd57612ef390369060040161445f565b91906044356001600160401b0381116106dd57612f1490369060040161445f565b93906064359060843560a4356001600160401b0381116106dd57612f3c90369060040161445f565b929097612f47614dbd565b8715158061320c575b612f599061483f565b612f64831515614871565b875f52600160205260405f206001810160018060401b0388116105ef57612f8f88610ee1835461424d565b5f88601f81116001146131a85780612fad925f9161319d5750614905565b90555b60028101906001600160401b0383116105ef57612fd183611212845461424d565b5f9183601f81116001146131345780612ff3916005955f916131295750614905565b90555b6003810187905560048101859055016001600160401b0385116105ef5761302185610ee1835461424d565b5f601f86116001146130ab57928594926130839261305b8761309b9a995f516020614e445f395f51905f529e9f985f916130a05750614905565b90555b6130756040519a8b9a60a08c5260a08c0191614917565b9189830360208b0152614917565b93604087015260608601528483036080860152614917565b0390a2005b90508801355f610f15565b601f19861690825f5260205f20915f5b8181106131115750925f516020614e445f395f51905f529b9c95928897959261309b9a9961308396106130f8575b5050600187811b01905561305e565b8701355f1960038a901b60f8161c191690558d806130e9565b8d8301358455600190930192602092830192016130bb565b90508701358f610f15565b505f81815260208120909385601f1981165b80871061317f576005965010613166575b5050600184811b019055612ff6565b8601355f19600387901b60f8161c191690558c80613157565b88830135845560209687019660019094019390920191879150613146565b90508b01358e610f15565b50601f19891690825f528960205f20925f5b8d8282106131f2575050106131d9575b5050600188811b019055612fb0565b8a01355f1960038b901b60f8161c191690558b806131ca565b84013585556001909401936020938401938d9350016131ba565b506002548810612f50565b346106dd575f3660031901126106dd576002545f198101908111612eac5761323e816146e6565b9061324c60405192836142f2565b808252601f1961325b826146e6565b015f5b81811061333a5750505f5b8181106132d757826040518091602082016020835281518091526040830190602060408260051b8601019301915f905b8282106132a857505050500390f35b919360019193955060206132c78192603f198a820301865288516145ac565b9601920192018594939192613299565b6001810190818111612eac576001915f528160205260405f20600561331960405192613302846142a0565b805484526040516114758161146e818a86016144fb565b60a0820152613328828661482b565b52613333818561482b565b5001613269565b6020906133456147ee565b8282870101520161325e565b346106dd5760403660031901126106dd5761336a614596565b602435906001600160a01b0382168083036106dd5761339a9061338b614dbd565b613393614bf6565b1515614788565b6040516370a0823160e01b8152306004820152916001600160a01b039190911690602083602481855afa92831561239c575f9361347f575b506133de8315156147bc565b7f00000000000000000000000000000000000000000000000000000000000000006001600160a01b031682036134705760075492838111156134405761342d936134279161477b565b91614d65565b60015f516020614ee45f395f51905f5255005b60405162461bcd60e51b815260206004820152600860248201526721737572706c757360c01b6044820152606490fd5b61347a9291614d65565b61342d565b9092506020813d6020116134ab575b8161349b602093836142f2565b810103126106dd575191836133d2565b3d915061348e565b346106dd576134c13661448c565b6134cc929192614bf6565b6134d584614c2e565b50906134e2811515614680565b82156139075761352a600454946134f886614a66565b60045560405192613508846142d6565b8684523360208501528760408501525f60608501528460808501523691614b8a565b60a08201525f60c08201524260e08201525f6101008201525f61012082015260209060405161355983826142f2565b5f808252610140830191909152610160820181905261018082015260036101a0820152836101c082015260405161359083826142f2565b5f8082526101e083019190915285815260038084526040918290208351815560208401516001820180546001600160a01b0319166001600160a01b03929092169190911790559183015160028301556060830151908201556080820151600482015560a08201518051906001600160401b0382116105ef576136198261204c600586015461424d565b8490601f831160011461389a5761363992915f91836122dc575050614905565b60058201555b60c0820151600581101561056d5761365a9060068301614763565b60e08201516007820155610100820151600882015561012082015160098201556101408201518051600a8301916001600160401b0382116105ef576136a3826103b4855461424d565b8590601f8311600114613837576136c392915f918361088b575050614905565b90555b610160820151600b820180546001600160a01b0319166001600160a01b0392909216919091178155610180830151909190613703901515836149b1565b6101a083015190600482101561056d57825460ff60a81b191660a89290921b60ff60a81b16919091179091556101c0820151600c8201556101e091909101518051600d9290920191906001600160401b0382116105ef57613768826103b4855461424d565b8390601f83116001146137d257918061378c925f96959487926122dc575050614905565b90555b60408051968752908601919091528401526003606084015260808301525f516020614f045f395f51905f5260a03393a360015f516020614ee45f395f51905f5255005b90601f19831691845f52855f20925f5b81811061382057509160019391855f9897969410613808575b505050811b01905561378f565b0151861960f88460031b161c191690558980806137fb565b9293876001819287860151815501950193016137e2565b90601f19831691845f52875f20925f5b8982821061388457505090846001959493921061386c575b505050811b0190556136c6565b01515f1960f88460031b161c191690558a808061385f565b6001859682939686015181550195019301613847565b9190600584015f52855f20905f935b87601f19851686106138ee57506001945083601f198116106138d6575b505050811b01600582015561363f565b01515f1960f88460031b161c191690558980806138c6565b82820151845594850194600190930192909101906138a9565b60405162461bcd60e51b815260206004820152600360248201526210b1bb60e91b6044820152606490fd5b346106dd5760203660031901126106dd5760043561394e614bf6565b805f52600360205260405f20613966815415156146fd565b60018101546001600160a01b03163303613a2957600681019060ff82541691600583101561056d5761399a6003931561472f565b805460ff1916600417905501805490816139e8575b33837ff1ab0865975dad5c69ae8e4baaf13114c875728afa7cc86368534c22a631d0b05f80a360015f516020614ee45f395f51905f5255005b6139f7613a229260075461477b565b60075554337f0000000000000000000000000000000000000000000000000000000000000000614d65565b81806139af565b60405162461bcd60e51b81526020600482015260076024820152660858db1a595b9d60ca1b6044820152606490fd5b346106dd5760203660031901126106dd576004355f52600360205260405f208054600160a01b60019003600183015416916002810154600382015490600483015460405180806005870190613aac916144fb565b03613ab790826142f2565b600685015460ff16906007860154600887015490600988015492604051958680600a8c0190613ae5916144fb565b03613af090886142f2565b600b8a015498600c8b01549860405180600d819e0190613b0f916144fb565b03613b1a908d6142f2565b6040519d8e809e81526020015260408d015260608c015260808b015260a08a0161020090526102008a01613b4d9161443b565b9360c08a01613b5b9161457c565b60e0890152610100880152610120870152858103610140870152613b7e9161443b565b6001600160a01b03831661016086015260ff60a084901c811615156101808701529092613bb4916101a087019160a81c16614589565b6101c08401528281036101e0840152610ced9161443b565b346106dd5760203660031901126106dd576004355f52600660205260405f20805490613bf7826146e6565b91613c0560405193846142f2565b8083526020830180925f5260205f205f915b838310613c9857848660405191829160208301906020845251809152604083019060408160051b85010192915f905b828210613c5557505050500390f35b919360019193955060208091603f198982030185528751908280613c82845160408552604085019061443b565b9301519101529601920192018594939192613c46565b60026020600192604051613cab81614285565b604051613cbc8161146e818a6144fb565b81528486015483820152815201920192019190613c17565b346106dd575f3660031901126106dd576004545f60015b828110613d5c5750613cfc90614a74565b5f9160015b818110613d165760405180610ced85826144c2565b805f52600360205260ff600660405f2001541690600582101561056d5760019115613d42575b01613d01565b80613d56613d4f87614a66565b968661482b565b52613d3c565b805f52600360205260ff600660405f20015416600581101561056d5715613d86575b600101613ceb565b90613d92600191614a66565b919050613d7e565b346106dd575f3660031901126106dd576040517f00000000000000000000000000000000000000000000000000000000000000006001600160a01b03168152602090f35b346106dd57613dec3661448c565b9091613df6614bf6565b613dff84614c2e565b5091613e0c811515614680565b613e20670de0b6b3a76400008310156146b4565b613e4c8230337f0000000000000000000000000000000000000000000000000000000000000000614cfc565b613e5c60045494611f2586614a66565b60a08201525f60c08201524260e08201525f6101008201525f610120820152602090604051613e8b83826142f2565b5f80825261014083019190915261016082018190526101808201525f6101a08201525f6101c0820152604051613ec183826142f2565b5f8082526101e083019190915285815260038084526040918290208351815560208401516001820180546001600160a01b0319166001600160a01b03929092169190911790559183015160028301556060830151908201556080820151600482015560a08201518051906001600160401b0382116105ef57613f4a8261204c600586015461424d565b8490601f83116001146141c557613f6a92915f91836122dc575050614905565b60058201555b60c0820151600581101561056d57613f8b9060068301614763565b60e08201516007820155610100820151600882015561012082015160098201556101408201518051600a8301916001600160401b0382116105ef57613fd4826103b4855461424d565b8590601f831160011461416257613ff492915f918361088b575050614905565b90555b610160820151600b820180546001600160a01b0319166001600160a01b0392909216919091178155610180830151909190614034901515836149b1565b6101a083015190600482101561056d57825460ff60a81b191660a89290921b60ff60a81b16919091179091556101c0820151600c8201556101e091909101518051600d9290920191906001600160401b0382116105ef57614099826103b4855461424d565b8390601f83116001146140ff576140b992915f918361220b575050614905565b90555b60408051958652908501919091528301525f60608301525f60808301525f516020614f045f395f51905f5260a03393a360015f516020614ee45f395f51905f5255005b90601f19831691845f52855f20925f5b8782821061414c575050908460019594939210614134575b505050811b0190556140bc565b01515f1960f88460031b161c19169055888080614127565b600185968293968601518155019501930161410f565b90601f19831691845f52875f20925f5b898282106141af575050908460019594939210614197575b505050811b019055613ff7565b01515f1960f88460031b161c191690558a808061418a565b6001859682939686015181550195019301614172565b9190600584015f52855f20905f935b87601f198516861061421957506001945083601f19811610614201575b505050811b016005820155613f70565b01515f1960f88460031b161c191690558980806141f1565b82820151845594850194600190930192909101906141d4565b346106dd575f3660031901126106dd57610ced610cd9614315565b90600182811c9216801561427b575b602083101461426757565b634e487b7160e01b5f52602260045260245ffd5b91607f169161425c565b604081019081106001600160401b038211176105ef57604052565b60c081019081106001600160401b038211176105ef57604052565b608081019081106001600160401b038211176105ef57604052565b61020081019081106001600160401b038211176105ef57604052565b601f909101601f19168101906001600160401b038211908210176105ef57604052565b604051905f82600a54916143288361424d565b808352926001811690811561439a575060011461434e575b61434c925003836142f2565b565b50600a5f90815290915f516020614e245f395f51905f525b81831061437e57505090602061434c92820101614340565b6020919350806001915483858901015201910190918492614366565b6020925061434c94915060ff191682840152151560051b820101614340565b604051905f82600954916143cc8361424d565b808352926001811690811561439a57506001146143ef5761434c925003836142f2565b5060095f90815290915f516020614ec45f395f51905f525b81831061441f57505090602061434c92820101614340565b6020919350806001915483858901015201910190918492614407565b805180835260209291819084018484015e5f828201840152601f01601f1916010190565b9181601f840112156106dd578235916001600160401b0383116106dd57602083818601950101116106dd57565b60606003198201126106dd576004359160243591604435906001600160401b0382116106dd576144be9160040161445f565b9091565b60206040818301928281528451809452019201905f5b8181106144e55750505090565b82518452602093840193909201916001016144d8565b5f929181549161450a8361424d565b808352926001811690811561455f575060011461452657505050565b5f9081526020812093945091925b838310614545575060209250010190565b600181602092949394548385870101520191019190614534565b915050602093945060ff929192191683830152151560051b010190565b90600582101561056d5752565b90600482101561056d5752565b600435906001600160a01b03821682036106dd57565b614609918151815260a06145e46145d2602085015160c0602086015260c085019061443b565b6040850151848203604086015261443b565b92606081015160608401526080810151608084015201519060a081840391015261443b565b90565b9060406003198301126106dd5760043591602435906001600160401b0382116106dd576144be9160040161445f565b8054821015614654575f5260205f209060011b01905f90565b634e487b7160e01b5f52603260045260245ffd5b6005548110156146545760055f5260205f2001905f90565b1561468757565b60405162461bcd60e51b8152602060048201526005602482015264216465736360d81b6044820152606490fd5b156146bb57565b606460405162461bcd60e51b815260206004820152600460248201526310b6b4b760e11b6044820152fd5b6001600160401b0381116105ef5760051b60200190565b1561470457565b606460405162461bcd60e51b815260206004820152600460248201526310b537b160e11b6044820152fd5b1561473657565b60405162461bcd60e51b815260206004820152600560248201526410b7b832b760d91b6044820152606490fd5b90600581101561056d5760ff80198354169116179055565b91908203918211612eac57565b1561478f57565b60405162461bcd60e51b815260206004820152600560248201526410b0b2323960d91b6044820152606490fd5b156147c357565b606460405162461bcd60e51b81526020600482015260046024820152630858985b60e21b6044820152fd5b604051906147fb826142a0565b606060a0835f81528260208201528260408201525f838201525f60808201520152565b91908201809211612eac57565b80518210156146545760209160051b010190565b1561484657565b60405162461bcd60e51b8152602060048201526003602482015262085a5960ea1b6044820152606490fd5b1561487857565b60405162461bcd60e51b815260206004820152600660248201526510b1bb2234bb60d11b6044820152606490fd5b5f5b8281106148b457505050565b5f828201556001016148a8565b91601f82116148cf57505050565b8082116148db57505050565b61434c925f5260205f20916020601f830160051c9210611ae157601f82910160051c0391016148a6565b8160011b915f199060031b1c19161790565b908060209392818452848401375f828201840152601f01601f1916010190565b6020815260806060614954845183602086015260a085019061443b565b60208501516001600160a01b03166040858101919091528501518285015293015191015290565b1561498257565b60405162461bcd60e51b815260206004820152600760248201526610bbb7b935b2b960c91b6044820152606490fd5b805460ff60a01b191691151560a01b60ff60a01b16919091179055565b6001600160401b0381116105ef57601f01601f191660200190565b156149f057565b60405162461bcd60e51b8152602060048201526005602482015264042e0c2e8d60db1b6044820152606490fd5b600554905f5b828110614a31575050505f90565b614a3a81614668565b905460039190911b1c6001600160a01b0390811690831614614a5e57600101614a23565b505050600190565b5f198114612eac5760010190565b90614a7e826146e6565b614a8b60405191826142f2565b8281528092614a9c601f19916146e6565b0190602036910137565b600482101561056d5752565b5f905b600554918281101561498257614aca81614668565b90546001600160a01b03848116959260031b9190911c168414614af257506001019150614ab5565b5f19810192508211612eac57611d39614b0d614b2593614668565b905460039190911b1c6001600160a01b031691614668565b6005548015614b76575f1901614b3a81614668565b81549060018060a01b039060031b1b191690556005557f6cfb0504498d3a8155a2a3dd5f41940ad5ab571197ac70f6d6948d189f6a0d275f80a2565b634e487b7160e01b5f52603160045260245ffd5b929192614b96826149ce565b91614ba460405193846142f2565b8294818452818301116106dd578281602093845f960137010152565b15614bc757565b60405162461bcd60e51b81526020600482015260076024820152662161637469766560c81b6044820152606490fd5b60025f516020614ee45f395f51905f525414614c1f5760025f516020614ee45f395f51905f5255565b633ee5aeb560e01b5f5260045ffd5b80151580614cf1575b15614cc6575f52600160205260405f206003810154918215614c985761434c7f9651c33eb23976f7c15240e86443dc2ded40546fa9ba457a14abab4090e023b5604051614c8b8161146e81600589016144fb565b6020815191012014614bc0565b60405162461bcd60e51b815260206004820152600660248201526521707269636560d01b6044820152606490fd5b606460405162461bcd60e51b81526020600482015260046024820152632173766360e01b6044820152fd5b506002548110614c37565b6040516323b872dd60e01b5f9081526001600160a01b039384166004529290931660245260449390935260209060648180865af19060015f5114821615614d4d575b6040525f60605215612dd75750565b906001811516612e0f57823b15153d15161690614d3e565b916040519163a9059cbb60e01b5f5260018060a01b031660045260245260205f60448180865af19060015f5114821615614da5575b60405215612dd75750565b906001811516612e0f57823b15153d15161690614d9a565b5f546001600160a01b03163303614dd057565b63118cdaa760e01b5f523360045260245ffdfe884d377a76a733295a9fde0f6f3729db2762d3ed11c468fa3904b134ab552ddac96f2aaf957f127be031b5ffc014c798de57808a7d0d7be6408436a77b55105dc65a7bb8d6351c1cf70c95a316cc6a92839c986682d98bc35f958f4883f9d2a8c8f8c4a419ff4726d3b34be1e7439e3ede063b16686388bdaa104005d586a560c181770b18c66c81dce39e4f7d4100884b62c26403dddf12b19b1de85cdc3ac48be0079c531659141344cd1fd0a4f28419497f9722a3daafe3b4186f6b6457e0791d0f3c8799c9df05b4434624f423e70d3c803aa8192c9c2557c19654000f376e1540171b6c0c960b71a7020d9f60077f6af931a8bbf590da0223dacf75c7af9b779b17422d0df92223018b32b4d1fa46e071723d6817e2486d003becc55f00fedb08719ec013458bbe9c86e0b87a10413be78ff76c974a0dac8cce68e73e8aa26469706673582212206ab7161b050a43d02bff18595aa28b5c68d1a5df7ff1fbce858998c076ddc86864736f6c634300082100330000000000000000000000009f86db9fc6f7c9408e8fda3ff8ce4e78ac7a6b07000000000000000000000000833589fcd6edb6e08f4c7c32d4f71b54bda029130000000000000000000000002626664c2603336e57b271c5c0b26f421741e481000000000000000000000000420000000000000000000000000000000000000600000000000000000000000090ef2a9211a3e7ce788561e5af54c76b0fa3aed0",
        "nonce": "0xcb",
        "chainId": "0x2105"
      },
      "additionalContracts": [],
      "isFixedGasLimit": false
    },
    {
      "hash": "0x08d7ce107e19f05a6b32b6d6a6e8ee40ec9c3b8416c20f4bff73f937d8bf53e7",
      "transactionType": "CALL",
      "contractName": "LeftClawServicesV2",
      "contractAddress": "0x62b0afe36fc110011a0f4fb1a146b8f0f7c12fbf",
      "function": "addServiceType(string,string,uint256,uint256)",
      "arguments": [
        "Quick Consultation",
        "consult",
        "20000000",
        "100"
      ],
      "transaction": {
        "from": "0x845e8c808e22469aaf07ace9ab7d26c875fbe44f",
        "to": "0x62b0afe36fc110011a0f4fb1a146b8f0f7c12fbf",
        "gas": "0x3c900",
        "value": "0x0",
        "input": "0xcf216ee2000000000000000000000000000000000000000000000000000000000000008000000000000000000000000000000000000000000000000000000000000000c00000000000000000000000000000000000000000000000000000000001312d0000000000000000000000000000000000000000000000000000000000000000640000000000000000000000000000000000000000000000000000000000000012517569636b20436f6e73756c746174696f6e00000000000000000000000000000000000000000000000000000000000000000000000000000000000000000007636f6e73756c7400000000000000000000000000000000000000000000000000",
        "nonce": "0xcc",
        "chainId": "0x2105"
      },
      "additionalContracts": [],
      "isFixedGasLimit": false
    },
    {
      "hash": "0x4135d03f9755e737ab133d6dbc6ab64a603fb399529149bc51eb31a033aa62e9",
      "transactionType": "CALL",
      "contractName": "LeftClawServicesV2",
      "contractAddress": "0x62b0afe36fc110011a0f4fb1a146b8f0f7c12fbf",
      "function": "addServiceType(string,string,uint256,uint256)",
      "arguments": [
        "Deep Consultation",
        "consult-deep",
        "30000000",
        "50"
      ],
      "transaction": {
        "from": "0x845e8c808e22469aaf07ace9ab7d26c875fbe44f",
        "to": "0x62b0afe36fc110011a0f4fb1a146b8f0f7c12fbf",
        "gas": "0x3937d",
        "value": "0x0",
        "input": "0xcf216ee2000000000000000000000000000000000000000000000000000000000000008000000000000000000000000000000000000000000000000000000000000000c00000000000000000000000000000000000000000000000000000000001c9c380000000000000000000000000000000000000000000000000000000000000003200000000000000000000000000000000000000000000000000000000000000114465657020436f6e73756c746174696f6e000000000000000000000000000000000000000000000000000000000000000000000000000000000000000000000c636f6e73756c742d646565700000000000000000000000000000000000000000",
        "nonce": "0xcd",
        "chainId": "0x2105"
      },
      "additionalContracts": [],
      "isFixedGasLimit": false
    },
    {
      "hash": "0x9e4838e3fef621ceb5d43ed75b17a0f14a21846d476bef5d026e2ca18c03c780",
      "transactionType": "CALL",
      "contractName": "LeftClawServicesV2",
      "contractAddress": "0x62b0afe36fc110011a0f4fb1a146b8f0f7c12fbf",
      "function": "addServiceType(string,string,uint256,uint256)",
      "arguments": [
        "PFP Generator",
        "pfp",
        "250000",
        "500"
      ],
      "transaction": {
        "from": "0x845e8c808e22469aaf07ace9ab7d26c875fbe44f",
        "to": "0x62b0afe36fc110011a0f4fb1a146b8f0f7c12fbf",
        "gas": "0x3c874",
        "value": "0x0",
        "input": "0xcf216ee2000000000000000000000000000000000000000000000000000000000000008000000000000000000000000000000000000000000000000000000000000000c0000000000000000000000000000000000000000000000000000000000003d09000000000000000000000000000000000000000000000000000000000000001f4000000000000000000000000000000000000000000000000000000000000000d5046502047656e657261746f720000000000000000000000000000000000000000000000000000000000000000000000000000000000000000000000000000037066700000000000000000000000000000000000000000000000000000000000",
        "nonce": "0xce",
        "chainId": "0x2105"
      },
      "additionalContracts": [],
      "isFixedGasLimit": false
    },
    {
      "hash": "0x074d71f455bc43c2be83ab5991a0338bfb1fbcf15b4c2dbd2399ec61899acbc7",
      "transactionType": "CALL",
      "contractName": "LeftClawServicesV2",
      "contractAddress": "0x62b0afe36fc110011a0f4fb1a146b8f0f7c12fbf",
      "function": "addServiceType(string,string,uint256,uint256)",
      "arguments": [
        "Contract Audit",
        "audit",
        "200000000",
        "25"
      ],
      "transaction": {
        "from": "0x845e8c808e22469aaf07ace9ab7d26c875fbe44f",
        "to": "0x62b0afe36fc110011a0f4fb1a146b8f0f7c12fbf",
        "gas": "0x3c897",
        "value": "0x0",
        "input": "0xcf216ee2000000000000000000000000000000000000000000000000000000000000008000000000000000000000000000000000000000000000000000000000000000c0000000000000000000000000000000000000000000000000000000000bebc2000000000000000000000000000000000000000000000000000000000000000019000000000000000000000000000000000000000000000000000000000000000e436f6e747261637420417564697400000000000000000000000000000000000000000000000000000000000000000000000000000000000000000000000000056175646974000000000000000000000000000000000000000000000000000000",
        "nonce": "0xcf",
        "chainId": "0x2105"
      },
      "additionalContracts": [],
      "isFixedGasLimit": false
    },
    {
      "hash": "0x2a54f26132a92447f9c0e538125d4f05101851579db2d71734ee6e0627a24b2b",
      "transactionType": "CALL",
      "contractName": "LeftClawServicesV2",
      "contractAddress": "0x62b0afe36fc110011a0f4fb1a146b8f0f7c12fbf",
      "function": "addServiceType(string,string,uint256,uint256)",
      "arguments": [
        "Frontend QA Audit",
        "qa",
        "50000000",
        "50"
      ],
      "transaction": {
        "from": "0x845e8c808e22469aaf07ace9ab7d26c875fbe44f",
        "to": "0x62b0afe36fc110011a0f4fb1a146b8f0f7c12fbf",
        "gas": "0x392d8",
        "value": "0x0",
        "input": "0xcf216ee2000000000000000000000000000000000000000000000000000000000000008000000000000000000000000000000000000000000000000000000000000000c00000000000000000000000000000000000000000000000000000000002faf0800000000000000000000000000000000000000000000000000000000000000032000000000000000000000000000000000000000000000000000000000000001146726f6e74656e6420514120417564697400000000000000000000000000000000000000000000000000000000000000000000000000000000000000000000027161000000000000000000000000000000000000000000000000000000000000",
        "nonce": "0xd0",
        "chainId": "0x2105"
      },
      "additionalContracts": [],
      "isFixedGasLimit": false
    },
    {
      "hash": "0x12ddc55e1a8300d216abdeae8e6ffe543ee83f75dd835ffc9e52509e51e2b606",
      "transactionType": "CALL",
      "contractName": "LeftClawServicesV2",
      "contractAddress": "0x62b0afe36fc110011a0f4fb1a146b8f0f7c12fbf",
      "function": "addServiceType(string,string,uint256,uint256)",
      "arguments": [
        "Build",
        "build",
        "1000000000",
        "1"
      ],
      "transaction": {
        "from": "0x845e8c808e22469aaf07ace9ab7d26c875fbe44f",
        "to": "0x62b0afe36fc110011a0f4fb1a146b8f0f7c12fbf",
        "gas": "0x39231",
        "value": "0x0",
        "input": "0xcf216ee2000000000000000000000000000000000000000000000000000000000000008000000000000000000000000000000000000000000000000000000000000000c0000000000000000000000000000000000000000000000000000000003b9aca00000000000000000000000000000000000000000000000000000000000000000100000000000000000000000000000000000000000000000000000000000000054275696c6400000000000000000000000000000000000000000000000000000000000000000000000000000000000000000000000000000000000000000000056275696c64000000000000000000000000000000000000000000000000000000",
        "nonce": "0xd1",
        "chainId": "0x2105"
      },
      "additionalContracts": [],
      "isFixedGasLimit": false
    },
    {
      "hash": "0xed48be2c2c94cb03562f5e16028b3e3b3729fd98d9a38186bbd32f614b15c1d3",
      "transactionType": "CALL",
      "contractName": "LeftClawServicesV2",
      "contractAddress": "0x62b0afe36fc110011a0f4fb1a146b8f0f7c12fbf",
      "function": "addServiceType(string,string,uint256,uint256)",
      "arguments": [
        "Research Report",
        "research",
        "100000000",
        "13"
      ],
      "transaction": {
        "from": "0x845e8c808e22469aaf07ace9ab7d26c875fbe44f",
        "to": "0x62b0afe36fc110011a0f4fb1a146b8f0f7c12fbf",
        "gas": "0x3c8dd",
        "value": "0x0",
        "input": "0xcf216ee2000000000000000000000000000000000000000000000000000000000000008000000000000000000000000000000000000000000000000000000000000000c00000000000000000000000000000000000000000000000000000000005f5e100000000000000000000000000000000000000000000000000000000000000000d000000000000000000000000000000000000000000000000000000000000000f5265736561726368205265706f7274000000000000000000000000000000000000000000000000000000000000000000000000000000000000000000000000087265736561726368000000000000000000000000000000000000000000000000",
        "nonce": "0xd2",
        "chainId": "0x2105"
      },
      "additionalContracts": [],
      "isFixedGasLimit": false
    },
    {
      "hash": "0x953cb3824b19825d9dca421cadf687d2e93dd2453155ea46c6e6345bcc95bf9a",
      "transactionType": "CALL",
      "contractName": "LeftClawServicesV2",
      "contractAddress": "0x62b0afe36fc110011a0f4fb1a146b8f0f7c12fbf",
      "function": "addServiceType(string,string,uint256,uint256)",
      "arguments": [
        "Judge / Oracle",
        "judge",
        "50000000",
        "50"
      ],
      "transaction": {
        "from": "0x845e8c808e22469aaf07ace9ab7d26c875fbe44f",
        "to": "0x62b0afe36fc110011a0f4fb1a146b8f0f7c12fbf",
        "gas": "0x392d8",
        "value": "0x0",
        "input": "0xcf216ee2000000000000000000000000000000000000000000000000000000000000008000000000000000000000000000000000000000000000000000000000000000c00000000000000000000000000000000000000000000000000000000002faf0800000000000000000000000000000000000000000000000000000000000000032000000000000000000000000000000000000000000000000000000000000000e4a75646765202f204f7261636c6500000000000000000000000000000000000000000000000000000000000000000000000000000000000000000000000000056a75646765000000000000000000000000000000000000000000000000000000",
        "nonce": "0xd3",
        "chainId": "0x2105"
      },
      "additionalContracts": [],
      "isFixedGasLimit": false
    },
    {
      "hash": "0x8b3e12dcb5d45afb7928293b3c905c81ccdb58d8f27a0ed5170b09942bab97cc",
      "transactionType": "CALL",
      "contractName": "LeftClawServicesV2",
      "contractAddress": "0x62b0afe36fc110011a0f4fb1a146b8f0f7c12fbf",
      "function": "addServiceType(string,string,uint256,uint256)",
      "arguments": [
        "HumanQA",
        "humanqa",
        "200000000",
        "25"
      ],
      "transaction": {
        "from": "0x845e8c808e22469aaf07ace9ab7d26c875fbe44f",
        "to": "0x62b0afe36fc110011a0f4fb1a146b8f0f7c12fbf",
        "gas": "0x39274",
        "value": "0x0",
        "input": "0xcf216ee2000000000000000000000000000000000000000000000000000000000000008000000000000000000000000000000000000000000000000000000000000000c0000000000000000000000000000000000000000000000000000000000bebc2000000000000000000000000000000000000000000000000000000000000000019000000000000000000000000000000000000000000000000000000000000000748756d616e514100000000000000000000000000000000000000000000000000000000000000000000000000000000000000000000000000000000000000000768756d616e716100000000000000000000000000000000000000000000000000",
        "nonce": "0xd4",
        "chainId": "0x2105"
      },
      "additionalContracts": [],
      "isFixedGasLimit": false
    },
    {
      "hash": "0x3d0ce992ced5f04780968f6e52abb267792a249a7ccdda9027dd69018f5709b7",
      "transactionType": "CALL",
      "contractName": "LeftClawServicesV2",
      "contractAddress": "0x62b0afe36fc110011a0f4fb1a146b8f0f7c12fbf",
      "function": "addWorker(address)",
      "arguments": [
        "0xa822155c242B3a307086F1e2787E393d78A0B5AC"
      ],
      "transaction": {
        "from": "0x845e8c808e22469aaf07ace9ab7d26c875fbe44f",
        "to": "0x62b0afe36fc110011a0f4fb1a146b8f0f7c12fbf",
        "gas": "0x19022",
        "value": "0x0",
        "input": "0x806ad57e000000000000000000000000a822155c242b3a307086f1e2787e393d78a0b5ac",
        "nonce": "0xd5",
        "chainId": "0x2105"
      },
      "additionalContracts": [],
      "isFixedGasLimit": false
    },
    {
      "hash": "0x16b7bafd7718c34ff2c9f3782720df19b4d37c2fbb860bcdbdba9090f284f249",
      "transactionType": "CALL",
      "contractName": "LeftClawServicesV2",
      "contractAddress": "0x62b0afe36fc110011a0f4fb1a146b8f0f7c12fbf",
      "function": "addWorker(address)",
      "arguments": [
        "0x8c00eae9b9A2f89BddaAE4f6884C716562C7cE93"
      ],
      "transaction": {
        "from": "0x845e8c808e22469aaf07ace9ab7d26c875fbe44f",
        "to": "0x62b0afe36fc110011a0f4fb1a146b8f0f7c12fbf",
        "gas": "0x12a95",
        "value": "0x0",
        "input": "0x806ad57e0000000000000000000000008c00eae9b9a2f89bddaae4f6884c716562c7ce93",
        "nonce": "0xd6",
        "chainId": "0x2105"
      },
      "additionalContracts": [],
      "isFixedGasLimit": false
    },
    {
      "hash": "0xa645fe856d9e483d626f8705e3eb96802e6557ebd1ccba5aa0567dd556b512b8",
      "transactionType": "CALL",
      "contractName": "LeftClawServicesV2",
      "contractAddress": "0x62b0afe36fc110011a0f4fb1a146b8f0f7c12fbf",
      "function": "addWorker(address)",
      "arguments": [
        "0x472C382550780cD30e1D27155b96Fa4b63d9247e"
      ],
      "transaction": {
        "from": "0x845e8c808e22469aaf07ace9ab7d26c875fbe44f",
        "to": "0x62b0afe36fc110011a0f4fb1a146b8f0f7c12fbf",
        "gas": "0x149fd",
        "value": "0x0",
        "input": "0x806ad57e000000000000000000000000472c382550780cd30e1d27155b96fa4b63d9247e",
        "nonce": "0xd7",
        "chainId": "0x2105"
      },
      "additionalContracts": [],
      "isFixedGasLimit": false
    },
    {
      "hash": "0x0b1ca5c8a19c27ab1de420faeb15ea0946e40c64a02bd459aa6eccf540ceb46b",
      "transactionType": "CALL",
      "contractName": "LeftClawServicesV2",
      "contractAddress": "0x62b0afe36fc110011a0f4fb1a146b8f0f7c12fbf",
      "function": "addWorker(address)",
      "arguments": [
        "0x09defC9E6ffc5e41F42e0D50512EEf9354523E0E"
      ],
      "transaction": {
        "from": "0x845e8c808e22469aaf07ace9ab7d26c875fbe44f",
        "to": "0x62b0afe36fc110011a0f4fb1a146b8f0f7c12fbf",
        "gas": "0x144aa",
        "value": "0x0",
        "input": "0x806ad57e00000000000000000000000009defc9e6ffc5e41f42e0d50512eef9354523e0e",
        "nonce": "0xd8",
        "chainId": "0x2105"
      },
      "additionalContracts": [],
      "isFixedGasLimit": false
    },
    {
      "hash": "0xb5cfa613be0848e578ec1dd4a16df908773d442081265e3e511857952324f581",
      "transactionType": "CALL",
      "contractName": "LeftClawServicesV2",
      "contractAddress": "0x62b0afe36fc110011a0f4fb1a146b8f0f7c12fbf",
      "function": "transferOwnership(address)",
      "arguments": [
        "0x11ce532845cE0eAcdA41f72FDc1C88c335981442"
      ],
      "transaction": {
        "from": "0x845e8c808e22469aaf07ace9ab7d26c875fbe44f",
        "to": "0x62b0afe36fc110011a0f4fb1a146b8f0f7c12fbf",
        "gas": "0xa7c8",
        "value": "0x0",
        "input": "0xf2fde38b00000000000000000000000011ce532845ce0eacda41f72fdc1c88c335981442",
        "nonce": "0xd9",
        "chainId": "0x2105"
      },
      "additionalContracts": [],
      "isFixedGasLimit": false
    }
  ],
  "receipts": [
    {
      "status": "0x1",
      "cumulativeGasUsed": "0x3fcfefa",
      "logs": [
        {
          "address": "0x62b0afe36fc110011a0f4fb1a146b8f0f7c12fbf",
          "topics": [
            "0x8be0079c531659141344cd1fd0a4f28419497f9722a3daafe3b4186f6b6457e0",
            "0x0000000000000000000000000000000000000000000000000000000000000000",
            "0x000000000000000000000000845e8c808e22469aaf07ace9ab7d26c875fbe44f"
          ],
          "data": "0x",
          "blockHash": "0x0000000000000000000000000000000000000000000000000000000000000000",
          "blockNumber": "0x29c22cf",
          "blockTimestamp": "0x69c2a281",
          "transactionHash": "0x8b3e12dcb5d45afb7928293b3c905c81ccdb58d8f27a0ed5170b09942bab97cc",
          "transactionIndex": "0xbd",
          "logIndex": "0x65a",
          "removed": false
        }
      ],
      "logsBloom": "0x00000000000000000000000000000000000008000000000000800000000000000000000000000000000000000000000000000000000000000000000000000000000000000000000000000000000000000001000000000000000000000000000000000000020000000000000000000800000000000000000000000010000000400000000000000000000000000000000000000000004000000000000000000000000000000000000000000000000080000000000000000000000000000000000000000000000000000000000000000000100000000000000000000000000020000000000000000400000000000000000000000000000000000000000000000000",
      "type": "0x2",
      "transactionHash": "0x8b3e12dcb5d45afb7928293b3c905c81ccdb58d8f27a0ed5170b09942bab97cc",
      "transactionIndex": "0xbd",
      "blockHash": "0x0000000000000000000000000000000000000000000000000000000000000000",
      "blockNumber": "0x29c22cf",
      "gasUsed": "0x484228",
      "effectiveGasPrice": "0x4c4b72",
      "blobGasUsed": "0x17a730",
      "from": "0x845e8c808e22469aaf07ace9ab7d26c875fbe44f",
      "to": null,
      "contractAddress": "0x62b0afe36fc110011a0f4fb1a146b8f0f7c12fbf",
      "daFootprintGasScalar": "0x8b",
      "l1BaseFeeScalar": "0x8dd",
      "l1BlobBaseFee": "0x753e93",
      "l1BlobBaseFeeScalar": "0x101c12",
      "l1Fee": "0x4d5e8ed6",
      "l1GasPrice": "0x7fe25f2",
      "l1GasUsed": "0x2b904"
    },
    {
      "status": "0x1",
      "cumulativeGasUsed": "0x3ff958b",
      "logs": [
        {
          "address": "0x62b0afe36fc110011a0f4fb1a146b8f0f7c12fbf",
          "topics": [
            "0x791d0f3c8799c9df05b4434624f423e70d3c803aa8192c9c2557c19654000f37",
            "0x0000000000000000000000000000000000000000000000000000000000000001"
          ],
          "data": "0x000000000000000000000000000000000000000000000000000000000000008000000000000000000000000000000000000000000000000000000000000000c00000000000000000000000000000000000000000000000000000000001312d0000000000000000000000000000000000000000000000000000000000000000640000000000000000000000000000000000000000000000000000000000000012517569636b20436f6e73756c746174696f6e00000000000000000000000000000000000000000000000000000000000000000000000000000000000000000007636f6e73756c7400000000000000000000000000000000000000000000000000",
          "blockHash": "0x0000000000000000000000000000000000000000000000000000000000000000",
          "blockNumber": "0x29c22cf",
          "blockTimestamp": "0x69c2a281",
          "transactionHash": "0xed48be2c2c94cb03562f5e16028b3e3b3729fd98d9a38186bbd32f614b15c1d3",
          "transactionIndex": "0xbe",
          "logIndex": "0x65b",
          "removed": false
        }
      ],
      "logsBloom": "0x00000000000000000000000000000000000008000000400000000000000000000000000000000000000000000000000000000000000000000000000000040100000000000000000000000000000000000000000000040100000000000000000000000000000000000000000000000000000000000000000000000000000000000000000000000000000000000000000000000000004000000000000000000000000000000000000000000000000000000000000000000000000000000000000000000000000000000000000000000000100000000000000000000000000040000000000000000000000000000000000000000000000000000000000000000000",
      "type": "0x2",
      "transactionHash": "0xed48be2c2c94cb03562f5e16028b3e3b3729fd98d9a38186bbd32f614b15c1d3",
      "transactionIndex": "0xbe",
      "blockHash": "0x0000000000000000000000000000000000000000000000000000000000000000",
      "blockNumber": "0x29c22cf",
      "gasUsed": "0x29691",
      "effectiveGasPrice": "0x4c4b72",
      "blobGasUsed": "0x3e71",
      "from": "0x845e8c808e22469aaf07ace9ab7d26c875fbe44f",
      "to": "0x62b0afe36fc110011a0f4fb1a146b8f0f7c12fbf",
      "contractAddress": null,
      "daFootprintGasScalar": "0x8b",
      "l1BaseFeeScalar": "0x8dd",
      "l1BlobBaseFee": "0x753e93",
      "l1BlobBaseFeeScalar": "0x101c12",
      "l1Fee": "0x4d5e8ed6",
      "l1GasPrice": "0x7fe25f2",
      "l1GasUsed": "0x738"
    },
    {
      "status": "0x1",
      "cumulativeGasUsed": "0x4022c58",
      "logs": [
        {
          "address": "0x62b0afe36fc110011a0f4fb1a146b8f0f7c12fbf",
          "topics": [
            "0x791d0f3c8799c9df05b4434624f423e70d3c803aa8192c9c2557c19654000f37",
            "0x0000000000000000000000000000000000000000000000000000000000000002"
          ],
          "data": "0x000000000000000000000000000000000000000000000000000000000000008000000000000000000000000000000000000000000000000000000000000000c00000000000000000000000000000000000000000000000000000000001c9c380000000000000000000000000000000000000000000000000000000000000003200000000000000000000000000000000000000000000000000000000000000114465657020436f6e73756c746174696f6e000000000000000000000000000000000000000000000000000000000000000000000000000000000000000000000c636f6e73756c742d646565700000000000000000000000000000000000000000",
          "blockHash": "0x0000000000000000000000000000000000000000000000000000000000000000",
          "blockNumber": "0x29c22cf",
          "blockTimestamp": "0x69c2a281",
          "transactionHash": "0x4135d03f9755e737ab133d6dbc6ab64a603fb399529149bc51eb31a033aa62e9",
          "transactionIndex": "0xbf",
          "logIndex": "0x65c",
          "removed": false
        }
      ],
      "logsBloom": "0x04000000000000000000000000000000000008000000400000000000000000000000000000000000000000000000000000000000000000000000000000000100000000000000000000000000000000000000000000000100000000000000000000000000000000000000000000000000000000000000000000000000000000000000000000000000000000000000000000000000004000000000000000000000000000000000000000000100000000000000000000000000000000000000000000000000000000000000000000000000100000000000000000000000000000000000000000000000000000000000000000000000008000000000000000000000",
      "type": "0x2",
      "transactionHash": "0x4135d03f9755e737ab133d6dbc6ab64a603fb399529149bc51eb31a033aa62e9",
      "transactionIndex": "0xbf",
      "blockHash": "0x0000000000000000000000000000000000000000000000000000000000000000",
      "blockNumber": "0x29c22cf",
      "gasUsed": "0x296cd",
      "effectiveGasPrice": "0x4c4b72",
      "blobGasUsed": "0x3de6",
      "from": "0x845e8c808e22469aaf07ace9ab7d26c875fbe44f",
      "to": "0x62b0afe36fc110011a0f4fb1a146b8f0f7c12fbf",
      "contractAddress": null,
      "daFootprintGasScalar": "0x8b",
      "l1BaseFeeScalar": "0x8dd",
      "l1BlobBaseFee": "0x753e93",
      "l1BlobBaseFeeScalar": "0x101c12",
      "l1Fee": "0x4d5e8ed6",
      "l1GasPrice": "0x7fe25f2",
      "l1GasUsed": "0x72a"
    },
    {
      "status": "0x1",
      "cumulativeGasUsed": "0x404c289",
      "logs": [
        {
          "address": "0x62b0afe36fc110011a0f4fb1a146b8f0f7c12fbf",
          "topics": [
            "0x791d0f3c8799c9df05b4434624f423e70d3c803aa8192c9c2557c19654000f37",
            "0x0000000000000000000000000000000000000000000000000000000000000003"
          ],
          "data": "0x000000000000000000000000000000000000000000000000000000000000008000000000000000000000000000000000000000000000000000000000000000c0000000000000000000000000000000000000000000000000000000000003d09000000000000000000000000000000000000000000000000000000000000001f4000000000000000000000000000000000000000000000000000000000000000d5046502047656e657261746f720000000000000000000000000000000000000000000000000000000000000000000000000000000000000000000000000000037066700000000000000000000000000000000000000000000000000000000000",
          "blockHash": "0x0000000000000000000000000000000000000000000000000000000000000000",
          "blockNumber": "0x29c22cf",
          "blockTimestamp": "0x69c2a281",
          "transactionHash": "0x953cb3824b19825d9dca421cadf687d2e93dd2453155ea46c6e6345bcc95bf9a",
          "transactionIndex": "0xc0",
          "logIndex": "0x65d",
          "removed": false
        }
      ],
      "logsBloom": "0x00000000000000000000000000000000000008000000400000000000000000000000000000000000000000000000000000000000020000000000000000000100000000000000000000000000000000000000000000000100000000000000000000000000000000000000000000000000000000000000000000000000000000000000000000000000000000000000000000000000004000000000000000000000000000000000000000000000000000000000000000800000000000000000400000000000000000000000000000000000100000000000000000000000000000000000000000000000000000000000000000000000000000000000000000000000",
      "type": "0x2",
      "transactionHash": "0x953cb3824b19825d9dca421cadf687d2e93dd2453155ea46c6e6345bcc95bf9a",
      "transactionIndex": "0xc0",
      "blockHash": "0x0000000000000000000000000000000000000000000000000000000000000000",
      "blockNumber": "0x29c22cf",
      "gasUsed": "0x29631",
      "effectiveGasPrice": "0x4c4b72",
      "blobGasUsed": "0x3cd0",
      "from": "0x845e8c808e22469aaf07ace9ab7d26c875fbe44f",
      "to": "0x62b0afe36fc110011a0f4fb1a146b8f0f7c12fbf",
      "contractAddress": null,
      "daFootprintGasScalar": "0x8b",
      "l1BaseFeeScalar": "0x8dd",
      "l1BlobBaseFee": "0x753e93",
      "l1BlobBaseFeeScalar": "0x101c12",
      "l1Fee": "0x4d5e8ed6",
      "l1GasPrice": "0x7fe25f2",
      "l1GasUsed": "0x702"
    },
    {
      "status": "0x1",
      "cumulativeGasUsed": "0x40758d2",
      "logs": [
        {
          "address": "0x62b0afe36fc110011a0f4fb1a146b8f0f7c12fbf",
          "topics": [
            "0x791d0f3c8799c9df05b4434624f423e70d3c803aa8192c9c2557c19654000f37",
            "0x0000000000000000000000000000000000000000000000000000000000000004"
          ],
          "data": "0x000000000000000000000000000000000000000000000000000000000000008000000000000000000000000000000000000000000000000000000000000000c0000000000000000000000000000000000000000000000000000000000bebc2000000000000000000000000000000000000000000000000000000000000000019000000000000000000000000000000000000000000000000000000000000000e436f6e747261637420417564697400000000000000000000000000000000000000000000000000000000000000000000000000000000000000000000000000056175646974000000000000000000000000000000000000000000000000000000",
          "blockHash": "0x0000000000000000000000000000000000000000000000000000000000000000",
          "blockNumber": "0x29c22cf",
          "blockTimestamp": "0x69c2a281",
          "transactionHash": "0x074d71f455bc43c2be83ab5991a0338bfb1fbcf15b4c2dbd2399ec61899acbc7",
          "transactionIndex": "0xc1",
          "logIndex": "0x65e",
          "removed": false
        }
      ],
      "logsBloom": "0x00000000000000000000000000000000000008000000400000000000000000000000000000000000000000000000000000000000000000000000000000000100000000000000000000000000000000000000000000000100000000000000000008000000000000000000000000000000000000000000000000000000000000000000000000000000000000000000000000000000004000000000000000000000000000000000000000000000000000000000000000000000002000000000000000000000000000000000000000000000100000008000000000000000000000000000000000000000000000000000000000000000000000000000000000000000",
      "type": "0x2",
      "transactionHash": "0x074d71f455bc43c2be83ab5991a0338bfb1fbcf15b4c2dbd2399ec61899acbc7",
      "transactionIndex": "0xc1",
      "blockHash": "0x0000000000000000000000000000000000000000000000000000000000000000",
      "blockNumber": "0x29c22cf",
      "gasUsed": "0x29649",
      "effectiveGasPrice": "0x4c4b72",
      "blobGasUsed": "0x3aa4",
      "from": "0x845e8c808e22469aaf07ace9ab7d26c875fbe44f",
      "to": "0x62b0afe36fc110011a0f4fb1a146b8f0f7c12fbf",
      "contractAddress": null,
      "daFootprintGasScalar": "0x8b",
      "l1BaseFeeScalar": "0x8dd",
      "l1BlobBaseFee": "0x753e93",
      "l1BlobBaseFeeScalar": "0x101c12",
      "l1Fee": "0x4d5e8ed6",
      "l1GasPrice": "0x7fe25f2",
      "l1GasUsed": "0x6cd"
    },
    {
      "status": "0x1",
      "cumulativeGasUsed": "0x409ef27",
      "logs": [
        {
          "address": "0x62b0afe36fc110011a0f4fb1a146b8f0f7c12fbf",
          "topics": [
            "0x791d0f3c8799c9df05b4434624f423e70d3c803aa8192c9c2557c19654000f37",
            "0x0000000000000000000000000000000000000000000000000000000000000005"
          ],
          "data": "0x000000000000000000000000000000000000000000000000000000000000008000000000000000000000000000000000000000000000000000000000000000c00000000000000000000000000000000000000000000000000000000002faf0800000000000000000000000000000000000000000000000000000000000000032000000000000000000000000000000000000000000000000000000000000001146726f6e74656e6420514120417564697400000000000000000000000000000000000000000000000000000000000000000000000000000000000000000000027161000000000000000000000000000000000000000000000000000000000000",
          "blockHash": "0x0000000000000000000000000000000000000000000000000000000000000000",
          "blockNumber": "0x29c22cf",
          "blockTimestamp": "0x69c2a281",
          "transactionHash": "0x2a54f26132a92447f9c0e538125d4f05101851579db2d71734ee6e0627a24b2b",
          "transactionIndex": "0xc2",
          "logIndex": "0x65f",
          "removed": false
        }
      ],
      "logsBloom": "0x00000000000000000000000000000000000008000000400000000000000000000000000000000000000000000000000000000000000000000000000000000100000010000000000000000000000000000000000000000100000000000000000000000000000000000000000000000000000000000000000000000000000000000000000000000000000000000000001000000800004000000000000000000000000000000000000000000000000000000000000000000000000000000000000000000000000000000000000000000000100000000000000000000000000000000000000000000000000000000000000000000000000000000000000000000000",
      "type": "0x2",
      "transactionHash": "0x2a54f26132a92447f9c0e538125d4f05101851579db2d71734ee6e0627a24b2b",
      "transactionIndex": "0xc2",
      "blockHash": "0x0000000000000000000000000000000000000000000000000000000000000000",
      "blockNumber": "0x29c22cf",
      "gasUsed": "0x29655",
      "effectiveGasPrice": "0x4c4b72",
      "blobGasUsed": "0x3b2f",
      "from": "0x845e8c808e22469aaf07ace9ab7d26c875fbe44f",
      "to": "0x62b0afe36fc110011a0f4fb1a146b8f0f7c12fbf",
      "contractAddress": null,
      "daFootprintGasScalar": "0x8b",
      "l1BaseFeeScalar": "0x8dd",
      "l1BlobBaseFee": "0x753e93",
      "l1BlobBaseFeeScalar": "0x101c12",
      "l1Fee": "0x4d5e8ed6",
      "l1GasPrice": "0x7fe25f2",
      "l1GasUsed": "0x6da"
    },
    {
      "status": "0x1",
      "cumulativeGasUsed": "0x40c8504",
      "logs": [
        {
          "address": "0x62b0afe36fc110011a0f4fb1a146b8f0f7c12fbf",
          "topics": [
            "0x791d0f3c8799c9df05b4434624f423e70d3c803aa8192c9c2557c19654000f37",
            "0x0000000000000000000000000000000000000000000000000000000000000006"
          ],
          "data": "0x000000000000000000000000000000000000000000000000000000000000008000000000000000000000000000000000000000000000000000000000000000c0000000000000000000000000000000000000000000000000000000003b9aca00000000000000000000000000000000000000000000000000000000000000000100000000000000000000000000000000000000000000000000000000000000054275696c6400000000000000000000000000000000000000000000000000000000000000000000000000000000000000000000000000000000000000000000056275696c64000000000000000000000000000000000000000000000000000000",
          "blockHash": "0x0000000000000000000000000000000000000000000000000000000000000000",
          "blockNumber": "0x29c22cf",
          "blockTimestamp": "0x69c2a281",
          "transactionHash": "0x0b1ca5c8a19c27ab1de420faeb15ea0946e40c64a02bd459aa6eccf540ceb46b",
          "transactionIndex": "0xc3",
          "logIndex": "0x660",
          "removed": false
        }
      ],
      "logsBloom": "0x00000000000000000000000000000000000008000000400000000000000000000000000000000000000000000000000000000000000400000000000000000100000000000000000000000000000000000000000000000100000000000000000000000000000000000000000000000000000000000000000000000000000000000000000400000000000000000000000000000000004000000000000000000000000000000000000000000000000000000000000000000000000000080000000000000000000000000000000000000000100000000000000000000000000000000000000000000000000000000000000000000000000000000000000000000000",
      "type": "0x2",
      "transactionHash": "0x0b1ca5c8a19c27ab1de420faeb15ea0946e40c64a02bd459aa6eccf540ceb46b",
      "transactionIndex": "0xc3",
      "blockHash": "0x0000000000000000000000000000000000000000000000000000000000000000",
      "blockNumber": "0x29c22cf",
      "gasUsed": "0x295dd",
      "effectiveGasPrice": "0x4c4b72",
      "blobGasUsed": "0x36d7",
      "from": "0x845e8c808e22469aaf07ace9ab7d26c875fbe44f",
      "to": "0x62b0afe36fc110011a0f4fb1a146b8f0f7c12fbf",
      "contractAddress": null,
      "daFootprintGasScalar": "0x8b",
      "l1BaseFeeScalar": "0x8dd",
      "l1BlobBaseFee": "0x753e93",
      "l1BlobBaseFeeScalar": "0x101c12",
      "l1Fee": "0x4d5e8ed6",
      "l1GasPrice": "0x7fe25f2",
      "l1GasUsed": "0x654"
    },
    {
      "status": "0x1",
      "cumulativeGasUsed": "0x40f1b7d",
      "logs": [
        {
          "address": "0x62b0afe36fc110011a0f4fb1a146b8f0f7c12fbf",
          "topics": [
            "0x791d0f3c8799c9df05b4434624f423e70d3c803aa8192c9c2557c19654000f37",
            "0x0000000000000000000000000000000000000000000000000000000000000007"
          ],
          "data": "0x000000000000000000000000000000000000000000000000000000000000008000000000000000000000000000000000000000000000000000000000000000c00000000000000000000000000000000000000000000000000000000005f5e100000000000000000000000000000000000000000000000000000000000000000d000000000000000000000000000000000000000000000000000000000000000f5265736561726368205265706f7274000000000000000000000000000000000000000000000000000000000000000000000000000000000000000000000000087265736561726368000000000000000000000000000000000000000000000000",
          "blockHash": "0x0000000000000000000000000000000000000000000000000000000000000000",
          "blockNumber": "0x29c22cf",
          "blockTimestamp": "0x69c2a281",
          "transactionHash": "0x12ddc55e1a8300d216abdeae8e6ffe543ee83f75dd835ffc9e52509e51e2b606",
          "transactionIndex": "0xc4",
          "logIndex": "0x661",
          "removed": false
        }
      ],
      "logsBloom": "0x00000000000000000000000000000000000008000000400000000000000000000000000000000000000000000000000000001000000000000000000000000100000020000000000000000000000000000000000000000100000000000000000000000000000000000000000000000000000000000000000000000000000000000000000000000000000000000000000000000000004000000000000000000000000000000000000000000000000000000000000000000000000000000000000000000000000000000000000000000000100000000000000000000100000000000000000000000000000000000000000000000000000000000000000000000000",
      "type": "0x2",
      "transactionHash": "0x12ddc55e1a8300d216abdeae8e6ffe543ee83f75dd835ffc9e52509e51e2b606",
      "transactionIndex": "0xc4",
      "blockHash": "0x0000000000000000000000000000000000000000000000000000000000000000",
      "blockNumber": "0x29c22cf",
      "gasUsed": "0x29679",
      "effectiveGasPrice": "0x4c4b72",
      "blobGasUsed": "0x3c45",
      "from": "0x845e8c808e22469aaf07ace9ab7d26c875fbe44f",
      "to": "0x62b0afe36fc110011a0f4fb1a146b8f0f7c12fbf",
      "contractAddress": null,
      "daFootprintGasScalar": "0x8b",
      "l1BaseFeeScalar": "0x8dd",
      "l1BlobBaseFee": "0x753e93",
      "l1BlobBaseFeeScalar": "0x101c12",
      "l1Fee": "0x4d5e8ed6",
      "l1GasPrice": "0x7fe25f2",
      "l1GasUsed": "0x6f5"
    },
    {
      "status": "0x1",
      "cumulativeGasUsed": "0x411b1d2",
      "logs": [
        {
          "address": "0x62b0afe36fc110011a0f4fb1a146b8f0f7c12fbf",
          "topics": [
            "0x791d0f3c8799c9df05b4434624f423e70d3c803aa8192c9c2557c19654000f37",
            "0x0000000000000000000000000000000000000000000000000000000000000008"
          ],
          "data": "0x000000000000000000000000000000000000000000000000000000000000008000000000000000000000000000000000000000000000000000000000000000c00000000000000000000000000000000000000000000000000000000002faf0800000000000000000000000000000000000000000000000000000000000000032000000000000000000000000000000000000000000000000000000000000000e4a75646765202f204f7261636c6500000000000000000000000000000000000000000000000000000000000000000000000000000000000000000000000000056a75646765000000000000000000000000000000000000000000000000000000",
          "blockHash": "0x0000000000000000000000000000000000000000000000000000000000000000",
          "blockNumber": "0x29c22cf",
          "blockTimestamp": "0x69c2a281",
          "transactionHash": "0x279e6c45aab035042e602ada0146f5a0f44ca1bd8fe55d5d7cbbd9373ed177ff",
          "transactionIndex": "0xc5",
          "logIndex": "0x662",
          "removed": false
        }
      ],
      "logsBloom": "0x00000000000000000000000000000000000008000000400000000000000000000000000000000000000000000000000000000000000080000000000000000100000000000000000000000000000000000000000000000100000000000000000000000000000000000000000000000000000000000000000000000000000000000080000000000000000000000000000000000000004000000000000000000000000000000000000000000000000000000000000000000000000000000000000040000000000000000000000000000000100000000000000000000000000000000000000000000000000000000000000000000000000000000000000000000000",
      "type": "0x2",
      "transactionHash": "0x279e6c45aab035042e602ada0146f5a0f44ca1bd8fe55d5d7cbbd9373ed177ff",
      "transactionIndex": "0xc5",
      "blockHash": "0x0000000000000000000000000000000000000000000000000000000000000000",
      "blockNumber": "0x29c22cf",
      "gasUsed": "0x29655",
      "effectiveGasPrice": "0x4c4b72",
      "blobGasUsed": "0x3a19",
      "from": "0x845e8c808e22469aaf07ace9ab7d26c875fbe44f",
      "to": "0x62b0afe36fc110011a0f4fb1a146b8f0f7c12fbf",
      "contractAddress": null,
      "daFootprintGasScalar": "0x8b",
      "l1BaseFeeScalar": "0x8dd",
      "l1BlobBaseFee": "0x753e93",
      "l1BlobBaseFeeScalar": "0x101c12",
      "l1Fee": "0x4d5e8ed6",
      "l1GasPrice": "0x7fe25f2",
      "l1GasUsed": "0x6bf"
    },
    {
      "status": "0x1",
      "cumulativeGasUsed": "0x41447df",
      "logs": [
        {
          "address": "0x62b0afe36fc110011a0f4fb1a146b8f0f7c12fbf",
          "topics": [
            "0x791d0f3c8799c9df05b4434624f423e70d3c803aa8192c9c2557c19654000f37",
            "0x0000000000000000000000000000000000000000000000000000000000000009"
          ],
          "data": "0x000000000000000000000000000000000000000000000000000000000000008000000000000000000000000000000000000000000000000000000000000000c0000000000000000000000000000000000000000000000000000000000bebc2000000000000000000000000000000000000000000000000000000000000000019000000000000000000000000000000000000000000000000000000000000000748756d616e514100000000000000000000000000000000000000000000000000000000000000000000000000000000000000000000000000000000000000000768756d616e716100000000000000000000000000000000000000000000000000",
          "blockHash": "0x0000000000000000000000000000000000000000000000000000000000000000",
          "blockNumber": "0x29c22cf",
          "blockTimestamp": "0x69c2a281",
          "transactionHash": "0x9e4838e3fef621ceb5d43ed75b17a0f14a21846d476bef5d026e2ca18c03c780",
          "transactionIndex": "0xc6",
          "logIndex": "0x663",
          "removed": false
        }
      ],
      "logsBloom": "0x00000000000000000000000000000000000008000000400000000000000000000000000000000000000000000000000000000000000000000000000000200100000000000000000000000000000000000000000000000100000000000000000000000000000000000000000000000000000000000000000000000000000000000000000000000000000000000000000000001000004000000000000000000000000000000000000000000000000000000000000000000000000000000000000000000000000000000000000000000000100000000000000000000000000000000000000000000000000000000000000000000000000000000000000000800000",
      "type": "0x2",
      "transactionHash": "0x9e4838e3fef621ceb5d43ed75b17a0f14a21846d476bef5d026e2ca18c03c780",
      "transactionIndex": "0xc6",
      "blockHash": "0x0000000000000000000000000000000000000000000000000000000000000000",
      "blockNumber": "0x29c22cf",
      "gasUsed": "0x2960d",
      "effectiveGasPrice": "0x4c4b72",
      "blobGasUsed": "0x3a19",
      "from": "0x845e8c808e22469aaf07ace9ab7d26c875fbe44f",
      "to": "0x62b0afe36fc110011a0f4fb1a146b8f0f7c12fbf",
      "contractAddress": null,
      "daFootprintGasScalar": "0x8b",
      "l1BaseFeeScalar": "0x8dd",
      "l1BlobBaseFee": "0x753e93",
      "l1BlobBaseFeeScalar": "0x101c12",
      "l1Fee": "0x4d5e8ed6",
      "l1GasPrice": "0x7fe25f2",
      "l1GasUsed": "0x6b2"
    },
    {
      "status": "0x1",
      "cumulativeGasUsed": "0x4155978",
      "logs": [
        {
          "address": "0x62b0afe36fc110011a0f4fb1a146b8f0f7c12fbf",
          "topics": [
            "0xb10d2a24a8c3686841e966f0c2c64c385cfaecb50a09b16aa3579bfcf3989dcd",
            "0x000000000000000000000000a822155c242b3a307086f1e2787e393d78a0b5ac"
          ],
          "data": "0x",
          "blockHash": "0x0000000000000000000000000000000000000000000000000000000000000000",
          "blockNumber": "0x29c22cf",
          "blockTimestamp": "0x69c2a281",
          "transactionHash": "0xb5cfa613be0848e578ec1dd4a16df908773d442081265e3e511857952324f581",
          "transactionIndex": "0xc7",
          "logIndex": "0x664",
          "removed": false
        }
      ],
      "logsBloom": "0x00000000004000000000000000000000000008000000000000000000000000000000000000000000000000000000000000000000000000000000000000000000000000000000000000000000000000000000000000000000000000800000000000000000000000000000000000000000000000000000000020001000000000000000000000000000000000000000000000000000004000000000000020000000000000000000000000000000000000000000000000000000000000000000000000000000000000000000000000000000100000000000000000000000000000000000000000000000000000000000100000000000000000000000000000000000",
      "type": "0x2",
      "transactionHash": "0xb5cfa613be0848e578ec1dd4a16df908773d442081265e3e511857952324f581",
      "transactionIndex": "0xc7",
      "blockHash": "0x0000000000000000000000000000000000000000000000000000000000000000",
      "blockNumber": "0x29c22cf",
      "gasUsed": "0x11199",
      "effectiveGasPrice": "0x4c4b72",
      "blobGasUsed": "0x364c",
      "from": "0x845e8c808e22469aaf07ace9ab7d26c875fbe44f",
      "to": "0x62b0afe36fc110011a0f4fb1a146b8f0f7c12fbf",
      "contractAddress": null,
      "daFootprintGasScalar": "0x8b",
      "l1BaseFeeScalar": "0x8dd",
      "l1BlobBaseFee": "0x753e93",
      "l1BlobBaseFeeScalar": "0x101c12",
      "l1Fee": "0x4d5e8ed6",
      "l1GasPrice": "0x7fe25f2",
      "l1GasUsed": "0x640"
    },
    {
      "status": "0x1",
      "cumulativeGasUsed": "0x41631a4",
      "logs": [
        {
          "address": "0x62b0afe36fc110011a0f4fb1a146b8f0f7c12fbf",
          "topics": [
            "0xb10d2a24a8c3686841e966f0c2c64c385cfaecb50a09b16aa3579bfcf3989dcd",
            "0x0000000000000000000000008c00eae9b9a2f89bddaae4f6884c716562c7ce93"
          ],
          "data": "0x",
          "blockHash": "0x0000000000000000000000000000000000000000000000000000000000000000",
          "blockNumber": "0x29c22cf",
          "blockTimestamp": "0x69c2a281",
          "transactionHash": "0xa645fe856d9e483d626f8705e3eb96802e6557ebd1ccba5aa0567dd556b512b8",
          "transactionIndex": "0xc8",
          "logIndex": "0x665",
          "removed": false
        }
      ],
      "logsBloom": "0x00000000004000000000000000000000000008000000000000000000000000000000000000000000000000000000000000000000000000000000000000000000000000000000000000000000000000000000000000000000040000000000000000000000000000000000000000000000000000000000000020000000000000000000000000000000000000000000000000000000004000000000000000000000000000000000000000000000000000000000000000000000000000000000000000000000000000000000000000000000100000000000000000000000000000000000000000000000800000000000100000000000000000000008000000000000",
      "type": "0x2",
      "transactionHash": "0xa645fe856d9e483d626f8705e3eb96802e6557ebd1ccba5aa0567dd556b512b8",
      "transactionIndex": "0xc8",
      "blockHash": "0x0000000000000000000000000000000000000000000000000000000000000000",
      "blockNumber": "0x29c22cf",
      "gasUsed": "0xd82c",
      "effectiveGasPrice": "0x4c4b72",
      "blobGasUsed": "0x364c",
      "from": "0x845e8c808e22469aaf07ace9ab7d26c875fbe44f",
      "to": "0x62b0afe36fc110011a0f4fb1a146b8f0f7c12fbf",
      "contractAddress": null,
      "daFootprintGasScalar": "0x8b",
      "l1BaseFeeScalar": "0x8dd",
      "l1BlobBaseFee": "0x753e93",
      "l1BlobBaseFeeScalar": "0x101c12",
      "l1Fee": "0x4d5e8ed6",
      "l1GasPrice": "0x7fe25f2",
      "l1GasUsed": "0x640"
    },
    {
      "status": "0x1",
      "cumulativeGasUsed": "0x4171347",
      "logs": [
        {
          "address": "0x62b0afe36fc110011a0f4fb1a146b8f0f7c12fbf",
          "topics": [
            "0xb10d2a24a8c3686841e966f0c2c64c385cfaecb50a09b16aa3579bfcf3989dcd",
            "0x000000000000000000000000472c382550780cd30e1d27155b96fa4b63d9247e"
          ],
          "data": "0x",
          "blockHash": "0x0000000000000000000000000000000000000000000000000000000000000000",
          "blockNumber": "0x29c22cf",
          "blockTimestamp": "0x69c2a281",
          "transactionHash": "0x16b7bafd7718c34ff2c9f3782720df19b4d37c2fbb860bcdbdba9090f284f249",
          "transactionIndex": "0xc9",
          "logIndex": "0x666",
          "removed": false
        }
      ],
      "logsBloom": "0x00000000004000000000000000000000000008000000000000000000000000000000000000000000004000000000000000000000000000000000000000000000000000000000000000000000000000000000000000000000000000000000000000000000000000000000000000000000000000000000000020000000000000000000000000000000000000000000000000000000004000000000004000000000000000000000000000000000000000000000000000000000000000000000000000000000000000000000000000000000100000000000000000000000000000000000000000000000000000000020100000000000000000000000000000000000",
      "type": "0x2",
      "transactionHash": "0x16b7bafd7718c34ff2c9f3782720df19b4d37c2fbb860bcdbdba9090f284f249",
      "transactionIndex": "0xc9",
      "blockHash": "0x0000000000000000000000000000000000000000000000000000000000000000",
      "blockNumber": "0x29c22cf",
      "gasUsed": "0xe1a3",
      "effectiveGasPrice": "0x4c4b72",
      "blobGasUsed": "0x364c",
      "from": "0x845e8c808e22469aaf07ace9ab7d26c875fbe44f",
      "to": "0x62b0afe36fc110011a0f4fb1a146b8f0f7c12fbf",
      "contractAddress": null,
      "daFootprintGasScalar": "0x8b",
      "l1BaseFeeScalar": "0x8dd",
      "l1BlobBaseFee": "0x753e93",
      "l1BlobBaseFeeScalar": "0x101c12",
      "l1Fee": "0x4d5e8ed6",
      "l1GasPrice": "0x7fe25f2",
      "l1GasUsed": "0x640"
    },
    {
      "status": "0x1",
      "cumulativeGasUsed": "0x417fe55",
      "logs": [
        {
          "address": "0x62b0afe36fc110011a0f4fb1a146b8f0f7c12fbf",
          "topics": [
            "0xb10d2a24a8c3686841e966f0c2c64c385cfaecb50a09b16aa3579bfcf3989dcd",
            "0x00000000000000000000000009defc9e6ffc5e41f42e0d50512eef9354523e0e"
          ],
          "data": "0x",
          "blockHash": "0x0000000000000000000000000000000000000000000000000000000000000000",
          "blockNumber": "0x29c22cf",
          "blockTimestamp": "0x69c2a281",
          "transactionHash": "0x3d0ce992ced5f04780968f6e52abb267792a249a7ccdda9027dd69018f5709b7",
          "transactionIndex": "0xca",
          "logIndex": "0x667",
          "removed": false
        }
      ],
      "logsBloom": "0x00000000004000000000000000000000000008000000000000000000000000000000000000000000000000000000000000000000000000000000000000000000000001000000000000000000000000000000000000000000000000000000000000000000000000000000000000000000000000000000000020000000000000000000000040000000000000000000000000000000004000000000000000000000000000000000000000000000000000000000000000000000000000000000000000000000000000000000000000000000100000000000000000000000000000000000000000000000000000000000100000000000000000000000800000000000",
      "type": "0x2",
      "transactionHash": "0x3d0ce992ced5f04780968f6e52abb267792a249a7ccdda9027dd69018f5709b7",
      "transactionIndex": "0xca",
      "blockHash": "0x0000000000000000000000000000000000000000000000000000000000000000",
      "blockNumber": "0x29c22cf",
      "gasUsed": "0xeb0e",
      "effectiveGasPrice": "0x4c4b72",
      "blobGasUsed": "0x364c",
      "from": "0x845e8c808e22469aaf07ace9ab7d26c875fbe44f",
      "to": "0x62b0afe36fc110011a0f4fb1a146b8f0f7c12fbf",
      "contractAddress": null,
      "daFootprintGasScalar": "0x8b",
      "l1BaseFeeScalar": "0x8dd",
      "l1BlobBaseFee": "0x753e93",
      "l1BlobBaseFeeScalar": "0x101c12",
      "l1Fee": "0x4d5e8ed6",
      "l1GasPrice": "0x7fe25f2",
      "l1GasUsed": "0x640"
    },
    {
      "status": "0x1",
      "cumulativeGasUsed": "0x418710e",
      "logs": [
        {
          "address": "0x62b0afe36fc110011a0f4fb1a146b8f0f7c12fbf",
          "topics": [
            "0x8be0079c531659141344cd1fd0a4f28419497f9722a3daafe3b4186f6b6457e0",
            "0x000000000000000000000000845e8c808e22469aaf07ace9ab7d26c875fbe44f",
            "0x00000000000000000000000011ce532845ce0eacda41f72fdc1c88c335981442"
          ],
          "data": "0x",
          "blockHash": "0x0000000000000000000000000000000000000000000000000000000000000000",
          "blockNumber": "0x29c22cf",
          "blockTimestamp": "0x69c2a281",
          "transactionHash": "0x08d7ce107e19f05a6b32b6d6a6e8ee40ec9c3b8416c20f4bff73f937d8bf53e7",
          "transactionIndex": "0xcb",
          "logIndex": "0x668",
          "removed": false
        }
      ],
      "logsBloom": "0x00000000000000000000000000000000000008000000000000800040000000000000000000000000000000000000000000000000000000000000000000000000000000000000800000000000000000000001000000000000000000000000000000000000000000000000000000000000000000000000008000000010000000400000000000000000000000000000000000000000004000000000000000000000000000000000000000000000000080000000000000000000000000000000000000000000000000000000000000000000100000000000000000000000000000000000000000000400000000000000000000000000000000000000000000000000",
      "type": "0x2",
      "transactionHash": "0x08d7ce107e19f05a6b32b6d6a6e8ee40ec9c3b8416c20f4bff73f937d8bf53e7",
      "transactionIndex": "0xcb",
      "blockHash": "0x0000000000000000000000000000000000000000000000000000000000000000",
      "blockNumber": "0x29c22cf",
      "gasUsed": "0x72b9",
      "effectiveGasPrice": "0x4c4b72",
      "blobGasUsed": "0x364c",
      "from": "0x845e8c808e22469aaf07ace9ab7d26c875fbe44f",
      "to": "0x62b0afe36fc110011a0f4fb1a146b8f0f7c12fbf",
      "contractAddress": null,
      "daFootprintGasScalar": "0x8b",
      "l1BaseFeeScalar": "0x8dd",
      "l1BlobBaseFee": "0x753e93",
      "l1BlobBaseFeeScalar": "0x101c12",
      "l1Fee": "0x4d5e8ed6",
      "l1GasPrice": "0x7fe25f2",
      "l1GasUsed": "0x640"
    }
  ],
  "libraries": [],
  "pending": [],
  "returns": {},
  "timestamp": 1774363264361,
  "chain": 8453,
  "commit": "9a08612"
}